:100000000C9462000C948A000C948A000C948A0070
:100010000C948A000C948A000C948A000C948A0038
:100020000C948A000C948A000C948A000C948A0028
:100030000C948A000C948A000C948A000C948A0018
:100040000C94DC060C948A000C944C070C94260744
:100050000C948A000C948A000C948A000C948A00F8
:100060000C948A000C948A000000000023002600F3
:10007000290000000008000201000003040700003E
:1000800000000000000000000000250028002B00F8
:1000900000000000240027002A00040404040404D3
:1000A0000404020202020202030303030303010227
:1000B00004081020408001020408102001020408F6
:1000C00010207E0711241FBECFEFD8E0DEBFCDBFCA
:1000D00011E0A0E0B1E0E8E3F3E102C005900D9289
:1000E000A836B107D9F722E0A8E6B1E001C01D9219
:1000F000AA33B207E1F710E0C2E6D0E004C02197CE
:10010000FE010E949409C136D107C9F70E94E80791
:100110000C949A090C94000090E0FC01E255FF4F0A
:10012000249186569F4FFC018491882399F090E09A
:10013000880F991FFC01E057FF4FA591B491FC0176
:10014000EA57FF4F859194918FB7F894EC91E22B89
:10015000EC938FBF0895833081F028F4813099F0BB
:100160008230A9F008958730A9F08830C9F0843032
:10017000B1F4809180008F7D03C0809180008F77E3
:1001800080938000089584B58F7784BD089584B5E9
:100190008F7DFBCF8091B0008F778093B000089562
:1001A0008091B0008F7DF9CF1F93CF93DF93282FDD
:1001B00030E0F901EE58FF4F8491F901E255FF4F0D
:1001C000D491F901E656FF4FC491CC23A9F0162F24
:1001D00081110E94AB00EC2FF0E0EE0FFF1FEA57F9
:1001E000FF4FA591B4918FB7F894EC91111108C00D
:1001F000D095DE23DC938FBFDF91CF911F910895BF
:10020000DE2BF8CF3FB7F89480916C0190916D018F
:10021000A0916E01B0916F0126B5A89B05C02F3F3C
:1002200019F00196A11DB11D3FBFBA2FA92F982F1C
:100230008827BC01CD01620F711D811D911D42E017
:10024000660F771F881F991F4A95D1F708958F92DF
:100250009F92AF92BF92CF92DF92EF92FF926B018B
:100260007C010E9402014B015C01C114D104E10434
:10027000F104B9F00E940201681979098A099B0901
:10028000683E73408105910580F321E0C21AD108D0
:10029000E108F10888EE880E83E0981EA11CB11CCD
:1002A000E4CFFF90EF90DF90CF90BF90AF909F9002
:1002B0008F900895AF92BF92CF92DF92EF92FF920C
:1002C0000F931F93CF93DF936C017B018B01040F7E
:1002D000151FEB015E01AE18BF08C017D10759F01A
:1002E0006991D601ED91FC910190F081E02DC6015C
:1002F0000995892B79F7C501DF91CF911F910F9156
:10030000FF90EF90DF90CF90BF90AF900895FC01E9
:10031000538D448D252F30E0842F90E0821B930B6A
:10032000541710F0CF96089501970895FC01918D10
:10033000828D981761F0A28DAE0FBF2FB11D5D9613
:100340008C91928D9F5F9F73928F90E008958FEFB5
:100350009FEF0895FC01918D828D981731F0828D69
:10036000E80FF11D858D90E008958FEF9FEF0895C0
:10037000FC01918D228D892F90E0805C9F4F821B24
:1003800091098F739927089584E791E00E94B8013D
:1003900021E0892B09F420E0822F089580E090E08D
:1003A000892B29F00E94C40181110C94000008954A
:1003B000FC01A48DA80FB92FB11DA35ABF4F2C91DA
:1003C000848D90E001968F739927848FA689B789D1
:1003D0002C93A089B1898C91837080648C93938DC8
:1003E000848D981306C00288F389E02D80818F7D6B
:1003F00080830895EF92FF920F931F93CF93DF9323
:10040000EC0181E0888F9B8D8C8D98131AC0E88950
:10041000F989808185FF15C09FB7F894EE89FF891F
:100420006083E889F98980818370806480839FBFBD
:1004300081E090E0DF91CF911F910F91FF90EF90BD
:100440000895F62E0B8D10E00F5F1F4F0F731127CD
:10045000E02E8C8D8E110CC00FB607FCFACFE88908
:10046000F989808185FFF5CFCE010E94D801F1CFB7
:10047000EB8DEC0FFD2FF11DE35AFF4FF0829FB77C
:10048000F8940B8FEA89FB8980818062CFCFCF936C
:10049000DF93EC01888D8823B9F0AA89BB89E889AC
:1004A000F9898C9185FD03C0808186FD0DC00FB652
:1004B00007FCF7CF8C9185FFF2CF808185FFEDCFD0
:1004C000CE010E94D801E9CFDF91CF910895DC01E0
:1004D00030E020E08FEF9FEF26173707C1F0ED9156
:1004E000FC911197E20FF31F4081842748E0FC0143
:1004F000E170FF2796958795EF2B21F051E0852736
:1005000050EA9527415099F72F5F3F4FE5CF089567
:10051000DC011696ED91FC91E60FF11D9081818131
:100520000895DC011296ED91FC91848195819827C4
:10053000892798279C01235031092C3F310510F061
:1005400090E080E00895DC011296ED91FC91CB01E2
:10055000039714828C3F910510F0158208956583EE
:100560000895DC011496ED91FC9115972081206887
:1005700020831496ED91FC91618363E070E00C940C
:10058000A302CF92DF92EF92FF920F931F93CF932C
:10059000DF93EC018B017A0160E00E9488026C011C
:1005A00062E0CE010E9488020115110519F0E114E4
:1005B000F10461F461E0CE01DF91CF911F910F91C1
:1005C000FF90EF90DF90CF900C94B1029C012150EE
:1005D00031092D37310510F063E0EDCFE816F9064B
:1005E00028F0E81AF90AEC14FD0410F462E0E3CFF5
:1005F000682F660FEE81FF816083F601EE0FFF1F0B
:10060000E00FF11F41E050E030E020E07081118107
:100610003296AE81BF81A40FB51F1C9311967C93B7
:100620002F5F3F4F4E5F5F4F8217930779F770E060
:100630006D5F7F4FCE01DF91CF911F910F91FF90A2
:10064000EF90DF90CF900C94A3025F926F927F9215
:100650008F929F92AF92BF92CF92DF92EF92FF92D2
:100660000F931F93CF93DF93EC017B016A0160E04E
:100670000E9488028C0162E0CE010E948802E1148F
:10068000F10419F0C114D10499F461E0CE01DF91B5
:10069000CF911F910F91FF90EF90DF90CF90BF907F
:1006A000AF909F908F907F906F905F900C94B1026D
:1006B0009C0121503109203D374010F063E0E6CF26
:1006C000C816D90628F0C81AD90AC016D10610F4DF
:1006D00062E0DCCF6C0127E0C20ED11CB3E0D694FF
:1006E000C794BA95E1F7EE81FF81C082DD2436011F
:1006F00023E0660C771C2A95E1F730E020E041E02A
:1007000050E060E070E06216730659F1E22FE77086
:100710004A015B0104C0880C991CAA1CBB1CEA9509
:10072000D2F7F901A3E0F695E795AA95E1F7EF5F17
:10073000AE81BF81EA0FFB2FF11D508028173907CA
:1007400068F4D801A20FB31FAE0DBF1DAC91AA2350
:1007500029F0852880822F5F3F4FD5CF8094852058
:10076000F9CFB6016D5F7F4FCE01DF91CF911F9121
:100770000F91FF90EF90DF90CF90BF90AF909F9040
:100780008F907F906F905F900C94A3028F929F92B6
:10079000AF92BF92CF92DF92EF92FF920F931F938F
:1007A000CF93DF93CDB7DEB7CE50D1400FB6F894DC
:1007B000DEBF0FBECDBFCE010F969A838983069709
:1007C0009C838B8307969E838D83019698878F8366
:1007D0006EEF7FEF40970E94A3028FB7F894C0900E
:1007E0007001D0907101E0907201F09073018FBFA1
:1007F0008091110290911202DC01ED91FC91008434
:10080000F185E02D0995892B81F52FB7F89480911A
:10081000700190917101A0917201B09173012FBF8D
:100820008C199D09AE09BF09409121025091220205
:10083000609123027091240284179507A607B707D9
:10084000B8F2C25FDE4F0FB6F894DEBF0FBECDBF69
:10085000DF91CF911F910F91FF90EF90DF90CF909C
:10086000BF90AF909F908F9008950E9402016B01FE
:100870007C0110E000E08091110290911202DC01F5
:10088000ED91FC910084F185E02D0995892BB1F063
:100890000E9402016B017C01809111029091120271
:1008A000DC01ED91FC910284F385E02D0995E9814D
:1008B000FA81E00FF11F80830F5F1F4F0E9402013A
:1008C0006C197D098E099F0980901502909016027F
:1008D000A0901702B090180286169706A806B906CF
:1008E00020F00F3F110539F230F2B8016250710962
:1008F000CE0101960E94A3020E9402016C197D099B
:100900008E099F090091190210911A0220911B0271
:1009100030911C02601771078207930768F380917A
:10092000110290911202DC01ED91FC910084F1859D
:10093000E02D0995892B39F06EEF7FEFCE010196FE
:100940000E94A3027ECFCE0101960E9491027C01FB
:1009500009811A81BC01CE0101960E946702F8014B
:10096000EE0DFF1D218130812327322723272817F1
:10097000390711F7EB81FC81868190913502981738
:1009800011F081115ECFED81FE81E081E150E03117
:1009900008F0D4C0F0E0E153FB4F0C949409DF045D
:1009A0005D05690579058505BA059E059E059E05C7
:1009B0009E059E059E059E059E05DE054006882334
:1009C00061F040912D0250912E02609125027091AC
:1009D0002602CE0101960E942503EB81FC818681CF
:1009E000882309F42ECF60913602709137028091EE
:1009F0003802909139020E942701CE0101960E948F
:100A000091028C01BC01CE0101960E946702E9812E
:100A1000FA81E00FF11F8083E981FA81E00FF11F75
:100A200091838091130287FD03C061E00E94D4008E
:100A30008091140287FD03C061E00E94D400009100
:100A4000110210911202D801ED91FC91E280F38025
:100A5000CE0101960E949102009709F002966981E9
:100A60007A81AC01C801F70109958091110290913A
:100A70001202DC01ED91FC910680F781E02D0995D1
:100A800080911D0290911E028230910538F0880FEE
:100A9000991F880F991F05970197F1F7809113020D
:100AA00087FD03C060E00E94D4008091140287FD9E
:100AB000C8CE60E00E94D400C4CE882309F48DCF54
:100AC00040912F02509130026091270270912802CC
:100AD00080CF882309F481CF4091310250913202B6
:100AE0006091290270912A02CE0101960E94C102F2
:100AF00074CF882309F471CF4091330250913402AE
:100B000060912B0270912C02EFCF60E0CE01019634
:100B10000E9488028C0162E0CE0101960E94880248
:100B200020912502309126022115310539F040919E
:100B30002D0250912E024115510511F461E007C0BC
:100B4000009751F08115BFEF9B0731F063E0CE01B4
:100B500001960E94B10241CF0417150710F062E020
:100B6000F6CF200F311F41E0892B09F440E0F90155
:100B7000408333CF60E0CE0101960E9488028C0151
:100B800062E0CE0101960E948802209129023091F4
:100B90002A022115310591F2409131025091320221
:100BA0004115510559F204171507C8F6000F111F1A
:100BB000200F311FD9018D939C930FCF60E0CE01A0
:100BC00001960E9488028C0162E0CE0101960E948B
:100BD0008802E0912502F0912602309709F4AECF09
:100BE00020912D0230912E022115310509F4A6CF56
:100BF000AC0141505109403BB7E05B0708F0A6CF7C
:100C0000AF81B88514966C91485F5F4FB3E05695FD
:100C10004795BA95E1F76417150609F097CF28179D
:100C2000390708F49CCF281B390B2017310708F42B
:100C300096CFE00FF11F50E040E09A01A3E0369517
:100C40002795AA95E1F7AF81B885A20FB31F159636
:100C50002C9130E0BA016770772702C0359527954F
:100C60006A95E2F7217021934F5F5F4F84179507D4
:100C700021F766E070E0CE0101960E94A302ADCE9E
:100C800060E0CE0101960E9488028C0162E0CE01F4
:100C900001960E948802E0902902F0902A02E11455
:100CA000F10409F44BCF2091310230913202211529
:100CB000310509F443CFAC01415051094B3751057F
:100CC00008F044CFEF81F8856481AC01440F551FD3
:100CD0006417150609F03ACF2817390708F43FCFF3
:100CE000281B390B2017310708F439CF000F111FCB
:100CF000E00EF11E880F15E0180F05E0602FCE0101
:100D000001960E948802F701819391937F010E5F03
:100D10001013F4CFAECFFC0101900020E9F731971A
:100D2000AF01481B590BBC0184E791E00C945A01B8
:100D30008F929F92AF92BF920F931F93CF93DF93A7
:100D4000CDB7DEB7A1970FB6F894DEBF0FBECDBF0B
:100D500019A2423008F44AE08E010F5D1F4F842E25
:100D6000912CB12CA12CA50194010E947209E62FAF
:100D7000B901CA01EA30F4F4E05DD801EE938D01C7
:100D8000232B242B252B79F790E080E0109719F086
:100D9000CD010E948B06A1960FB6F894DEBF0FBE60
:100DA000CDBFDF91CF911F910F91BF90AF909F90DA
:100DB0008F900895E95CE1CF1F920F920FB60F92CA
:100DC00011242F933F938F939F93AF93BF93809161
:100DD000700190917101A0917201B09173013091F5
:100DE0006B0123E0230F2D3758F50196A11DB11D8E
:100DF00020936B018093700190937101A093720115
:100E0000B093730180916C0190916D01A0916E017E
:100E1000B0916F010196A11DB11D80936C0190935B
:100E20006D01A0936E01B0936F01BF91AF919F913F
:100E30008F913F912F910F900FBE0F901F9018959B
:100E400026E8230F0296A11DB11DD2CF1F920F924B
:100E50000FB60F9211242F933F934F935F936F938D
:100E60007F938F939F93AF93BF93EF93FF9384E709
:100E700091E00E94D801FF91EF91BF91AF919F91B6
:100E80008F917F916F915F914F913F912F910F9033
:100E90000FBE0F901F9018951F920F920FB60F92D2
:100EA00011242F938F939F93EF93FF93E0918401ED
:100EB000F09185018081E0918A01F0918B0182FDA2
:100EC0001BC0908180918D018F5F8F7320918E0167
:100ED000821741F0E0918D01F0E0EC58FE4F958FC4
:100EE00080938D01FF91EF919F918F912F910F90A2
:100EF0000FBE0F901F9018958081F4CFA4E7B1E04A
:100F000013961C921E92129748EE53E060E070E038
:100F100014964D935D936D937C93179785E191E0C3
:100F200011969C938E9385EC90E01D969C938E93E6
:100F30001C9784EC90E01F969C938E931E9780ECF8
:100F400090E051969C938E93509781EC90E053964D
:100F50009C938E93529782EC90E055969C938E933F
:100F6000549786EC90E057969C938E93569759969B
:100F70001C9259975A961C925A975B961C925B97B3
:100F80005C961C925C97E1E1F2E0B183A083148649
:100F9000158616861786108A118A128A138A8FEF91
:100FA00082838383158A148A178A168A118E108E7B
:100FB000138E128E158E148E178E168E11A210A2FD
:100FC00013A212A214A215A216A217A210A6089587
:100FD000789484B5826084BD84B5816084BD85B514
:100FE000826085BD85B5816085BD80916E00816020
:100FF00080936E00109281008091810082608093C6
:1010000081008091810081608093810080918000C7
:101010008160809380008091B10084608093B100F2
:101020008091B00081608093B00080917A008460EC
:1010300080937A0080917A00826080937A00809118
:101040007A00816080937A0080917A008068809332
:101050007A001092C1008AE691E090932602809374
:10106000250281E090E090932E0280932D022CE0E7
:1010700031E0309328022093270225E030E03093BE
:10108000300220932F0228E631E030932A02209389
:101090002902909332028093310280E091E0909394
:1010A0002C0280932B0286E090E090933402809390
:1010B0003302E0918401F091850182E08083E09128
:1010C0008001F09181011082E0918201F091830111
:1010D0008FEC808310928C01E0918801F09189015E
:1010E00086E08083E0918601F091870180818061B4
:1010F0008083E0918601F091870180818860808300
:10110000E0918601F0918701808180688083E09181
:101110008601F091870180818F7D808381E08093BB
:1011200035028CE29AE0A0E0B0E080931502909343
:101130001602A0931702B09318028FE492E1A0E088
:10114000B0E08093190290931A02A0931B02B0930F
:101150001C028091130287FD07C00E948C0060E092
:10116000809113020E94D4008091140287FD07C071
:101170000E948C0060E0809114020E94D4000E94C2
:1011800002016B017C018091110290911202DC013D
:10119000ED91FC910084F185E02D09951816190652
:1011A0007CF40E9402016B017C01809111029091FC
:1011B0001202DC01ED91FC910284F385E02D09958A
:1011C0000E9402016C197D098E099F090091190284
:1011D00010911A0220911B0230911C0260177107B6
:1011E0008207930780F283E291E00E948B068AE3F4
:1011F00091E00E948B068DE391E00E948B064AE00D
:1012000061E070E080E090E00E9498068AE391E05F
:101210000E948B0668EE73E080E090E00E94270158
:1012200004E710E090EBE92E90E0F92E2CE9C22EB5
:1012300020E0D22EC0E0D0E084E791E00E94B80127
:10124000181619060CF043C00E94C60380916A016B
:10125000882361F110926A01F8018491F701A4904A
:10126000F601B49070E060E0BB2099F081110E941B
:10127000AB00EB2DF0E0EE0FFF1FE859FF4FA591FB
:10128000B4918C91A82291E080E009F490E0692F5C
:10129000782FF1E06F2782E00E94D40088E491E08B
:1012A0000E948B068AE391E00E948B0684E591E020
:1012B0000E948B06609168017091690190E080E066
:1012C0004AE00E9498068AE391E00E948B062097EC
:1012D00009F4B2CF0E94C401882309F4ADCF0E9463
:1012E0000000AACFA1E21A2EAA1BBB1BFD010DC054
:1012F000AA1FBB1FEE1FFF1FA217B307E407F507C6
:1013000020F0A21BB30BE40BF50B661F771F881FA1
:10131000991F1A9469F760957095809590959B0137
:10132000AC01BD01CF010895EE0FFF1F0590F491B0
:08133000E02D0994F894FFCFB1
:10133800010002000300000000000000010000009E
:101348000100000000FA015A0187014702B801961E
:1013580001AA015365636F6E6461727920426F61FF
:10136800726420536B65746368000D0A00426F61F4
:1013780072642049443A20004C4544204368616E19
:1013880067656400486F6C64696E672052656769B9
:08139800737465723A20000035
:00000001FF
