:020000040000FA
:100000000C945D000C9485000C9485000C94B60350
:100010000C94B6030C94B6030C9485000C948500E4
:100020000C9485000C9485000C9485000C9485003C
:100030000C9485000C9485000C9485000C9485002C
:100040000C9414030C9485000C9484030C945E03AC
:100050000C9485000C9485000C9485000C9485000C
:100060000C9485000C94850000000008000201003B
:100070000003040700000000000000000000000072
:10008000250028002B0000000000240027002A0083
:10009000040404040404040402020202020203032E
:1000A0000303030301020408102040800102040836
:1000B0001020010204081020190411241FBECFEFE4
:1000C000D8E0DEBFCDBF11E0A0E0B1E0EAE5F3E1AA
:1000D00002C005900D92A631B107D9F724E0A6E140
:1000E000B1E001C01D92A537B207E1F710E0CDE500
:1000F000D0E004C02197FE010E94A509CC35D107AC
:10010000C9F70E9476040C94AB090C940000FC0122
:10011000A089B18982E08C93A485B5851C92A685BF
:10012000B7858FEC8C93108EA489B5896C93A289C6
:10013000B3898C9180618C93A289B3898C918860FA
:100140008C93A289B3898C9180688C930288F389FF
:10015000E02D80818F7D8083089590E0FC01EC5537
:10016000FF4F249180579F4FFC018491882399F081
:1001700090E0880F991FFC01EA57FF4FA591B491B9
:10018000FC01E458FF4F859194918FB7F894EC915E
:10019000E22BEC938FBF0895482FECE5F3E020E0CD
:1001A0008FEF9FEF241791F03191832738E0BC0146
:1001B0006170772796958795672B21F051E0852709
:1001C00050EA9527315099F72F5FECCF089590E0D2
:1001D000FC01E859FF4F2491FC01EC55FF4F34918D
:1001E000FC01E057FF4FE491EE23C9F0222339F0E0
:1001F000233001F1A8F4213019F1223029F1F0E087
:10020000EE0FFF1FE458FF4FA591B4918FB7F894FC
:10021000EC91611126C030953E233C938FBF089529
:100220002730A9F02830C9F0243049F780918000A8
:100230008F7D03C0809180008F7780938000DFCF17
:1002400084B58F7784BDDBCF84B58F7DFBCF809164
:10025000B0008F778093B000D2CF8091B0008F7DB7
:10026000F9CF3E2BDACFCF93DF9390915C039923A4
:1002700009F44BC0C82F0E94CC00D0E0FE01EB5A1D
:10028000FC4F8783908780915B038F3F19F061E07B
:100290000E94E7008091590390915A03AE014E5F8E
:1002A0005F4FDC01ED91FC910280F381E02D6CE564
:1002B00073E009958091590390915A03DC01ED9107
:1002C000FC910680F781E02D099580915B038F3FBB
:1002D00019F060E00E94E7008091590390915A0361
:1002E000DC01ED91FC910084F185E02D0995892BCD
:1002F00061F08091590390915A03DC01ED91FC91DA
:100300000284F385E02D0995E7CFDF91CF91089521
:10031000E5E5F3E0908590689087818783E00C9411
:1003200033013FB7F8948091B4029091B502A09147
:10033000B602B091B70226B5A89B05C02F3F19F0B1
:100340000196A11DB11D3FBFBA2FA92F982F882755
:10035000BC01CD01620F711D811D911D42E0660F30
:10036000771F881F991F4A95D1F70895AF92BF92C2
:10037000CF92DF92EF92FF920F931F93CF93DF9371
:100380006C017B018B01040F151FEB015E01AE18A0
:10039000BF08C017D10759F06991D601ED91FC91C2
:1003A0000190F081E02DC6010995892B79F7C501EF
:1003B000DF91CF911F910F91FF90EF90DF90CF9041
:1003C000BF90AF900895FC01538D448D252F30E0F0
:1003D000842F90E0821B930B541710F0CF96089552
:1003E00001970895FC01918D828D981761F0A28D7F
:1003F000AE0FBF2FB11D5D968C91928D9F5F9F7345
:10040000928F90E008958FEF9FEF0895FC01918DFA
:10041000828D981731F0828DE80FF11D858D90E067
:1004200008958FEF9FEF0895FC01918D228D892F04
:1004300090E0805C9F4F821B91098F7399270895EC
:1004400088EB92E00E94140221E0892B09F420E05D
:10045000822F089580E090E0892B29F00E942002ED
:1004600081110C9400000895FC01A48DA80FB92FF0
:10047000B11DA35ABF4F2C91848D90E001968F73CC
:100480009927848FA689B7892C93A089B1898C91EB
:10049000837080648C93938D848D981306C002883A
:1004A000F389E02D80818F7D80830895EF92FF9204
:1004B0000F931F93CF93DF93EC0181E0888F9B8D87
:1004C0008C8D98131AC0E889F989808185FF15C041
:1004D0009FB7F894EE89FF896083E889F989808164
:1004E0008370806480839FBF81E090E0DF91CF9133
:1004F0001F910F91FF90EF900895F62E0B8D10E055
:100500000F5F1F4F0F731127E02E8C8D8E110CC0C3
:100510000FB607FCFACFE889F989808185FFF5CF0E
:10052000CE010E943402F1CFEB8DEC0FFD2FF11DB7
:10053000E35AFF4FF0829FB7F8940B8FEA89FB894B
:1005400080818062CFCFCF93DF93EC01888D8823A9
:10055000B9F0AA89BB89E889F9898C9185FD03C026
:10056000808186FD0DC00FB607FCF7CF8C9185FF0B
:10057000F2CF808185FFEDCFCE010E943402E9CF1A
:10058000DF91CF910895FC0101900020E9F73197A8
:10059000AF01481B590BBC0188EB92E00C94B601EB
:1005A0008F929F92AF92BF920F931F93CF93DF933F
:1005B000CDB7DEB7A1970FB6F894DEBF0FBECDBFA3
:1005C00019A2423008F44AE08E010F5D1F4F842EBD
:1005D000912CB12CA12CA50194010E948309E62F36
:1005E000B901CA01EA30F4F4E05DD801EE938D015F
:1005F000232B242B252B79F790E080E0109719F01E
:10060000CD010E94C302A1960FB6F894DEBF0FBEC3
:10061000CDBFDF91CF911F910F91BF90AF909F9071
:100620008F900895E95CE1CF1F920F920FB60F9261
:1006300011242F933F938F939F93AF93BF938091F8
:10064000B0029091B102A091B202B091B302309188
:10065000AF0223E0230F2D3758F50196A11DB11DE0
:100660002093AF028093B0029093B102A093B202A4
:10067000B093B3028091B4029091B502A091B602FA
:10068000B091B7020196A11DB11D8093B402909361
:10069000B502A093B602B093B702BF91AF919F91FC
:1006A0008F913F912F910F900FBE0F901F90189533
:1006B00026E8230F0296A11DB11DD2CF1F920F92E3
:1006C0000FB60F9211242F933F934F935F936F9325
:1006D0007F938F939F93AF93BF93EF93FF9388EB99
:1006E00092E00E943402FF91EF91BF91AF919F91F0
:1006F0008F917F916F915F914F913F912F910F90CB
:100700000FBE0F901F9018951F920F920FB60F9269
:1007100011242F938F939F93EF93FF93E091C8023F
:10072000F091C9028081E091CE02F091CF0282FD6A
:100730001BC090818091D1028F5F8F732091D20274
:10074000821741F0E091D102F0E0E854FD4F958F1F
:100750008093D102FF91EF919F918F912F910F90F4
:100760000FBE0F901F9018958081F4CF1F920F92AB
:100770000FB60F9211242F933F938F939F93AF93B4
:10078000BF93CF93DF93EF93FF93E0911801F09124
:100790001901309749F0A685B7859585868D81FF2B
:1007A00012C08C91892391F4FF91EF91DF91CF9149
:1007B000BF91AF919F918F913F912F910F900FBE5D
:1007C0000F901F9018958C91892371F7A389B48994
:1007D0009C918589809589238C9386899789019737
:1007E000F1F7208D318DC685D78588E0D901119725
:1007F000F1F798818150D1F78091170190E001962F
:100800008F73992720911601281779F0909117017D
:1008100080931701828D938D0197F1F7A389B48995
:100820008C919589892B8C93BFCF868D8160868F23
:10083000F1CFE8EBF2E01382128288EE93E0A0E0C1
:10084000B0E084839583A683B78384E091E09183AD
:10085000808385EC90E09587848784EC90E097878F
:10086000868780EC90E0918B808B81EC90E0938B7D
:10087000828B82EC90E0958B848B86EC90E0978B5A
:10088000868B118E128E138E148EA5E5B3E0109216
:10089000650410926404109267041092660410922A
:1008A00069041092680410926B0410926A04119605
:1008B000FC93EE9313961C921E9212971596FC933E
:1008C000EE93149710925D0410925C0410925F04F2
:1008D00010925E04109261041092600410926304FE
:1008E0001092620489E016968C930895789484B5EA
:1008F000826084BD84B5816084BD85B5826085BD1C
:1009000085B5816085BD80916E00816080936E00A9
:10091000109281008091810082608093810080919B
:10092000810081608093810080918000816080934C
:1009300080008091B10084608093B1008091B0000C
:1009400081608093B00080917A00846080937A0007
:1009500080917A00826080937A0080917A00816031
:1009600080937A0080917A00806880937A00109258
:10097000C10082E00E94AD008EEA92E090935D0497
:1009800080935C0481E090E090936504809364041C
:100990008AEA92E0909361048093600482E090E0A0
:1009A00090936904809368048AE191E090936304D2
:1009B0008093620484E690E090936B0480936A04D1
:1009C00081E080936C0480915503909156030097C9
:1009D00009F450C14CE25AE060E070E040936D04CD
:1009E00050936E0460936F04709370044FE452E16F
:1009F00060E070E04093710450937204609373045C
:100A00007093740466E00E94870080915B038F3FBF
:100A100039F00E94AD0060E080915B030E94E70026
:100A20000E9491016B017C018091590390915A03BE
:100A3000DC01ED91FC910084F185E02D0995892B75
:100A400079F00E9491016B017C0180915903909192
:100A50005A03EC01E881F9810284F385E02D0995C0
:100A60000E9491016C197D098E099F090091710402
:100A7000109172042091730430917404601771070F
:100A80008207930788F266E088EB92E00E94870075
:100A90008AE999E9A9E9BFE38093AA029093AB029E
:100AA000A093AC02B093AD024AE061E070E080E058
:100AB00090E00E94D0026EE288EB92E00E94560223
:100AC0004AE062E070E080E090E00E94D0024AE0FC
:100AD00060E070E0CB010E94D00282E191E00E94D0
:100AE000C3026091AA027091AB0290E080E04AE0FC
:100AF0000E94D00282E191E00E94C3026091AC02A8
:100B00007091AD0290E080E04AE00E94D00282E164
:100B100091E00E94C302C12CD12C7601C394A0E0C5
:100B20002A2EA0E03A2E88EB92E00E941402892B34
:100B300009F4A7C18091590390915A03DC01ED910A
:100B4000FC910084F185E02D0995892B09F499C168
:100B5000812C912C540110E000E080915903909178
:100B60005A03EC01E881F9810084F185E02D0995B3
:100B7000892BA9F00E9491014B015C0180915903DE
:100B800090915A03DC01ED91FC910284F385E02DF4
:100B90000995F801EB5AFC4F87830F5F1F4F0E94A6
:100BA0009101681979098A099B0940906D04509058
:100BB0006E0460906F0470907004461657066806C5
:100BC000790620F00F3F110541F238F20E949101A1
:100BD000681979098A099B09409071045090720440
:100BE000609073047090740464157505860597050C
:100BF00068F38091590390915A03EC01E881F981DF
:100C00000084F185E02D0995892B09F03AC1809186
:100C10005C0390916C04891711F0811132C18EEF41
:100C2000800F0E94CC00F801EB5AFC4F26813581E1
:100C30002327322723278217930709F022C1E09147
:100C40005D03E150E03108F0D3C0F0E0E65DF94F1C
:100C50000C94A509DC067507D60723087008A308BD
:100C6000F806F806F806F806F806F806F806F80694
:100C7000CD082E09E0915703F0915803309709F4FD
:100C8000C4CE8CE29AE0A0E0B0E080936D04909333
:100C90006E04A0936F04B09370048FE492E1A0E01F
:100CA000B0E08093710490937204A0937304B093A6
:100CB0007404138E128E118E108E178A168A8DE987
:100CC00091E0958F848F84858631E0F52DEB30E0BF
:100CD000378B268B2BE931E0318F208F2CE231E0EE
:100CE000338F228F90916800883008F456C021E03D
:100CF0008E3008F420E081E001C0880F2A95EAF7E1
:100D0000892B8093680094852DE630E0983050F070
:100D10002BE630E09E3030F02CE630E0963110F0DB
:100D200030E020E0348B238B292F30E09830B8F569
:100D300081E001C0880F9A95EAF7858B848D958DA7
:100D40000197F1F7828D938D892B09F45ECEA091E6
:100D50001801B0911901EA17FB0709F456CE109754
:100D600051F05396CD91DC915497988155968C9182
:100D7000809589238883868D8E7F868F10921701B8
:100D800010921601F0931901E0931801A389B48918
:100D90008C919589892B8C9338CE84E0B1CF9E308D
:100DA00040F42850310981E001C0880F2A95EAF704
:100DB000C4CF2E503109F7CFA0915E03B0915F03ED
:100DC000BA27AB27BA2780916003909161039827D7
:100DD0008927982740915C0450915D044115510585
:100DE00039F020916404309165042115310511F426
:100DF00081E007C0BC0161507109603D774020F07F
:100E000083E00E9488013DC02817390728F0281B7D
:100E1000390B2A173B0710F482E0F3CF9C01295FBE
:100E20003F4FE3E036952795EA95E1F720935E037F
:100E3000A40FB51F30E020E00D91A90147705527A0
:100E40004601570104C0880C991CAA1CBB1C4A957A
:100E5000D2F7A401F90173E0F695E7957A95E1F7E9
:100E6000E85AFC4F17810023E9F1412B47832F5F9C
:100E70003F4F8217930701F780915E038D5F0E94B9
:100E800033010E9491012B013C0184EF882E9924AB
:100E90009394A12CB12C0E949101641975098609C3
:100EA0009709683E734081059105A8F3C1E08C1A4B
:100EB0009108A108B108D8EE4D0ED3E05D1E611C6B
:100EC000711C81149104A104B10429F72114310487
:100ED00009F429CE0E942002882309F424CE0E941E
:100EE000000021CE40954123C1CFA0915E03B09177
:100EF0005F03BA27AB27BA27809160039091610303
:100F000098278927982740915E0450915F044115E6
:100F1000510509F46DCF20916604309167042115C5
:100F2000310509F465CFBC0161507109603D77401E
:100F300008F066CF2817390708F46ECF281B390B45
:100F40002A173B0708F468CF9C01295F3F4F63E0F5
:100F5000369527956A95E1F720935E03A40FB51F98
:100F600030E020E00D91A901477055274601570157
:100F700004C0880C991CAA1CBB1C4A95D2F7A4017A
:100F8000F90153E0F695E7955A95E1F7E85AFC4FD9
:100F90001781002341F0412B47832F5F3F4F82177A
:100FA000930701F769CF40954123F6CF80915E0307
:100FB00090915F03982789279827E0916004F0912A
:100FC0006104309709F414CF2091680430916904CA
:100FD0002115310509F40CCF409160035091610354
:100FE000542745275427BA01615071096D3771059F
:100FF00008F006CF2417350708F40ECF241B350B55
:101000002817390708F408CF242F220F20935E03F6
:10101000880F991FE80FF91FA5E5B3E090E080E085
:10102000218132961A962C931A979F0122503109EA
:10103000E90128811B962C931B9701961296841721
:10104000950771F719CF80915E0390915F03982700
:1010500089279827E0916204F0916304309709F49E
:10106000C7CE20916A0430916B042115310509F433
:10107000BFCE409160035091610354274527542708
:10108000BA01615071096D37710508F0B9CE2417A6
:10109000350708F4C1CE241B350B2817390708F48F
:1010A000BBCE242F220F20935E03880F991FE80FD9
:1010B000F91FA5E5B3E090E080E0218132961A9611
:1010C0002C931A979F0122503109E90128811B9620
:1010D0002C931B97019612964817590771F7CCCE9F
:1010E00040915E0350915F03542745275427809118
:1010F00060039091610398278927982720915C04C9
:1011000030915D042115310509F472CE60916404BB
:10111000709165046115710509F46ACE009729F094
:101120008115DFEF9D0709F06BCE4617570708F0D2
:1011300073CE240F351F41E0892B09F440E0F901FB
:10114000408386E09CCE80915E0390915F03982758
:1011500089279827409160035091610354274527C0
:10116000542720916004309161042115310509F460
:101170003FCE60916804709169046115710509F4AE
:1011800037CE8617970708F047CE880F991F820F32
:10119000931FDC014D935C93D4CF60915E037091FB
:1011A0005F0376276727762780916003909161031C
:1011B00098278927982720915C0430915D04232B80
:1011C00009F416CE2091640430916504211531058F
:1011D00009F40ECEAC0141505109403BB7E05B072A
:1011E00008F00ECEE0916203485F5F4FD3E0569562
:1011F0004795DA95E1F7E417150609F001CE2817AF
:10120000390708F409CE281B390B2617370708F4CD
:1012100003CE50E040E0E0915C04F0915D04E40F07
:10122000F51FE60FF71FDA01C3E0B695A795CA953B
:10123000E1F7AB5ABC4F1E962C9130E0DA01A77053
:10124000BB2702C035952795AA95E2F72170208328
:101250004F5F5F4F48175907F1F673CF80915E03D8
:1012600090915F03982789279827409160035091B8
:10127000610354274527542720916004309161046D
:10128000232B09F4B5CD2091680430916904211510
:10129000310509F4ADCDBA01615071096B377105A3
:1012A00008F0AECDE0916203BA01660F771FE61732
:1012B000170609F0A5CD2417350708F4ADCD241B7A
:1012C000350B2817390708F4A7CD880F991FE5E5D6
:1012D000F3E030E020E085559340A0916004B091A8
:1012E0006104AE0FBF1FA80FB91F668577856727FA
:1012F000762767276D937C932F5F3F4F3296421777
:10130000530759F71ECFA1E21A2EAA1BBB1BFD01E2
:101310000DC0AA1FBB1FEE1FFF1FA217B307E407D4
:10132000F50720F0A21BB30BE40BF50B661F771F2C
:10133000881F991F1A9469F760957095809590950C
:101340009B01AC01BD01CF010895EE0FFF1F059079
:10135000F491E02D0994F894FFCF000000005602AC
:10136000B601E301A3021402F20106020D0A000015
:107E0000112484B714BE81FFF0D085E080938100F7
:107E100082E08093C00088E18093C10086E0809377
:107E2000C20080E18093C4008EE0C9D0259A86E02C
:107E300020E33CEF91E0309385002093840096BBD3
:107E4000B09BFECF1D9AA8958150A9F7CC24DD24C4
:107E500088248394B5E0AB2EA1E19A2EF3E0BF2EE7
:107E6000A2D0813461F49FD0082FAFD0023811F036
:107E7000013811F484E001C083E08DD089C08234E0
:107E800011F484E103C0853419F485E0A6D080C0E4
:107E9000853579F488D0E82EFF2485D0082F10E0AE
:107EA000102F00270E291F29000F111F8ED06801E7
:107EB0006FC0863521F484E090D080E0DECF843638
:107EC00009F040C070D06FD0082F6DD080E0C81688
:107ED00080E7D80618F4F601B7BEE895C0E0D1E017
:107EE00062D089930C17E1F7F0E0CF16F0E7DF06D8
:107EF00018F0F601B7BEE89568D007B600FCFDCFD4
:107F0000A601A0E0B1E02C9130E011968C91119780
:107F100090E0982F8827822B932B1296FA010C0160
:107F200087BEE89511244E5F5F4FF1E0A038BF0790
:107F300051F7F601A7BEE89507B600FCFDCF97BE46
:107F4000E89526C08437B1F42ED02DD0F82E2BD052
:107F50003CD0F601EF2C8F010F5F1F4F84911BD097
:107F6000EA94F801C1F70894C11CD11CFA94CF0C13
:107F7000D11C0EC0853739F428D08EE10CD085E9AC
:107F80000AD08FE07ACF813511F488E018D01DD067
:107F900080E101D065CF982F8091C00085FFFCCF94
:107FA0009093C60008958091C00087FFFCCF809118
:107FB000C00084FD01C0A8958091C6000895E0E648
:107FC000F0E098E1908380830895EDDF803219F02E
:107FD00088E0F5DFFFCF84E1DECF1F93182FE3DFCA
:107FE0001150E9F7F2DF1F91089580E0E8DFEE27F6
:047FF000FF270994CA
:027FFE00040479
:00000001FF
