:020000040000FA
:100000000C9463000C948B000C948B000C942904CA
:100010000C9429040C9429040C948B000C948B00F0
:100020000C948B000C948B000C948B000C948B0024
:100030000C948B000C948B000C948B000C948B0014
:100040000C9487030C948B000C94F7030C94D1034D
:100050000C948B000C948B000C948B000C948B00F4
:100060000C948B000C948B000000000024002700EF
:100070002A0000000008000201000003040700003D
:1000800000000000000000000000230026002900FE
:1000900000000000250028002B00040404040404D0
:1000A0000404020202020202030303030303010227
:1000B00004081020408001020408102001020408F6
:1000C0001020A104D10611241FBECFEFD8E0DEBF5F
:1000D000CDBF11E0A0E0B1E0E4E4FEE002C0059095
:1000E0000D92A234B107D9F722E0A2E4B1E001C039
:1000F0001D92AB34B207E1F710E0C2E6D0E004C0D5
:100100002197FE010E940F07C136D107C9F70E944F
:100110004C050C9415070C940000833081F028F4F2
:10012000813099F08230A9F008958730A9F08830A5
:10013000C9F08430B1F4809180008F7D03C080913C
:1001400080008F7780938000089584B58F7784BD79
:10015000089584B58F7DFBCF8091B0008F77809319
:10016000B00008958091B0008F7DF9CFCF93DF93D9
:10017000E4E7F0E08491E0EBF0E0D491ECE9F0E02A
:10018000C491CC23A1F081110E948D00EC2FF0E0EE
:10019000EE0FFF1FEA57FF4FA591B491EC91ED23AD
:1001A00081E090E009F480E0DF91CF91089580E054
:1001B00090E0FACF1F93CF93DF93282F30E0F9011F
:1001C000EE58FF4F8491F901E255FF4FD491F901A8
:1001D000E656FF4FC491CC23A9F0162F81110E943F
:1001E0008D00EC2FF0E0EE0FFF1FE057FF4FA591C1
:1001F000B4918FB7F894EC91111108C0D095DE231B
:10020000DC938FBFDF91CF911F910895DE2BF8CF44
:10021000CF93DF9390E0FC01E255FF4F2491865687
:100220009F4FFC0184918823D1F090E0880F991FA3
:10023000FC01E859FF4FA591B491FC01E057FF4F35
:10024000C591D49161110EC09FB7F8948C91E22FA3
:10025000E0958E238C932881E223E8839FBFDF9172
:10026000CF9108958FB7F894EC91E22BEC938FBF68
:10027000F6CFAF92BF92CF92DF92EF92FF920F93A1
:100280001F93CF93DF936C017B018B01040F151F2C
:10029000EB015E01AE18BF08C017D10759F0699194
:1002A000D601ED91FC910190F081E02DC6010995F8
:1002B000892B79F7C501DF91CF911F910F91FF90A5
:1002C000EF90DF90CF90BF90AF900895FC01538DD9
:1002D000448D252F30E0842F90E0821B930B541720
:1002E00010F0CF96089501970895FC01918D828DAD
:1002F000981761F0A28DAE0FBF2FB11D5D968C9146
:10030000928D9F5F9F73928F90E008958FEF9FEF84
:100310000895FC01918D828D981731F0828DE80F40
:10032000F11D858D90E008958FEF9FEF0895FC01FA
:10033000918D228D892F90E0805C9F4F821B9109C7
:100340008F73992708958FE891E00E94970121E02B
:10035000892B09F420E0822F089580E090E0892B1A
:1003600029F00E94A30181110C9400000895FC0162
:10037000A48DA80FB92FB11DA35ABF4F2C91848D06
:1003800090E001968F739927848FA689B7892C9363
:10039000A089B1898C91837080648C93938D848DB6
:1003A000981306C00288F389E02D80818F7D8083B9
:1003B0000895EF92FF920F931F93CF93DF93EC0179
:1003C00081E0888F9B8D8C8D98131AC0E889F989FC
:1003D000808185FF15C09FB7F894EE89FF896083FF
:1003E000E889F98980818370806480839FBF81E080
:1003F00090E0DF91CF911F910F91FF90EF900895C2
:10040000F62E0B8D10E00F5F1F4F0F731127E02E9C
:100410008C8D8E110CC00FB607FCFACFE889F989D4
:10042000808185FFF5CFCE010E94B701F1CFEB8D22
:10043000EC0FFD2FF11DE35AFF4FF0829FB7F894A8
:100440000B8FEA89FB8980818062CFCFCF93DF93C6
:10045000EC01888D8823B9F0AA89BB89E889F989DC
:100460008C9185FD03C0808186FD0DC00FB607FC11
:10047000F7CF8C9185FFF2CF808185FFEDCFCE0144
:100480000E94B701E9CFDF91CF91089520918401B7
:10049000309185012817390771F49091820180917C
:1004A0008301981741F0E0918201F0E0EE5BFE4F8E
:1004B000808190E008958FEF9FEF08950895EF9267
:1004C000FF920F931F93CF93DF93DC015C96ED9027
:1004D000FC905D97E114F10479F481E090E01396CB
:1004E0009C938E93129790E080E0DF91CF911F91C3
:1004F0000F91FF90EF9008955196ED91FC915297D6
:1005000050968C915097982F90950FB75E962C919E
:100510005E97122F127021FD6095F89420811123AF
:1005200019F1282B2083E7012197F1F728E0462FC6
:1005300050E0308160FF1AC0382B3083E7012197EB
:10054000F1F7BA0175956795215089F7112381F06C
:100550008081892380830FBF5C968D919C91019748
:10056000F1F781E090E0C1CF2923DCCF3923E5CF3B
:100570009081892BEFCF209184013091850128173C
:10058000390761F4809183012091820190E0805CC1
:100590009F4F821B91098F739927089590E080E007
:1005A0000895209184013091850128173907B9F405
:1005B0009091820180918301981789F0E0918201E6
:1005C000F0E0EE5BFE4F80812091820130E02F5FF2
:1005D0003F4F2F7333272093820190E008958FEFD0
:1005E0009FEF089590E080E00895FC0101900020C5
:1005F000E9F73197AF01481B590BBC018FE891E037
:100600000C9439018F929F92AF92BF92CF92DF925A
:10061000EF92FF920F931F93CF93DF93CDB7DEB787
:10062000A1970FB6F894DEBF0FBECDBF6C01990F36
:10063000EE08FF08F7FE47C06DE28FE891E00E94E8
:10064000D9018C0122273327A9012C193D094E0914
:100650005F0919A2CE0181967C019AE0892E912C26
:10066000A12CB12CCA01B901A50194010E94ED068B
:10067000605DF70162937F01211531054105510548
:1006800089F790E080E0309719F0CF010E94F502E1
:10069000080F191F84E291E00E94F502800F911F5C
:1006A000A1960FB6F894DEBF0FBECDBFDF91CF91FC
:1006B0001F910F91FF90EF90DF90CF90BF90AF9080
:1006C0009F908F900895A701960119A28E010F5D4A
:1006D0001F4F8AE0C82ED12CE12CF12CCA01B901A0
:1006E000A70196010E94ED06605DF80162938F01FB
:1006F000211531054105510589F7309729F0CF01C2
:100700000E94F5028C01C6CF10E000E0C3CF1F921B
:100710000F920FB60F9211242F933F938F939F93B5
:10072000AF93BF9380918B0190918C01A0918D012B
:10073000B0918E0130918A0123E0230F2D3758F5B7
:100740000196A11DB11D20938A0180938B01909386
:100750008C01A0938D01B0938E01809186019091C0
:100760008701A0918801B09189010196A11DB11D59
:100770008093860190938701A0938801B0938901AB
:10078000BF91AF919F918F913F912F910F900FBE8D
:100790000F901F90189526E8230F0296A11DB11DFA
:1007A000D2CF1F920F920FB60F9211242F933F9327
:1007B0004F935F936F937F938F939F93AF93BF9369
:1007C000EF93FF938FE891E00E94B701FF91EF91C3
:1007D000BF91AF919F918F917F916F915F914F9159
:1007E0003F912F910F900FBE0F901F9018951F9261
:1007F0000F920FB60F9211242F938F939F93EF9325
:10080000FF93E0919F01F091A0018081E091A5010B
:10081000F091A60182FD1BC090818091A8018F5F9D
:100820008F732091A901821741F0E091A801F0E0B7
:10083000E157FE4F958F8093A801FF91EF919F9113
:100840008F912F910F900FBE0F901F901895808160
:10085000F4CF1F920F920FB60F9211242F933F9354
:100860004F935F936F937F938F939F93AF93BF93B8
:10087000EF93FF93E0918401F0918501309749F067
:10088000A685B7858585968D91FF14C09C91892397
:10089000A1F4FF91EF91BF91AF919F918F917F91C3
:1008A0006F915F914F913F912F910F900FBE0F90DD
:1008B0001F9018959C91892361F7A389B4899C9115
:1008C0008589809589238C93868997890197F1F78B
:1008D000608D718DA685B785558538E020E0CB0108
:1008E0000197F1F7822F90E095958795282F4C91ED
:1008F000452309F02068315091F7868D81FD2095C0
:100900008091830190E001968F7399273091820145
:10091000381799F0A0918301B0E0AE5BBE4F2C93E5
:1009200080938301828D938D0197F1F7A389B48918
:100930008C919589892B8C93ACCF868D8160868F25
:10094000F1CF109292011092910188EE93E0A0E015
:10095000B0E08093930190939401A0939501B0939C
:10096000960124E031E03093900120938F0125EC33
:1009700030E030939C0120939B0124EC30E03093D5
:100980009E0120939D0120EC30E03093A001209344
:100990009F0121EC30E03093A2012093A10122ECD1
:1009A00030E03093A4012093A30126EC30E0309393
:1009B000A6012093A5011092A8011092A9011092FE
:1009C000AA011092AB0110922F0210922E02809376
:1009D000300290933102A0933202B093330286E149
:1009E00091E090932D0280932C021092430210927A
:1009F0004202109245021092440210924702109255
:100A00004602109249021092480260914A026E7F9B
:100A10006D7F60934A026695617081E0682780E18E
:100A20000E94DA0061E080E10E940801EEEBF0E054
:100A3000E491E0933C02EAEAF0E0E491F0E0EE0FAA
:100A4000FF1FE057FF4F8591949190933E02809352
:100A50003D0260E081E10E94080180914A0281FD2F
:100A600004C061E081E10E94DA0081E180933802F4
:100A7000EFEBF0E0E491E0933902EBEAF0E0E4918F
:100A8000F0E0EE0FFF1FEA57FF4F8591949190938E
:100A90003B0280933A020895789484B5826084BDC5
:100AA00084B5816084BD85B5826085BD85B5816072
:100AB00085BD80916E00816080936E0010928100F0
:100AC00080918100826080938100809181008160AB
:100AD000809381008091800081608093800080916C
:100AE000B10084608093B1008091B00081608093F8
:100AF000B00080917A00846080937A0080917A00BF
:100B0000826080937A0080917A00816080937A007D
:100B100080917A00806880937A001092C10061E031
:100B200082E00E94080161E088E00E940801E091F3
:100B30009F01F091A00182E08083E0919B01F09100
:100B40009C011082E0919D01F0919E018FEC8083C9
:100B50001092A701E091A301F091A40186E08083A7
:100B6000E091A101F091A201808180618083E091F8
:100B7000A101F091A201808188608083E091A101B0
:100B8000F091A201808180688083E091A101F091C1
:100B9000A20180818F7D80831092470210924602CD
:100BA00010924502109244021092430210924202A7
:100BB0008DEC90E090934902809348029091380226
:100BC000963108F047C025E530E03093430220938A
:100BD00042022BEC30E0309345022093440220E99E
:100BE00030E030934702209346022091680084E071
:100BF000983048F031E09E3008F430E081E001C0E8
:100C0000880F3A95EAF7822B809368002DE630E052
:100C1000983050F02BE630E09E3030F02CE630E09B
:100C2000963110F030E020E03093400220933F02F4
:100C3000292F30E0983008F07FC081E001C0880F94
:100C40009A95EAF780934102809148029091490277
:100C50000197F1F78091460290914702892B49F163
:100C6000E0918401F091850182E0EC32F80709F10E
:100C7000309739F0A389B4899C918589809589231F
:100C80008C9380914A028E7F80934A021092830156
:100C9000109282018CE292E090938501809384010E
:100CA000E0913F02F0914002808190914102892BB6
:100CB000808360E088E00E94DA0000E010E060E0FD
:100CC00088E00E94DA008FE891E00E949701EC0131
:100CD0008CE292E00E94BB021C161D06D4F5CE01E8
:100CE0000E9402038FE891E00E947501C82F87E2FD
:100CF00091E00E94F5026C2F8FE891E00E94D901EB
:100D000084E291E00E94F5020E94B600C1E0892BC6
:100D100009F0C0E08C2F90E00E9402036C2F82E06B
:100D20000E94DA000115110551F20E94A3018823E7
:100D300031F20E940000C3CF9E3040F428503109A8
:100D400081E001C0880F2A95EAF77CCF2E50310947
:100D5000F7CF1816190634F70E9402038CE292E0CE
:100D60000E94D102EC0187E291E00E94F50281E04D
:100D700090E0209711F490E080E00E940203CD2BD8
:100D800039F00E94B60061E0892B49F260E0C7CFDC
:100D900082E391E00E94F50284E291E00E94F50274
:100DA000C1CF86E191E090932D0280932C02809137
:100DB0008401909185018C52924071F4E0913F0240
:100DC000F091400290818091410280958923808337
:100DD00010928501109284010895A1E21A2EAA1B97
:100DE000BB1BFD010DC0AA1FBB1FEE1FFF1FA217DB
:100DF000B307E407F50720F0A21BB30BE40BF50BD8
:100E0000661F771F881F991F1A9469F76095709560
:100E1000809590959B01AC01BD01CF010895EE0F27
:100E2000FF1F0590F491E02D099410E0C2E6D0E098
:100E300004C0FE010E940F072196C336D107C9F7EF
:100E4000F894FFCF00000000D901390166012602A5
:100E5000970175018901000000005F023901F2026B
:100E60005E02BB02D10246020D0A0052656365694B
:100E70007665643A2000556E6B6E6F776E206D65F7
:060E800073736167650059
:107E0000112484B714BE81FFF0D085E080938100F7
:107E100082E08093C00088E18093C10086E0809377
:107E2000C20080E18093C4008EE0C9D0259A86E02C
:107E300020E33CEF91E0309385002093840096BBD3
:107E4000B09BFECF1D9AA8958150A9F7CC24DD24C4
:107E500088248394B5E0AB2EA1E19A2EF3E0BF2EE7
:107E6000A2D0813461F49FD0082FAFD0023811F036
:107E7000013811F484E001C083E08DD089C08234E0
:107E800011F484E103C0853419F485E0A6D080C0E4
:107E9000853579F488D0E82EFF2485D0082F10E0AE
:107EA000102F00270E291F29000F111F8ED06801E7
:107EB0006FC0863521F484E090D080E0DECF843638
:107EC00009F040C070D06FD0082F6DD080E0C81688
:107ED00080E7D80618F4F601B7BEE895C0E0D1E017
:107EE00062D089930C17E1F7F0E0CF16F0E7DF06D8
:107EF00018F0F601B7BEE89568D007B600FCFDCFD4
:107F0000A601A0E0B1E02C9130E011968C91119780
:107F100090E0982F8827822B932B1296FA010C0160
:107F200087BEE89511244E5F5F4FF1E0A038BF0790
:107F300051F7F601A7BEE89507B600FCFDCF97BE46
:107F4000E89526C08437B1F42ED02DD0F82E2BD052
:107F50003CD0F601EF2C8F010F5F1F4F84911BD097
:107F6000EA94F801C1F70894C11CD11CFA94CF0C13
:107F7000D11C0EC0853739F428D08EE10CD085E9AC
:107F80000AD08FE07ACF813511F488E018D01DD067
:107F900080E101D065CF982F8091C00085FFFCCF94
:107FA0009093C60008958091C00087FFFCCF809118
:107FB000C00084FD01C0A8958091C6000895E0E648
:107FC000F0E098E1908380830895EDDF803219F02E
:107FD00088E0F5DFFFCF84E1DECF1F93182FE3DFCA
:107FE0001150E9F7F2DF1F91089580E0E8DFEE27F6
:047FF000FF270994CA
:027FFE00040479
:00000001FF
