:020000040000FA
:100000000C9435000C945D000C945D000C945D0024
:100010000C945D000C945D000C945D000C945D00EC
:100020000C945D000C945D000C945D000C945D00DC
:100030000C945D000C945D000C945D000C945D00CC
:100040000C946C010C945D000C94DC010C94B601D2
:100050000C945D000C945D000C945D000C945D00AC
:100060000C945D000C945D000E0211241FBECFEFB6
:10007000D8E0DEBFCDBF11E0A0E0B1E0ECE9F5E0F3
:1000800002C005900D92A231B107D9F721E0A2E19B
:10009000B1E001C01D92A13EB207E1F710E0C5E357
:1000A000D0E004C02197FE010E94C602C433D107EC
:1000B000C9F70E9478020C94CC020C940000AF9215
:1000C000BF92CF92DF92EF92FF920F931F93CF9345
:1000D000DF936C017B018B01040F151FEB015E01A7
:1000E000AE18BF08C017D10759F06991D601ED913C
:1000F000FC910190F081E02DC6010995892B79F7DB
:10010000C501DF91CF911F910F91FF90EF90DF908C
:10011000CF90BF90AF900895FC01538D448D252F53
:1001200030E0842F90E0821B930B541710F0CF9691
:10013000089501970895FC01918D828D981761F0C3
:10014000A28DAE0FBF2FB11D5D968C91928D9F5FDA
:100150009F73928F90E008958FEF9FEF0895FC01B9
:10016000918D828D981731F0828DE80FF11D858D6C
:1001700090E008958FEF9FEF0895FC01918D228DFF
:10018000892F90E0805C9F4F821B91098F73992784
:100190000895FC01A48DA80FB92FB11DA35ABF4F1C
:1001A0002C91848D90E001968F739927848FA68976
:1001B000B7892C93A089B1898C91837080648C93CA
:1001C000938D848D981306C00288F389E02D808179
:1001D0008F7D80830895EF92FF920F931F93CF93AB
:1001E000DF93EC0181E0888F9B8D8C8D98131AC072
:1001F000E889F989808185FF15C09FB7F894EE8959
:10020000FF896083E889F9898081837080648083B5
:100210009FBF81E090E0DF91CF911F910F91FF9000
:10022000EF900895F62E0B8D10E00F5F1F4F0F73A8
:100230001127E02E8C8D8E110CC00FB607FCFACF63
:10024000E889F989808185FFF5CFCE010E94C90038
:10025000F1CFEB8DEC0FFD2FF11DE35AFF4FF08234
:100260009FB7F8940B8FEA89FB8980818062CFCF9A
:10027000CF93DF93EC01888D8823B9F0AA89BB89DD
:10028000E889F9898C9185FD03C0808186FD0DC0C8
:100290000FB607FCF7CF8C9185FFF2CF808185FFE9
:1002A000EDCFCE010E94C900E9CFDF91CF91089533
:1002B0008BE191E00E94BD0021E0892B09F420E050
:1002C000822F089580E090E0892B29F00E94580148
:1002D00081110C94000008951F920F920FB60F9297
:1002E00011242F933F938F939F93AF93BF9380914C
:1002F000170190911801A0911901B0911A01309144
:10030000160123E0230F2D3758F50196A11DB11DCD
:10031000209316018093170190931801A09319015F
:10032000B0931A018091120190911301A0911401D0
:10033000B09115010196A11DB11D809312019093FA
:100340001301A0931401B0931501BF91AF919F9138
:100350008F913F912F910F900FBE0F901F90189586
:1003600026E8230F0296A11DB11DD2CF1F920F9236
:100370000FB60F9211242F933F934F935F936F9378
:100380007F938F939F93AF93BF93EF93FF938BE1F3
:1003900091E00E94C900FF91EF91BF91AF919F91B1
:1003A0008F917F916F915F914F913F912F910F901E
:1003B0000FBE0F901F9018951F920F920FB60F92BD
:1003C00011242F938F939F93EF93FF93E0912B0131
:1003D000F0912C018081E0913101F091320182FD98
:1003E0001BC09081809134018F5F8F732091350104
:1003F000821741F0E0913401F0E0E55EFE4F958F09
:1004000080933401FF91EF919F918F912F910F90E5
:100410000FBE0F901F9018958081F4CFABE1B1E033
:1004200013961C921E92129748EE53E060E070E023
:1004300014964D935D936D937C93179784E091E0B0
:1004400011969C938E9385EC90E01D969C938E93D1
:100450001C9784EC90E01F969C938E931E9780ECE3
:1004600090E051969C938E93509781EC90E0539638
:100470009C938E93529782EC90E055969C938E932A
:10048000549786EC90E057969C938E935697599686
:100490001C9259975A961C925A975B961C925B979E
:1004A0005C961C925C97E8EBF1E0B183A083148624
:1004B000158616861786108A118A128A138A8FEF7C
:1004C00082838383158A148A178A168A118E108E66
:1004D000138E128E158E148E178E168E11A210A2E8
:1004E00013A212A214A215A216A217A210A6089572
:1004F000789484B5826084BD84B5816084BD85B5FF
:10050000826085BD85B5816085BD80916E0081600A
:1005100080936E00109281008091810082608093B0
:1005200081008091810081608093810080918000B2
:100530008160809380008091B10084608093B100DD
:100540008091B00081608093B00080917A008460D7
:1005500080937A0080917A00826080937A00809103
:100560007A00816080937A0080917A00806880931D
:100570007A001092C100C0E0D0E02097F1F30E9411
:1005800058018823D1F30E940000F7CFEE0FFF1F20
:100590000590F491E02D0994F894FFCF000000003D
:0E05A000EB005F008C003801BD009B00AF0037
:107E0000112484B714BE81FFF0D085E080938100F7
:107E100082E08093C00088E18093C10086E0809377
:107E2000C20080E18093C4008EE0C9D0259A86E02C
:107E300020E33CEF91E0309385002093840096BBD3
:107E4000B09BFECF1D9AA8958150A9F7CC24DD24C4
:107E500088248394B5E0AB2EA1E19A2EF3E0BF2EE7
:107E6000A2D0813461F49FD0082FAFD0023811F036
:107E7000013811F484E001C083E08DD089C08234E0
:107E800011F484E103C0853419F485E0A6D080C0E4
:107E9000853579F488D0E82EFF2485D0082F10E0AE
:107EA000102F00270E291F29000F111F8ED06801E7
:107EB0006FC0863521F484E090D080E0DECF843638
:107EC00009F040C070D06FD0082F6DD080E0C81688
:107ED00080E7D80618F4F601B7BEE895C0E0D1E017
:107EE00062D089930C17E1F7F0E0CF16F0E7DF06D8
:107EF00018F0F601B7BEE89568D007B600FCFDCFD4
:107F0000A601A0E0B1E02C9130E011968C91119780
:107F100090E0982F8827822B932B1296FA010C0160
:107F200087BEE89511244E5F5F4FF1E0A038BF0790
:107F300051F7F601A7BEE89507B600FCFDCF97BE46
:107F4000E89526C08437B1F42ED02DD0F82E2BD052
:107F50003CD0F601EF2C8F010F5F1F4F84911BD097
:107F6000EA94F801C1F70894C11CD11CFA94CF0C13
:107F7000D11C0EC0853739F428D08EE10CD085E9AC
:107F80000AD08FE07ACF813511F488E018D01DD067
:107F900080E101D065CF982F8091C00085FFFCCF94
:107FA0009093C60008958091C00087FFFCCF809118
:107FB000C00084FD01C0A8958091C6000895E0E648
:107FC000F0E098E1908380830895EDDF803219F02E
:107FD00088E0F5DFFFCF84E1DECF1F93182FE3DFCA
:107FE0001150E9F7F2DF1F91089580E0E8DFEE27F6
:047FF000FF270994CA
:027FFE00040479
:00000001FF
