:100000000C94E2000C940A010C940A010C940A016D
:100010000C940A010C940A010C940A010C940A0134
:100020000C940A010C940A010C940A010C940A0124
:100030000C940A010C940A010C940A010C940A0114
:100040000C94850A0C940A010C94F50A0C94CF0ABE
:100050000C940A010C940A010C940A010C940A01F4
:100060000C940A010C940A01005EBCE2613FDD833E
:10007000C29C7E20A3FD1F419DC3217FFCA2401E88
:100080005F01E3BD3E6082DC237D9FC1421CFEA078
:10009000E1BF5D0380DE3C62BEE0025CDF81633D68
:1000A0007C22C09E1D43A1FF4618FAA427799BC558
:1000B00084DA3866E5BB5907DB856739BAE4065848
:1000C0001947A5FB7826C49A653BD987045AB8E638
:1000D000A7F91B45C6987A24F8A6441A99C7257B28
:1000E0003A6486D85B05E7B98CD2306EEDB3510F18
:1000F0004E10F2AC2F7193CD114FADF3702ECC9208
:10010000D38D6F31B2EC0E50AFF1134DCE90722CF7
:100110006D33D18F0C52B0EE326C8ED0530DEFB1E7
:10012000F0AE4C1291CF2D73CA947628ABF51749D7
:100130000856B4EA6937D58B5709EBB536688AD4C7
:1001400095CB2977F4AA4816E9B7550B88D6346AB7
:100150002B7597C94A14F6A8742AC896154BA9F7A7
:10016000B6E80A54D7896B35000000002400270048
:100170002A0000000000250028002B0000000008D5
:10018000000201000003040700000000000000005E
:1001900000000000230026002900040404040404D5
:1001A0000404020202020202030303030303010226
:1001B00004081020408001020408102001020408F5
:1001C0001020270B11241FBECFEFD8E0DEBFCDBF1C
:1001D00011E0A0E0B1E0E8ECF1E202C005900D9280
:1001E000AA35B107D9F722E0AAE5B1E001C01D9216
:1001F000AE35B207E1F710E0C2EED0E004C02197BF
:10020000FE010E94DC10C13ED107C9F70E94C40B59
:100210000C94E2100C9400000895CF92DF92EF92BC
:10022000FF921F93CF93DF93DC01FB01C081D1814B
:1002300090818C91823219F140F4803109F459C0D7
:1002400060E070E080EC9FE712C08832C1F08B3331
:10025000B9F790FDF5CFBE01DD0F880B990B0E9419
:10026000930F20E030E040E85DE30E944810DF910A
:10027000CF911F91FF90EF90DF90CF9008958481F0
:100280008F3339F198F48F31D9F6BE0193E075952B
:1002900067959A95E1F7072E000C880B990B0E9441
:1002A000930F20E030E040E05FE3DFCF8F3519F0BF
:1002B0008F3789F2C5CFBE0175956795072E000C63
:1002C000880B990B0E94930F20E030E040E05EE342
:1002D000CCCFBE017595679575956795072E000C77
:1002E000880B990B0E94930F20E030E040E85EE31A
:1002F000BCCF17818681212F281B330BB901072E14
:10030000000C880B990B0E94930F6B017C01612FED
:1003100070E090E080E00E94910F9B01AC01C7016A
:10032000B6010E94F00E6B017C01BE0175956795C8
:10033000072E000C880B990B0E94930F20E030E0F1
:1003400040E85EE30E947E0E9B01AC01C701B6014E
:100350000E947F0E8CCF90E0FC01E458FE4F249168
:10036000FC01E255FE4F3491FC01E656FE4FE4914C
:10037000EE23C9F0222339F0233001F1A8F4213013
:1003800019F1223029F1F0E0EE0FFF1FEE58FE4F79
:10039000A591B4918FB7F894EC91611126C0309576
:1003A0003E233C938FBF08952730A9F02830C9F031
:1003B000243049F7809180008F7D03C080918000B8
:1003C0008F7780938000DFCF84B58F7784BDDBCFBC
:1003D00084B58F7DFBCF8091B0008F778093B00084
:1003E000D2CF8091B0008F7DF9CF3E2BDACFCF9363
:1003F000DF9390E0FC01E255FE4F249186569E4F1C
:10040000FC0184918823D1F090E0880F991FFC01B2
:10041000E859FE4FA591B491FC01EE58FE4FC591ED
:10042000D49161110EC09FB7F8948C91E22FE095A2
:100430008E238C932881E223E8839FBFDF91CF91A5
:1004400008958FB7F894EC91E22BEC938FBFF6CF21
:100450003FB7F89480916F0190917001A091710164
:10046000B091720126B5A89B05C02F3F19F00196E7
:10047000A11DB11D3FBFBA2FA92F982F8827BC01FE
:10048000CD01620F711D811D911D42E0660F771F26
:10049000881F991F4A95D1F708958F929F92AF9226
:1004A000BF92CF92DF92EF92FF926B017C010E948C
:1004B00028024B015C01C114D104E104F104B9F03C
:1004C0000E942802681979098A099B09683E7340CD
:1004D0008105910580F321E0C21AD108E108F108F5
:1004E00088EE880E83E0981EA11CB11CE4CFFF901B
:1004F000EF90DF90CF90BF90AF909F908F90089536
:10050000AF92BF92CF92DF92EF92FF920F931F9321
:10051000CF93DF936C017B018B01040F151FEB015F
:100520005E01AE18BF08C017D10759F06991D60116
:10053000ED91FC910190F081E02DC6010995892B88
:1005400079F7C501DF91CF911F910F91FF90EF9047
:10055000DF90CF90BF90AF900895FC01538D448DF4
:10056000252F30E0842F90E0821B930B541710F05E
:10057000CF96089501970895FC01918D828D98176B
:1005800061F0A28DAE0FBF2FB11D5D968C91928D43
:100590009F5F9F73928F90E008958FEF9FEF089574
:1005A000FC01918D828D981731F0828DE80FF11D3D
:1005B000858D90E008958FEF9FEF0895FC01918D58
:1005C000228D892F90E0805C9F4F821B91098F7351
:1005D0009927089587E791E00E94DE0221E0892BA8
:1005E00009F420E0822F089580E090E0892B29F023
:1005F0000E94EA0281110C9400000895FC01A48D70
:10060000A80FB92FB11DA35ABF4F2C91848D90E034
:1006100001968F739927848FA689B7892C93A08917
:10062000B1898C91837080648C93938D848D9813A1
:1006300006C00288F389E02D80818F7D8083089534
:10064000EF92FF920F931F93CF93DF93EC0181E022
:10065000888F9B8D8C8D98131AC0E889F9898081C9
:1006600085FF15C09FB7F894EE89FF896083E889FC
:10067000F98980818370806480839FBF81E090E0EE
:10068000DF91CF911F910F91FF90EF900895F62E7B
:100690000B8D10E00F5F1F4F0F731127E02E8C8D15
:1006A0008E110CC00FB607FCFACFE889F98980815A
:1006B00085FFF5CFCE010E94FE02F1CFEB8DEC0F4E
:1006C000FD2FF11DE35AFF4FF0829FB7F8940B8F77
:1006D000EA89FB8980818062CFCFCF93DF93EC01E1
:1006E000888D8823B9F0AA89BB89E889F9898C911A
:1006F00085FD03C0808186FD0DC00FB607FCF7CFD6
:100700008C9185FFF2CF808185FFEDCFCE010E94D5
:10071000FE02E9CFDF91CF910895DC0180E06150C6
:1007200038F0ED91E827F0E0E859FF4F8491F7CFDA
:100730000895DC012C911196ED91FC91F894818142
:10074000822B81839281322F30959323928387E08D
:1007500090E00197F1F781818323818383E290E028
:100760000197F1F790817894EFECF0E03197F1F791
:10077000922381E009F480E00895EF92FF920F93B5
:100780001F93CF93DF937C0108E010E0C0E0D1E03D
:10079000C7010E9499038111CD2BDD0F0150110972
:1007A000B9F78C2FDF91CF911F910F91FF90EF90B0
:1007B0000895FC0190810180F281E02D292F209580
:1007C00060FF14C0F8948281822382838181892B07
:1007D0008183A3E2B0E01197F1F78281982B928395
:1007E000789487ED90E00197F1F70895F89482816D
:1007F000822382838181892B8183AFEFB0E01197BF
:10080000F1F78281982B928378948FE090E0EBCF80
:10081000DF92EF92FF920F931F93CF93DF93EC0140
:10082000D62EE42E08E010E0FF24F39461E08D2D35
:100830008F2109F460E0CE010E94D903FF0C015022
:100840001109A1F7E11010C0F894E981FA819181B2
:100850008881809589238183E981FA8192818881C9
:100860008095892382837894DF91CF911F910F9196
:10087000FF90EF90DF900895EF92FF920F931F93F8
:10088000CF93DF938C017B0140E065E50E94080473
:10089000E70188E0E80EF11C699140E0C8010E9480
:1008A0000804CE15DF05C1F7DF91CF911F910F919D
:1008B000FF90EF900895FC0190810180F281E02D7E
:1008C000F8948181292F20958223818378943DE7B4
:1008D00043E050E0315029F1DA011197F1F78081BE
:1008E0008923C1F3F8948281822382838181892BB9
:1008F00081837894ABE7B7E01197F1F7F8948181A1
:1009000082238183A3E1B1E01197F1F780819823DD
:1009100081E009F080E07894E3E6F6E03197F1F7C2
:10092000089580E00895EF92FF920F931F93CF9365
:10093000DF937C018B01CDE3D2E08D819E810E940B
:100940005B04B7018D819E810E943C0440E06EEB08
:100950008D819E810E9408048D819E810E94BD032D
:10096000F80180838D819E810E94BD03F8018183FF
:100970008D819E810E94BD03F80182838D819E81BD
:100980000E94BD03F80183838D819E810E94BD0377
:10099000F80184838D819E810E94BD03F8018583C7
:1009A0008D819E810E94BD03F80186838D819E8189
:1009B0000E94BD03F80187838D819E810E94BD0343
:1009C000F80180878D819E81DF91CF911F910F91DA
:1009D000FF90EF900C945B04CF93DF93EB010E94A8
:1009E000930468E0CE010E948D0391E028852813CE
:1009F00090E0892FDF91CF910895CF93DF93CDB70A
:100A0000DEB729970FB6F894DEBF0FBECDBFBE018B
:100A10006F5F7F4F0E94EC04882349F08D818F33F4
:100A2000C1F038F48F31B9F0807F803F31F080E041
:100A300007C08F3521F08F37B9F78CE001C08BE00C
:100A400029960FB6F894DEBF0FBECDBFDF91CF91D0
:100A500008958AE0F5CF89E0F3CFBF92CF92DF927D
:100A6000EF92FF920F931F93CF93DF93EC01B62E7B
:100A7000C72EED84EE2081F01B861D861C8680E04B
:100A80002396EB2DFC2D9F01285F3F4F9991919369
:100A90002E173F07D9F707C00E945B0481110DC0D4
:100AA0001B861D861C86DF91CF911F910F91FF90B1
:100AB000EF90DF90CF90BF90089540E060EFCE01BF
:100AC0000E940804D12C01E011E0CE010E9499039C
:100AD000F82ECE010E94990391E0F9120EC08130E8
:100AE00049F5113448F2EB86E11002C081E08D87B0
:100AF0008B81882309F281E0C3CFED2DF0E0F8125D
:100B00000FC08B851817A0F4DE01AE0FBF1F139620
:100B10008C91802379F4F12C193008F41C87E12E94
:100B2000EC0FFD1F8381902F9095892383830AC04A
:100B30008113F1CFFE01ED0DF11D8381802B8383A5
:100B4000FF24F3946F2DCE010E94D9031F5F000F85
:100B500011F4D39401E087E08D1508F0B6CFC1CF32
:100B6000CF93DF93EC01E0914202F09143021386B0
:100B700015861486128611861086178216821582B3
:100B800014821382BC0180914202909143020E9420
:100B90002D05882339F067E0CE010E948D0391E096
:100BA0002F81281390E0892FDF91CF910895DC01E8
:100BB00030E020E08FEF9FEF26173707C1F0ED916F
:100BC000FC911197E20FF31F4081842748E0FC015C
:100BD000E170FF2796958795EF2B21F051E085274F
:100BE00050EA9527415099F72F5F3F4FE5CF089581
:100BF000DC011696ED91FC91E60FF11D908181814B
:100C00000895DC011296ED91FC91848195819827DD
:100C1000892798279C01235031092C3F310510F07A
:100C200090E080E00895DC011296ED91FC91CB01FB
:100C3000039714828C3F910510F015820895658307
:100C40000895DC011496ED91FC91159720812068A0
:100C500020831496ED91FC91618363E070E00C9425
:100C60001306CF92DF92EF92FF920F931F93CF93D1
:100C7000DF93EC018B017A0160E00E94F8056C01C2
:100C800062E0CE010E94F8050115110519F0E1148A
:100C9000F10461F461E0CE01DF91CF911F910F91DA
:100CA000FF90EF90DF90CF900C9421069C01215093
:100CB00031092D37310510F063E0EDCFE816F90664
:100CC00028F0E81AF90AEC14FD0410F462E0E3CF0E
:100CD000682F660FEE81FF816083F601EE0FFF1F24
:100CE000E00FF11F41E050E030E020E07081118121
:100CF0003296AE81BF81A40FB51F1C9311967C93D1
:100D00002F5F3F4F4E5F5F4F8217930779F770E079
:100D10006D5F7F4FCE01DF91CF911F910F91FF90BB
:100D2000EF90DF90CF900C9413065F926F927F92BA
:100D30008F929F92AF92BF92CF92DF92EF92FF92EB
:100D40000F931F93CF93DF93EC017B016A0160E067
:100D50000E94F8058C0162E0CE010E94F805E114C2
:100D6000F10419F0C114D10499F461E0CE01DF91CE
:100D7000CF911F910F91FF90EF90DF90CF90BF9098
:100D8000AF909F908F907F906F905F900C94210612
:100D90009C0121503109203D374010F063E0E6CF3F
:100DA000C816D90628F0C81AD90AC016D10610F4F8
:100DB00062E0DCCF6C0127E0C20ED11CB3E0D69418
:100DC000C794BA95E1F7EE81FF81C082DD24360138
:100DD00023E0660C771C2A95E1F730E020E041E043
:100DE00050E060E070E06216730659F1E22FE770A0
:100DF0004A015B0104C0880C991CAA1CBB1CEA9523
:100E0000D2F7F901A3E0F695E795AA95E1F7EF5F30
:100E1000AE81BF81EA0FFB2FF11D508028173907E3
:100E200068F4D801A20FB31FAE0DBF1DAC91AA2369
:100E300029F0852880822F5F3F4FD5CF8094852071
:100E4000F9CFB6016D5F7F4FCE01DF91CF911F913A
:100E50000F91FF90EF90DF90CF90BF90AF909F9059
:100E60008F907F906F905F900C9413068F929F925B
:100E7000AF92BF92CF92DF92EF92FF920F931F93A8
:100E8000CF93DF93CDB7DEB7CE50D1400FB6F894F5
:100E9000DEBF0FBECDBFCE010F969A838983069722
:100EA0009C838B8307969E838D83019698878F837F
:100EB0006EEF7FEF40970E9413068FB7F894C090B3
:100EC0007301D0907401E0907501F09076018FBFAE
:100ED0008091140290911502DC01ED91FC91008447
:100EE000F185E02D0995892B81F52FB7F894809134
:100EF000730190917401A0917501B09176012FBF9B
:100F00008C199D09AE09BF09409124025091250218
:100F1000609126027091270284179507A607B707EC
:100F2000B8F2C25FDE4F0FB6F894DEBF0FBECDBF82
:100F3000DF91CF911F910F91FF90EF90DF90CF90B5
:100F4000BF90AF909F908F9008950E9428026B01F0
:100F50007C0110E000E08091140290911502DC0108
:100F6000ED91FC910084F185E02D0995892BB1F07C
:100F70000E9428026B017C0180911402909115025D
:100F8000DC01ED91FC910284F385E02D0995E98166
:100F9000FA81E00FF11F80830F5F1F4F0E9428022C
:100FA0006C197D098E099F09809018029090190292
:100FB000A0901A02B0901B0286169706A806B906E2
:100FC00020F00F3F110539F230F2B801625071097B
:100FD000CE0101960E9413060E9428026C197D0919
:100FE0008E099F0900911C0210911D0220911E0282
:100FF00030911F02601771078207930768F3809191
:10100000140290911502DC01ED91FC910084F185B0
:10101000E02D0995892B39F06EEF7FEFCE01019617
:101020000E9413067ECFCE0101960E9401067C012C
:1010300009811A81BC01CE0101960E94D705F801F1
:10104000EE0DFF1D2181308123273227232728170A
:10105000390711F7EB81FC8186819091380298174E
:1010600011F081115ECFED81FE81E081E150E03130
:1010700008F0D4C0F0E0E15CF74F0C94DC104F08AE
:10108000CD08D908E908F5082A090E090E090E0944
:101090000E090E090E090E090E094E09B009882322
:1010A00061F04091300250913102609128027091BC
:1010B0002902CE0101960E949506EB81FC81868172
:1010C000882309F42ECF6091390270913A02809101
:1010D0003B0290913C020E944D02CE0101960E947B
:1010E00001068C01BC01CE0101960E94D705E98161
:1010F000FA81E00FF11F8083E981FA81E00FF11F8F
:1011000091838091160287FD03C061E00E94AB01CC
:101110008091170287FD03C061E00E94AB0100913E
:10112000140210911502D801ED91FC91E280F38038
:10113000CE0101960E940106009709F0029669818E
:101140007A81AC01C801F701099580911402909150
:101150001502DC01ED91FC910680F781E02D0995E7
:1011600080912002909121028230910538F0880F01
:10117000991F880F991F05970197F1F78091160223
:1011800087FD03C060E00E94AB018091170287FDDC
:10119000C8CE60E00E94AB01C4CE882309F48DCF95
:1011A000409132025091330260912A0270912B02D9
:1011B00080CF882309F481CF4091340250913502C9
:1011C00060912C0270912D02CE0101960E94310691
:1011D00074CF882309F471CF4091360250913702C1
:1011E00060912E0270912F02EFCF60E0CE01019648
:1011F0000E94F8058C0162E0CE0101960E94F8057C
:1012000020912802309129022115310539F04091B1
:101210003002509131024115510511F461E007C0CF
:10122000009751F08115BFEF9B0731F063E0CE01CD
:1012300001960E94210641CF0417150710F062E0C5
:10124000F6CF200F311F41E0892B09F440E0F9016E
:10125000408333CF60E0CE0101960E94F8058C01F7
:1012600062E0CE0101960E94F80520912C02309197
:101270002D022115310591F2409134025091350231
:101280004115510559F204171507C8F6000F111F33
:10129000200F311FD9018D939C930FCF60E0CE01B9
:1012A00001960E94F8058C0162E0CE0101960E9431
:1012B000F805E0912802F0912902309709F4AECFA9
:1012C00020913002309131022115310509F4A6CF69
:1012D000AC0141505109403BB7E05B0708F0A6CF95
:1012E000AF81B88514966C91485F5F4FB3E0569517
:1012F0004795BA95E1F76417150609F097CF2817B7
:10130000390708F49CCF281B390B2017310708F444
:1013100096CFE00FF11F50E040E09A01A3E0369530
:101320002795AA95E1F7AF81B885A20FB31F15964F
:101330002C9130E0BA016770772702C03595279568
:101340006A95E2F7217021934F5F5F4F84179507ED
:1013500021F766E070E0CE0101960E941306ADCE43
:1013600060E0CE0101960E94F8058C0162E0CE019A
:1013700001960E94F805E0902C02F0902D02E114F5
:10138000F10409F44BCF209134023091350221153C
:10139000310509F443CFAC01415051094B37510598
:1013A00008F044CFEF81F8856481AC01440F551FEC
:1013B0006417150609F03ACF2817390708F43FCF0C
:1013C000281B390B2017310708F439CF000F111FE4
:1013D000E00EF11E880F15E0180F05E0602FCE011A
:1013E00001960E94F805F701819391937F010E5FAA
:1013F0001013F4CFAECF80914202909143020E942D
:101400005B0440E06CEC80914202909143020E94A8
:10141000080440913D0264E48091420290914302AD
:101420000E94080480913F028823E9F080913E02E7
:101430008A3051F08B3069F0893081F46EE570E0CC
:1014400080E090E00C944D026CEB70E080E090E066
:10145000F9CF67E771E080E090E0F4CF6EEE72E0E4
:1014600080E090E0EFCF0895FC0101900020E9F7C3
:101470003197AF01481B590BBC0187E791E00C94F1
:1014800080028F929F92AF92BF920F931F93CF9340
:10149000DF93CDB7DEB7A1970FB6F894DEBF0FBECE
:1014A000CDBF19A2423008F44AE08E010F5D1F4FF4
:1014B000842E912CB12CA12CA50194010E94BA106C
:1014C000E62FB901CA01EA30F4F4E05DD801EE93E9
:1014D0008D01232B242B252B79F790E080E01097AA
:1014E00019F0CD010E94340AA1960FB6F894DEBF20
:1014F0000FBECDBFDF91CF911F910F91BF90AF90E5
:101500009F908F900895E95CE1CF1F920F920FB6E4
:101510000F9211242F933F938F939F93AF93BF9379
:101520008091730190917401A0917501B091760141
:1015300030916E0123E0230F2D3758F50196A11D40
:10154000B11D20936E018093730190937401A09359
:101550007501B093760180916F0190917001A09117
:101560007101B09172010196A11DB11D80936F01AF
:1015700090937001A0937101B0937201BF91AF91EC
:101580009F918F913F912F910F900FBE0F901F90C1
:10159000189526E8230F0296A11DB11DD2CF1F92E8
:1015A0000F920FB60F9211242F933F934F935F9397
:1015B0006F937F938F939F93AF93BF93EF93FF931B
:1015C00087E791E00E94FE02FF91EF91BF91AF91FA
:1015D0009F918F917F916F915F914F913F912F914B
:1015E0000F900FBE0F901F9018951F920F920FB67D
:1015F0000F9211242F938F939F93EF93FF93E0917A
:101600008701F09188018081E0918D01F0918E0138
:1016100082FD1BC09081809190018F5F8F7320911C
:101620009101821741F0E0919001F0E0E958FE4FFE
:10163000958F80939001FF91EF919F918F912F91C2
:101640000F900FBE0F901F9018958081F4CFCF930D
:10165000DF93C7E7D1E01B821A8288EE93E0A0E017
:10166000B0E08C839D83AE83BF8384E091E0998357
:10167000888385EC90E09D878C8784EC90E09F8741
:101680008E8780EC90E0998B888B81EC90E09B8B2F
:101690008A8B82EC90E09D8B8C8B86EC90E09F8B0C
:1016A0008E8B198E1A8E1B8E1C8E60E087E00E9436
:1016B000F701E5EBF1E0E491A0E5B2E0EC93E1EABB
:1016C000F1E0E491F0E0EE0FFF1FE057FE4F85914F
:1016D000949112969C938E9311971B961C921B9734
:1016E0001D961C921D971C961C921C971A961C9274
:1016F0001A9719961C92199718961C921897179674
:101700001C92179716961C92169715961C92159771
:1017100014961C92149713961C921397EDE3F2E023
:101720008CE091E0928B818BB683A583148210822A
:1017300089E0818381E082838383E4E1F2E0D183E5
:10174000C0831486158616861786108A118A128A17
:10175000138A8FEF82838383158A148A178A168AE5
:10176000118E108E138E128E158E148E178E168E6D
:1017700011A210A213A212A214A215A216A217A2BD
:1017800010A6DF91CF910895CF93DF93CDB7DEB749
:1017900061970FB6F894DEBF0FBECDBF789484B5C5
:1017A000826084BD84B5816084BD85B5826085BD5D
:1017B00085B5816085BD80916E00816080936E00EB
:1017C00010928100809181008260809381008091DD
:1017D000810081608093810080918000816080938E
:1017E00080008091B10084608093B1008091B0004E
:1017F00081608093B00080917A00846080937A0049
:1018000080917A00826080937A0080917A00816072
:1018100080937A0080917A00806880937A00109299
:10182000C1008DE691E0909329028093280281E027
:1018300090E0909331028093300228E631E03093BB
:101840002B0220932A0225E030E0309333022093CC
:10185000320226E631E030932D0220932C02909341
:101860003502809334028AE591E090932F028093B1
:101870002E0286E090E09093370280933602E0914A
:101880008701F091880182E08083E0918301F091EB
:1018900084011082E0918501F09186018FEC8083B4
:1018A00010928F01E0918B01F0918C0186E0808392
:1018B000E0918901F0918A01808180618083E091CB
:1018C0008901F0918A01808188608083E09189019B
:1018D000F0918A01808180688083E0918901F09194
:1018E0008A0180818F7D808381E0809338028CE241
:1018F0009AE0A0E0B0E08093180290931902A093C0
:101900001A02B0931B028FE492E1A0E0B0E0809352
:101910001C0290931D02A0931E02B0931F0280919F
:10192000160287FD08C061E00E94F70160E0809127
:1019300016020E94AB018091170287FD08C061E08A
:101940000E94F70160E0809117020E94AB010E94A3
:1019500028026B017C018091140290911502DC0138
:10196000ED91FC910084F185E02D0995181619067A
:101970007CF40E9428026B017C01809114029091FA
:101980001502DC01ED91FC910284F385E02D0995AF
:101990000E9428026C197D098E099F0900911C0282
:1019A00010911D0220911E0230911F0260177107D5
:1019B0008207930780F2E0914202F091430213867E
:1019C0001586148612861186108617821682158255
:1019D000148213821092410201E0BE01665F7F4FC4
:1019E00080914202909143020E942D05882309F4C0
:1019F0005BC067E0CE010A960E948D039989891326
:101A0000ECCF80913D02811128C0809142029091DB
:101A100043020E945B04BE01665F7F4F80914202D9
:101A2000909143020E943C0440E064EB80914202AA
:101A3000909143020E9408048091420290914302D7
:101A40000E949903182F80914202909143020E94B4
:101A50005B04111102C000933D02BE016F5F7F4F16
:101A6000CE010A960E94930410913E028A8580312D
:101A700009F440C1CE010A960E94FD04811750F47A
:101A800080913E0280933E02809141028F5F80935D
:101A90004102A3CF8A85803111F489E0F3CFCE01D2
:101AA0000A960E94FD04EECF82E191E00E94340A82
:101AB00089E291E00E94340A8CE291E00E94340AAB
:101AC0004AE061E070E080E090E00E94410A89E233
:101AD00091E00E94340A68EE73E080E090E00E949A
:101AE0004D0200E010E00E94360780916D018823CE
:101AF000A9F10E94FB09CE010A960E94B005BE0121
:101B00006F5F7F4FCE010A960E94EC04882309F193
:101B1000BE016F5F7F4FCE010A960E940D01609358
:101B20005A0170935B0180935C0190935D01109268
:101B30006D0168EE73E080E090E00E944D020115B7
:101B4000110589F20E94EA02882369F20E940000CE
:101B5000CACF60E070E08EEF92ECE1CF87E391E0D6
:101B60000E94340A0E94FB09CE010A960E94B00529
:101B7000BE016F5F7F4FCE010A960E94EC0488235E
:101B800009F496C0BE016F5F7F4FCE010A960E9496
:101B90000D016B017C01AC019B010E94B5108823F3
:101BA00009F48CC08DE491E00E94340A89E291E04E
:101BB0000E94340A68EE73E080E090E00E944D02DB
:101BC000B8CF2FEF3FEF4FE75FE4C701B6010E94A8
:101BD000431018161CF485E591E0E6CF2FEF3FEF98
:101BE0004FE75FECC701B6010E94EB0E87FDF3CF14
:101BF00020E030E0A901C701B6010E94EB0E87FF8B
:101C000009C06DE287E791E00E942003F7FAF094A3
:101C1000F7F8F0942AE037ED43EA5BE3C701B60139
:101C20000E947F0E4B015C010E94620F6B017C01E0
:101C30000E94910F9B01AC01C501B4010E947E0E70
:101C40004B015C014AE0C701B6010E94410A6EE205
:101C500087E791E00E94200320E030E040E251E479
:101C6000C501B4010E9448104B015C010E94620F43
:101C70006B01F12CE12C4AE0C701B6010E94410A38
:101C8000C701B6010E94910F9B01AC01C501B401CF
:101C90000E947E0E20E030E040E251E40E944810B5
:101CA0000E94620F90E080E04AE00E94410A7ECFED
:101CB000C12CD12C8EEFE82E82ECF82E4601570174
:101CC000E894B7F82FEF3FEF4FE75FE7C501B401A6
:101CD0000E94B510811175CF2FEF3FEF4FE75FE7FF
:101CE000C501B4010E94EB0E18160CF06ACF81E515
:101CF00091E05ACF1A3008F0C3CECFCE5058BB2750
:101D0000AA270E94960E0C9409100E94FB0F38F02F
:101D10000E94021020F039F49F3F19F426F40C942D
:101D2000F80F0EF4E095E7FB0C94F20FE92F0E94F8
:101D30001A1058F3BA17620773078407950720F043
:101D400079F4A6F50C943C100EF4E0950B2EBA2F06
:101D5000A02D0B01B90190010C01CA01A0011124B1
:101D6000FF27591B99F0593F50F4503E68F11A165D
:101D7000F040A22F232F342F4427585FF3CF4695EE
:101D800037952795A795F0405395C9F77EF41F1610
:101D9000BA0B620B730B840BBAF09150A1F0FF0FDA
:101DA000BB1F661F771F881FC2F70EC0BA0F621FC6
:101DB000731F841F48F4879577956795B795F795B6
:101DC0009E3F08F0B0CF9395880F08F09927EE0F4B
:101DD0009795879508950E94CE0F08F481E00895A5
:101DE0000E94040F0C9409100E94021058F00E94E7
:101DF000FB0F40F029F45F3F29F00C94F20F5111D2
:101E00000C943D100C94F80F0E941A1068F399235B
:101E1000B1F3552391F3951B550BBB27AA276217E6
:101E20007307840738F09F5F5F4F220F331F441FF3
:101E3000AA1FA9F335D00E2E3AF0E0E832D0915027
:101E40005040E695001CCAF72BD0FE2F29D0660F14
:101E5000771F881FBB1F261737074807AB07B0E857
:101E600009F0BB0B802DBF01FF2793585F4F3AF05D
:101E70009E3F510578F00C94F20F0C943D105F3F9B
:101E8000E4F3983ED4F3869577956795B795F795E3
:101E90009F5FC9F7880F911D9695879597F90895CB
:101EA000E1E0660F771F881FBB1F62177307840767
:101EB000BA0720F0621B730B840BBA0BEE1F88F776
:101EC000E09508950E94221088F09F5798F0B92F4E
:101ED0009927B751B0F0E1F0660F771F881F991F5F
:101EE0001AF0BA95C9F714C0B13091F00E943C10B5
:101EF000B1E008950C943C10672F782F8827B85FC5
:101F000039F0B93FCCF3869577956795B395D9F7B6
:101F10003EF490958095709561957F4F8F4F9F4FC0
:101F20000895E89409C097FB3EF4909580957095CC
:101F300061957F4F8F4F9F4F9923A9F0F92F96E915
:101F4000BB279395F695879577956795B795F1118A
:101F5000F8CFFAF4BB0F11F460FF1BC06F5F7F4F27
:101F60008F4F9F4F16C0882311F096E911C0772339
:101F700021F09EE8872F762F05C0662371F096E842
:101F8000862F70E060E02AF09A95660F771F881F11
:101F9000DAF7880F9695879597F90895990F0008B5
:101FA000550FAA0BE0E8FEEF16161706E807F9072B
:101FB000C0F012161306E407F50798F0621B730BC6
:101FC000840B950B39F40A2661F0232B242B252B47
:101FD00021F408950A2609F4A140A6958FEF811DEA
:101FE000811D089597F99F6780E870E060E008958B
:101FF0009FEF80EC089500240A9416161706180621
:102000000906089500240A941216130614060506FC
:102010000895092E0394000C11F4882352F0BB0F8D
:1020200040F4BF2B11F460FF04C06F5F7F4F8F4FF0
:102030009F4F089557FD9058440F551F59F05F3F2B
:1020400071F04795880F97FB991F61F09F3F79F0DA
:1020500087950895121613061406551FF2CF46955C
:10206000F1DF08C0161617061806991FF1CF8695DE
:102070007105610508940895E894BB2766277727C2
:10208000CB0197F908950E94CE0F08F48FEF0895C1
:102090000E945B100C9409100E94FB0F38F00E9404
:1020A000021020F0952311F00C94F20F0C94F80F0D
:1020B00011240C943D100E941A1070F3959FC1F3E7
:1020C000950F50E0551F629FF001729FBB27F00DE6
:1020D000B11D639FAA27F00DB11DAA1F649F66273B
:1020E000B00DA11D661F829F2227B00DA11D621F8A
:1020F000739FB00DA11D621F839FA00D611D221F44
:10210000749F3327A00D611D231F849F600D211D27
:10211000822F762F6A2F11249F5750409AF0F1F0AA
:1021200088234AF0EE0FFF1FBB1F661F771F881F13
:1021300091505040A9F79E3F510580F00C94F20F4A
:102140000C943D105F3FE4F3983ED4F38695779569
:102150006795B795F795E7959F5FC1F7FE2B880FB9
:10216000911D9695879597F908950E94CE0F880B3B
:10217000990B0895A1E21A2EAA1BBB1BFD010DC0ED
:10218000AA1FBB1FEE1FFF1FA217B307E407F50727
:1021900020F0A21BB30BE40BF50B661F771F881F03
:1021A000991F1A9469F760957095809590959B0199
:1021B000AC01BD01CF010895EE0FFF1F0590F49112
:0821C000E02D0994F894FFCF13
:1021C8000000000020038002AD026D03DE02BC02A5
:1021D800D0025365636F6E6461727920426F6172D9
:1021E8006420536B65746368000D0A00426F617266
:1021F800642049443A200044533138423230205454
:10220800656D70657261747572653A20006E616EF5
:0A22180000696E66006F7666000034
:00000001FF
