:100000000C94BE060C94E6060C94E6060C94E606E8
:100010000C94E6060C94E6060C94BC240C94E606BC
:100020000C94E6060C94E6060C94E6060C94E606A0
:100030000C94E6060C94E6060C94E6060C94E60690
:100040000C941A240C94E6060C948A240C946424D0
:100050000C94E6060C94E6060C94E6060C94E60670
:100060000C94E6060C94E6062920007E003E20282B
:10007000002076616C75653D00206D61783D002043
:100080006D696E3D003C696E70757420636C6173C0
:10009000733D2773206E27207265717569726564E0
:1000A00020747970653D6E756D626572206E616D4C
:1000B000653D00273E00206D696E6C656E67746853
:1000C0003D32206D61786C656E6774683D322063E7
:1000D0006C6173733D69207061747465726E3D2745
:1000E0005B612D66412D462662736F6C3B645D2B10
:1000F000272076616C75653D2700207265717569F2
:10010000726564003C696E707574206E616D653D4A
:10011000003C2F6C6162656C3E3C6469763E003A3F
:10012000003C6C6162656C3E20003C646976206333
:100130006C6173733D723E003C2F627574746F6E18
:100140003E003E002076616C75653D00203C627586
:1001500074746F6E206E616D653D003C2F6469762E
:100160003E3C2F6469763E003C2F7370616E3E000A
:100170003E003C7370616E2069643D00546F6F6C8B
:1001800073005254552053657474696E677300543C
:1001900043502F5544502053657474696E67730043
:1001A00049502053657474696E6773004D6F6462C3
:1001B0007573205374617475730053797374656D2E
:1001C00020496E666F003C62723E0020496E766187
:1001D0006C6964205443502F55445020526571750A
:1001E0006573740020496E76616C696420525455C1
:1001F00020526573706F6E73650020526573706F67
:100200006E73652054696D656F75740020536C6161
:100210007665204661696C656420746F2052657351
:10022000706F6E642028436F64652031312900208F
:1002300047617465776179204F7665726C6F616490
:1002400065642028436F6465203130290020536C99
:1002500061766520526573706F6E6465642077699E
:100260007468204572726F722028436F6465732032
:10027000317E38290020536C617665205265737099
:100280006F6E64656400205363616E6E696E672EE5
:100290002E2E3C62723E006800205443503C627235
:1002A0003E00205544503C62723E002072657175DC
:1002B0006573747300202F20002062797465733C8D
:1002C00062723E00202F2000206279746573002046
:1002D0002B006800272064697361626C6564206389
:1002E0006C6173733D693E003C696E707574207675
:1002F000616C75653D27000D0A25780D0025780D88
:100300000049502041646472657373003A004D41A6
:100310004320416464726573730045746865726E4E
:10032000657420536F636B65747300556E6B6E6FED
:10033000776E005735353030005735323030005742
:10034000353130300045746865726E6574204368DD
:10035000697000205772697465204379636C657316
:1003600000454550524F4D204865616C746800410E
:10037000726475696E6F204E616E6F004D696372B5
:100380006F636F6E74726F6C6C6572002E005357E2
:100390002056657273696F6E003C62723E00536353
:1003A000616E20536C61766573004D6F6462757386
:1003B00020536C61766573004D6F64627573204DD8
:1003C000617374657273003C62723E0052657365BE
:1003D00074205374617473004D6F6462757320539D
:1003E00074617469737469637300526571756573C0
:1003F0007473205175657565004D6F646275732067
:1004000052545520526573706F6E7365003C2F66B1
:100410006F726D3E3C666F726D206D6574686F64BF
:100420003D706F73743E00436C65617200682028F4
:10043000776974686F75742043524329203C696E54
:1004400070757420747970653D7375626D69742080
:1004500076616C75653D53656E643E004D6F6462F8
:100460007573205254552052657175657374002E52
:10047000003E0020636C6173733D27702069272064
:100480007265717569726564206D61786C656E67FF
:1004900074683D33207061747465726E3D275E2808
:1004A0002662736F6C3B647B312C327D7C3126621B
:1004B000736F6C3B642662736F6C3B647C325B30A1
:1004C0002D345D2662736F6C3B647C32355B302D5E
:1004D000355D2924272076616C75653D003C696E89
:1004E000707574206E616D653D004761746577615C
:1004F00079005375626D61736B0053746174696345
:100500002049500052616E646F6D697A65003A004F
:100510004D414320416464726573730073656300E9
:100520004D6F64627573205443502049646C65209C
:1005300054696D656F7574003C2F73656C656374E9
:100540003E003C2F6F7074696F6E3E004D6F6462A9
:10055000757320525455206F766572205443502F86
:10056000554450004D6F64627573205443502F55AD
:100570004450003E002073656C6563746564003C04
:100580006F7074696F6E2076616C75653D003E001A
:100590003C73656C656374206E616D653D004D6FE5
:1005A00064627573204D6F6465000057656255493C
:1005B00020506F7274004D6F646275732055445003
:1005C00020506F7274004D6F6462757320544350F5
:1005D00020506F72740000417474656D7074730004
:1005E0006D7300526573706F6E73652054696D652D
:1005F0006F7574006D7300496E7465722D6672615B
:100600006D652044656C6179003C2F73656C656392
:10061000743E20626974003C2F6F7074696F6E3E87
:10062000003E002073656C6563746564003C6F7008
:1006300074696F6E2076616C75653D003E003C7399
:10064000656C656374206E616D653D0053746F70F9
:100650002042697473003C2F73656C6563743E00BF
:100660003C2F6F7074696F6E3E004F646400457676
:10067000656E004E6F6E65003E002073656C6563AD
:10068000746564003C6F7074696F6E2076616C7580
:10069000653D003E003C73656C656374206E616D62
:1006A000653D00506172697479003C2F73656C651B
:1006B00063743E20626974003C2F6F7074696F6EC2
:1006C0003E003E002073656C6563746564003C6F9A
:1006D0007074696F6E2076616C75653D003E003CFC
:1006E00073656C656374206E616D653D0044617473
:1006F000612042697473003C2F73656C6563743EBE
:10070000206270730030303C2F6F7074696F6E3EE2
:10071000003E002073656C6563746564003C6F7017
:1007200074696F6E2076616C75653D003E003C73A8
:10073000656C65637420636C6173733D73206E61D7
:100740006D653D00426175642052617465005265BB
:10075000626F6F74002900202873746174696320CC
:1007600049503A20004C6F61642044656661756CA5
:10077000742053657474696E67730052656C6F61A1
:1007800064696E672E20506C6561736520776169BE
:10079000742E2E2E003C2F666F726D3E003C703E14
:1007A0003C64697620636C6173733D723E3C6C619E
:1007B00062656C3E3C696E70757420747970653D3D
:1007C0007375626D69742076616C75653D27536140
:1007D00076652026204170706C79273E3C2F6C6135
:1007E00062656C3E3C696E70757420747970653D0D
:1007F00072657365742076616C75653D43616E63E7
:10080000656C3E3C2F6469763E003C2F68343E3C6C
:10081000666F726D206D6574686F643D706F737480
:100820003E003C2F6469763E3C64697620636C61CF
:1008300073733D633E3C68343E003C2F613E3C2F69
:1008400068343E002E68746D3E003E3C6120687244
:1008500065663D00207374796C653D6261636B670A
:10086000726F756E642D636F6C6F723A23464636F5
:10087000363030003C683420003E3C68313E4D6FDD
:1008800064627573205254552026724172723B2067
:100890004D6F64627573205443502F554450204768
:1008A0006174657761793C2F68313E3C64697620DC
:1008B000636C6173733D773E3C64697620636C6161
:1008C00073733D6D3E00293B3C2F736372697074F6
:1008D000003E3C7363726970743E76617220613BC6
:1008E000636F6E737420623D28293D3E7B6665749C
:1008F00063682827642E6A736F6E27292E746865D3
:100900006E28653D3E7B72657475726E20652E6A39
:10091000736F6E28293B613D307D292E7468656EAA
:1009200028663D3E7B666F72287661722069206979
:100930006E2066297B696628646F63756D656E74C9
:100940002E676574456C656D656E744279496428DF
:10095000692929646F63756D656E742E67657445CA
:100960006C656D656E74427949642869292E696EDB
:100970006E657248544D4C3D665B695D3B7D7D29DB
:100980002E63617463682828293D3E7B69662821AF
:1009900061297B616C6572742827436F6E6E6E658A
:1009A0006374696F6E206C6F737427293B613D31EE
:1009B0007D7D297D3B736574496E74657276616CCB
:1009C0002828293D3E6228292C003E3C7469746C1D
:1009D000653E4D6F646275732052545520267241F6
:1009E00072723B204D6F64627573205443502F55D3
:1009F000445020476174657761793C2F7469746C49
:100A0000653E3C7374796C653E626F64792C2E6D23
:100A10007B70616464696E673A3170783B6D6172B6
:100A200067696E3A303B666F6E742D66616D696CF6
:100A3000793A73616E732D73657269667D68312CC6
:100A400068347B70616464696E673A313070787DB8
:100A500068312C2E6D2C68347B6261636B67726F1A
:100A6000756E643A233030363741433B6D617267AF
:100A7000696E3A3170787D2E6D2C2E637B686569C6
:100A80006768743A63616C63283130307668202D72
:100A90002037317078297D2E6D7B6D696E2D7769D9
:100AA0006474683A3230257D2E637B666C65782DE0
:100AB00067726F773A313B6F766572666C6F772D30
:100AC000793A6175746F7D2E772C2E727B64697311
:100AD000706C61793A666C65787D612C68312C6840
:100AE000347B636F6C6F723A77686974653B7465C9
:100AF00078742D6465636F726174696F6E3A6E6F9E
:100B00006E657D2E632068347B70616464696E67F6
:100B10002D6C6566743A3330253B6D617267696E82
:100B20002D626F74746F6D3A323070787D2E727BE7
:100B30006D617267696E3A3470787D6C6162656C64
:100B40007B77696474683A3330253B746578742D1B
:100B5000616C69676E3A72696768743B6D61726750
:100B6000696E2D72696768743A3270787D696E704B
:100B700075742C627574746F6E2C73656C65637418
:100B80007B6D617267696E2D746F703A2D3270786B
:100B90007D2E737B746578742D616C69676E3A7213
:100BA000696768747D2E733E6F7074696F6E7B64C5
:100BB0006972656374696F6E3A72746C7D2E697BBD
:100BC000746578742D616C69676E3A63656E7465DF
:100BD000723B77696474683A3363683B636F6C6F28
:100BE000723A626C61636B7D2E6E7B7769647468A8
:100BF0003A3863687D3C2F7374796C653E3C2F688E
:100C00006561643E3C626F6479003A0020687474E8
:100C1000702D65717569763D7265667265736820C1
:100C2000636F6E74656E743D353B75726C3D6874B0
:100C300074703A2F2F003C21444F435459504520A3
:100C400068746D6C3E3C68746D6C3E3C68656164B4
:100C50003E3C6D65746100485454502F312E312054
:100C6000323030204F4B0D0A436F6E74656E742D19
:100C7000547970653A20746578742F68746D6C0DC2
:100C80000A5472616E736665722D456E636F646996
:100C90006E673A206368756E6B65640D0A0D0A0015
:100CA0007D002200223A220022002C007B004854C2
:100CB00054502F312E31203230300D0A436F6E7474
:100CC000656E742D547970653A206170706C69633B
:100CD0006174696F6E2F6A736F6E0D0A5472616E64
:100CE000736665722D456E636F64696E673A206343
:100CF00068756E6B65640D0A0D0A00485454502FD8
:100D0000312E3120343034204E6F7420466F756E92
:100D1000640D0A0D0A343034204E6F7420666F75EE
:100D20006E640000000008000201000003040700D8
:100D3000000000000000000D0A300D0A0000000055
:100D400000250028002B0000000000240027002AB6
:100D50000004040404040404040202020202020364
:100D6000030303030301020408102040800102046E
:100D700008102001020408102000FC2411241FBECA
:100D8000CFEFD8E0DEBFCDBF11E0A0E0B1E0E2E7F9
:100D9000F4E702C005900D92AA3FB107D9F727E00A
:100DA000AAEFB1E001C01D92A830B207E1F716E04A
:100DB000CEEBD6E004C02197FE010E94E838CD3B7F
:100DC000D107C9F70E9439260C94373A0C940000D9
:100DD0008CBD9DBD089590E0FC01EB59F24F24912C
:100DE0008F5A924FFC018491882399F090E0880FEC
:100DF000991FFC01E95BF24FA591B491FC01E35C02
:100E0000F24F859194918FB7F894EC91E22BEC938B
:100E10008FBF0895DC018091FB069091FC060D9632
:100E200026E0893F9207E9F19093FC068093FB0648
:100E3000E091FB06F091FC068C91808311968C91D9
:100E40001197818312968C911297828315964D91FA
:100E50005D916D917C911897458356836783708768
:100E600019968D919C911A97928781871B968C91E8
:100E70001B9783871C968C9184878091FD068A300E
:100E8000C1F4E091F906F091FA06CF010D9626E043
:100E9000893F920749F09093FA068093F90680E023
:100EA000089587E796E0C0CF87E796E09687858725
:100EB000F6CF91E0980F9093FD06811108C08091C4
:100EC000FB069091FC069093FA068093F90681E068
:100ED000089520917406309175062F5F3F4F96E07C
:100EE00022373907E9F03093750620937406E091B4
:100EF0007406F09175068083809176068E3FC1F46A
:100F0000E0917206F0917306CF01019626E08237D8
:100F1000920749F0909373068093720680E00895DB
:100F200024E735E0E0CF84E795E092838183F6CF34
:100F300091E0980F90937606811108C08091740615
:100F400090917506909373068093720681E00895E0
:100F500090917606E0917406F0917506891780F4F9
:100F6000209172063091730624573540820F932FDB
:100F7000911D6EEF70E00E94D438FC01EC58FA4FDE
:100F800080810895FC01818D928D0895089590E0EF
:100F9000FC01ED5DF24F2491FC01EB59F24F3491CD
:100FA000FC01EF5AF24FE491EE23C9F0222339F00D
:100FB000233001F1A8F4213019F1223029F1F0E0B9
:100FC000EE0FFF1FE35CF24FA591B4918FB7F89439
:100FD000EC91611126C030953E233C938FBF08955C
:100FE0002730A9F02830C9F0243049F780918000DB
:100FF0008F7D03C0809180008F7780938000DFCF4A
:1010000084B58F7784BDDBCF84B58F7DFBCF809196
:10101000B0008F778093B000D2CF8091B0008F7DE9
:10102000F9CF3E2BDACF3FB7F894809158039091D7
:101030005903A0915A03B0915B0326B5A89B05C044
:101040002F3F19F00196A11DB11D3FBFBA2FA92F47
:10105000982F8827BC01CD01620F711D811D911D44
:1010600042E0660F771F881F991F4A95D1F70895B0
:101070008F929F92AF92BF92CF92DF92EF92FF92A8
:101080004B015C010E9413086B017C010E94130854
:101090006C197D098E099F09683E73408105910591
:1010A000A8F321E0821A9108A108B10888EEC80EC1
:1010B00083E0D81EE11CF11C81149104A104B10449
:1010C00029F7FF90EF90DF90CF90BF90AF909F9067
:1010D0008F9008952FB7F894609154037091550341
:1010E00080915603909157032FBF0895EF92FF927E
:1010F0000F931F93CF93DF938C017B01D0E0C0E06F
:10110000F701EC0FFD1F6491662361F0D801ED91AA
:10111000FC910190F081E02DC8010995892B11F017
:101120002196EECFCE01DF91CF911F910F91FF90CD
:10113000EF900895AF92BF92CF92DF92EF92FF921D
:101140000F931F93CF93DF936C017B018B01040FEF
:10115000151FEB015E01AE18BF08C017D10759F08B
:101160006991D601ED91FC910190F081E02DC601CD
:101170000995892B79F7C501DF91CF911F910F91C7
:10118000FF90EF90DF90CF90BF90AF900895FC015B
:10119000538D448D252F30E0842F90E0821B930BDC
:1011A000541710F0CF96089501970895FC01918D82
:1011B000828D981761F0A28DAE0FBF2FB11D5D9685
:1011C0008C91928D9F5F9F73928F90E008958FEF27
:1011D0009FEF0895FC01918D828D981731F0828DDB
:1011E000E80FF11D858D90E008958FEF9FEF089532
:1011F000FC01918D228D892F90E0805C9F4F821B96
:1012000091098F73992708958EE694E00E94F8085B
:1012100021E0892B09F420E0822F089580E090E0FE
:10122000892B29F00E94040981110C940000089573
:10123000FC01A48DA80FB92FB11DA35ABF4F2C914B
:10124000848D90E001968F739927848FA689B78942
:101250002C93A089B1898C91837080648C93938D39
:10126000848D981306C00288F389E02D80818F7DDC
:1012700080830895EF92FF920F931F93CF93DF9394
:10128000EC0181E0888F9B8D8C8D98131AC0E889C2
:10129000F989808185FF15C09FB7F894EE89FF8991
:1012A0006083E889F98980818370806480839FBF2F
:1012B00081E090E0DF91CF911F910F91FF90EF902F
:1012C0000895F62E0B8D10E00F5F1F4F0F7311273F
:1012D000E02E8C8D8E110CC00FB607FCFACFE8897A
:1012E000F989808185FFF5CFCE010E941809F1CFE1
:1012F000EB8DEC0FFD2FF11DE35AFF4FF0829FB7EE
:10130000F8940B8FEA89FB8980818062CFCFCF93DD
:10131000DF93EC01888D8823B9F0AA89BB89E8891D
:10132000F9898C9185FD03C0808186FD0DC00FB6C3
:1013300007FCF7CF8C9185FFF2CF808185FFEDCF41
:10134000CE010E941809E9CFDF91CF910895CF9384
:10135000DF93EC018C819D81DC01ED91FC91048097
:10136000F581E02D09952A853B85009739F488851C
:101370009985821B930BDF91CF910895821B930B6C
:1013800097FFF9CF90E080E0F6CFCF93DF93DC01B9
:101390001A964D915C914115510599F1EC018C81A2
:1013A0009D816E817F81DC01ED91FC910280F38152
:1013B000E02D09952A853B85281B390B3B872A8719
:1013C000232BA9F0009799F030E020E04A855B8557
:1013D0002417350760F4EE81FF81E20FF31FDF0170
:1013E000A80FB91F4C9140832F5F3F4FEFCFEC8187
:1013F000FD8182819381892B21F081E090E09B83A4
:101400008A83DF91CF910895AF92BF92CF92DF92FE
:10141000EF92FF920F931F93CF93DF938C016B0199
:101420005A017B01D0E0C0E0CA15DB05B9F1D80153
:101430001A968D919C911B97892B09F5A5014C1B40
:101440005D0B18968D919C91199748175907B8F024
:1014500014968D919C91B6016C0F7D1FDC01ED916E
:10146000FC910280F381E02DDF91CF911F910F91CC
:10147000FF90EF90DF90CF90BF90AF900994F7016D
:1014800061917F01D801ED91FC910190F081E02DF7
:10149000C8010995892B11F02196C6CFCE01DF91A5
:1014A000CF911F910F91FF90EF90DF90CF90BF9061
:1014B000AF900895FC01A681B781828593859C0138
:1014C0002F5F3F4F33872287A80FB91F6C93228568
:1014D0003385808591852817390741F4CF01019024
:1014E000F081E02D0680F781E02D099581E090E004
:1014F0000895FC0120812EBD9B012150310941F04E
:1015000051810DB407FEFDCF4EB55EBD4193F5CFC1
:1015100061507109860F971F0DB407FEFDCF2EB5E0
:10152000FC0120830895E0911C04F0911D0480814A
:1015300090911B04892B80830895E0911C04F09105
:101540001D04908180911B048095892380830895D8
:101550008EBD00000DB407FEFDCF8EB50895AF928D
:10156000BF92CF92DF92EF92FF920F931F93CF9390
:10157000DF93CDB7DEB728970FB6F894DEBF0FBE66
:10158000CDBF8C017B016A0180911F048333E1F49C
:101590005801A40EB51EA016B10609F46FC00E9432
:1015A0009D0A80EF0E94A80A812F0E94A80A802F1E
:1015B0000E94A80A0F5F1F4FF70181917F010E94CF
:1015C000A80A0E94930AE7CF5B01A40EB51E8433DC
:1015D000C1F40E949D0A19830A838D2D80688B8334
:1015E000CC8264E070E0CE0101960E94790AAE14CC
:1015F000BF0409F441C0F70181917F010E94A80A4C
:10160000F6CF0E949D0A0F3F110509F028F41982B8
:101610000A8384E08B830CC017FD17C019820A83EC
:1016200033E0169507953A95E1F7007E0C600B8341
:1016300086E0C816D104A0F5F701DE011496EA157C
:10164000FB0599F081918D93FACFC80126E096951C
:1016500087952A95E1F7807E19830A830115104C3E
:1016600010F48461D7CF8C61D5CFB6016D5F7F4F09
:10167000CE0101960E94790A0E94930AC60128961B
:101680000FB6F894DEBF0FBECDBFDF91CF911F9193
:101690000F91FF90EF90DF90CF90BF90AF900895A3
:1016A00063E070E0CE0101960E94790AF701819112
:1016B0007F010E94A80AAE14BF04C1F7DDCF90E0FD
:1016C00020911F04233339F40C96982F990F990F0A
:1016D000990F80E008954896F8CFDA01E091200450
:1016E000F0E0FE2FEE27E60FF71F90E0982F8827F7
:1016F000A901BD018E0F9F1F0C94AF0ACF93DF93FA
:1017000000D0CDB7DEB779836A8322E030E0AE0146
:101710004F5F5F4F60E170E00E946D0B0F900F9084
:10172000DF91CF910895CF93DF9300D0CDB7DEB78F
:1017300079836A8322E030E0AE014F5F5F4F64E05F
:1017400070E00E946D0B0F900F90DF91CF91089584
:10175000CF93DF931F92CDB7DEB76983DC01ED91A4
:10176000FC910280F381E02D41E050E0BE016F5F0B
:101770007F4F09950F90DF91CF910895CF93DF931D
:101780001F92CDB7DEB76983DC01ED91FC91028039
:10179000F381E02D41E050E0BE016F5F7F4F09957E
:1017A0000F90DF91CF910895FC019485FB01848512
:1017B000981303C081E0943008F080E00895CF933F
:1017C000DF931F92CDB7DEB76983DC01ED91FC9109
:1017D0000280F381E02D41E050E0BE016F5F7F4F5A
:1017E00009950F90DF91CF910895FC01AC014E5FF8
:1017F0005F4F80E0219190ED920F9A3040F48295F6
:10180000807F8053820FE417F507A1F708959FEBBF
:10181000920F963020F48295807F8753F3CF9FE913
:10182000920F963080F78295807F8755EBCFCF93CC
:10183000DF93EC01683098F4E62FF0E0EE5DF34FB3
:101840000C94E8382A0C360C390C3C0C3C0C3F0C40
:10185000420C450C65E772E0CE010E94760866EC0A
:1018600071E0CE01DF91CF910C9476086DE472E0C7
:10187000F3CF6FE272E0F0CF6CE072E0EDCF6AEF91
:1018800071E0EACF64EE71E0E7CF6BEC71E0E4CF9A
:10189000633099F028F4613049F0623059F00895CE
:1018A000653089F068F0663089F008956AEB71E080
:1018B0000C9476086CEA71E0FBCF60EA71E0F8CF37
:1018C0006FE871E0F5CF62E871E0F2CF6CE771E0AC
:1018D000EFCF6BE571E00C9476080F931F93CF93D5
:1018E000DF93EC018B016AE271E00E94760861E20D
:1018F00071E0CE010E9476080115110549F0B8018A
:10190000CE010E9476086FE171E0CE010E94760858
:1019100061E171E0CE01DF91CF911F910F910C94A5
:1019200076081092FC01282F2F7090E034E09595F6
:1019300087953A95E1F7382F2A3058F0295C2093A3
:10194000FB013A3040F0895C8093FA018AEF91E024
:101950000895205DF4CF805DF7CF2091350330915D
:101960003603A9014827CA0128E0AC014170552778
:1019700096958795452B21F051E0852750EA9527CC
:10198000215099F790933603809335030895CF92B1
:10199000DF92EF92FF921F93CF93DF93EC017B01D5
:1019A0008FEF9FEF909336038093350310E06B0128
:1019B00082E0C81AD108812F90E08C159D0544F46F
:1019C0008C0F9D1FFC0180810E94AD0C1F5FF3CF27
:1019D0009091350380913603CE0DDF1DFE013197C6
:1019E0002081281304C0229781E02881291380E0F8
:1019F000DF91CF911F91FF90EF90DF90CF900895EE
:101A0000FC01DB018D919C9111979183808312964B
:101A10008C911297828388ED91E09483838315964D
:101A20004D915D916D917C911897458356836783A5
:101A3000708719968D919C911A97928781871B9632
:101A40008C911B9783871C968C91848708950F93A4
:101A50001F93CF93DF93CDB7DEB72D970FB6F894D2
:101A6000DEBF0FBECDBF8C016091F9067091FA0602
:101A70008091FD0681110FC0C8010E94000DC801B0
:101A80002D960FB6F894DEBF0FBECDBFDF91CF917C
:101A90001F910F910895CB010D969093FA068093B4
:101AA000F906CE0101960E94000D8091F9069091F1
:101AB000FA06895F964030F087E796E09093FA0641
:101AC0008093F9068091FD0681508093FD06BE014A
:101AD0006F5F7F4FC8010E94000DD1CFCF93DF937E
:101AE000CDB7DEB76A970FB6F894DEBF0FBECDBF95
:101AF0006091F9067091FA06CE010E960E94000DD3
:101B0000898D86FD1092290383FF08C0E82FE770B6
:101B1000F0E0E95CFC4F90819150908387FF05C015
:101B20008091280381508093280348898091720610
:101B3000909173062091760630E0431761F02223DE
:101B400041F0019656E08237950710F084E795E062
:101B500021503F5FF2CF20937606909373068093D7
:101B60007206CE0101960E94270D6A960FB6F89470
:101B7000DEBF0FBECDBFDF91CF910895CF92DF9230
:101B8000EF92FF920F931F93209111023091120256
:101B90004091130250911402C0901102D090120291
:101BA000E0901302F090140244275527A9E6B0E90B
:101BB0000E9483386701EE24FF24C60ED71EE81E5C
:101BC000F91EC0921102D0921202E0921302F0921A
:101BD0001402C0900001D0900101E0900201F09049
:101BE0000301A701960144275527A0E5B6E40E940A
:101BF0008338870122273327060F171F281F391F15
:101C0000009300011093010120930201309303011E
:101C10008091110290911202A0911302B0911402CE
:101C2000DC0199278827800F911FA21FB31FE2E2D2
:101C3000F4E0209118013091190140911A01258397
:101C40003683478380879187A2871F910F91FF90EA
:101C5000EF90DF90CF9008952091490430E0C901C2
:101C600095958795982F937023FB882780F9890F86
:101C700054E0359527955A95E1F7237033272230A4
:101C8000310514F4895F0895885F0895CF92DF923B
:101C9000EF92FF92CF93C091490420914704309175
:101CA0004804A4E6B0E00E94C5386B017C01E091D5
:101CB0007E04F0917F0482E08083C11481EED80617
:101CC000E104F104A1F060E079E08DE390E0A70188
:101CD00096010E94613821503109410951095695F8
:101CE000479537952795211580E13807A8F0E091B1
:101CF0007E04F0917F04108260E874E88EE190E049
:101D0000A70196010E94613821503109410951090A
:101D10005695479537952795E0917A04F0917B0485
:101D20003083E0917C04F0917D042083109286043E
:101D3000E0918204F0918304C083E0918004F091EB
:101D40008104808180618083E0918004F09181042E
:101D5000808188608083E0918004F091810480819B
:101D600080688083E0918004F091810480818F7D80
:101D7000808386E00E94EB0660E086E0CF91FF90D2
:101D8000EF90DF90CF900C94C707CF93DF931F9213
:101D9000CDB7DEB7698341E050E0BE016F5F7F4F92
:101DA0000E94AF0A0F90DF91CF910895682F90E0C5
:101DB00080E00C94C50E2091200430E0322F2227C1
:101DC000260F371F90E0982F8827642F820F931FCC
:101DD0000C94C50EFC01768765870895DC01ED91B2
:101DE000FC9102A0F3A1E02D099591E089270895C7
:101DF000862F089581E08627089521E0FC018485DF
:101E0000843008F020E0822F08950895FC01848535
:101E100095850895FC0184899589089528ED31E020
:101E2000FC0131832083FB014089518962897389D8
:101E3000FC0142835383648375830895DC01ED9133
:101E4000FC91048CF58DE02D09940895FF920F9379
:101E50001F93CF93DF93EB01FC01178A168A2A8127
:101E6000211109C02B81211106C02C81211103C031
:101E70002D81222301F141155105E9F08A01FC0170
:101E8000F08C80E591E00E94E806AE014E5F5F4F66
:101E900024E030E06CE070E08F2D0E946D0BB80103
:101EA0008F2D0E947E0B81E090E0DF91CF911F91FA
:101EB0000F91FF90089580E0F7CF089590E080E0C3
:101EC0000895873FD8F5282F26952695269530E04A
:101ED0008770E82FF0E0E057FE4F5081752F709526
:101EE000F901E058FC4F85E0908197239083815061
:101EF0007F968111F9CF862F90E0F9017FE1679FEE
:101F0000E00DF11D1124E058FC4F2081252B20838A
:101F10006430A1F0411112C0FC01EE0FFF1FEE0F63
:101F2000FF1FE25BFB4F80819181A281B38101960B
:101F3000A11DB11D80839183A283B38308952F9245
:101F40003F924F925F926F927F928F929F92AF9249
:101F5000BF92CF92DF92EF920F931F93CF93DF93B5
:101F6000CDB7DEB72D970FB6F894DEBF0FBECDBF4D
:101F70006C015B0129013A014801009144040023EE
:101F8000C9F00E94C70C811125C080916A0490910C
:101F90006B04A0916C04B0916D040196A11DB11D5C
:101FA00080936A0490936B04A0936C04B0936D04C7
:101FB00080E035C0FC0182818111E7CF83818111EE
:101FC000E4CF84818111E1CF2581CB0106972817C9
:101FD0001906D9F681E08027082F000F080F000F9F
:101FE00010E0A01AB10A8091440490E0880F991F74
:101FF000A81AB90A1601200E311EF10180819091B4
:10200000FD069A3039F0209176069EEF921B9A15C4
:102010001B04E8F440E062E00E94610F8AE02D9624
:102020000FB6F894DEBF0FBECDBFDF91CF911F91E9
:102030000F91EF90DF90CF90BF90AF909F908F90D7
:102040007F906F905F904F903F902F900895873FC3
:1020500008F068C0282F26952695269530E0E82FB1
:10206000E770F0E0E057FE4F908120583C4FF901B7
:10207000E458FF4F40814923A9F080915A04909180
:102080005B04A0915C04B0915D040196A11DB11D9B
:1020900080935A0490935B04A0935C04B0935D0416
:1020A0008BE0BDCF235A3F4FF90120819223D1F11C
:1020B00040E064E00E94610FF1018081811102C063
:1020C0006894E6F8E3FE08C0EE2DE770F0E0E95C06
:1020D000FC4F80818F5F8083F601808189838181BD
:1020E0008A83AB8288ED91E09D838C834E825F82F0
:1020F000688679869B868A86EC861D86CE01019647
:102100000E940A07E12C8E2D90E08A159B0590F421
:102110008C0D9D1DFC01E00FF11F80810E9469075D
:10212000E394F1CF6894E7F8809128038F5F809360
:102130002803C2CF8091760690E02091FE01309175
:10214000FF012817390720F49093FF018093FE01C7
:102150008091FD069091FD01981708F029CF80939A
:10216000FD0126CFAF92BF92CF92DF92EF92FF9206
:102170000F931F93CF93DF9300D000D0CDB7DEB77E
:102180008C016B017A0180911F048333E9F45B01B8
:102190006801C40ED51EC016D106A9F10E949D0A81
:1021A0008FE00E94A80A812F0E94A80A802F0E9417
:1021B000A80A0F5F1F4F80E00E94A80AF5018193D3
:1021C0005F010E94930AE7CF843369F50E949D0A5C
:1021D00019830A838F2D8F778B83EC8264E070E004
:1021E000CE0101960E94790AA70170E060E0C60165
:1021F0000E94273AE114F10421F0B701C6010E94C0
:10220000790A0E94930AC7010F900F900F900F90C8
:10221000DF91CF911F910F91FF90EF90DF90CF90C2
:10222000BF90AF9008950E949D0A0F3F110509F0DD
:1022300030F419820A831B8263E070E0D1CF17FD6E
:102240000BC019820A8333E0169507953A95E1F79A
:10225000007E08600B83F0CFC80126E09695879535
:102260002A95E1F7807E19830A830115104C18F432
:1022700080618B83E1CF8861FCCFCF93DF931F9286
:10228000CDB7DEB72091200430E0322F2227260F71
:10229000371F90E0982F882741E050E0BE016F5F24
:1022A0007F4F820F931F0E94B21089810F90DF91A0
:1022B000CF910895CF93C82F462F61E070E00E9420
:1022C000DB0E61E070E08C2F0E943D118111F9CF8F
:1022D000CF910895CF93C82F80E591E00E94E80642
:1022E00068E070E08C2FCF910C945A11CF93C82FD7
:1022F00080E591E00E94E80660E170E08C2FCF91CC
:102300000C945A11CF93DF93EC01888D843020F424
:102310000E94761184E0888FDF91CF910895CF934A
:10232000FC01C08D80E591E00E94E80660E270E06B
:102330008C2F0E945A1162E070E08C2F0E943D1198
:1023400084FD16C062E070E08C2F0E943D1183FF77
:102350000AC048E162E070E08C2F0E94DB0E80E052
:1023600090E0CF91089580E591E00E94E806E3CFE8
:1023700040E162E070E08C2F0E94DB0E81E0F0CF44
:1023800063E070E00C943D11CF93C82F80E591E09D
:102390000E94E8068C2FCF910C94C011EF92FF920F
:1023A0000F931F93CF937C0108E713E0C0E0F8017F
:1023B000219131918F01F701848195812817390787
:1023C00029F0CF5FC43099F780E006C08C2F0E94BF
:1023D000C4118431B1F781E0CF911F910F91FF902B
:1023E000EF900895CF93DF93EC018C858430D0F487
:1023F0000E94C411843189F0882379F0883169F012
:1024000021E08C3159F4E881F9810084F185E02DD7
:10241000CE01099521E0892B09F420E0822FDF917C
:10242000CF91089580E0FBCFCF92DF92EF92FF92A1
:10243000CF93DF93EC018C85843068F40E946A119D
:102440000E946A086B017C018C850E94C411811175
:1024500009C084E08C87DF91CF91FF90EF90DF90EF
:10246000CF90089561E070E080E090E00E9438082D
:102470000E946A08AB01BC014C195D096E097F0915
:102480008D859E85B0E0A0E0481759076A077B0755
:10249000D8F28C850E947611DCCFCF93C82F0E9492
:1024A000C011873199F468E070E08C2F0E945A11B6
:1024B0000E946A0824E0C29FF0011124E55CFC4FF1
:1024C0006083718382839383CF91089560E170E08C
:1024D0008C2FCF910C945A11CF93DF931F92CDB7CD
:1024E000DEB741E050E0BE016F5F7F4F90E080E0DB
:1024F0000E94B21089810F90DF91CF910895CF9300
:10250000DF93C4E1D0E00E946C12882361F061E0A7
:1025100070E080E090E00E9438082197A1F780E009
:10252000DF91CF91089581E0FBCF5F926F927F9210
:102530008F929F92AF92BF92CF92DF92EF92FF92D3
:102540000F931F93CF93DF931F92CDB7DEB75C013C
:102550004B016A013901809121048111A9C060E316
:1025600072E080E090E00E9438085FB6F8940BE5D6
:102570001DE03FE6E32E3DE0F32E80911E04811125
:1025800022C0F8018491F7019491E82FF0E0EE0F5A
:10259000FF1FE95BF24FA591B4918C91982321F430
:1025A00061E08AE00E94C7078AE00E94EB068CB5D2
:1025B00080618CBD8CB580648CBD8DE00E94EB0683
:1025C0008BE00E94EB0680911E048F5F80931E04B7
:1025D0005FBEF8010491E02FF0E0EE0FFF1FE35C17
:1025E000F24F8591949190931D0480931C04F70100
:1025F000E490E0921B048AE00E94EB060E94930A9A
:1026000080E591E00E94E80684E380931F0480E85F
:102610000E94D60E0E947F12882309F47EC088E0B3
:102620000E94D60E0E946C12883009F076C080E1BC
:102630000E94D60E0E946C12803109F06EC080E0BC
:102640000E94D60E0E946C12182F811166C041E0C4
:1026500050E0BE016F5F7F4F8FE190E00E94B210AB
:102660008981833009F059C080E48093200442E0DE
:102670006EE170E0812F0E94DB0E42E06FE170E0BE
:10268000812F0E94DB0E1F5F143089F740E06EE15E
:1026900070E0812F0E94DB0E40E06FE170E0812F3F
:1026A0000E94DB0E1F5F183089F781E080932104C0
:1026B00080E591E00E94E80646E050E067E274E0C1
:1026C00089E090E00E94AF0AB5016E5F7F4F44E061
:1026D00050E08FE090E00E94AF0AB6016E5F7F4F3E
:1026E00044E050E081E090E00E94AF0AB3016E5FE9
:1026F0007F4F44E050E085E090E00E94AF0AF40193
:1027000082819381A481B5818093370590933805A8
:10271000A0933905B0933A055EC087E380931F0408
:1027200080E80E94D60E0E947F12882329F188E05B
:102730000E94D60E0E946C128830F1F480E10E9453
:10274000D60E0E946C12182F8031B1F480E00E94E6
:10275000D60E0E946C1281110FC041E050E0BE0104
:102760006F5F7F4F89E390E00E94B21089818430CF
:1027700019F41093200499CF83E380931F0480E819
:102780000E94D60E0E947F12882319F180E10E94D8
:10279000D60E0E946C128031E1F482E10E94D60EC6
:1027A0000E946C128231A9F480E00E94D60E0E9431
:1027B0006C1281110EC084E08093200465E58BE1EA
:1027C00090E00E94C50E65E58AE190E00E94C50E8A
:1027D0006CCF10921F040F90DF91CF911F910F913A
:1027E000FF90EF90DF90CF90BF90AF909F908F9031
:1027F0007F906F905F9008951F93CF93DF931F9208
:10280000CDB7DEB7182F80E591E00E94E806812F52
:102810000E945F0B27E0129FF0011124E45AFC4F45
:1028200022813381377041E050E0BE016F5F7F4FFE
:10283000820F931F0E94B21089810F90DF91CF9178
:102840001F910895FC01808D843040F4218D328DDC
:10285000232B21F00E94FC1390E008958FEF9FEF4F
:102860000895CF93DF93FC012485243028F08FEF67
:102870009FEFDF91CF910895EC010190F081E02D61
:102880000084F185E02D0995892B89F38C850E94C0
:10289000FC1390E0EECFDA01E0912004F0E0FE2F8F
:1028A000EE27E60FF71F90E0982F8827A901BD01BA
:1028B0008E0F9F1F0C94B2108F929F92AF92BF9277
:1028C000CF92DF92EF92FF921F93CF93DF93CDB71A
:1028D000DEB72C970FB6F894DEBF0FBECDBF2091A8
:1028E0001F0414E0222329F16B017C0180E591E0B3
:1028F0000E94E8065E0127E0A20EB11C450110E02F
:10290000812F0E94C011F40181934F01882349F166
:102910001F5F1430A9F710E0F50181915F018D313F
:10292000D9F08831C9F08A518230B0F01F5F14307D
:1029300099F7812F2C960FB6F894DEBF0FBECDBF4E
:10294000DF91CF911F91FF90EF90DF90CF90BF90DC
:10295000AF909F908F90089560E170E0812F0E946A
:102960005A11A12EB12CF501EE0FFF1FE858FC4FB4
:102970001182108283EE93E00197F1F742E870E054
:1029800060E0812F0E94DB0E4FEF62E070E0812F4C
:102990000E94DB0EB601C114D10491F480910A01AA
:1029A00090910B0101968115F0EC9F0708F45CC033
:1029B00090930B0180930A0160910A0170910B01C1
:1029C000812F0E94930B86E0E2E1F1E0DE01119697
:1029D00001900D928A95E1F7F70183818F778C83BF
:1029E00084818D8385818E83A7014E5F5F4F24E0B4
:1029F00030E06CE070E0812F0E946D0BB601812FFA
:102A00000E947E0B26E030E0AE014F5F5F4F66E034
:102A100070E0812F0E946D0B61E070E0812F0E94B9
:102A20005A1127E02A9DC0012B9D900D11249C0175
:102A3000245A3C4F7901F9011182108222E030E0E2
:102A4000AE01455F5F4F68E270E0812F0E944B143A
:102A50008B859C85982789279827F7019383828304
:102A600016821582148265CF80E090ECA1CFCF92C0
:102A7000DF92EF92FF920F931F93CF93DF9300D0DB
:102A800000D000D0CDB7DEB78C016B017A01FC011C
:102A9000808D843010F40E94761188ED91E09A8345
:102AA0008983F60182819381A481B5818B839C8384
:102AB000AD83BE83B701CE0101960E945C14F8017C
:102AC000808F8430A0F4F586E486128E118E81E02A
:102AD00026960FB6F894DEBF0FBECDBFDF91CF9123
:102AE0001F910F91FF90EF90DF90CF90089580E0BD
:102AF000EFCFAF92BF92CF92DF92EF92FF920F9300
:102B00001F93CF93DF9300D000D000D0CDB7DEB7B6
:102B1000082F6B0180E591E00E94E8069E012F5F7F
:102B20003F4F7901590110E0812F0E94C011F5013A
:102B300081935F01882341F11F5F1430A9F710E0F2
:102B4000F70181917F018D31D1F08831C1F08A5137
:102B50008230A8F01F5F143099F7812F26960FB6A8
:102B6000F894DEBF0FBECDBFDF91CF911F910F91C3
:102B7000FF90EF90DF90CF90BF90AF90089560E10D
:102B800070E0812F0E945A11E12EF12CF701EE0F17
:102B9000FF1FE858FC4F1182108283EE93E00197EB
:102BA000F1F7402F70E060E0812F0E94DB0E4FEFC5
:102BB00062E070E0812F0E94DB0EB601CD2889F41F
:102BC00080910A0190910B0101968115F0EC9F070D
:102BD00098F190930B0180930A0160910A01709122
:102BE0000B01812F0E94930B61E070E0812F0E9406
:102BF0005A1127E02E9DC0012F9D900D11249C019C
:102C0000245A3C4F7901F9011182108222E030E010
:102C1000AE014B5F5F4F68E270E0812F0E944B1462
:102C20008D819E81982789279827F7019383828336
:102C300016821582148291CF80E090ECCACFCF9299
:102C4000DF92EF92FF921F93CF93DF93EC017B0112
:102C50006A018C85843048F40E94C411882319F0DD
:102C60008C850E946A1184E08C87F70182819381B0
:102C7000A481B5810097A105B10551F490E080E0F1
:102C8000DF91CF911F91FF90EF90DF90CF9008954B
:102C90008F3F9F4FAF4FBF4F89F380911F0481112A
:102CA00003C084E08C87EACF70E060E081E20E949C
:102CB0007915182F8C87843008F780E591E00E9401
:102CC000E806A7014E5F5F4F24E030E06CE070E063
:102CD000812F0E946D0BB601812F0E947E0B64E054
:102CE00070E0812F0E945A110E946A086B017C01DA
:102CF0008C850E94C411873109F18C31F9F0882349
:102D000009F4BCCF0E946A08AB01BC014C195D09F3
:102D10006E097F098D859E85B0E0A0E08417950738
:102D2000A607B70738F061E070E080E090E00E940D
:102D30003808DECF8C850E947611B3CF81E090E019
:102D40009FCF0F931F93CF93DF93EC018B01888D5F
:102D5000843010F40E94761180911F04811107C005
:102D600094E0988FDF91CF911F910F910895B80152
:102D700082E00E947915888F843030F41D870C879B
:102D80001A8E198E81E0EECF80E0ECCF0F931F9367
:102D9000CF9320911F04222349F18C01FC0164810F
:102DA000758181E20E947915C82F8430F8F480E59E
:102DB00091E00E94E8068C2F0E94C011833131F00F
:102DC0008C2FCF911F910F910C946A1162E070E0EB
:102DD0008C2F0E945A11F80184819581EC2FF0E02C
:102DE000EE0FFF1FE858FC4F91838083CF911F9116
:102DF0000F9108957F928F929F92AF92BF92CF9240
:102E0000DF92EF92FF920F931F93CF93DF9300D047
:102E1000CDB7DEB7782E8B014A01590122E030E0B0
:102E2000AE014F5F5F4F64E270E00E944B14E98097
:102E3000FA80FE24EF24FE24E00EF11E9701377085
:102E400040911F04072D10E0433309F042C0085F92
:102E50001F4F102F0027110F110F110FC901800FE5
:102E6000911F4733C9F1A9014A0D5B1D41305840FC
:102E700098F160E078E06B01C21AD30AA601B401B0
:102E80000E94AF0AA5014C195D09B4016C0D7D1DAE
:102E9000C8010E94AF0AEA0CFB1CF982EA8222E018
:102EA00030E0AE014F5F5F4F64E270E0872D0E941B
:102EB0006D0B0F900F90DF91CF911F910F91FF90AD
:102EC000EF90DF90CF90BF90AF909F908F907F90CA
:102ED0000895005F1F4FBDCFA501B401DACFEF9277
:102EE000FF921F93CF93DF9300D0CDB7DEB7182F9B
:102EF00022E030E0AE014F5F5F4F60E270E00E9481
:102F00004B14E980FA80FE24EF24FE2422E030E016
:102F1000AE014F5F5F4F60E270E0812F0E944B1463
:102F200089819A81982789279827E816F90689F4D4
:102F300087E0189FF0011124E45AFC4FF582E482E7
:102F4000C7010F900F90DF91CF911F91FF90EF90ED
:102F500008957C01DBCF1F93CF93DF93182F80E57B
:102F600091E00E94E806812F0E946F17EC01812FEB
:102F70000E94C011873121F08C3111F0D0E0C0E007
:102F8000CE01DF91CF911F910895CF93DF93EC0194
:102F90008C85843060F40E94C411873111F08C312B
:102FA00031F48C850E94AB178115984088F3DF912E
:102FB000CF910895FC018485843010F40C94AB17F4
:102FC00090E080E00895CF92DF92EF92FF921F93FE
:102FD000CF93DF93182F7B01EA014130584010F066
:102FE000C0E0D8E080E591E00E94E806812F0E94D1
:102FF0006F176C01812F0E94C011873111F08C3145
:1030000021F5CC16DD0670F380E591E00E94E8061C
:103010009E01A70170E060E0812F0E94FA1660E235
:1030200070E0812F0E945A1162E070E0812F0E94AF
:103030003D1184FD0DC0812F0E94C0118823B9F07D
:1030400080E591E00E94E806EFCFD0E0C0E0DCCF61
:1030500040E162E070E0812F0E94DB0ECE01DF9143
:10306000CF911F91FF90EF90DF90CF900895D0E027
:10307000C0E0F4CF0F931F93CF93DF938C01EA014D
:10308000FC018485843048F40E94E317892B39F4CD
:1030900081E090E0F80193838283D0E0C0E0CE012C
:1030A000DF91CF911F910F9108959F92AF92BF92A0
:1030B000CF92DF92EF92FF920F931F93CF93DF9304
:1030C0008C015B01942EE52EFC01C688D788F08C1C
:1030D00080E591E00E94E8068F2D0E946F17C92DB0
:1030E000DE2D8C179D0708F4EC019E01A501B601A9
:1030F0008F2D0E94FA16F801868997898C0F9D1FE3
:10310000978B868BCE01DF91CF911F910F91FF900E
:10311000EF90DF90CF90BF90AF909F900895FF9277
:103120000F931F93CF93DF9300D0CDB7DEB7F82E68
:1031300022E030E0AE014F5F5F4F66E270E00E9438
:103140004B1409811A8110270127102722E030E053
:10315000AE014F5F5F4F66E270E08F2D0E944B140F
:1031600089819A819827892798270817190749F490
:10317000C8010F900F90DF91CF911F910F91FF9099
:1031800008958C01E3CF1F93CF93DF93182F87E02F
:10319000189FE0011124C45ADC4F8881998100975F
:1031A00061F480E591E00E94E806812F0E948F186B
:1031B0002E81821B910999838883DF91CF911F9182
:1031C00008957F928F929F92AF92BF92CF92DF929B
:1031D000EF92FF920F931F93CF93DF938C015B01CC
:1031E0007A0180911F04882309F465C088E7C82EFE
:1031F00083E0D82E4601712CC0E0D4012D913D9181
:103200004D01F801848195812817390799F48C2F95
:103210000E94C411D82F873119F08C3109F03FC0BA
:103220008C2F0E94C318892B29F4DC3119F48C2FC0
:103230000E946A11CF5FC43001F7711008C0D80135
:10324000ED91FC910084F185E02DC8010995C0E065
:10325000F601219131916F01D80114968D919C91C5
:103260002817390751F48C2F0E94C411873129F493
:10327000A701B5018C2F0E94E317CF5FC43041F73F
:10328000C701DF91CF911F910F91FF90EF90DF90D9
:10329000CF90BF90AF909F908F907F900895843192
:1032A00039F08111C7CFF401329711821082C2CF59
:1032B00077247394BFCFF12CE12CE2CFFC018485FD
:1032C000843010F40C94C31890E080E008954F927D
:1032D0005F927F928F929F92AF92BF92CF92DF9236
:1032E000EF92FF920F931F93CF93DF9300D0CDB750
:1032F000DEB7782E6B014A01A82EB12C27E0829F01
:10330000C0011124FC01E45AFC4F7F0100811181AE
:1033100080E591E00E94E8060815190554F4872D10
:103320000E948F18F70126818C01021B110911835D
:1033300000830115110519F5872D0E94C0118431F4
:1033400059F0882349F001E010E08C3111F410E0CD
:1033500000E0119501951109C8010F900F90DF91C0
:10336000CF911F910F91FF90EF90DF90CF90BF9082
:10337000AF909F908F907F905F904F9008958016B0
:1033800091060CF4840187E08A9DF0018B9DF00D7D
:103390001124E45AFC4FE280F380C114D10451F1AE
:1033A0002701F7E05F22872D0E945F0B840D951D9A
:1033B00020911F04273309F453C09801240D351DB3
:1033C0002130384008F44CC020E038E0490184182E
:1033D0009508A401B6010E94B2102601480C591CA0
:1033E0006801C818D908872D0E945F0BA601B20199
:1033F0000E94B210E00EF11E87E08A9DF0018B9DC5
:10340000F00D1124E45AFC4FF382E28220813181D5
:10341000201B310B318320838681800F912F911DDA
:103420008A3F910510F4232BF1F487E08A9DF00187
:103430008B9DF00D1124E45AFC4F1682F982EA822A
:1034400022E030E0AE014F5F5F4F68E270E0872D11
:103450000E946D0B60E470E0872D0E945A117CCFB2
:10346000A801B601C5CF868377CFCF93DF93FC0148
:10347000218D328D2115310529F48FEF9FEFDF91DA
:10348000CF910895EC01808D4217530708F0A901F0
:103490000E9467191816190684F7298D3A8D281B82
:1034A000390B3A8F298FEBCF0F931F93CF93DF9375
:1034B0001F92CDB7DEB7FC01218D328D232B41F455
:1034C0008FEF9FEF0F90DF91CF911F910F91089594
:1034D0008C0141E050E0BE016F5F7F4FFC01808DA9
:1034E0000E946719181619065CF7F801818D928DF4
:1034F0000197928F818F898190E0E4CFCF93DF9302
:103500001F92CDB7DEB741E050E0BE016F5F7F4F45
:10351000FC0184850E9467191816190634F4898104
:1035200090E00F90DF91CF9108958FEF9FEFF9CF4B
:10353000FC018485843010F40C94671990E080E0DD
:103540000895AF92BF92CF92DF92FF920F931F9395
:10355000CF93DF93CDB7DEB76E970FB6F894DEBF8B
:103560000FBECDBF5C016B018A016091F9067091BD
:10357000FA06CE0140960E94000D10922A0380E0C8
:10358000282F30E02017310760F4803140F4F90132
:10359000E050FE4F2C0D3D1DD9019C9190838F5F13
:1035A000EFCF80932A038B8D85FF3FC0498D5A8DC5
:1035B00088ED91E09A8389838D899E89AF89B88D42
:1035C0008B839C83AD83BE83BE016F5F7F4F89E594
:1035D00095E00E94260F80914404A80181110AC041
:1035E00046E050E0B50189E595E00E945518A80134
:1035F00042505109B60189E595E00E94551889E5C8
:1036000095E00E948F110E946E0D6E960FB6F89491
:10361000DEBF0FBECDBFDF91CF911F910F91FF9005
:10362000DF90CF90BF90AF90089583FFECCF87706D
:10363000F82E1C821B8288EE93E0A0E0B0E08D8320
:103640009E83AF83B88782E691E09A838983FD8663
:1036500088EE93E09F878E878F2D0E94C01187315F
:1036600091F622E030E0AE01435E5F4F60E170E032
:103670008F2D0E944B148D8D9E8D9827892798271A
:10368000298D3A8D2817390709F0BDCF8091440460
:10369000A80181110AC046E050E0B501CE010196B3
:1036A0000E943A18A80142505109B601CE01019674
:1036B0000E943A18A8CF0F931F93CF93DF9300D0A7
:1036C000CDB7DEB7FC0124852430E0F48C0180E521
:1036D00091E00E94E80622E030E0AE014F5F5F4FCC
:1036E00060E170E0F80184850E944B1489819A8121
:1036F0009827892798270F900F90DF91CF911F91DE
:103700000F91089590E080E0F6CFCF93DF9300D043
:10371000CDB7DEB722E030E0AE014F5F5F4F64E02F
:1037200070E00E944B1489819A81982789279827F5
:103730000F900F90DF91CF910895CF93DF93FC010D
:103740002485243050F4EC0180E591E00E94E806E5
:103750008C85DF91CF910C94851B90E080E0DF9108
:10376000CF910895EEE4F4E080E2DF011D928A95A6
:10377000E9F70895DC0188ED91E08D939D9384E055
:10378000FB0101900D928A95E1F70895EF92FF9267
:103790000F931F93CF93DF9300D000D0CDB7DEB748
:1037A0008C017B01FB0184858430A8F088ED91E0D9
:1037B000F801918380831282138214821582C801DA
:1037C0000F900F900F900F90DF91CF911F910F915D
:1037D000FF90EF90089580E591E00E94E80624E0D4
:1037E00030E0AE014F5F5F4F6CE070E0F701848521
:1037F0000E944B14BE016F5F7F4FC8010E94BA1B2D
:10380000DECFCF93DF93CDB7DEB768970FB6F894CE
:10381000DEBF0FBECDBF87E00E94EB0660E087E011
:103820000E94C70769E170E080E090E00E943808DC
:1038300061E087E00E94C70764EF71E080E090E0FC
:103840000E94380861E374E0CE0143960E94BA1BDF
:1038500065E374E0CE010D960E94BA1B88ED91E0FD
:1038600098878F8319861A861B861C866DE274E002
:10387000CE0101960E94BA1B9E012D5E3F4FAE0104
:10388000435F5F4FBE01695F7F4FCE0101960E948B
:103890009512198282E38A8342E050E0BE016F5F95
:1038A0007F4F87E190E00E94AF0A63E089E190E0FA
:1038B0000E94C50EE2E2F4E0848D958DA3E5B5E0AB
:1038C00013961C921E92129715969C938E931497A2
:1038D00080A191A1ADE4B5E013961C921E921297BF
:1038E00015969C938E931497668D778D89E595E058
:1038F0000E94A11683E595E00E94C6168DE495E02E
:103900000E94C61668960FB6F894DEBF0FBECDBFF4
:10391000DF91CF9108950F931F93CF93DF93CDB78E
:10392000DEB728970FB6F894DEBF0FBECDBF8C016F
:10393000D80159964D915C915A974115510551F016
:10394000ED91FC91048CF58DE02D70E060E0C801F4
:103950000995EECFF801808D0E94C318892BB1F133
:1039600048E050E0BE016F5F7F4FD80158968C91C0
:103970000E94671918161906F4F4D801509684E0CD
:10398000FE01319601900D928A95E1F78D8190E0CC
:10399000982F88272E81820F911DF801958B848B9B
:1039A0008F81282F30E0322F22278885820F932F96
:1039B000911D928F818F28960FB6F894DEBF0FBEAF
:1039C000CDBFDF91CF911F910F91089590E080E0DE
:1039D000F2CF4F925F926F927F928F929F92AF92AF
:1039E000BF92CF92DF92EF92FF920F931F93CF93EC
:1039F000DF93CDB7DEB763970FB6F894DEBF0FBE87
:103A0000CDBF7C016B013A01FB0120E090E080E03A
:103A10006AE03191332309F461C040ED430F4A302D
:103A200008F04DC0689FA001699F500D1124CA0184
:103A3000C097830F911D37FD9A958F3F910549F3EC
:103A400040F3F70142815381648175818091430580
:103A500090914405A0914505B09146054817590736
:103A60006A077B0709F40DC28701085F1F4F0E9498
:103A70006A086F7077277C5FC8010E94A1168130A9
:103A800009F004C288ED91E09A838983F70182816D
:103A90009381A481B5818B839C83AD83BE8345E3F1
:103AA00050E0BE016F5F7F4FC8010E94260F892B37
:103AB000A9F5D12CC12CC8010E94821117C03E3239
:103AC00009F0BFCF233009F4BCCFD301A20FB11D41
:103AD00012968C932F5F90E080E09BCF233009F00B
:103AE000B0CFF3018583CC24C394D12CC601639657
:103AF0000FB6F894DEBF0FBECDBFDF91CF911F91FF
:103B00000F91FF90EF90DF90CF90BF90AF909F907C
:103B10008F907F906F905F904F9008950E946A08F9
:103B2000F7017783668342E050E0B7016A5F7F4F19
:103B3000C8010E94551881E090E09A83898342E091
:103B400050E0BE016F5F7F4FC8010E94551880E0B2
:103B500091E09A83898342E050E0BE016F5F7F4F1E
:103B6000C8010E9455181A82198242E050E0BE0135
:103B70006F5F7F4FC8010E94551842E050E0BE01C0
:103B80006F5F7F4FC8010E94551842E050E0BE01B0
:103B90006F5F7F4FC8010E9455185601F601808162
:103BA000882301F16501F60181912F01882311F02D
:103BB0008E32B1F446018A189B081814190474F463
:103BC0008D8641E050E0BE01635F7F4FC8010E94D7
:103BD0005518A401B501C8010E9455185201DECF45
:103BE0006201E1CF1D8641E050E0BE01635F7F4F7F
:103BF000C8010E945518C12CDD24D394DA82C982F1
:103C000042E050E0BE016F5F7F4FC8010E9455182F
:103C1000DA82C98242E050E0BE016F5F7F4FC80187
:103C20000E945518C8010E948F11892B09F441CFB9
:103C3000F3E0AF2EB12C230122E0420E511CD4C080
:103C4000F7014281538164817581808D918DA28DB0
:103C5000B38D481759076A077B0709F008C1848D9F
:103C6000958DC59709F003C181A192A15DEFC52E85
:103C7000DD24DA940C970CF4ADC04CE050E0BE01AA
:103C80006F5F7F4FC8010E94351A8B819C819827F6
:103C9000892798279A8B898BF7014681578129813B
:103CA0003A814217530709F0E7C097FFE5C08F70CC
:103CB00092703BEFC32EDD24DA94892B09F08AC081
:103CC0006F8078847624672476242AEFC22EDD2440
:103CD000DA946114710409F47DC0D12CC12C8D815A
:103CE0009E81982789279827C816D906F8F441E0BD
:103CF00050E0BE01635F7F4FC8010E94351A4D85B9
:103D0000442331F050E070E060E0C8010E94351AB1
:103D10008D858111ECCF44E050E070E060E0C80197
:103D20000E94351AFFEFCF1ADF0AD9CF912C812CD0
:103D300041E050E0BE016D5E7F4FC8010E94351A20
:103D40004B89842F807C09F06CC0442331F050E013
:103D500070E060E0C8010E94351A8B898111E8CFBC
:103D600042E050E0BE01615F7F4FC8010E94351AFA
:103D700042E050E0BE01635F7F4FC8010E94351AE8
:103D800044E050E070E060E0C8010E94351A42E073
:103D900050E0BE016F5E7F4FC8010E94351A8F85CB
:103DA000988949895A898115914009F043C0CD8489
:103DB000DE84DC24CD24DC2481E0C816D104D1F5D6
:103DC0004115544009F04AC044E050E0B201C80136
:103DD0000E94351A21E0A21AB10809F46CCEFFEF57
:103DE000CF16DF0609F067CE0E946A083B014C013E
:103DF000C8010E948B1C181619060CF421CF0E94D2
:103E00006A08661977098809990969387341810533
:103E1000910548F562E370E080E090E00E94380888
:103E2000E7CF41E050E070E060E0C8010E94351A41
:103E30001B8A93CF54274527542770E060E0C801C0
:103E40000E94351AFFEF8F1A9F0A6814790409F04F
:103E50006FCF96EFC92EDD24DA94BCCFE7EFCE2EDC
:103E6000DD24DA94B7CFCC24CA94DC2CB3CF6EEF28
:103E7000C62EDD24DA94AECF4CEFC42EDD24DA94C6
:103E8000A9CF8EEFC82EDD24DA9430CED12CC12CF0
:103E90002DCECF92DF92EF92FF920F931F93CF938D
:103EA000DF93CDB7DEB7AF970FB6F894DEBF0FBE86
:103EB000CDBF7C016A0108ED11E01A8309831C86DD
:103EC0001B8688EE93E0A0E0B0E08D879E87AF87E9
:103ED000B88B8EEA91E09A878987188F0F8B198E9D
:103EE0001A8E1B8E1C8E84E089A31BA70AA71CA612
:103EF0001DA61EA61FA68091370590913805A0919A
:103F00003905B0913A058EA39FA3A8A7B9A78B83C3
:103F10009C83AD83BE8318861F82AE01465D5F4FD2
:103F2000CE0101960E94E91C81309105B1F4D701C0
:103F3000ED91FC910488F589E02D1DA30CA38CA5BF
:103F40009DA5AEA5BFA58EA39FA3A8A7B9A7A601AF
:103F5000BE016C5D7F4FC7010995AF960FB6F8940F
:103F6000DEBF0FBECDBFDF91CF911F910F91FF90AC
:103F7000EF90DF90CF900895CF92DF92EF92FF9273
:103F80000F931F93CF93DF93CDB7DEB7AF970FB6E5
:103F9000F894DEBF0FBECDBF8C016B017A0188EDB6
:103FA00091E09A8389831B821C821D821E821C865B
:103FB0001B8648EE53E060E070E04D875E876F87B8
:103FC000788B2EEA31E03A872987988F8F8B198E6C
:103FD0001A8E1B8E1C8E24E029A39BA78AA71CA6E1
:103FE0001DA61EA61FA6D8011C968C91843060F4D5
:103FF0000E94C411882321F0F80184850E946A116F
:1040000084E0D8011C968C938091370590913805F7
:10401000A0913905B0913A058EA39FA3A8A7B9A78F
:104020008B839C83AD83BE8318861F82AE01465D61
:104030005F4FB601CE0101960E94E91C0097C1F0C6
:10404000D801ED91FC910684F785E02D88ED91E093
:104050009DA38CA38CA59DA5AEA5BFA58EA39FA354
:10406000A8A7B9A7A701BE016C5D7F4FC80109953C
:10407000AF960FB6F894DEBF0FBECDBFDF91CF91E4
:104080001F910F91FF90EF90DF90CF900895FB016B
:1040900001900020E9F73197AF01461B570BDC0177
:1040A000ED91FC910280F381E02D09948F929F9213
:1040B000AF92BF92EF92FF920F931F93CF93DF9334
:1040C000CDB7DEB7A1970FB6F894DEBF0FBECDBF58
:1040D0007C01FA01CB0119A2223008F42AE08E01FA
:1040E0000F5D1F4F822E912CB12CA12CBF01A50179
:1040F00094010E946138F901CA016A300CF5605DD3
:10410000D8016E938D01232B242B252B79F790E07A
:1041100080E0109721F0BD01C7010E944720A196C1
:104120000FB6F894DEBF0FBECDBFDF91CF911F91C8
:104130000F91FF90EF90BF90AF909F908F90089558
:10414000695CDECFAB0170E060E02AE00C945620A1
:10415000AB01770F660B770B20E10C945620242FD0
:10416000462F50E070E060E00C9456208F929F92B2
:10417000AF92BF92CF92DF92EF92FF920F931F9375
:10418000CF93DF937C01EB016C0182E0C80ED11C60
:104190004701E5E08E0E911C10E000E0F601619110
:1041A0006F014AE050E0CE010E94AF205C01E8813F
:1041B000F9810190F081E02D6EE2CE0109958A0D22
:1041C0009B1D080F191FC814D90441F74AE050E09D
:1041D000F7016581CE010E94AF20800F911FDF9112
:1041E000CF911F910F91FF90EF90DF90CF90BF90F4
:1041F000AF909F908F9008959C01CB01B9010C94D2
:10420000B620FF920F931F93CF93DF93EC018B01A6
:10421000F42E6CE471E00E9476086CE270E0CE014E
:104220000E94A82064E471E0CE010E9476084AE072
:1042300050E06F2DCE010E94AF2062E471E0CE010C
:104240000E947608B801CE010E94760868E371E00A
:10425000CE01DF91CF911F910F91FF900C947608C2
:10426000AF92BF92CF92DF92EF92FF920F931F9384
:10427000CF93DF93EC01A62EB42E690165E870E0C0
:104280000E94760840E150E06A2DCE010E94AF20E6
:104290006FE770E0CE010E9476084AE050E06B2D97
:1042A000CE010E94AF2069E770E0CE010E9476083F
:1042B000B601CE010E94A22061E770E0CE010E940B
:1042C0007608B801CE010E94A2206DE670E0CE0112
:1042D0000E9476084AE050E06B2DCE010E94AF208C
:1042E0006BE670E0CE010E947608B601CE010E9416
:1042F000A22068E670E0CE010E947608B701CE01E8
:10430000DF91CF911F910F91FF90EF90DF90CF90B1
:10431000BF90AF900C9476086115710511F00C9464
:10432000472090E080E00895BF92CF92DF92EF9215
:10433000FF920F931F93CF93DF93CDB7DEB72A97EA
:104340000FB6F894DEBF0FBECDBF8C01653009F407
:1043500093C0D8F4633009F451C082E2C82E84E0DF
:10436000D82EF12C643009F4BFC02A960FB6F89409
:10437000DEBF0FBECDBFDF91CF911F910F91FF9098
:10438000EF90DF90CF90BF900895663009F4C4C0DD
:10439000FF24F394673049F7CF2CC694C694C69493
:1043A000D12CF601E058FC4F6F01E12CEF2DE770A6
:1043B000F0E0E057FE4FB080F60180818B2121F4C0
:1043C000809109018F11F5C08F2D0E94910CBC01C5
:1043D000C8010E948C2167E972E0C8010E9476083A
:1043E000809109018F11E1C066E872E0C8010E9466
:1043F0007608F39497EFF912CFCFB7CFD12CC12C19
:1044000068EE72E0C8010E94760880912A03C816FF
:1044100050F4F601E050FE4F80810E94910CBC01E7
:10442000C8010E948C2164ED72E0C8010E947608E8
:104430008FEFC81AD80A90E1C916D10409F762EDC6
:1044400072E0C8010E94760880912A03813108F445
:104450008CCF6FEC72E0C8010E94760860912A034D
:1044600060514AE050E0C8010E94AF2068EC72E061
:10447000C8010E94760879CF6091FE017091FF011A
:104480000E94A22064EC72E0C8010E9476086EEFE0
:1044900070E0C8010E94A22069EB72E0C8010E948E
:1044A00076084AE050E06091FD01C8010E94AF200B
:1044B00065EB72E0C8010E9476084AE050E06AE0CD
:1044C000C8010E94AF206BEA72E0C8010E94760822
:1044D0008091760690E09093FF018093FE01809199
:1044E000FD068093FD0141CFE4E0FE1669F0F60180
:1044F00044A555A566A577A52AE0C8010E945620C7
:104500006F2DC8010E94170CF394F4E0CF0ED11C5C
:1045100088E0F812E9CF29CFF12C24E030E0AE0199
:10452000495F5F4F6CE070E08F2D0E944B148F81CC
:104530008823B9F08F2D0E94C0118232B9F4BE01D8
:10454000695F7F4FCE0101960E94BA1BBE016F5F6B
:104550007F4FC8010E94FC2062EA72E0C8010E94FD
:104560007608F39494E0F912D8CFFFCE8F2D0E94F5
:10457000C0118731B1F78F2D0E94851B20913E0419
:1045800030913F048217930761F7BE01695F7F4F47
:10459000CE0101960E94BA1BBE016F5F7F4FC8011A
:1045A0000E94FC2069E972E0D9CF6E2DC8010E94FB
:1045B000170CE394FFE1CF0ED11C85E0E812FCCE8E
:1045C00018CF1F93CF93DF93EC01162F62E771E0B2
:1045D0000E9476084AE050E0612FCE010E94AF2091
:1045E00060E771E0CE010E947608612FCE010E9443
:1045F000942168E671E0CE01DF91CF911F910C9478
:104600007608EF92FF920F931F93CF93DF93EC0105
:10461000E62EF42E122F64E071E00E94760840E14D
:1046200050E06E2DCE010E94AF20FF2029F06AEFEE
:1046300070E0CE010E94760866EB70E0CE010E9429
:104640007608112339F0802F0E94910CBC01CE0115
:104650000E948C2163EB70E0CE01DF91CF911F911E
:104660000F91FF90EF900C947608EF92FF920F93CA
:104670001F93CF93DF93DC011C962C91211108C06E
:10468000DF91CF911F910F91FF90EF900C94C5098E
:10469000FC01228533852115310509F446C0558575
:1046A00051114AC007E02F3F310511F008F054C006
:1046B00044E002E02031310508F04BC005E04CC079
:1046C0004DEF52E0EC0110E0EE24FF24E01AF10A75
:1046D0003F932F935F934F938E819F818E0D9F1DEC
:1046E0009F938F930E94AA35EE81FF8131978AE0D4
:1046F00080830F900F900F900F900F900F908D85EB
:1047000081111D868C819D814A855B85400F511FDB
:104710006E817F816E0D7F1DDC01ED91FC91028029
:10472000F381E02D09951B861A86DF91CF911F91A9
:104730000F91FF90EF90089505E02F3F310511F0A4
:1047400008F0BECF04E02031310508F0B9CF42E0D7
:1047500001E0040F5111B4CF47EF52E0B3CF0F93F4
:104760001F93CF93DF93EC018A859B85892B19F0EA
:10477000CE010E9435238C85882369F00C811D8130
:1047800067E37DE0C8010E9476086AEE71E0C80127
:104790000E9447201C86DF91CF911F910F910895B1
:1047A000FF920F931F93CF93DF9380E097E9A9E4E3
:1047B000B1E080934F0390935003A0935103B093C3
:1047C00052030E946A0860934B0370934C038093DA
:1047D0004D0390934E038091220490912304A09165
:1047E0002404B09125040196A11DB11D80932204DB
:1047F00090932304A0932404B093250402E214E0D0
:10480000C0E6D0E0F801F1908F01CE010E944B3854
:10481000F81621F06F2DCE010E9453382196CC3A24
:10482000D10581F7DF91CF911F910F91FF900895EE
:104830000C949E391F920F920FB60F9211242F9352
:104840003F938F939F93AF93BF9380915403909125
:104850005503A0915603B09157033091530323E0C1
:10486000230F2D3758F50196A11DB11D2093530339
:104870008093540390935503A0935603B09357032A
:104880008091580390915903A0915A03B0915B0312
:104890000196A11DB11D8093580390935903A093D5
:1048A0005A03B0935B03BF91AF919F918F913F915A
:1048B0002F910F900FBE0F901F90189526E8230F91
:1048C0000296A11DB11DD2CF1F920F920FB60F926B
:1048D00011242F933F934F935F936F937F938F9305
:1048E0009F93AF93BF93EF93FF938EE694E00E9464
:1048F0001809FF91EF91BF91AF919F918F917F9197
:104900006F915F914F913F912F910F900FBE0F903C
:104910001F9018951F920F920FB60F9211242F938C
:104920008F939F93EF93FF93E0917E04F0917F0428
:104930008081E0918404F091850482FD1BC0908108
:10494000809187048F5F8F7320918804821741F0D4
:10495000E0918704F0E0E259FB4F958F8093870444
:10496000FF91EF919F918F912F910F900FBE0F901C
:104970001F9018958081F4CF1F920F920FB60F925F
:1049800011242F938F939F93AF93BF938091100225
:104990008150809310028091110290911202A09197
:1049A0001302B0911402BA2FA92F982F8827809351
:1049B000110290931202A0931302B093140220915B
:1049C00084008091110290911202A0911302B09183
:1049D000140282278093110290931202A093130273
:1049E000B0931402BF91AF919F918F912F910F902F
:1049F0000FBE0F901F9018951092710410927004C2
:104A000088EE93E0A0E0B0E080937204909373048A
:104A1000A0937404B09375048CE991E090936F04B3
:104A200080936E0485EC90E090937B0480937A04ED
:104A300084EC90E090937D0480937C0480EC90E083
:104A400090937F0480937E0481EC90E090938104A6
:104A50008093800482EC90E090938304809382049E
:104A600086EC90E0909385048093840410928704F0
:104A7000109288041092890410928A0488ED91E0C3
:104A800090930C0580930B0510920D0510920E0566
:104A900010920F0510921005909312058093110546
:104AA0001092130510921405109215051092160518
:104AB00090931805809317051092190510921A0506
:104AC00010921B0510921C0590931E0580931D05E6
:104AD00010921F05109220051092210510922205B8
:104AE00090932405809323051092250510922605A6
:104AF000109227051092280590932A058093290586
:104B000010922B0510922C0510922D0510922E0557
:104B10009093300580932F05109231051092320545
:104B2000109233051092340590933C0580933B0519
:104B300010923D0510923E0510923F0510924005DF
:104B400090933605809335051092370510923805FD
:104B50001092390510923A059093420580934105D1
:104B60001092430510924405109245051092460597
:104B700090934805809347051092490510924A0585
:104B800010924B0510924C059093FF068093FE0601
:104B9000109200071092010710920207109203076B
:104BA000E7E7F6E0948383831582168217821086E6
:104BB0003D9626E0E93FF207A9F727E736E0309374
:104BC000FA062093F9063093FC062093FB06109218
:104BD000FD0624E735E03093730620937206309388
:104BE0007506209374061092760610925C0510925A
:104BF0005B0548EE53E060E070E040935D05509344
:104C00005E0560935F05709360052EEA31E0309396
:104C10005A05209359059093680580936705109273
:104C2000690510926A0510926B0510926C0584E07C
:104C30008093710510925605109255058EED91E006
:104C4000909354058093530526EF31E03093580537
:104C5000209357051092500510924F0590934E05E2
:104C600080934D0580E590E0909352058093510527
:104C70000895CF93DF93CDB7DEB7CE54D1400FB6B2
:104C8000F894DEBF0FBECDBF789484B5826084BD3A
:104C900084B5816084BD85B5826085BD85B5816040
:104CA00085BD80916E00816080936E0010928100BE
:104CB0008091810082608093810080918100816079
:104CC000809381008091800081608093800080913A
:104CD000B10084608093B1008091B00081608093C6
:104CE000B00080917A00846080937A0080917A008D
:104CF000826080937A0080917A00816080937A004C
:104D000080917A00806880937A001092C10010929E
:104D1000110210921202109213021092140280E2F9
:104D200080931002F89414BE809160008861809393
:104D3000600080E4809360007894809110021816DF
:104D4000E4F3F89414BE8091600080618093600069
:104D5000109260007894A2E2EA2EA4E0FA2E00E617
:104D600010E0C8010E944B38D7018D937D010F5F81
:104D70001F4F0C3A1105A9F780912604873091F056
:104D800087E08093260481E2EDE3F1E0ADE2B4E058
:104D900001900D928A95E1F70E94BE0D0E94B21B10
:104DA0000E94D0230E94460E0E94011C1E01BBEFF0
:104DB0002B1ABEEF3B0AF1017796C55BDE4FF983F4
:104DC000E883CB54D1402BE331E02C0F3D1F2E5F05
:104DD0003F4FC35BDE4F39832883CD54D1406E01F2
:104DE00033EEC31A3EEFD30A10910901112309F4DF
:104DF00048C09091FD068AE0891B823008F441C0CA
:104E0000909176068EEF891B8730D8F18091290327
:104E1000811137C081E08093290319821A8286E0CC
:104E20008B8388ED91E09D838C831E821F82188680
:104E300019861B861A8680E48C871D86CE01019612
:104E40000E940A07812F0E946907F4E0EF2EF1E02B
:104E5000FF2ED7018D917D010E946907B9E0EB1605
:104E6000B1E0FB06B1F780910401833009F063C023
:104E700084E08093040180910901883F11F410922D
:104E800009010E9413080091200310912103209131
:104E9000220330912303601B710B820B930B009153
:104EA0002403109125032091260330912703061730
:104EB00017072807390708F04BC08091FD068823A3
:104EC00009F446C06091F9067091FA06C1010E948A
:104ED000000D10911602113009F480C098F504E716
:104EE00015E080912803882309F458C06091F906E1
:104EF0007091FA06CE0101960E94000D8C8587FD07
:104F00004DC0F12C6091F9067091FA06CE01019620
:104F10000E94000D8B81F81608F057C0909176061C
:104F2000E0917206F091730691113CC080810E945D
:104F30006907F394E7CF83E0809304011F5F109328
:104F4000090199CF123009F4B1C0133009F433C10B
:104F500089E595E00E948B1C4C01892B09F425C240
:104F60009E012F5F3F4F590184E091E0D901FC0180
:104F70001D923197E9F744E051E0B90189E595E0E8
:104F80000E94351A8091720590917305892B09F45E
:104F900083C189E595E00E94541AF4CF81E08093A3
:104FA0001602D6CF9F012F5F3F4F30937306209399
:104FB000720680812257364020F0109373060093CA
:104FC0007206915090937606B2CFCE0101960E9460
:104FD000270DCE0101960E940A0783CF8EE694E04A
:104FE0000E94C7081816190674F4809115028111E1
:104FF0000AC061E086E00E94C7078FEF9FEF9093A1
:105000003603809335038EE694E00E94C708181695
:1050100019063CF410911502D10112968C911817C3
:10502000E8F08EE694E00E94C708029744F58EE609
:1050300094E00E94C708CF9709F08ACFD101129659
:105040009C9180911502981708F082CF109215025A
:105050008EE694E00E94870982E0A1CF812F0E9412
:10506000A807682F8EE694E00E943A09812F0E94DB
:10507000A8070E94AD0C1F5F10931502C4CFF10169
:105080001281809115021813D2CF609135030091DF
:1050900036038EE694E00E943A09602F8EE694E093
:1050A0000E943A091F5F10931502C1CF60E086E0AD
:1050B0000E94C707F10184858F5F8487CE01019626
:1050C0000E94270DB101CE0101960E94000D809132
:1050D000F9069091FA068757964031F489EF96E0E9
:1050E0009093FA068093F9068091F9069091FA065A
:1050F000FC013D97F093FA06E093F906298120839D
:105100002A81DC011C972C932B8122830A974E81E4
:105110005F8168857985DC0112964D935D936D936F
:105120007C9315978A859B85928781878C85838759
:105130008D8584878091FD068A3091F58091FB06EC
:105140009091FC06B6E087379B0739F10D97909355
:10515000FC068093FB0620914B0430914C04F10136
:10516000838586FF02C028EC30E0A8EEB3E00E9401
:10517000C53860932403709325038093260390938E
:1051800027030E94130860932003709321038093E8
:1051900022039093230383E002CF8CEE96E0D7CFD7
:1051A00091E0980F9093FD068111D5CF8091F9067B
:1051B0009091FA06CCCFD1011B968C9186FF05C049
:1051C0000E946E0D10921602C3CEF101F48400917C
:1051D0004D0480E00E94A80740E0F01608F458C093
:1051E00063E00E94610F1B821C821D821E821E834F
:1051F000D1018C91898311968C918A8385E0F60187
:1052000011928A95E9F78BE0D60112968C9380E093
:105210000E94A807182FF601808381E00E94A8074A
:105220008058D60111968C938FEF9FEF90933603A1
:1052300080933503812F0E94AD0CF60181810E947D
:10524000AD0CD60112968C910E94AD0C9091350355
:1052500080913603F6019383848345E050E0B601E4
:10526000CE0101960E94A11A80916204909163047C
:10527000A0916404B09165040196A11DB11D8093B5
:10528000620490936304A0936404B09365049ACF7E
:1052900064E00E94610FE8CF00916D0510916E05EA
:1052A0002091690530916A0540916B0550916C051C
:1052B000E0E2EE2EB401C5010E949F0F982E8823D4
:1052C00009F473C040916D0550916E0588ED91E031
:1052D000D1018D939C938091690590916A05A0916D
:1052E0006B05B0916C05F10182839383A483B58330
:1052F000B10189E595E00E94260F80914404811157
:105300000CC045E050E0B50189E595E00E945518D4
:1053100063E089E595E00E94A80B0091440481E0D8
:105320008027082F000F080F000F10E07501E00E16
:10533000F11ED7016C9189E595E00E94A80B0F5FE3
:105340001F4F0A0D1B1DF8016081605889E595E02B
:105350000E94A80B692D89E595E00E94A80B809119
:1053600044048823F1F08FEF9FEF909336038093EE
:105370003503D7018C910E94AD0CF80180818058D3
:105380000E94AD0C892D0E94AD0C6091350389E51A
:1053900095E00E94A80B6091360389E595E00E9494
:1053A000A80B89E595E00E948F118EE694E00E949B
:1053B000F808181619060CF052C08EE694E00E9408
:1053C000D60890911F03E92FF0E0E15EFD4F808346
:1053D0009F5F90931F0300914704109148042EEEA5
:1053E00032E040E050E0013C110568F40E942C0ED0
:1053F000282F30E0A8E9BAE30E94C538980150E0B0
:1054000040E00E94613820931B0230931C024093BD
:105410001D0250931E020E9413086093170270939E
:1054200018028093190290931A0220914A0430E0E6
:10543000A8EEB3E00E94C53860932403709325035F
:1054400080932603909327030E9413086093200300
:10545000709321038093220390932303A6CF0E948D
:10546000130800911702109118022091190230912F
:105470001A02601B710B820B930B00911B0210919F
:105480001C0220911D0230911E02061717072807E3
:105490003907B0F5F0901F03FF2091F16091F906F4
:1054A0007091FA06CE0101960E94000D0F2D10E0BA
:1054B000B8018FE192E00E94C70C882361F0E09070
:1054C0001F0280E00E94A807E81205C08091160222
:1054D000833009F471C08091660490916704A091B3
:1054E0006804B09169040196A11DB11D8093660402
:1054F00090936704A0936804B093690410921F030B
:1055000080E591E00E94E8065BE3A52E53E0B52E0E
:10551000E7E3F3E0C85BDE4FF983E883C854D1408A
:1055200064E0962EF4E0C95BDE4FF883C754D140A7
:1055300024E0CA5BDE4F2883C654D14034E0CB5B05
:10554000DE4F3883C554D140CF5BDE4F18821982BD
:105550001A821B82C154D140812C10E078EEE72ED4
:1055600073E0F72E812F0E94C011082F0E946A0855
:10557000D5014D905D906D907C909B01AC012419FC
:1055800035094609570929013A01C85BDE4FA88150
:10559000B981C854D1408D91C85BDE4FB983A883CF
:1055A000C854D1408823B9F10E946A08F50160838C
:1055B0007183828393833CC08C8580749091200298
:1055C000913820F040E061E0882329F041E081112A
:1055D00001C040E060E08E2D0E94610FD101139662
:1055E0001C921E92129789818C938A8111968C93BA
:1055F0001197C801029714969C931497FA94FA9401
:105600001596FC92A8016FE172E0C1010E94A11AF7
:105610001092160273CF083109F49BC008F093C0B2
:10562000043109F4AAC008F066C0002309F4A3C03D
:105630001F5F34E0A30EB11C143009F093CF44E097
:10564000941609F45EC35E0154EDA51A5EEFB50A27
:10565000D50113961C921E92129728EE33E040E07B
:1056600050E014962D933D934D935C93179782E6EB
:1056700091E011969C938E931C969C921C9788EEB9
:1056800093E01E969C938E931D97892D0E94851BF7
:1056900020914204309143048217930711F00C9437
:1056A000DB3488E1F10111928A95E9F7C5010E9486
:1056B0005E19892B29F0C5010E947E1A8097B1F7E7
:1056C0008101C5010E945E19892B09F4C1C0C55B27
:1056D000DE4F28813981CB54D1402017310709F49E
:1056E000B7C0C5010E947E1A803209F4B1C0D8014A
:1056F0008D938D01E6CF063109F43FC0073109F0E3
:1057000097CF1C821B8228EE33E040E050E02D83CF
:105710003E834F83588742E651E05A8349831D8771
:10572000FF86EE86CE0101960E945E1918161906B4
:10573000ECF50E946A08D5016D937D938D939C933F
:105740001397912E75CF0C31E1F290F40A3108F4E1
:105750006FCF839460E170E0B5EF4B16B1E05B066C
:105760006104710408F464CF812F0E945A111CCF88
:105770000D3179F35DCF83945BCF0E946A08D50128
:105780006D937D938D939C931397812F0E94851B1E
:1057900020914204309143048217930709F052C0CC
:1057A000C95BDE4F1883C754D14042CF0C3121F47E
:1057B000839468E070E0D8CF812F0E94851B2091F0
:1057C0004204309143048217930719F5F1E94F160B
:1057D000F1E05F0661047104E0F0CF5BDE4F2881E9
:1057E00039814A815B81C154D14024153505460574
:1057F000570508F01DCFCB5BDE4F1883C554D14051
:10580000CF5BDE4F488259826A827B82C154D1408D
:105810000FCF812F0E94851B20913E0430913F04C1
:105820008217930709F004CF209145043091460474
:10583000A8EEB3E00E94C538641575058605970586
:1058400060F2F6CECA5BDE4F1883C654D140F0CE6C
:10585000C5010E945E19892BA1F0C5010E947E1A24
:105860000D97B1F7C5010E947E1A0A9789F7C50105
:105870000E947E1A0D9761F7C5010E947E1A0A9751
:1058800039F7C5010E945E19892B09F4BEC1C50113
:105890000E945E19892B09F474C18E010F5F1F4F9E
:1058A0003801F12C502E912EC5010E945E19892BD2
:1058B00069F0B7E1FB1651F0C5010E947E1A8632ED
:1058C00029F0F30181933F01F394EECFF801EF0D3E
:1058D000F11D10827801D8018D918D01882319F076
:1058E0007D018D33B9F7F7018081882381F2852D01
:1058F000992D0E94F50B082FC7010E946E352B01D0
:105900003C019B01802F90E0EEEFE00FEB3208F0BE
:10591000BECFF0E0E257F34D0C94E838CA2CCA2C05
:10592000CA2CCA2CCA2CCA2CE12CE12CE12CE12C6B
:10593000DC2CDC2CDC2CDC2CE12CE12CE12CE12C13
:10594000472C472C472C472CE72C2D2D3E2D562D30
:105950005D2D622D902D9B2DA62DB32DB62DBB2D2B
:10596000B92CB92CB92CB92CB92CB92CB92CB92C0F
:10597000BE2D0352009333030150110B80E0E1145C
:10598000F10419F0C7010E94F50BF801E55DFC4F29
:1059900080837DCFF4E0F09334038C010250110931
:1059A00080E0E114F10419F0C7010E94F50BF80141
:1059B000EE5DFB4F85836BCF8E5D9B4FFC01438279
:1059C00066CF8E5D9B4FDC0113964C9260CF809129
:1059D0004204909143044816590609F458CF809127
:1059E0003E0490913F044816590609F450CF10E048
:1059F000F6011382128228EE33E040E050E0D60137
:105A00002483358346835783E2E6F1E01196FC93C5
:105A1000EE931C961C931C971E963C932E931D97F9
:105A2000C6010E949D1B20913E0430913F048217C5
:105A3000930719F4812F0E944D121F5F1430C1F695
:105A400050923F0440923E04109256051092550524
:105A500050925805409257051ACF509241044092F7
:105A6000400489E595E00E948211609140047091A4
:105A7000410489E595E00E94A11609CF8091420476
:105A8000909143044816590609F401CF80913E04D1
:105A900090913F044816590609F4F9CE50924304F8
:105AA0004092420439E030933403F1CE81E041105A
:105AB00001C080E080934404EACE509246044092B4
:105AC0004504E5CE45E040933403509248044092AB
:105AD0004704213C3105F8F40E942C0E282F30E0B9
