:020000040000FA
:100000000C945D000C9485000C9485000C94850084
:100010000C9485000C9485000C9485000C9485004C
:100020000C9485000C9485000C9485000C9485003C
:100030000C9485000C9485000C9485000C9485002C
:100040000C948A150C9485000C94FA150C94D41514
:100050000C9485000C9485000C9485000C9485000C
:100060000C9485000C94850000000008000201003B
:100070000003040700000000000000000000000072
:10008000250028002B0000000000240027002A0083
:10009000040404040404040402020202020203032E
:1000A0000303030301020408102040800102040836
:1000B00010200102040810202C1611241FBECFEFBF
:1000C000D8E0DEBFCDBF11E0A0E0B1E0EAEFF8E399
:1000D00002C005900D92AA3EB107D9F723E0AAEE1F
:1000E000B1E001C01D92AA36B207E1F710E0CDE5FC
:1000F000D0E004C02197FE010E94351BCC35D1070A
:10010000C9F70E94BD160C947B1C0C9400008CBD9A
:100110009DBD089590E0FC01EC55FF4F2491805760
:100120009F4FFC018491882399F090E0880F991FDC
:10013000FC01EA57FF4FA591B491FC01E458FF4F31
:10014000859194918FB7F894EC91E22BEC938FBF4B
:10015000089520E3FC0120833296862F82958F70CC
:100160006F706A3030F4605D6293682F8111F5CF53
:100170000895695CF9CFFC01818D928D08950895F1
:100180003FB7F89480915C0290915D02A0915E026D
:10019000B0915F0226B5A89B05C02F3F19F00196CC
:1001A000A11DB11D3FBFBA2FA92F982F8827BC01D1
:1001B000CD01620F711D811D911D42E0660F771FF9
:1001C000881F991F4A95D1F708958F929F92AF92F9
:1001D000BF92CF92DF92EF92FF924B015C010E949F
:1001E000C0006B017C010E94C0006C197D098E0962
:1001F0009F09683E734081059105A8F321E0821AAA
:100200009108A108B10888EEC80E83E0D81EE11C51
:10021000F11C81149104A104B10429F7FF90EF901F
:10022000DF90CF90BF90AF909F908F9008952FB7A1
:10023000F894609158027091590280915A029091FD
:100240005B022FBF0895AF92BF92CF92DF92EF92E1
:10025000FF920F931F93CF93DF936C017B018B0170
:10026000040F151FEB015E01AE18BF08C017D107C0
:1002700059F06991D601ED91FC910190F081E02D4A
:10028000C6010995892B79F7C501DF91CF911F919F
:100290000F91FF90EF90DF90CF90BF90AF900895B7
:1002A000FC01538D448D252F30E0842F90E0821B7C
:1002B000930B541710F0CF96089501970895FC0101
:1002C000918D828D981761F0A28DAE0FBF2FB11D59
:1002D0005D968C91928D9F5F9F73928F90E00895B1
:1002E0008FEF9FEF0895FC01918D828D981731F06B
:1002F000828DE80FF11D858D90E008958FEF9FEFBF
:100300000895FC01918D228D892F90E0805C9F4F94
:10031000821B91098F73992708958EE792E00E94BE
:10032000810121E0892B09F420E0822F089580E0EB
:1003300090E0892B29F00E948D0181110C9400001E
:100340000895FC01A48DA80FB92FB11DA35ABF4F6A
:100350002C91848D90E001968F739927848FA689C4
:10036000B7892C93A089B1898C91837080648C9318
:10037000938D848D981306C00288F389E02D8081C7
:100380008F7D80830895EF92FF920F931F93CF93F9
:10039000DF93EC0181E0888F9B8D8C8D98131AC0C0
:1003A000E889F989808185FF15C09FB7F894EE89A7
:1003B000FF896083E889F989808183708064808304
:1003C0009FBF81E090E0DF91CF911F910F91FF904F
:1003D000EF900895F62E0B8D10E00F5F1F4F0F73F7
:1003E0001127E02E8C8D8E110CC00FB607FCFACFB2
:1003F000E889F989808185FFF5CFCE010E94A101AE
:10040000F1CFEB8DEC0FFD2FF11DE35AFF4FF08282
:100410009FB7F8940B8FEA89FB8980818062CFCFE8
:10042000CF93DF93EC01888D8823B9F0AA89BB892B
:10043000E889F9898C9185FD03C0808186FD0DC016
:100440000FB607FCF7CF8C9185FFF2CF808185FF37
:10045000EDCFCE010E94A101E9CFDF91CF910895A8
:10046000FC0120812EBD9B012150310941F05181B9
:100470000DB407FEFDCF4EB55EBD4193F5CF615083
:100480007109860F971F0DB407FEFDCF2EB5FC0135
:1004900020830895E091EB01F091EC01808190912F
:1004A000EA01892B80830895E091EB01F091EC0142
:1004B00090818091EA0180958923808308958EBD83
:1004C00000000DB407FEFDCF8EB50895AF92BF9228
:1004D000CF92DF92EF92FF920F931F93CF93DF9310
:1004E000CDB7DEB728970FB6F894DEBF0FBECDBFED
:1004F0008C017B016A0180917C028333E1F4580115
:10050000A40EB51EA016B10609F46FC00E945402D5
:1005100080EF0E945F02812F0E945F02802F0E9465
:100520005F020F5F1F4FF70181917F010E945F0201
:100530000E944A02E7CF5B01A40EB51E8433C1F4CA
:100540000E94540219830A838D2D80688B83CC828C
:1005500064E070E0CE0101960E943002AE14BF0448
:1005600009F441C0F70181917F010E945F02F6CF3B
:100570000E9454020F3F110509F028F419820A83E2
:1005800084E08B830CC017FD17C019820A8333E007
:10059000169507953A95E1F7007E0C600B8386E08F
:1005A000C816D104A0F5F701DE011496EA15FB0583
:1005B00099F081918D93FACFC80126E096958795A1
:1005C0002A95E1F7807E19830A830115104C10F4F7
:1005D0008461D7CF8C61D5CFB6016D5F7F4FCE01DF
:1005E00001960E9430020E944A02C60128960FB668
:1005F000F894DEBF0FBECDBFDF91CF911F910F9159
:10060000FF90EF90DF90CF90BF90AF90089563E0A0
:1006100070E0CE0101960E943002F70181917F01C6
:100620000E945F02AE14BF04C1F7DDCFCF93DF930A
:100630001F92CDB7DEB7898341E050E0BE016F5F06
:100640007F4F90E080E00E9466020F90DF91CF9193
:10065000089590E020917C02233339F40C96982F72
:10066000990F990F990F80E008954896F8CFDA0115
:10067000E091EE01F0E0FE2FEE27E60FF71F90E08D
:10068000982F8827A901BD018E0F9F1F0C94660229
:10069000CF93DF9300D0CDB7DEB779836A8322E0B2
:1006A00030E0AE014F5F5F4F60E170E00E943703C2
:1006B0000F900F90DF91CF910895CF93DF9300D0EB
:1006C000CDB7DEB779836A8322E030E0AE014F5FB9
:1006D0005F4F64E070E00E9437030F900F90DF914E
:1006E000CF910895CF93DF931F92CDB7DEB72091BE
:1006F000EE0130E0322F2227260F371F90E0982F8F
:100700008827498341E050E0BE016F5F7F4F820F31
:10071000931F0E9466020F90DF91CF910895CF93AF
:10072000DF931F92CDB7DEB76983DC01ED91FC91B9
:100730000280F381E02D41E050E0BE016F5F7F4F0A
:1007400009950F90DF91CF910895FC019485FB01ED
:100750008485981303C081E0943008F080E0089508
:10076000CF93DF931F92CDB7DEB76983DC01ED91A4
:10077000FC910280F381E02D41E050E0BE016F5F0B
:100780007F4F09950F90DF91CF91089544E050E09D
:10079000BC018FE090E00C9466020895FF920F93E5
:1007A0001F93CF93DF93EB01FC01178A168A2A81EE
:1007B000211109C02B81211106C02C81211103C0F8
:1007C0002D81222301F141155105E9F08A01FC0137
:1007D000F08C80E591E00E948700AE014E5F5F4F94
:1007E00024E030E06CE070E08F2D0E943703B80108
:1007F0008F2D0E94480381E090E0DF91CF911F91FF
:100800000F91FF90089580E0F7CFFC0184859585D6
:100810000895FC018489958908952AE831E0FC0156
:1008200031832083FB014089518962897389FC01EE
:1008300042835383648375830895DC01ED91FC91B9
:10084000048CF58DE02D099490E080E00895FC0182
:10085000768765870895DC01ED91FC9102A0F3A1F4
:10086000E02D099591E089270895862F089581E06C
:100870008627089521E0FC018485843008F020E07B
:10088000822F08950895AF92BF92CF92DF92EF9298
:10089000FF920F931F93CF93DF9300D000D0CDB77B
:1008A000DEB78C016B017A0180917C028333E9F41D
:1008B0005B016801C40ED51EC016D106A9F10E94C5
:1008C00054028FE00E945F02812F0E945F02802FFE
:1008D0000E945F020F5F1F4F80E00E945F02F501E0
:1008E00081935F010E944A02E7CF843369F50E9439
:1008F000540219830A838F2D8F778B83EC8264E0F7
:1009000070E0CE0101960E943002A70170E060E025
:10091000C6010E946D1CE114F10421F0B701C6016B
:100920000E9430020E944A02C7010F900F900F9060
:100930000F90DF91CF911F910F91FF90EF90DF907B
:10094000CF90BF90AF9008950E9454020F3F1105C1
:1009500009F030F419820A831B8263E070E0D1CF82
:1009600017FD0BC019820A8333E0169507953A9557
:10097000E1F7007E08600B83F0CFC80126E0969572
:1009800087952A95E1F7807E19830A830115104C1B
:1009900018F480618B83E1CF8861FCCFCF93DF9324
:1009A0001F92CDB7DEB72091EE0130E0322F222723
:1009B000260F371F90E0982F882741E050E0BE01B6
:1009C0006F5F7F4F820F931F0E94430489810F90B6
:1009D000DF91CF910895CF93C82F462F61E070E04B
:1009E0000E94720361E070E08C2F0E94CE0481119E
:1009F000F9CFCF910895CF93C82F80E591E00E9461
:100A0000870068E070E08C2FCF910C94EB04CF93BB
:100A1000C82F80E591E00E94870060E170E08C2F94
:100A2000CF910C94EB04CF93DF93EC01888D84304D
:100A300020F40E94070584E0888FDF91CF9108950C
:100A4000CF93C82F80E591E00E94870063E070E0BB
:100A50008C2FCF910C94CE04CF93DF93EC018C8537
:100A60008430D0F40E942005843189F0882379F005
:100A7000883169F021E08C3159F4E881F9810084F2
:100A8000F185E02DCE01099521E0892B09F420E0C4
:100A9000822FDF91CF91089580E0FBCFCF92DF923C
:100AA000EF92FF92CF93DF93EC018C85843068F452
:100AB0000E94FB040E9417016B017C018C850E943F
:100AC0002005811109C084E08C87DF91CF91FF90D0
:100AD000EF90DF90CF90089561E070E080E090E0CB
:100AE0000E94E5000E941701AB01BC014C195D0991
:100AF0006E097F098D859E85B0E0A0E048175907F3
:100B00006A077B07D8F28C850E940705DCCFCF935C
:100B1000FC01C08D80E591E00E94870060E270E0FA
:100B20008C2F0E94EB0462E070E08C2F0E94CE04B8
:100B300084FD16C062E070E08C2F0E94CE0483FF1B
:100B40000AC048E162E070E08C2F0E94720380E0EE
:100B500090E0CF91089580E591E00E948700E3CF77
:100B600040E162E070E08C2F0E94720381E0F0CFE0
:100B7000CF93DF931F92CDB7DEB741E050E0BE01C7
:100B80006F5F7F4F90E080E00E94430489810F9067
:100B9000DF91CF910895CF93DF93C4E1D0E00E941D
:100BA000B805882361F061E070E080E090E00E9489
:100BB000E5002197A1F780E0DF91CF91089581E0D2
:100BC000FBCFDF92EF92FF920F931F93CF93DF93B0
:100BD00000D0CDB7DEB760E372E080E090E00E9425
:100BE000E500DFB6F8940AE910E04EEAE42E40E0B2
:100BF000F42E8091ED01811142C0F8018491F7013A
:100C00009491E82FF0E0EE0FFF1FEA57FF4FA591F8
:100C1000B4918C91982321F5E2E7F0E08491F701FB
:100C20009491F80124912223D9F0882359F083303C
:100C300009F4A6C008F099C0813009F4A7C0823039
:100C400009F4A8C0E22FF0E0EE0FFF1FE458FF4FB9
:100C5000A591B4918FB7F8942C91922B9C938FBF50
:100C60008AE00E948A008CB580618CBD8CB580645E
:100C70008CBD8DE00E948A008BE00E948A008091EA
:100C8000ED018F5F8093ED01DFBEF8010491E02F4D
:100C9000F0E0EE0FFF1FE458FF4F85919491909381
:100CA000EC018093EB01F701E490E092EA018AE025
:100CB0000E948A000E944A0280E591E00E9487001B
:100CC00084E380937C0280E80E9416030E94CB0597
:100CD000882309F46CC088E00E9416030E94B805BE
:100CE000883009F064C080E10E9416030E94B805B4
:100CF000803109F05CC080E00E9416030E94B805B4
:100D0000182F811154C041E050E0BE016F5F7F4F4A
:100D10008FE190E00E9443048981833009F047C04D
:100D200080E48093EE0142E06EE170E0812F0E944A
:100D3000720342E06FE170E0812F0E9472031F5F37
:100D4000143089F740E06EE170E0812F0E94720359
:100D500040E06FE170E0812F0E9472031F5F183046
:100D600089F781E080937D028CC08730B1F08830B4
:100D7000D1F0843009F066CF809180008F7D03C070
:100D8000809180008F77809380005CCF84B58F77CF
:100D900084BD58CF84B58F7DFBCF8091B0008F7715
:100DA0008093B0004FCF8091B0008F7DF9CF87E363
:100DB00080937C0280E80E9416030E94CB05882362
:100DC00029F188E00E9416030E94B8058830F1F4EA
:100DD00080E10E9416030E94B805182F8031B1F4FB
:100DE00080E00E9416030E94B80581110FC041E007
:100DF00050E0BE016F5F7F4F89E390E00E944304A3
:100E00008981843019F41093EE01ABCF83E3809392
:100E10007C0280E80E9416030E94CB05882371F1B2
:100E200080E10E9416030E94B805803139F582E105
:100E30000E9416030E94B805823101F580E00E94ED
:100E400016030E94B805811119C084E08093EE0159
:100E500015E51A8341E050E0BE016E5F7F4F8BE1E4
:100E600090E00E946602198341E050E0BE016F5F8E
:100E70007F4F8AE190E00E94660273CF10927C025D
:100E800080E00F900F90DF91CF911F910F91FF9015
:100E9000EF90DF900895CF92DF92EF92FF92CF9381
:100EA000DF93CDB7DEB7C254D1090FB6F894DEBFD9
:100EB0000FBECDBFFC0142815381648175812396B1
:100EC0004CAF5DAF6EAF7FAF239781E023968FAFBE
:100ED00023972396CCACDDACEEACFFAC2397CBAA2A
:100EE000DCAAEDAAFEAA4DA75EA76FA778AB88ABD8
:100EF000CDA4DEA4EFA4F8A8CFA2D8A6E9A6FAA6AE
:100F00008EABCBA8DCA8EDA8FEA8C9A2DAA2EBA202
:100F1000FCA22AE831E03C8B2B8B9FEF9D8B9E8BB4
:100F20009F8B188E3E872D878AA7CFA0D8A4E9A4CF
:100F3000FAA4CF86D88AE98AFA8A8CA389A19AA1D1
:100F4000ABA1BCA189879A87AB87BC873A832983E9
:100F50004B835C836D837E8380917D028823F1F1D6
:100F600080E591E00E94870046E050E062E071E099
:100F700089E090E00E946602CE0103960E94C603BB
:100F800044E050E0BE01615F7F4F81E090E00E944D
:100F9000660244E050E0BE016B5E7F4F85E090E06A
:100FA0000E94660281E08C8789859A85AB85BC8525
:100FB00080933B0390933C03A0933D03B0933E0387
:100FC000CE5BDF4F0FB6F894DEBF0FBECDBFDF9113
:100FD000CF91FF90EF90DF90CF9008950E94E105B0
:100FE000882371F3BDCF1F93CF93DF931F92CDB7AB
:100FF000DEB7182F80E591E00E948700812F0E94C4
:10100000290327E0129FF0011124E05AFD4F2281AD
:101010003381377041E050E0BE016F5F7F4F820F38
:10102000931F0E94430489810F90DF91CF911F91FC
:101030000895FC01808D843040F4218D328D232B66
:1010400021F00E94F30790E008958FEF9FEF08953D
:10105000CF93DF93FC012485243028F08FEF9FEF9E
:10106000DF91CF910895EC010190F081E02D008493
:10107000F185E02D0995892B89F38C850E94F30772
:1010800090E0EECFDA01E091EE01F0E0FE2FEE27E6
:10109000E60FF71F90E0982F8827A901BD018E0F5A
:1010A0009F1F0C9443048F929F92AF92BF92CF9256
:1010B000DF92EF92FF921F93CF93DF93CDB7DEB70E
:1010C0002C970FB6F894DEBF0FBECDBF20917C02E7
:1010D00014E0222339F16B017C0180E591E00E944C
:1010E00087005E0127E0A20EB11C450110E063E01D
:1010F00070E0812F0E94CE04F40181934F01882378
:1011000049F11F5F143099F710E0F50181915F01FB
:101110008D31D9F08831C9F08A518230B0F01F5F2B
:10112000143099F7812F2C960FB6F894DEBF0FBEBE
:10113000CDBFDF91CF911F91FF90EF90DF90CF90C7
:10114000BF90AF909F908F90089560E170E0812FE5
:101150000E94EB04A12EB12C83EE93E00197F1F7EE
:1011600042E870E060E0812F0E9472034FEF62E07E
:1011700070E0812F0E947203B601C114D10491F472
:10118000809100019091010101968115F0EC9F077B
:1011900008F45CC09093010180930001609100010C
:1011A00070910101812F0E945D0386E0E2E1F1E090
:1011B000DE01119601900D928A95E1F7F701838186
:1011C0008F778C8384818D8385818E83A7014E5F89
:1011D0005F4F24E030E06CE070E0812F0E94370325
:1011E000B601812F0E94480326E030E0AE014F5F38
:1011F0005F4F66E070E0812F0E94370361E070E08E
:10120000812F0E94EB0427E02A9DC0012B9D900DA9
:1012100011249C01205A3D4F7901F901118210825D
:1012200022E030E0AE01455F5F4F68E270E0812F61
:101230000E9442088B859C85982789279827F7016B
:10124000938382831682158214826CCF80E090ECA7
:10125000A1CFCF92DF92EF92FF920F931F93CF9384
:10126000DF9300D000D000D0CDB7DEB78C016B018A
:101270007A01FC01808D843010F40E9407058AE811
:1012800091E09A838983F60182819381A481B5815B
:101290008B839C83AD83BE83B701CE0101960E94F0
:1012A0005308F801808F8430A0F4F586E486128E0E
:1012B000118E81E026960FB6F894DEBF0FBECDBF2B
:1012C000DF91CF911F910F91FF90EF90DF90CF9022
:1012D000089580E0EFCFAF92BF92CF92DF92EF926E
:1012E000FF920F931F93CF93DF9300D000D000D0D5
:1012F000CDB7DEB7082F6B0180E591E00E94870033
:101300009E012F5F3F4F7901590110E063E070E0CB
:10131000812F0E94CE04F50181935F01882341F162
:101320001F5F143099F710E0F70181917F018D3133
:10133000D1F08831C1F08A518230A8F01F5F14309B
:1013400099F7812F26960FB6F894DEBF0FBECDBF5A
:10135000DF91CF911F910F91FF90EF90DF90CF9091
:10136000BF90AF90089560E170E0812F0E94EB0480
:10137000E12EF12C83EE93E00197F1F7402F70E01E
:1013800060E0812F0E9472034FEF62E070E0812FD6
:101390000E947203B601CD2889F4809100019091DA
:1013A000010101968115F0EC9F0798F190930101DE
:1013B000809300016091000170910101812F0E94D2
:1013C0005D0361E070E0812F0E94EB0427E02E9D19
:1013D000C0012F9D900D11249C01205A3D4F790191
:1013E000F9011182108222E030E0AE014B5F5F4FC5
:1013F00068E270E0812F0E9442088D819E819827CB
:1014000089279827F7019383828316821582148295
:1014100098CF80E090ECCACFCF92DF92EF92FF920C
:101420001F93CF93DF93EC017B016A018C8584309D
:1014300048F40E942005882319F08C850E94FB0443
:1014400084E08C87F70182819381A481B581009724
:10145000A105B10551F490E080E0DF91CF911F919B
:10146000FF90EF90DF90CF9008958F3F9F4FAF4F49
:10147000BF4F89F380917C02811103C084E08C8787
:10148000EACF70E060E081E20E946B09182F8C8740
:10149000843008F780E591E00E948700A7014E5F45
:1014A0005F4F24E030E06CE070E0812F0E94370352
:1014B000B601812F0E94480364E070E0812F0E94F2
:1014C000EB040E9417016B017C018C850E942005B2
:1014D000873109F18C31F9F0882309F4BCCF0E94DF
:1014E0001701AB01BC014C195D096E097F098D859F
:1014F0009E85B0E0A0E084179507A607B70738F0EF
:1015000061E070E080E090E00E94E500DECF8C8535
:101510000E940705B3CF81E090E09FCF0F931F9308
:10152000CF93DF93EC018B01888D843010F40E94FF
:10153000070580917C02811107C094E0988FDF91AC
:10154000CF911F910F910895B80182E00E946B091D
:10155000888F843030F41D870C871A8E198E81E0B5
:10156000EECF80E0ECCF7F928F929F92AF92BF92AE
:10157000CF92DF92EF92FF920F931F93CF93DF935F
:1015800000D0CDB7DEB7782E8B014A01590122E099
:1015900030E0AE014F5F5F4F64E270E00E944208AE
:1015A000E980FA80FE24EF24FE24E00EF11E97016C
:1015B000377040917C02072D10E0433309F042C0A0
:1015C000085F1F4F102F0027110F110F110FC901B6
:1015D000800F911F4733C9F1A9014A0D5B1D4130AE
:1015E000584098F160E078E06B01C21AD30AA60176
:1015F000B4010E946602A5014C195D09B4016C0D8D
:101600007D1DC8010E946602EA0CFB1CF982EA8279
:1016100022E030E0AE014F5F5F4F64E270E0872D63
:101620000E9437030F900F90DF91CF911F910F9180
:10163000FF90EF90DF90CF90BF90AF909F908F90F2
:101640007F900895005F1F4FBDCFA501B401DACF91
:10165000EF92FF921F93CF93DF9300D0CDB7DEB709
:10166000182F22E030E0AE014F5F5F4F60E270E084
:101670000E944208E980FA80FE24EF24FE2422E042
:1016800030E0AE014F5F5F4F60E270E0812F0E945B
:10169000420889819A81982789279827E816F906B0
:1016A00089F487E0189FF0011124E05AFD4FF5827C
:1016B000E482C7010F900F90DF91CF911F91FF90AF
:1016C000EF9008957C01DBCF1F93CF93DF93182F0A
:1016D00080E591E00E948700812F0E94280BEC0199
:1016E00063E070E0812F0E94CE04873121F08C31BD
:1016F00011F0D0E0C0E0CE01DF91CF911F910895AD
:10170000CF93DF93EC018C85843060F40E94200538
:10171000873111F08C3131F48C850E94640B811576
:10172000984088F3DF91CF910895FC01848584303F
:1017300010F40C94640B90E080E008959F92AF92B7
:10174000BF92CF92DF92EF92FF920F931F93CF93AE
:10175000DF938C015B01942EE52EFC01C688D788AF
:10176000F08C80E591E00E9487008F2D0E94280B6D
:10177000C92DDE2D8C179D0708F4EC019E01A501F3
:10178000B6018F2D0E94B30AF801868997898C0FC4
:101790009D1F978B868BCE01DF91CF911F910F916B
:1017A000FF90EF90DF90CF90BF90AF909F90089503
:1017B0008F929F92AF92BF92CF92DF92EF92FF9261
:1017C0000F931F93CF936C015B018A01FC01C485C9
:1017D000C430F0F57A014130584018F0E12C88E02F
:1017E000F82E80E591E00E9487008C2F0E94280B44
:1017F0004C0163E070E08C2F0E94CE04873111F021
:101800008C3149F58E149F0460F380E591E00E94CD
:1018100087009701A50170E060E08C2F0E94B30A59
:1018200060E270E08C2F0E94EB0462E070E08C2F8D
:101830000E94CE0484FD17C063E070E08C2F0E94EC
:10184000CE0481110BC081E090E0F6019383828386
:1018500010E000E010C0F12CE12CD7CF80E591E042
:101860000E948700E2CF40E162E070E08C2F0E948E
:101870007203EF2841F3C801CF911F910F91FF90A0
:10188000EF90DF90CF90BF90AF909F908F90089592
:10189000FF920F931F93CF93DF9300D0CDB7DEB7A6
:1018A000F82E22E030E0AE014F5F5F4F66E270E05D
:1018B0000E94420809811A8110270127102722E07F
:1018C00030E0AE014F5F5F4F66E270E08F2D0E9407
:1018D000420889819A81982789279827081719072C
:1018E00049F4C8010F900F90DF91CF911F910F9194
:1018F000FF9008958C01E3CF1F93CF93DF93182FB0
:1019000087E0189FE0011124C05ADD4F888199813A
:10191000009761F480E591E00E948700812F0E948A
:10192000480C2E81821B910999838883DF91CF9186
:101930001F910895FC018485843010F40C947C0C74
:1019400090E080E008954F925F927F928F929F92F5
:10195000AF92BF92CF92DF92EF92FF920F931F93BD
:10196000CF93DF9300D0CDB7DEB7782E6B014A015D
:10197000A82EB12C27E0829FC0011124FC01E05A5F
:10198000FD4F7F010081118180E591E00E94870079
:101990000815190554F4872D0E94480CF70126817B
:1019A0008C01021B1109118300830115110529F512
:1019B00063E070E0872D0E94CE04843159F08823C3
:1019C00049F001E010E08C3111F410E000E01195D5
:1019D00001951109C8010F900F90DF91CF911F91D0
:1019E0000F91FF90EF90DF90CF90BF90AF909F90BE
:1019F0008F907F905F904F900895801691060CF421
:101A0000840187E08A9DF0018B9DF00D1124E05A3E
:101A1000FD4FE280F380C114D10451F12701F7E0BA
:101A20005F22872D0E942903840D951D20917C0241
:101A3000273309F453C09801240D351D2130384057
:101A400008F44CC020E038E0490184189508A4014E
:101A5000B6010E9443042601480C591C6801C818AD
:101A6000D908872D0E942903A601B2010E944304D0
:101A7000E00EF11E87E08A9DF0018B9DF00D112490
:101A8000E05AFD4FF382E28220813181201B310B2D
:101A9000318320838681800F912F911D8A3F91058C
:101AA00010F4232BF1F487E08A9DF0018B9DF00D5B
:101AB0001124E05AFD4F1682F982EA8222E030E0DA
:101AC000AE014F5F5F4F68E270E0872D0E943703E1
:101AD00060E470E0872D0E94EB047CCFA801B60182
:101AE000C5CF868377CFCF93DF93FC01218D328DD5
:101AF0002115310529F48FEF9FEFDF91CF910895E4
:101B0000EC01808D4217530708F0A9010E94A30C35
:101B10001816190684F7298D3A8D281B390B3A8F30
:101B2000298FEBCF0F931F93CF93DF931F92CDB7E6
:101B3000DEB7FC01218D328D232B41F48FEF9FEF17
:101B40000F90DF91CF911F910F9108958C0141E08B
:101B500050E0BE016F5F7F4FFC01808D0E94A30C9F
:101B6000181619065CF7F801818D928D0197928FF6
:101B7000818F898190E0E4CFCF93DF931F92CDB71F
:101B8000DEB741E050E0BE016F5F7F4FFC0184850E
:101B90000E94A30C1816190634F4898190E00F9066
:101BA000DF91CF9108958FEF9FEFF9CFFC018485EE
:101BB000843010F40C94A30C90E080E008950F930F
:101BC0001F93CF93DF9300D0CDB7DEB7FC01248500
:101BD0002430E0F48C0180E591E00E94870022E04F
:101BE00030E0AE014F5F5F4F60E170E0F801848547
:101BF0000E94420889819A819827892798270F9007
:101C00000F90DF91CF911F910F91089590E080E0A8
:101C1000F6CF0F931F93CF93DF9300D0CDB7DEB7EE
:101C2000FC0124852430E0F48C0180E591E00E94E1
:101C3000870022E030E0AE014F5F5F4F64E070E06C
:101C4000F80184850E94420889819A819827892712
:101C500098270F900F90DF91CF911F910F910895CA
:101C600090E080E0F6CFDC018AE891E08D939D93CF
:101C700084E0FB0101900D928A95E1F70895EF92BF
:101C8000FF920F931F93CF93DF9300D000D0CDB777
:101C9000DEB78C017B01FB0184858430A8F08AE8E3
:101CA00091E0F8019183808312821382148215825D
:101CB000C8010F900F900F900F90DF91CF911F915F
:101CC0000F91FF90EF90089580E591E00E948700CA
:101CD00024E030E0AE014F5F5F4F6CE070E0F70151
:101CE00084850E944208BE016F5F7F4FC8010E9439
:101CF000330EDECF0F931F93CF93DF93CDB7DEB7B5
:101D000028970FB6F894DEBF0FBECDBF8C01D80167
:101D100059964D915C915A974115510551F0ED91AD
:101D2000FC91048CF58DE02D70E060E0C801099510
:101D3000EECFF801808D0E947C0C892BB1F148E038
:101D400050E0BE016F5F7F4FD80158968C910E9482
:101D5000A30C18161906F4F4D801509684E0FE017D
:101D6000319601900D928A95E1F78D8190E0982F40
:101D700088272E81820F911DF801958B848B8F818E
:101D8000282F30E0322F22278885820F932F911D34
:101D9000928F818F28960FB6F894DEBF0FBECDBF0D
:101DA000DF91CF911F910F91089590E080E0F2CFE5
:101DB0004F925F926F927F928F929F92AF92BF925B
:101DC000CF92DF92EF92FF920F931F93CF93DF9307
:101DD000CDB7DEB763970FB6F894DEBF0FBECDBFA9
:101DE0007C016B013A01FB0120E090E080E06AE0B9
:101DF0003191332309F461C040ED430F4A3008F0BC
:101E00004DC0689FA001699F500D1124CA01C09761
:101E1000830F911D37FD9A958F3F910549F340F34C
:101E2000F7014281538164817581809147039091CC
:101E30004803A0914903B0914A03481759076A071C
:101E40007B0709F40DC28701085F1F4F0E9417012D
:101E50006F7077277C5FC8010E948E0A813009F07D
:101E600004C28AE891E09A838983F7018281938191
:101E7000A481B5818B839C83AD83BE8345E350E011
:101E8000BE016F5F7F4FC8010E94CE03892BA9F569
:101E9000D12CC12CC8010E94130517C03E3209F095
:101EA000BFCF233009F4BCCFD301A20FB11D1296CE
:101EB0008C932F5F90E080E09BCF233009F0B0CF70
:101EC000F3018583CC24C394D12CC60163960FB64D
:101ED000F894DEBF0FBECDBFDF91CF911F910F9160
:101EE000FF90EF90DF90CF90BF90AF909F908F903A
:101EF0007F906F905F904F9008950E941701F701B7
:101F00007783668342E050E0B7016A5F7F4FC80184
:101F10000E949E0B81E090E09A83898342E050E02A
:101F2000BE016F5F7F4FC8010E949E0B80E091E071
:101F30009A83898342E050E0BE016F5F7F4FC80102
:101F40000E949E0B1A82198242E050E0BE016F5F30
:101F50007F4FC8010E949E0B42E050E0BE016F5FC0
:101F60007F4FC8010E949E0B42E050E0BE016F5FB0
:101F70007F4FC8010E949E0B5601F6018081882385
:101F800001F16501F60181912F01882311F08E3254
:101F9000B1F446018A189B081814190474F48D864C
:101FA00041E050E0BE01635F7F4FC8010E949E0B7D
:101FB000A401B501C8010E949E0B5201DECF62014F
:101FC000E1CF1D8641E050E0BE01635F7F4FC80155
:101FD0000E949E0BC12CDD24D394DA82C98242E098
:101FE00050E0BE016F5F7F4FC8010E949E0BDA82F6
:101FF000C98242E050E0BE016F5F7F4FC8010E947E
:102000009E0BC8010E948705892B09F441CFF3E09C
:10201000AF2EB12C230122E0420E511CD4C0F70197
:102020004281538164817581808D918DA28DB38DA4
:10203000481759076A077B0709F008C1848D958DF9
:10204000C59709F003C181A192A15DEFC52EDD24E2
:10205000DA940C970CF4ADC04CE050E0BE016F5F19
:102060007F4FC8010E94730D8B819C81982789271F
:1020700098279A8B898BF7014681578129813A816C
:102080004217530709F0E7C097FFE5C08F709270C1
:102090003BEFC32EDD24DA94892B09F08AC06F80D0
:1020A00078847624672476242AEFC22EDD24DA94FD
:1020B0006114710409F47DC0D12CC12C8D819E81E5
:1020C000982789279827C816D906F8F441E050E0E8
:1020D000BE01635F7F4FC8010E94730D4D8544238D
:1020E00031F050E070E060E0C8010E94730D8D8512
:1020F0008111ECCF44E050E070E060E0C8010E9444
:10210000730DFFEFCF1ADF0AD9CF912C812C41E05C
:1021100050E0BE016D5E7F4FC8010E94730D4B8978
:10212000842F807C09F06CC0442331F050E070E0D3
:1021300060E0C8010E94730D8B898111E8CF42E0F5
:1021400050E0BE01615F7F4FC8010E94730D42E005
:1021500050E0BE01635F7F4FC8010E94730D44E0F1
:1021600050E070E060E0C8010E94730D42E050E072
:10217000BE016F5E7F4FC8010E94730D8F859889E5
:1021800049895A898115914009F043C0CD84DE8484
:10219000DC24CD24DC2481E0C816D104D1F541151E
:1021A000544009F04AC044E050E0B201C8010E9426
:1021B000730D21E0A21AB10809F46CCEFFEFCF161F
:1021C000DF0609F067CE0E9417013B014C01C801F0
:1021D0000E947A0E181619060CF421CF0E941701DE
:1021E000661977098809990969387341810591054C
:1021F00048F562E370E080E090E00E94E500E7CF00
:1022000041E050E070E060E0C8010E94730D1B8A5D
:1022100093CF54274527542770E060E0C8010E94FF
:10222000730DFFEF8F1A9F0A6814790409F06FCFBE
:1022300096EFC92EDD24DA94BCCFE7EFCE2EDD2455
:10224000DA94B7CFCC24CA94DC2CB3CF6EEFC62E71
:10225000DD24DA94AECF4CEFC42EDD24DA94A9CF7E
:102260008EEFC82EDD24DA9430CED12CC12C2DCEA9
:10227000CF92DF92EF92FF920F931F93CF93DF9352
:10228000CDB7DEB7AF970FB6F894DEBF0FBECDBFA8
:102290007C016A010AE811E01A8309831C861B8607
:1022A00088EE93E0A0E0B0E08D879E87AF87B88B83
:1022B0008CE191E09A878987188F0F8B198E1A8E7F
:1022C0001B8E1C8E84E089A31BA70AA71CA61DA633
:1022D0001EA61FA680913B0390913C03A0913D0355
:1022E000B0913E038EA39FA3A8A7B9A78B839C831D
:1022F000AD83BE8318861F82AE01465D5F4FCE015F
:1023000001960E94D80E81309105B1F4D701ED916C
:10231000FC910488F589E02D1DA30CA38CA59DA537
:10232000AEA5BFA58EA39FA3A8A7B9A7A601BE016E
:102330006C5D7F4FC7010995AF960FB6F894DEBF6D
:102340000FBECDBFDF91CF911F910F91FF90EF9006
:10235000DF90CF900895CF92DF92EF92FF920F938C
:102360001F93CF93DF93CDB7DEB7AF970FB6F89437
:10237000DEBF0FBECDBF8C016B017A018AE891E010
:102380009A8389831B821C821D821E821C861B8667
:1023900048EE53E060E070E04D875E876F87788B92
:1023A0002CE131E03A872987988F8F8B198E1A8E0E
:1023B0001B8E1C8E24E029A39BA78AA71CA61DA602
:1023C0001EA61FA6D8011C968C91843060F40E9432
:1023D0002005882321F0F80184850E94FB0484E015
:1023E000D8011C968C9380913B0390913C03A09163
:1023F0003D03B0913E038EA39FA3A8A7B9A78B83EB
:102400009C83AD83BE8318861F82AE01465D5F4FFD
:10241000B601CE0101960E94D80E0097C1F0D801F6
:10242000ED91FC910684F785E02D8AE891E09DA36B
:102430008CA38CA59DA5AEA5BFA58EA39FA3A8A781
:10244000B9A7A701BE016C5D7F4FC8010995AF9682
:102450000FB6F894DEBF0FBECDBFDF91CF911F91B5
:102460000F91FF90EF90DF90CF900895FB010190C6
:102470000020E9F73197AF01461B570BDC01ED91C6
:10248000FC910280F381E02D09948F929F92AF928C
:10249000BF92EF92FF920F931F93CF93DF93CDB72D
:1024A000DEB7A1970FB6F894DEBF0FBECDBF7C019B
:1024B000FA01CB0119A2223008F42AE08E010F5D47
:1024C0001F4F822E912CB12CA12CBF01A50194018C
:1024D0000E94FD1AF901CA016A300CF5605DD8014D
:1024E0006E938D01232B242B252B79F790E080E030
:1024F000109721F0BD01C7010E943612A1960FB6B8
:10250000F894DEBF0FBECDBFDF91CF911F910F9129
:10251000FF90EF90BF90AF909F908F900895695C6F
:10252000DECF8F929F92AF92BF92CF92DF92EF92C7
:10253000FF920F931F93CF93DF937C01EB016C010C
:1025400082E0C80ED11C4701E5E08E0E911C10E020
:1025500000E0F60141916F0150E070E060E02AE098
:10256000CE010E9445125C01E881F9810190F08161
:10257000E02D6EE2CE0109958A0D9B1D080F191FF3
:10258000C814D90431F7F701458150E070E060E0EC
:102590002AE0CE010E944512800F911FDF91CF915A
:1025A0001F910F91FF90EF90DF90CF90BF90AF9071
:1025B0009F908F9008953F924F925F926F927F927B
:1025C0008F929F92AF92BF92CF92DF92EF92FF9243
:1025D0000F931F93CF93DF93CDB7DEB7EA970FB674
:1025E000F894DEBF0FBECDBF7C012A013B0169011B
:1025F0000E9417014B015C0187010D5B1F4FC80151
:102600000E947A0E181619069CF00E94170168198C
:1026100079098A099B09461657066806790608F45F
:1026200066C162E370E080E090E00E94E500E7CFE1
:1026300042E250E0BE016F5F7F4FC8010E94730D00
:1026400089818230D1F0312C832DEA960FB6F8942F
:10265000DEBF0FBECDBFDF91CF911F910F91FF90D5
:10266000EF90DF90CF90BF90AF909F908F907F9032
:102670006F905F904F903F900895F80184899589FD
:102680008334910501F76D817E818F8198850E9449
:102690002E1B4B015C01F60180829182A282B382E3
:1026A00046E050E0B701685F7F4FCE014D960E9433
:1026B000601C892B41F6F70180819181A281B38151
:1026C00088169906AA06BB0608F4BDCF84819581B9
:1026D000A681B78188159905AA05BB0508F4B3CF73
:1026E00089899A89AB89BC8986879787A08BB18BAA
:1026F0004EEC50E070E060E0C8010E94730D312C98
:10270000C701829698AB8FA7F701B696FAABE9ABF3
:1027100008969CAB8BAB67019AE1C90ED11CBD96A4
:10272000FEABEDABC701429698AF8FABFD97FAAF0A
:10273000E9AF4701FEE18F0E911CF801818D928D6A
:10274000181619060CF080CFC8010E94920D833331
:10275000910509F4B2C014F58130910509F464C003
:1027600044F4892B51F3C8010E94920DAC01552706
:1027700075C08330910509F462C00697A1F7C801BE
:102780000E94920DB82E44E050E0B401C8010E94AE
:10279000730DEB2DE450FF0BAF0160C08A33910540
:1027A00009F45FC084F585339105B1F1C697D9F678
:1027B000C8010E94920D5C01B601CE0189960E946B
:1027C000330E8BA59CA5ADA5BEA5892B8A2B8B2B83
:1027D000B1F0EDA9FEA94080518062807380B601FE
:1027E000CE0183960E94330E8DA19EA1AFA1B8A504
:1027F000A501481659066A067B0609F0B8CF44E0E1
:1028000050E0B60118C08B33910509F440C08F3FEA
:10281000910509F492CFA7CFC8010E94920DC8017B
:102820000E94920D382E89CFC8010E94920D44E07B
:1028300050E06FA978ADC8010E94730D7ECFC8012A
:102840000E94920DB82E44E050E069AD7AADC80107
:102850000E94730D8B2D8450990BAC0170E060E0E9
:10286000EACFC8010E94920D44E050E069A97AA91C
:10287000C8010E94730DF70166A177A180A591A5FB
:102880000E942E1B66A377A380A791A756CFC801ED
:102890000E94920D44E050E06BA97CA9C8010E94FF
:1028A000730DF70162A573A584A595A50E942E1B43
:1028B00062A773A784A795A740CFC8010E94920D75
:1028C00044E050E06FA578A9C8010E94730DF7019C
:1028D00062A173A184A195A10E942E1B62A373A380
:1028E00084A395A366A777A780AB91AB26CF3324AB
:1028F0003A94AACE7F928F929F92AF92BF92CF923C
:10290000DF92EF92FF920F931F93CF93DF93CDB798
:10291000DEB7A6970FB6F894DEBF0FBECDBF8C0111
:10292000762E942E852E20E2A22ECE0101967C01D9
:10293000DC01EA2D1D92EA95E9F76801F3E4CF0E78
:10294000D11C8AE891E09AA389A38FEF8BA38CA373
:102950008DA38EA343E450E0BE016F5D7F4FC6019F
:102960000E94CE03019609F4BFC081E089838A8367
:1029700086E0B82EBB821C82D80114966D917D91A1
:102980008D919C9117970E942E1B6D837E838F8360
:10299000988789869A8680E890E09C878B874CE1AF
:1029A00050E0B701C6010E949E0BFE0137968AE1F6
:1029B000DF011D928A95E9F74801B8E08B0E911C62
:1029C000F401D70101900D92BA94E1F740E150E093
:1029D000B701C6010E949E0BF7011192AA94E9F774
:1029E00096E0A92EB12C40E250E0B701C6010E944A
:1029F0009E0BF1E0AF1AB108B1F783E6898392E844
:102A00009A8393E59B838C8385E38D8381E08E831A
:102A10007F829DE3988797E099878A8786E0F40113
:102A2000DE011B9601900D928A95E1F78CE0898B6F
:102A30008A8B6CE871E0CE0143960E94741CD80129
:102A40001B966C91CE0149960E94A900F8016485FD
:102A5000CE014B960E94A900D8011D966C91CE0123
:102A60004D960E94A9004EE150E0B701C6010E94B8
:102A70009E0BB3E07B121EC082E3898384E08A83CD
:102A8000F80196859B8397859C8390899D83918986
:102A90009E8396E39F838887828D8987838D8A872B
:102AA000848D8B87858D8C874CE050E0B701C60103
:102AB0000E949E0B87E3898386E08A8391E09B8353
:102AC00093E09C838D838FE08E838AE38F838BE3F7
:102AD00088878FEF898749E050E0B701C6010E94DF
:102AE0009E0BC6010E948705A6960FB6F894DEBF1E
:102AF0000FBECDBFDF91CF911F910F91FF90EF904F
:102B0000DF90CF90BF90AF909F908F907F9008956F
:102B10000C94D71B1F920F920FB60F9211242F9374
:102B20003F938F939F93AF93BF938091580290915F
:102B30005902A0915A02B0915B023091570223E0F2
:102B4000230F2D3758F50196A11DB11D2093570273
:102B50008093580290935902A0935A02B0935B025B
:102B600080915C0290915D02A0915E02B0915F0243
:102B70000196A11DB11D80935C0290935D02A0930C
:102B80005E02B0935F02BF91AF919F918F913F9191
:102B90002F910F900FBE0F901F90189526E8230FCE
:102BA0000296A11DB11DD2CF1F920F920FB60F92A8
:102BB00011242F933F934F935F936F937F938F9342
:102BC0009F93AF93BF93EF93FF938EE792E00E94A2
:102BD000A101FF91EF91BF91AF919F918F917F9153
:102BE0006F915F914F913F912F910F900FBE0F907A
:102BF0001F9018951F920F920FB60F9211242F93CA
:102C00008F939F93EF93FF93E0918E02F0918F0249
:102C10008081E0919402F091950282FD1BC0908129
:102C2000809197028F5F8F7320919802821741F0F5
:102C3000E0919702F0E0E258FD4F958F8093970264
:102C4000FF91EF919F918F912F910F900FBE0F9059
:102C50001F9018958081F4CFEEE7F2E01382128284
:102C600048EE53E060E070E04483558366837783E9
:102C700086E491E09183808385EC90E0958784875A
:102C800084EC90E09787868780EC90E0918B808B36
:102C900081EC90E0938B828B82EC90E0958B848B1F
:102CA00086EC90E0978B868B118E128E138E148E8D
:102CB000EBE1F3E08AE891E0918380831282138252
:102CC00014821582E1E2F3E0918380831282138201
:102CD00014821582E7E2F3E09183808312821382EB
:102CE00014821582EDE2F3E09183808312821382D5
:102CF00014821582E3E3F3E09183808312821382CE
:102D000014821582EFE3F3E09183808312821382B1
:102D100014821582E9E3F3E09183808312821382A7
:102D200014821582E5E4F3E091838083128213829A
:102D300014821582EBE4F3E0918380831282138284
:102D400014821582E0E6F3E091838083128213827D
:102D500014821582E1E5F3E01382128244835583E5
:102D60006683778388E591E09183808384E084871C
:102D700088EE93E0968785870895CF93DF9300D000
:102D800000D000D0CDB7DEB7789484B5826084BD22
:102D900084B5816084BD85B5826085BD85B581605F
:102DA00085BD80916E00816080936E0010928100DD
:102DB0008091810082608093810080918100816098
:102DC0008093810080918000816080938000809159
:102DD000B10084608093B1008091B00081608093E5
:102DE000B00080917A00846080937A0080917A00AC
:102DF000826080937A0080917A00816080937A006B
:102E000080917A00806880937A001092C100E091EE
:102E10008E02F0918F0282E08083E0918A02F0912D
:102E20008B021082E0918C02F0918D028FEC8083F6
:102E300010929602E0919202F091930286E08083D4
:102E4000E0919002F0919102808180618083E09115
:102E50009002F0919102808188608083E0919002DD
:102E6000F0919102808180688083E0919002F091DE
:102E7000910280818F7D808380914F0281112AC0D1
:102E8000109237021092360288EE93E0A0E0B0E094
:102E90008093380290933902A0933A02B0933B0298
:102EA0008CE191E090933502809334028AE891E0BE
:102EB0009093430280934202109244021092450282
:102EC000109246021092470284E080934C0281E007
:102ED00080934F0281EF91E09093F0018093EF0196
:102EE00080917D02882309F48FC180E591E00E94E2
:102EF000870046E050E062E071E089E090E00E94E7
:102F000066028AE891E09A8389831B821C821D8273
:102F10001E82CE0103960E94C603109213021092E5
:102F200014021092150210921602109217021092BB
:102F300018021092190210921A0210921B0210929B
:102F40001C0210921D0210921E0280E69AEEA0E072
:102F5000B0E08093270290932802A0932902B093B7
:102F60002A0280EA9FE0A0E0B0E080932B029093D9
:102F70002C02A0932D02B0932E02EFEFF1E084E13A
:102F8000DF011D928A95E9F786E0E2E0F1E0A9EF22
:102F9000B1E001900D928A95E1F7109233020E9400
:102FA000731A2FEC37E040E050E00E94CB1ADC01AE
:102FB000CB010196A11DB11D8093F5019093F601FF
:102FC000A093F701B093F8018093F1019093F2017F
:102FD000A093F301B093F40184E392E00E941305FF
:102FE00064E470E084E392E00E948E0A882309F48E
:102FF0000FC10E9417016B017C0148EE442E43E093
:10300000542E612C712C53E0952E02E0B12CA12C92
:1030100080913302833009F440C0811116C1809140
:10302000F5019091F601A091F701B091F801019698
:10303000A11DB11D8093F5019093F601A093F701B6
:10304000B093F8010E9417016C197D098E099F0940
:10305000A30192010E94FD1AA90161E081EF91E0B4
:103060000E947A1481E08093330291E0A916B104A2
:1030700079F20E9417016C197D098E099F09209130
:103080002702309128024091290250912A022617E6
:1030900037074807590708F0B9CF84E392E00E9448
:1030A00013058091F5019091F601A091F701B0917F
:1030B000F8010196A11DB11D8093F5019093F601D1
:1030C000A093F701B093F8010E94170160932F02BB
:1030D000709330028093310290933202AA94AB280D
:1030E00009F096C080E591E00E9487000091EF0111
:1030F0001091F001B801625F7F4FCE0101960E94EE
:10310000330ECE0103960E94C603B8016A5E7F4F5C
:10311000CE0101960E94330E44E050E0BE016D5F87
:103120007F4F81E090E00E946602B8016E5E7F4FA3
:10313000CE0101960E94330E44E050E0BE016D5F67
:103140007F4F85E090E00E946602B801625E7F4F8B
:10315000CE0101960E94330E8B819C81AD81BE8190
:1031600080933B0390933C03A0933D03B0933E03B5
:103170000E94C0007F738091000190910101682737
:103180007927709301016093000163E971E08EE794
:1031900092E00E94361260EB71E08EE792E00E94AE
:1031A00036126BED71E08EE792E00E9436128AE8EB
:1031B00091E09A8389831B821C821D821E8280E596
:1031C00091E00E94870044E050E0BE016D5F7F4FB8
:1031D0008FE090E00E9443046EE772E0CE0101961A
:1031E0000E94911260EB71E08EE792E00E9436122D
:1031F00000E010E001151105E9F30E948D0188231C
:10320000C9F30E940000F6CF0E94E10581116DCE46
:1032100063EB71E08EE792E00E94361260EB71E0A2
:103220008EE792E00E9436128AE891E09A838983C1
:1032300080EC8B8388EA8C8381E08D8381EB8E83A5
:10324000CE0101960E944B07ACCF843031F58091BE
:10325000F5019091F601A091F701B091F801019666
:10326000A11DB11D8093F5019093F601A093F70184
:10327000B093F8010E9417016C197D098E099F090E
:10328000A30192010E94FD1AA90163E081EF91E080
:103290000E947A1400933302E8CE813091F5409178
:1032A0002B0250912C0260912D0270912E029E01F2
:1032B0002F5F3F4F81EF91E00E94DB12182F823089
:1032C00009F0C1C089819A81AB81BC818093F501ED
:1032D0009093F601A093F701B093F8010E941701B3
:1032E0006C197D098E099F09A30192010E94FD1AA4
:1032F000A90163E081EF91E00E947A1410933302F8
:10330000B4CE823009F0B1CE40912B0250912C0204
:1033100060912D0270912E029E012F5F3F4F81EF31
:1033200091E00E94DB12182F853009F087C090923F
:1033300033028091130290911402A0911502B09172
:103340001602892B8A2B8B2B61F484E893E0A0E092
:10335000B0E08093130290931402A0931502B093EF
:1033600016028091170290911802A0911902B09153
:103370001A02892B8A2B8B2BA1F480911302909136
:103380001402A0911502B0911602B695A7959795D3
:1033900087958093170290931802A0931902B09317
:1033A0001A0280911B0290911C02A0911D02B09103
:1033B0001E02892B8A2B8B2BE9F4809113029091AA
:1033C0001402A0911502B0911602AC01BD0123E0D8
:1033D00076956795579547952A95D1F7841B950B58
:1033E000A60BB70B80931B0290931C02A0931D02A7
:1033F000B0931E028091170290911802A0911902B9
:10340000B0911A0280931F0290932002A093210290
:10341000B093220280911B0290911C02A0911D0288
:10342000B0911E028093230290932402A093250260
:10343000B0932602AA24A394B12C17CE863019F497
:103440001092330212CE1F3F09F00FCEF9CF8F92A8
:103450009F92AF92BF92CF92DF92EF92FF92CF9363
:10346000DF93EC01688179818A819B816115710507
:103470008105910521F464E279ED8BE597E02DE17A
:1034800033EF41E050E00E94CB1A49015A019B0101
:10349000AC01A7EAB1E40E94EA1A6B017C01ACEE30
:1034A000B4EFA50194010E94F81AC60ED71EE81EBB
:1034B000F91EF7FE06C081E0C81AD108E10880E8CD
:1034C000F80AC882D982EA82FB82C701B6019F77D7
:1034D000DF91CF91FF90EF90DF90CF90BF90AF90B2
:1034E0009F908F9008958F929F92AF92BF92CF92AC
:1034F000DF92EF92FF926091080170910901809133
:103500000A0190910B01611571058105910521F466
:1035100064E279ED8BE597E02DE133EF41E050E097
:103520000E94CB1A49015A019B01AC01A7EAB1E400
:103530000E94EA1A6B017C01ACEEB4EFA501940184
:103540000E94F81AC60ED71EE81EF91EF7FE06C026
:1035500081E0C81AD108E10880E8F80AC0920801A1
:10356000D0920901E0920A01F0920B01C701B60165
:103570009F77FF90EF90DF90CF90BF90AF909F909C
:103580008F900895609308017093090180930A0158
:1035900090930B010895052E97FB1EF400940E9452
:1035A000E21A57FD07D00E94FD1A07FC03D04EF423
:1035B0000C94E21A50954095309521953F4F4F4F0E
:1035C0005F4F089590958095709561957F4F8F4FCF
:1035D0009F4F08950E941F1BA59F900DB49F900DB3
:1035E000A49F800D911D11240895B7FF0C94EA1A31
:1035F0000E94EA1A821B930B0895A1E21A2EAA1BBD
:10360000BB1BFD010DC0AA1FBB1FEE1FFF1FA21792
:10361000B307E407F50720F0A21BB30BE40BF50B8F
:10362000661F771F881F991F1A9469F76095709518
:10363000809590959B01AC01BD01CF010895A29F9B
:10364000B001B39FC001A39F700D811D1124911D76
:10365000B29F700D811D1124911D08956927962731
:1036600069277827872778270895EE0FFF1F059091
:10367000F491E02D09940F931F93CF93DF93823041
:10368000910510F482E090E0E0916803F091690305
:1036900030E020E0B0E0A0E0309799F4211531054A
:1036A00009F44AC0281B390B24303105D8F58A812A
:1036B0009B816115710589F1FB0193838283FE0172
:1036C00011C0408151810281138148175907E0F0F0
:1036D0004817590799F4109761F012960C931297B6
:1036E00013961C933296CF01DF91CF911F910F91CA
:1036F00008950093680310936903F4CF21153105F1
:1037000051F04217530738F0A901DB019A01BD01BE
:10371000DF01F801C1CFEF01F9CF909369038093E6
:103720006803CDCFFE01E20FF31F819391932250E6
:10373000310939832883D7CF2091660330916703FD
:10374000232B41F420910E0130910F013093670338
:103750002093660320910C0130910D012115310554
:1037600041F42DB73EB74091100150911101241B37
:10377000350BE0916603F0916703E217F307A0F4BD
:103780002E1B3F0B2817390778F0AC014E5F5F4FB7
:103790002417350748F04E0F5F1F5093670340937F
:1037A0006603819391939FCFF0E0E0E09CCFCF93AD
:1037B000DF930097E9F0FC01329713821282A09107
:1037C0006803B0916903ED0130E020E01097A1F4A7
:1037D00020813181820F931F20916603309167030E
:1037E0002817390709F061C0F0936703E093660377
:1037F000DF91CF910895EA01CE17DF07E8F54A81FE
:103800005B819E0141155105B1F7E901FB83EA8314
:1038100049915991C40FD51FEC17FD0761F48081C0
:1038200091810296840F951FE90199838883828193
:1038300093819B838A83F0E0E0E012968D919C91C6
:1038400013970097B9F52D913C911197CD010296F0
:10385000820F931F20916603309167032817390761
:1038600039F6309751F51092690310926803B093BE
:103870006703A0936603BCCFD383C2834081518189
:10388000840F951FC817D90761F44E5F5F4F888179
:103890009981480F591F518340838A819B8193836B
:1038A00082832115310509F0B0CFF0936903E093CD
:1038B00068039ECFFD01DC01C0CF13821282D7CFF7
:1038C000FB01DC0104C08D910190801921F441506D
:1038D0005040C8F7881B990B0895DC0101C06D9317
:1038E00041505040E0F70895FB01DC0101900D923A
:1038F0000020E1F70895F894FFCF00C0DEADBEEFE1
:10390000FEED0100000000006A03800001005E007F
:103910000000000000008F039E0B2404BF00BB00CA
:10392000920D19088E0A29091305CE03381187054F
:103930007A0E730D1D040D04090405040000000037
:10394000C30123015001100281015F0173010000D6
:103950000000B003D80B950B800B9A0CBC0D280807
:103960000C0AAB11D60D4E052C053A0442048815FD
:1039700037043504A5032B04090E3F0EDF0D270481
:1039800000000000911257495A6E65740045746832
:1039900065726E657420636F6E66696775726564C3
:1039A000207669612044484350000D0A0046616951
:1039B0006C656420746F20636F6E666967757265ED
:1039C0002045746865726E6574207573696E672032
:1039D000444843500041737369676E6564204950E1
:0439E0003A20000089
:107E0000112484B714BE81FFF0D085E080938100F7
:107E100082E08093C00088E18093C10086E0809377
:107E2000C20080E18093C4008EE0C9D0259A86E02C
:107E300020E33CEF91E0309385002093840096BBD3
:107E4000B09BFECF1D9AA8958150A9F7CC24DD24C4
:107E500088248394B5E0AB2EA1E19A2EF3E0BF2EE7
:107E6000A2D0813461F49FD0082FAFD0023811F036
:107E7000013811F484E001C083E08DD089C08234E0
:107E800011F484E103C0853419F485E0A6D080C0E4
:107E9000853579F488D0E82EFF2485D0082F10E0AE
:107EA000102F00270E291F29000F111F8ED06801E7
:107EB0006FC0863521F484E090D080E0DECF843638
:107EC00009F040C070D06FD0082F6DD080E0C81688
:107ED00080E7D80618F4F601B7BEE895C0E0D1E017
:107EE00062D089930C17E1F7F0E0CF16F0E7DF06D8
:107EF00018F0F601B7BEE89568D007B600FCFDCFD4
:107F0000A601A0E0B1E02C9130E011968C91119780
:107F100090E0982F8827822B932B1296FA010C0160
:107F200087BEE89511244E5F5F4FF1E0A038BF0790
:107F300051F7F601A7BEE89507B600FCFDCF97BE46
:107F4000E89526C08437B1F42ED02DD0F82E2BD052
:107F50003CD0F601EF2C8F010F5F1F4F84911BD097
:107F6000EA94F801C1F70894C11CD11CFA94CF0C13
:107F7000D11C0EC0853739F428D08EE10CD085E9AC
:107F80000AD08FE07ACF813511F488E018D01DD067
:107F900080E101D065CF982F8091C00085FFFCCF94
:107FA0009093C60008958091C00087FFFCCF809118
:107FB000C00084FD01C0A8958091C6000895E0E648
:107FC000F0E098E1908380830895EDDF803219F02E
:107FD00088E0F5DFFFCF84E1DECF1F93182FE3DFCA
:107FE0001150E9F7F2DF1F91089580E0E8DFEE27F6
:047FF000FF270994CA
:027FFE00040479
:00000001FF
