:020000040000FA
:100000000C9463000C948B000C948B000C943405BE
:100010000C9434050C9434050C948B000C948B00D8
:100020000C948B000C948B000C948B000C948B0024
:100030000C948B000C948B000C948B000C948B0014
:100040000C9492040C948B000C9402050C94DC0428
:100050000C948B000C948B000C948B000C948B00F4
:100060000C948B000C948B000000000024002700EF
:100070002A0000000008000201000003040700003D
:1000800000000000000000000000230026002900FE
:1000900000000000250028002B00040404040404D0
:1000A0000404020202020202030303030303010227
:1000B00004081020408001020408102001020408F6
:1000C0001020AC05710811241FBECFEFD8E0DEBFB1
:1000D000CDBF11E0A0E0B1E0E4E8F1E102C005909D
:1000E0000D92A634B107D9F724E0A6E4B1E001C02F
:1000F0001D92A43FB207E1F710E0C2E6D0E004C0D1
:100100002197FE010E94AF08C136D107C9F70E94AE
:1001100078060C94B5080C940000FC01A089B18904
:1001200082E08C93A485B5851C92A685B7858FEC5B
:100130008C93108EA489B5896C93A289B3898C9114
:1001400080618C93A289B3898C9188608C93A289F9
:10015000B3898C9180688C930288F389E02D80812B
:100160008F7D80830895482FE7ECF3E020E08FEF48
:100170009FEF241791F03191832738E0BC01617023
:10018000772796958795672B21F051E0852750EAD0
:100190009527315099F72F5FECCF089590E0FC013F
:1001A000EE58FF4F2491FC01E255FF4F3491FC01C2
:1001B000E656FF4FE491EE23C9F0222339F02330B5
:1001C00001F1A8F4213019F1223029F1F0E0EE0F0D
:1001D000FF1FE057FF4FA591B4918FB7F894EC91B2
:1001E000611126C030953E233C938FBF0895273080
:1001F000A9F02830C9F0243049F7809180008F7D24
:1002000003C0809180008F7780938000DFCF84B51A
:100210008F7784BDDBCF84B58F7DFBCF8091B0001D
:100220008F778093B000D2CF8091B0008F7DF9CFCF
:100230003E2BDACF86E00E94B3008093CD039093EB
:10024000CE038091C6038F3F19F061E00E94CE007B
:100250008091C4039091C503DC01ED91FC91028073
:10026000F381E02D48E050E067EC73E00995809160
:10027000C4039091C503DC01ED91FC910680F781E8
:10028000E02D09958091C6038F3F19F060E00C9432
:10029000CE000895CF93DF9390E0FC01E255FF4F2D
:1002A000249186569F4FFC0184918823D1F090E0E1
:1002B000880F991FFC01E859FF4FA591B491FC01EB
:1002C000E057FF4FC591D49161110EC09FB7F894CC
:1002D0008C91E22FE0958E238C932881E223E88392
:1002E0009FBFDF91CF9108958FB7F894EC91E22BE7
:1002F000EC938FBFF6CF3FB7F89480911B0390919A
:100300001C03A0911D03B0911E0326B5A89B05C038
:100310002F3F19F00196A11DB11D3FBFBA2FA92F84
:10032000982F8827BC01CD01620F711D811D911D81
:1003300042E0660F771F881F991F4A95D1F70895ED
:100340008F929F92AF92BF92CF92DF92EF92FF92E5
:100350001F93CF93DF93182F8FB7F894C0901F038C
:10036000D0902003E0902103F09022038FBF809172
:10037000C4039091C503DC01ED91FC910084F185EB
:10038000E02D0995892B71F52FB7F89480911F0303
:1003900090912003A0912103B09122032FBF8C19CB
:1003A0009D09AE09BF094091CF045091D0046091DE
:1003B000D1047091D20484179507A607B707B8F245
:1003C00081E08093D30430E020E0C901DF91CF9138
:1003D0001F91FF90EF90DF90CF90BF90AF909F90D4
:1003E0008F900895D0E0C0E08091C4039091C50340
:1003F000DC01ED91FC910084F185E02D0995892BBC
:10040000A1F00E947B016B017C018091C40390915B
:10041000C503DC01ED91FC910284F385E02D099583
:10042000FE01E054FC4F878321960E947B016C19EA
:100430007D098E099F098090C7049090C804A09000
:10044000C904B090CA0486169706A806B90620F01B
:10045000CF3FD10549F240F20E947B016C197D0922
:100460008E099F098090CB049090CC04A090CD047D
:10047000B090CE04681579058A059B0568F38091D4
:10048000C4039091C503DC01ED91FC910084F185DA
:10049000E02D0995892B09F096CF8091C703813013
:1004A00009F091CFF090C803F11641F0812F90E050
:1004B00080589F4FF816190609F085CF8C2F82506F
:1004C0000E94B3009E0122503109C054DC4F4E817E
:1004D000F901E054FC4F57814527542745278417DD
:1004E000950709F070CF812F90E080589F4FF81644
:1004F000190609F06ACF8091C9038093D40463CFB1
:10050000AF92BF92CF92DF92EF92FF920F931F9321
:10051000CF93DF936C017B018B01040F151FEB015F
:100520005E01AE18BF08C017D10759F06991D60116
:10053000ED91FC910190F081E02DC6010995892B88
:1005400079F7C501DF91CF911F910F91FF90EF9047
:10055000DF90CF90BF90AF900895FC01538D448DF4
:10056000252F30E0842F90E0821B930B541710F05E
:10057000CF96089501970895FC01918D828D98176B
:1005800061F0A28DAE0FBF2FB11D5D968C91928D43
:100590009F5F9F73928F90E008958FEF9FEF089574
:1005A000FC01918D828D981731F0828DE80FF11D3D
:1005B000858D90E008958FEF9FEF0895FC01918D58
:1005C000228D892F90E0805C9F4F821B91098F7351
:1005D0009927089583E293E00E94DE0221E0892BAF
:1005E00009F420E0822F089580E090E0892B29F023
:1005F0000E94EA0281110C9400000895FC01A48D70
:10060000A80FB92FB11DA35ABF4F2C91848D90E034
:1006100001968F739927848FA689B7892C93A08917
:10062000B1898C91837080648C93938D848D9813A1
:1006300006C00288F389E02D80818F7D8083089534
:10064000EF92FF920F931F93CF93DF93EC0181E022
:10065000888F9B8D8C8D98131AC0E889F9898081C9
:1006600085FF15C09FB7F894EE89FF896083E889FC
:10067000F98980818370806480839FBF81E090E0EE
:10068000DF91CF911F910F91FF90EF900895F62E7B
:100690000B8D10E00F5F1F4F0F731127E02E8C8D15
:1006A0008E110CC00FB607FCFACFE889F98980815A
:1006B00085FFF5CFCE010E94FE02F1CFEB8DEC0F4E
:1006C000FD2FF11DE35AFF4FF0829FB7F8940B8F77
:1006D000EA89FB8980818062CFCFCF93DF93EC01E1
:1006E000888D8823B9F0AA89BB89E889F9898C911A
:1006F00085FD03C0808186FD0DC00FB607FCF7CFD6
:100700008C9185FFF2CF808185FFEDCFCE010E94D5
:10071000FE02E9CFDF91CF910895209188013091B9
:1007200089012817390771F490918601809187011A
:10073000981741F0E0918601F0E0EA5BFE4F80817E
:1007400090E008958FEF9FEF08950895EF92FF9244
:100750000F931F93CF93DF93DC015C96ED90FC9099
:100760005D97E114F10479F481E090E013969C9395
:100770008E93129790E080E0DF91CF911F910F91BF
:10078000FF90EF9008955196ED91FC9152975096FD
:100790008C915097982F90950FB75E962C915E97FD
:1007A000122F127021FD6095F8942081112319F108
:1007B000282B2083E7012197F1F728E0462F50E00E
:1007C000308160FF1AC0382B3083E7012197F1F7A1
:1007D000BA0175956795215089F7112381F08081C1
:1007E000892380830FBF5C968D919C910197F1F7CF
:1007F00081E090E0C1CF2923DCCF3923E5CF908180
:10080000892BEFCF20918801309189012817390772
:1008100061F4809187012091860190E0805C9F4F78
:10082000821B91098F739927089590E080E00895C5
:10083000209188013091890128173907B9F49091E6
:10084000860180918701981789F0E0918601F0E098
:10085000EA5BFE4F80812091860130E02F5F3F4FA1
:100860002F7333272093860190E008958FEF9FEF39
:10087000089590E080E00895FC0101900020E9F7E0
:100880003197AF01481B590BBC0183E293E00C94F4
:100890008002CF92DF92EF92FF920F931F93CF933C
:1008A000DF93CDB7DEB7A1970FB6F894DEBF0FBECA
:1008B000CDBF9C0150E040E019A28E010F5D1F4F9B
:1008C0008AE0C82ED12CE12CF12CCA01B901A70174
:1008D00096010E948D08605DF80162938F012115D9
:1008E00031054105510589F73097C9F0CF010E94C4
:1008F0003C048C0184E291E00E943C04800F911F33
:10090000A1960FB6F894DEBF0FBECDBFDF91CF9199
:100910001F910F91FF90EF90DF90CF90089510E01E
:1009200000E0E8CF1F920F920FB60F9211242F9381
:100930003F938F939F93AF93BF9380911F039091A9
:100940002003A0912103B091220330911A0323E0E8
:10095000230F2D3758F50196A11DB11D20931A03C1
:1009600080931F0390932003A0932103B09322034D
:1009700080911B0390911C03A0911D03B0911E0355
:100980000196A11DB11D80931B0390931C03A0939E
:100990001D03B0931E03BF91AF919F918F913F9123
:1009A0002F910F900FBE0F901F90189526E8230FE0
:1009B0000296A11DB11DD2CF1F920F920FB60F92BA
:1009C00011242F933F934F935F936F937F938F9354
:1009D0009F93AF93BF93EF93FF9383E293E00E94C3
:1009E000FE02FF91EF91BF91AF919F918F917F9107
:1009F0006F915F914F913F912F910F900FBE0F908C
:100A00001F9018951F920F920FB60F9211242F93DB
:100A10008F939F93EF93FF93E0913303F09134030F
:100A20008081E0913903F0913A0382FD1BC09081EF
:100A300080913C038F5F8F7320913D03821741F0BB
:100A4000E0913C03F0E0ED5DFC4F958F80933C031B
:100A5000FF91EF919F918F912F910F900FBE0F906B
:100A60001F9018958081F4CF1F920F920FB60F92AE
:100A700011242F933F934F935F936F937F938F93A3
:100A80009F93AF93BF93EF93FF93E0918801F09111
:100A90008901309749F0A685B7858585968D91FFA8
:100AA00014C09C918923A1F4FF91EF91BF91AF9164
:100AB0009F918F917F916F915F914F913F912F9176
:100AC0000F900FBE0F901F9018959C91892361F78E
:100AD000A389B4899C918589809589238C93868983
:100AE00097890197F1F7608D718DA685B78555853A
:100AF00038E020E0CB010197F1F7822F90E0959547
:100B00008795282F4C91452309F02068315091F7A3
:100B1000868D81FD20958091870190E001968F73ED
:100B2000992730918601381799F0A0918701B0E09C
:100B3000AA5BBE4F2C9380938701828D938D019782
:100B4000F1F7A389B4898C919589892B8C93ACCFCB
:100B5000868D8160868FF1CF109226031092250337
:100B600088EE93E0A0E0B0E0809327039093280301
:100B7000A0932903B0932A0324E031E030932403A7
:100B80002093230325EC30E03093300320932F0390
:100B900024EC30E0309332032093310320EC30E03A
:100BA000309334032093330321EC30E03093360349
:100BB0002093350322EC30E0309338032093370341
:100BC00026EC30E030933A032093390310923C0333
:100BD00010923D0310923E0310923F031092D804EE
:100BE0001092D7048093D9049093DA04A093DB0485
:100BF000B093DC0486E191E09093D6048093D50411
:100C00001092EC041092EB041092EE041092ED049A
:100C10001092F0041092EF041092F2041092F1047A
:100C20006091F3046E7F6D7F6093F304669561704D
:100C300081E068278EE00E94CE0061E08EE00E9495
:100C40004A01ECEBF0E0E491E093E504E8EAF0E03F
:100C5000E491F0E0EE0FFF1FE057FF4F8591949174
:100C60009093E7048093E60460E08FE00E944A01DD
:100C70008091F30481FD04C061E08FE00E94CE000A
:100C80008FE08093E104EDEBF0E0E491E093E20487
:100C9000E9EAF0E0E491F0E0EE0FFF1FEA57FF4FC2
:100CA000859194919093E4048093E30484E690E02A
:100CB000A0E0B0E08093CF049093D004A093D1043F
:100CC000B093D2041092D3041092D40483E293E040
:100CD0009093C1038093C0031092C3031092C20388
:100CE0009093C5038093C40389E08093C60308955D
:100CF000789484B5826084BD84B5816084BD85B5F7
:100D0000826085BD85B5816085BD80916E00816002
:100D100080936E00109281008091810082608093A8
:100D200081008091810081608093810080918000AA
:100D30008160809380008091B10084608093B100D5
:100D40008091B00081608093B00080917A008460CF
:100D500080937A0080917A00826080937A008091FB
:100D60007A00816080937A0080917A008068809315
:100D70007A001092C10061E082E00E944A018091F5
:100D8000C0039091C103009709F4D1C04CE25AE02E
:100D900060E070E04093C7045093C8046093C904B6
:100DA0007093CA044FE452E160E070E04093CB04DA
:100DB0005093CC046093CD047093CE0466E00E94FF
:100DC0008D008091C6038F3F41F061E00E944A018F
:100DD00060E08091C6030E94CE000E947B016B01FF
:100DE0007C018091C4039091C503DC01ED91FC91DD
:100DF0000084F185E02D0995181619067CF40E94EF
:100E00007B016B017C018091C4039091C503DC01DF
:100E1000ED91FC910284F385E02D09950E947B0100
:100E20006C197D098E099F090091CB041091CC04A7
:100E30002091CD043091CE0460177107820793078B
:100E400080F266E083E293E00E948D0099249394FF
:100E500024E1222E00EA11E038EEA32E33E0B32E77
:100E6000C0E0D0E045E0842E33243A949092C7034A
:100E7000B3E0B093C8031092C9031092CA03109252
:100E8000CB032092CC030E941A0183E00E94A001B0
:100E90008B9709F0EEC08091C903883209F0E9C050
:100EA000E0ECF3E0AAE8B1E08285938589279827F2
:100EB00089278D939D933296AE16BF06A9F787E2D8
:100EC00091E00E943C0481E090E00E9449040E946D
:100ED0007B016B017C0188E8482E83E1582E612C50
:100EE000712C0E947B016C197D098E099F09683E57
:100EF000734081059105A8F3F1E04F1A510861088C
:100F0000710828EEC20E23E0D21EE11CF11C411430
:100F100051046104710429F7209709F4A7CF0E94B6
:100F2000EA02882309F4A2CF0E9400009FCFE0913B
:100F3000C203F091C303309709F443CF8CE29AE0E7
:100F4000A0E0B0E08093C7049093C804A093C904C4
:100F5000B093CA048FE492E1A0E0B0E08093CB04A8
:100F60009093CC04A093CD04B093CE04138E128E34
:100F7000118E108E178A168A8DE991E0958F848FD5
:100F800084858631E0F52DEB30E0378B268B2BE91D
:100F900031E0318F208F2CE231E0338F228F90911E
:100FA0006800883008F456C021E08E3008F420E054
:100FB00081E001C0880F2A95EAF7892B80936800A9
:100FC00094852DE630E0983050F02BE630E09E30EE
:100FD00030F02CE630E0963110F030E020E0348B39
:100FE000238B292F30E09830B8F581E001C0880FBD
:100FF0009A95EAF7858B848D958D0197F1F7828D0F
:10100000938D892B09F4DDCEA0918801B0918901DF
:10101000EA17FB0709F4D5CE109751F05396CD91FE
:10102000DC915497988155968C918095892388837B
:10103000868D8E7F868F1092870110928601F093A5
:101040008901E0938801A389B4898C919589892BC2
:101050008C93B7CE84E0B1CF9E3040F42850310954
:1010600081E001C0880F2A95EAF7C4CF2E503109DC
:10107000F7CF9AE8E92E91E0F92EF701819191914D
:101080007F010E9449040E151F05B9F79092C7030E
:101090008092C8031092C9031092CA033092CB0306
:1010A0001092CC030E941A0185E00E94A0010697CD
:1010B00079F48091C9039091CA03892B49F48091F6
:1010C000CB038F3F29F48091CC03882309F4F7CE1A
:1010D00084E391E00E943C0484E291E00E943C049D
:1010E000F6CE86E191E09093D6048093D50480916A
:1010F000880190918901855D944071F4E091E80444
:10110000F091E90490818091EA048095892380839D
:1011100010928901109288010895A1E21A2EAA1B4B
:10112000BB1BFD010DC0AA1FBB1FEE1FFF1FA21797
:10113000B307E407F50720F0A21BB30BE40BF50B94
:10114000661F771F881F991F1A9469F7609570951D
:10115000809590959B01AC01BD01CF010895EE0FE4
:10116000FF1F0590F491E02D099410E0C2E6D0E055
:1011700004C0FE010E94AF082196C336D107C9F70B
:10118000F894FFCF0000000020038002AD026D0341
:10119000DE02BC02D00200000000A6038002390477
:1011A000A503020418048D030D0A004572726F72C4
:1011B00020436F64653A20004E6577204E756D625E
:0A11C000657220436F6D696E6700D1
:107E0000112484B714BE81FFF0D085E080938100F7
:107E100082E08093C00088E18093C10086E0809377
:107E2000C20080E18093C4008EE0C9D0259A86E02C
:107E300020E33CEF91E0309385002093840096BBD3
:107E4000B09BFECF1D9AA8958150A9F7CC24DD24C4
:107E500088248394B5E0AB2EA1E19A2EF3E0BF2EE7
:107E6000A2D0813461F49FD0082FAFD0023811F036
:107E7000013811F484E001C083E08DD089C08234E0
:107E800011F484E103C0853419F485E0A6D080C0E4
:107E9000853579F488D0E82EFF2485D0082F10E0AE
:107EA000102F00270E291F29000F111F8ED06801E7
:107EB0006FC0863521F484E090D080E0DECF843638
:107EC00009F040C070D06FD0082F6DD080E0C81688
:107ED00080E7D80618F4F601B7BEE895C0E0D1E017
:107EE00062D089930C17E1F7F0E0CF16F0E7DF06D8
:107EF00018F0F601B7BEE89568D007B600FCFDCFD4
:107F0000A601A0E0B1E02C9130E011968C91119780
:107F100090E0982F8827822B932B1296FA010C0160
:107F200087BEE89511244E5F5F4FF1E0A038BF0790
:107F300051F7F601A7BEE89507B600FCFDCF97BE46
:107F4000E89526C08437B1F42ED02DD0F82E2BD052
:107F50003CD0F601EF2C8F010F5F1F4F84911BD097
:107F6000EA94F801C1F70894C11CD11CFA94CF0C13
:107F7000D11C0EC0853739F428D08EE10CD085E9AC
:107F80000AD08FE07ACF813511F488E018D01DD067
:107F900080E101D065CF982F8091C00085FFFCCF94
:107FA0009093C60008958091C00087FFFCCF809118
:107FB000C00084FD01C0A8958091C6000895E0E648
:107FC000F0E098E1908380830895EDDF803219F02E
:107FD00088E0F5DFFFCF84E1DECF1F93182FE3DFCA
:107FE0001150E9F7F2DF1F91089580E0E8DFEE27F6
:047FF000FF270994CA
:027FFE00040479
:00000001FF
