:100000000C945D000C9485000C9485000C94850084
:100010000C9485000C9485000C9485000C9485004C
:100020000C9485000C9485000C9485000C9485003C
:100030000C9485000C9485000C9485000C9485002C
:100040000C94FA160C9485000C946A170C944417BF
:100050000C9485000C9485000C9485000C9485000C
:100060000C9485000C94850000000008000201003B
:100070000003040700000000000000000000000072
:10008000250028002B0000000000240027002A0083
:10009000040404040404040402020202020203032E
:1000A0000303030301020408102040800102040836
:1000B00010200102040810209C1711241FBECFEF4E
:1000C000D8E0DEBFCDBF14E0A0E0B1E0E8E4F2E4A8
:1000D00002C005900D92A430B107D9F725E0A4E045
:1000E000B4E001C01D92A33BB207E1F710E0CDE5FB
:1000F000D0E004C02197FE010E94161FCC35D10725
:10010000C9F70E94B0180C9422210C9400008CBDF9
:100110009DBD089590E0FC01EC55FF4F2491805760
:100120009F4FFC018491882399F090E0880F991FDC
:10013000FC01EA57FF4FA591B491FC01E458FF4F31
:10014000859194918FB7F894EC91E22BEC938FBF4B
:10015000089520E3FC0120833296862F82958F70CC
:100160006F706A3030F4605D6293682F8111F5CF53
:100170000895695CF9CFFC01818D928D08950895F1
:1001800090E0FC01E859FF4F2491FC01EC55FF4F32
:100190003491FC01E057FF4FE491EE23C9F0222394
:1001A00039F0233001F1A8F4213019F1223029F17E
:1001B000F0E0EE0FFF1FE458FF4FA591B4918FB709
:1001C000F894EC91611126C030953E233C938FBF8B
:1001D00008952730A9F02830C9F0243049F78091DC
:1001E00080008F7D03C0809180008F778093800096
:1001F000DFCF84B58F7784BDDBCF84B58F7DFBCF18
:100200008091B0008F778093B000D2CF8091B00002
:100210008F7DF9CF3E2BDACF3FB7F89480918B04D6
:1002200090918C04A0918D04B0918E0426B5A89B6A
:1002300005C02F3F19F00196A11DB11D3FBFBA2F78
:10024000A92F982F8827BC01CD01620F711D811D38
:10025000911D42E0660F771F881F991F4A95D1F7BD
:1002600008958F929F92AF92BF92CF92DF92EF92BA
:10027000FF924B015C010E940C016B017C010E940A
:100280000C016C197D098E099F09683E7340810538
:100290009105A8F321E0821A9108A108B10888EE1F
:1002A000C80E83E0D81EE11CF11C81149104A10446
:1002B000B10429F7FF90EF90DF90CF90BF90AF90FF
:1002C0009F908F9008952FB7F89460918704709154
:1002D00088048091890490918A042FBF0895AF9279
:1002E000BF92CF92DF92EF92FF920F931F93CF9323
:1002F000DF936C017B018B01040F151FEB015E0185
:10030000AE18BF08C017D10759F06991D601ED9119
:10031000FC910190F081E02DC6010995892B79F7B8
:10032000C501DF91CF911F910F91FF90EF90DF906A
:10033000CF90BF90AF900895FC01538D448D252F31
:1003400030E0842F90E0821B930B541710F0CF966F
:10035000089501970895FC01918D828D981761F0A1
:10036000A28DAE0FBF2FB11D5D968C91928D9F5FB8
:100370009F73928F90E008958FEF9FEF0895FC0197
:10038000918D828D981731F0828DE80FF11D858D4A
:1003900090E008958FEF9FEF0895FC01918D228DDD
:1003A000892F90E0805C9F4F821B91098F73992762
:1003B000089588EE94E00E94CD0121E0892B09F494
:1003C00020E0822F089580E090E0892B29F00E94A0
:1003D000D90181110C9400000895FC01A48DA80F8F
:1003E000B92FB11DA35ABF4F2C91848D90E0019677
:1003F0008F739927848FA689B7892C93A089B18997
:100400008C91837080648C93938D848D981306C037
:100410000288F389E02D80818F7D80830895EF929B
:10042000FF920F931F93CF93DF93EC0181E0888FAE
:100430009B8D8C8D98131AC0E889F989808185FF7E
:1004400015C09FB7F894EE89FF896083E889F98920
:1004500080818370806480839FBF81E090E0DF9122
:10046000CF911F910F91FF90EF900895F62E0B8D75
:1004700010E00F5F1F4F0F731127E02E8C8D8E1130
:100480000CC00FB607FCFACFE889F989808185FF97
:10049000F5CFCE010E94ED01F1CFEB8DEC0FFD2FDA
:1004A000F11DE35AFF4FF0829FB7F8940B8FEA8952
:1004B000FB8980818062CFCFCF93DF93EC01888D61
:1004C0008823B9F0AA89BB89E889F9898C9185FDCF
:1004D00003C0808186FD0DC00FB607FCF7CF8C915D
:1004E00085FFF2CF808185FFEDCFCE010E94ED0127
:1004F000E9CFDF91CF910895DC0130E020E08FEF6C
:100500009FEF26173707C1F0ED91FC911197E20F8D
:10051000F31F4081842748E0FC01E170FF27969596
:100520008795EF2B21F051E0852750EA9527415020
:1005300099F72F5F3F4FE5CF0895DC011296ED91BB
:10054000FC91848195819827892798279C012350C5
:1005500031092C3F310510F090E080E00895DC0176
:100560001296ED91FC91CB01039714828C3F91057B
:1005700010F015820895658308954F925F926F92EF
:100580007F928F929F92AF92BF92DF92EF92FF92F3
:100590000F931F93CF93DF93CDB7DEB7CE50D140EB
:1005A0000FB6F894DEBF0FBECDBFD82EF62EE72EC5
:1005B000CE010F969A83898306979C838B83079637
:1005C0009E838D83019698878F83DF8682E0888B58
:1005D000198A1A8A1B8A85E08C8B66E070E0CE014E
:1005E00001960E94AF02CE0101960E949D028C01ED
:1005F000BC01CE0101960E947C02E981FA81E00FE4
:10060000F11F8083E981FA81E00FF11F91838091CE
:10061000870587FD03C061E00E94C00080918805C6
:1006200087FD03C061E00E94C00000918505109124
:100630008605D801ED91FC91A280B380CE01019690
:100640000E949D02009709F0029669817A81AC01AF
:10065000C801F50109958091850590918605DC0119
:10066000ED91FC910680F781E02D0995809191052F
:10067000909192058230910538F0880F991F880F6C
:10068000991F05970197F1F78091870587FD03C0B2
:1006900060E00E94C0008091880587FD03C060E093
:1006A0000E94C0006EEF7FEFCE0101960E94AF0264
:1006B0000E9463014B015C01809185059091860544
:1006C000DC01ED91FC910084F185E02D0995892BE9
:1006D000A9F40E946301681979098A099B090091AC
:1006E0009505109196052091970530919805601712
:1006F00071078207930700F3E1E06EC00E940C01CE
:100700004B015C0110E000E0809185059091860529
:10071000DC01ED91FC910084F185E02D0995892B98
:10072000B1F00E940C014B015C0180918505909114
:100730008605DC01ED91FC910284F385E02D09959D
:10074000E981FA81E00FF11F80830F5F1F4F0E9444
:100750000C01681979098A099B0940908905509014
:100760008A0560908B0570908C05461657066806C2
:10077000790620F00F3F110539F230F2B8016250CE
:100780007109CE0101960E94AF020E940C01681906
:1007900079098A099B0900918D0510918E05209198
:1007A0008F0530919005601771078207930768F3F2
:1007B0008091850590918605DC01ED91FC91008486
:1007C000F185E02D0995892B61F06EEF7FEFCE0169
:1007D00001960E94AF02E2E0F0E0E95BFE4F80810B
:1007E00058C0CE0101960E949D025C0109811A81C8
:1007F000BC01CE0101960E947C02F801EA0DFB1DAE
:10080000218130812327322723272817390789F1AF
:100810006EEF7FEFCE0101960E94AF02E3E0DCCFE6
:10082000823009F58BE0B4E0AB16B10491F5AF81ED
:10083000B8858C918130C9F4EF2DFE2D30E020E099
:1008400011968C91119790E0022E02C09595879594
:100850000A94E2F7817081932F5F3F4F2530310575
:1008600079F780E016C08AE014C08CE012C088E0FE
:1008700010C0EB81FC818681D812F9CFED81FE8119
:100880008081823869F6EF81F885808180939905AF
:1008900089E0C25FDE4F0FB6F894DEBF0FBECDBF5A
:1008A000DF91CF911F910F91FF90EF90DF90BF905C
:1008B000AF909F908F907F906F905F904F90089532
:1008C000FC0120812EBD9B012150310941F0518155
:1008D0000DB407FEFDCF4EB55EBD4193F5CF61501F
:1008E0007109860F971F0DB407FEFDCF2EB5FC01D1
:1008F00020830895E0910504F09106048081909191
:100900000404892B80830895E0910504F091060486
:1009100090818091040480958923808308958EBD01
:1009200000000DB407FEFDCF8EB50895AF92BF92C3
:10093000CF92DF92EF92FF920F931F93CF93DF93AB
:10094000CDB7DEB728970FB6F894DEBF0FBECDBF88
:100950008C017B016A018091AB048333E1F458017F
:10096000A40EB51EA016B10609F46FC00E9484043F
:1009700080EF0E948F04812F0E948F04802F0E949D
:100980008F040F5F1F4FF70181917F010E948F0439
:100990000E947A04E7CF5B01A40EB51E8433C1F434
:1009A0000E94840419830A838D2D80688B83CC82F6
:1009B00064E070E0CE0101960E946004AE14BF04B2
:1009C00009F441C0F70181917F010E948F04F6CFA5
:1009D0000E9484040F3F110509F028F419820A834C
:1009E00084E08B830CC017FD17C019820A8333E0A3
:1009F000169507953A95E1F7007E0C600B8386E02B
:100A0000C816D104A0F5F701DE011496EA15FB051E
:100A100099F081918D93FACFC80126E0969587953C
:100A20002A95E1F7807E19830A830115104C10F492
:100A30008461D7CF8C61D5CFB6016D5F7F4FCE017A
:100A400001960E9460040E947A04C60128960FB69F
:100A5000F894DEBF0FBECDBFDF91CF911F910F91F4
:100A6000FF90EF90DF90CF90BF90AF90089563E03C
:100A700070E0CE0101960E946004F70181917F0130
:100A80000E948F04AE14BF04C1F7DDCFCF93DF9374
:100A90001F92CDB7DEB7898341E050E0BE016F5FA2
:100AA0007F4F90E080E00E9496040F90DF91CF91FD
:100AB000089590E02091AB04233339F40C96982FDD
:100AC000990F990F990F80E008954896F8CFDA01B1
:100AD000E0910804F0E0FE2FEE27E60FF71F90E00C
:100AE000982F8827A901BD018E0F9F1F0C94960493
:100AF000CF93DF9300D0CDB7DEB779836A8322E04E
:100B000030E0AE014F5F5F4F60E170E00E9467052B
:100B10000F900F90DF91CF910895CF93DF9300D086
:100B2000CDB7DEB779836A8322E030E0AE014F5F54
:100B30005F4F64E070E00E9467050F900F90DF91B7
:100B4000CF910895CF93DF931F92CDB7DEB7209159
:100B5000080430E0322F2227260F371F90E0982F0D
:100B60008827498341E050E0BE016F5F7F4F820FCD
:100B7000931F0E9496040F90DF91CF910895CF9319
:100B8000DF931F92CDB7DEB76983DC01ED91FC9155
:100B90000280F381E02D41E050E0BE016F5F7F4FA6
:100BA00009950F90DF91CF910895FC019485FB0189
:100BB0008485981303C081E0943008F080E00895A4
:100BC000CF93DF931F92CDB7DEB76983DC01ED9140
:100BD000FC910280F381E02D41E050E0BE016F5FA7
:100BE0007F4F09950F90DF91CF9108950895FF925F
:100BF0000F931F93CF93DF93EB01FC01178A168AA3
:100C00002A81211109C02B81211106C02C812111BB
:100C100003C02D81222301F141155105E9F08A011C
:100C2000FC01F08C80E591E00E948700AE014E5FF0
:100C30005F4F24E030E06CE070E08F2D0E9467058C
:100C4000B8018F2D0E94780581E090E0DF91CF916F
:100C50001F910F91FF90089580E0F7CFFC018485EC
:100C600095850895FC0184899589089523E931E0EB
:100C7000FC0131832083FB0140895189628973899A
:100C8000FC0142835383648375830895DC01ED91F5
:100C9000FC91048CF58DE02D099490E080E008959E
:100CA000FC01768765870895DC01ED91FC9102A037
:100CB000F3A1E02D099591E089270895862F0895E5
:100CC00081E08627089521E0FC018485843008F0C6
:100CD00020E0822F08950895CF93DF93EC0188815F
:100CE0009981009711F00E94B81F198218821D8205
:100CF0001C821B821A82DF91CF9108950C94B81F39
:100D0000FB0101900020E9F73197AF01461B570B1B
:100D1000DC01ED91FC910280F381E02D09948F922A
:100D20009F92AF92BF92EF92FF920F931F93CF9338
:100D3000DF93CDB7DEB7A1970FB6F894DEBF0FBE35
:100D4000CDBF7C01FA01CB0119A2223008F42AE0C0
:100D50008E010F5D1F4F822E912CB12CA12CBF0153
:100D6000A50194010E94DE1EF901CA016A300CF54A
:100D7000605DD8016E938D01232B242B252B79F7F1
:100D800090E080E0109721F0BD01C7010E9480062D
:100D9000A1960FB6F894DEBF0FBECDBFDF91CF9105
:100DA0001F910F91FF90EF90BF90AF909F908F9009
:100DB0000895695CDECF8F929F92AF92BF92CF92DF
:100DC000DF92EF92FF920F931F93CF93DF937C01FB
:100DD000EB016C0182E0C80ED11C4701E5E08E0EEC
:100DE000911C10E000E0F60141916F0150E070E0CD
:100DF00060E02AE0CE010E948F065C01E881F98163
:100E00000190F081E02D6EE2CE0109958A0D9B1DC7
:100E1000080F191FC814D90431F7F701458150E0B4
:100E200070E060E02AE0CE010E948F06800F911FE3
:100E3000DF91CF911F910F91FF90EF90DF90CF90B6
:100E4000BF90AF909F908F900895CF93DF93BC0198
:100E500088EE94E00E948006EC0165E971E088EE7E
:100E600094E00E9480068C0F9D1FDF91CF91089522
:100E7000AF92BF92CF92DF92EF92FF920F931F93A8
:100E8000CF93DF9300D000D0CDB7DEB78C016B01DC
:100E90007A018091AB048333E9F45B016801C40EED
:100EA000D51EC016D106A9F10E9484048FE00E94CD
:100EB0008F04812F0E948F04802F0E948F040F5F68
:100EC0001F4F80E00E948F04F50181935F010E9413
:100ED0007A04E7CF843369F50E94840419830A8376
:100EE0008F2D8F778B83EC8264E070E0CE010196CA
:100EF0000E946004A70170E060E0C6010E94142116
:100F0000E114F10421F0B701C6010E9460040E94BF
:100F10007A04C7010F900F900F900F90DF91CF913F
:100F20001F910F91FF90EF90DF90CF90BF90AF9007
:100F300008950E9484040F3F110509F030F41982CE
:100F40000A831B8263E070E0D1CF17FD0BC01982CA
:100F50000A8333E0169507953A95E1F7007E08601D
:100F60000B83F0CFC80126E0969587952A95E1F787
:100F7000807E19830A830115104C18F480618B83DD
:100F8000E1CF8861FCCF1F93CF93DF931F92CDB742
:100F9000DEB7182F80E591E00E948700812F0E9424
:100FA000590527E0129FF0011124E157FB4F2281E0
:100FB0003381377041E050E0BE016F5F7F4F820F99
:100FC000931F0E94380789810F90DF91CF911F9165
:100FD0000895FC01808D843040F4218D328D232BC7
:100FE00021F00E94C30790E008958FEF9FEF0895CE
:100FF000CF93DF93FC012485243028F08FEF9FEFFF
:10100000DF91CF910895EC010190F081E02D0084F3
:10101000F185E02D0995892B89F38C850E94C30702
:1010200090E0EECFCF93DF931F92CDB7DEB741E0D4
:1010300050E0BE016F5F7F4F0E94380789810F909B
:10104000DF91CF91089590E080E00C941208CF9347
:10105000DF93C4E1D0E00E942308882361F061E0BF
:1010600070E080E090E00E9431012197A1F780E0DC
:10107000DF91CF91089581E0FBCFDF92EF92FF9255
:101080000F931F93CF93DF9300D0CDB7DEB760E30C
:1010900072E080E090E00E943101DFB6F8940AE946
:1010A00010E03EEAE32E30E0F32E80910704811138
:1010B00022C0F8018491F7019491E82FF0E0EE0F3F
:1010C000FF1FEA57FF4FA591B4918C91982321F40B
:1010D00061E08AE00E94C0008AE00E948A008CB52C
:1010E00080618CBD8CB580648CBD8DE00E948A00CF
:1010F0008BE00E948A00809107048F5F8093070431
:10110000DFBEF8010491E02FF0E0EE0FFF1FE4587E
:10111000FF4F859194919093060480930504F70105
:10112000E490E09204048AE00E948A000E947A041B
:1011300080E591E00E94870084E38093AB0480E81F
:101140000E9446050E942708882309F441C088E0D0
:101150000E9446050E9423088830D1F580E10E9454
:1011600046050E942308803199F580E00E944605DB
:101170000E942308182F81112BC08FE190E00E945C
:101180001208833029F580E48093080442E06EE180
:1011900070E0812F0E94A20542E06FE170E0812F94
:1011A0000E94A2051F5F143089F740E06EE170E0F5
:1011B000812F0E94A20540E06FE170E0812F0E9424
:1011C000A2051F5F183089F781E08093710464C025
:1011D00087E38093AB0480E80E9446050E942708BD
:1011E0008823F9F088E00E9446050E942308883091
:1011F000C1F480E10E9446050E942308182F803127
:1012000081F480E00E9446050E942308811109C0F4
:1012100089E390E00E941208843019F410930804C6
:10122000D3CF83E38093AB0480E80E9446050E94FD
:101230002708882371F180E10E9446050E94230857
:10124000803139F582E10E9446050E9423088231EF
:1012500001F580E00E9446050E942308811119C013
:1012600084E08093080415E51A8341E050E0BE0154
:101270006E5F7F4F8BE190E00E949604198341E0FE
:1012800050E0BE016F5F7F4F8AE190E00E949604BC
:101290009BCF1092AB0480E00F900F90DF91CF9125
:1012A0001F910F91FF90EF90DF9008952091080417
:1012B00030E0322F2227620F731F90E0982F88278B
:1012C000860F971F0C941208CF93C82F462F61E00A
:1012D00070E00E94A20561E070E08C2F0E94560928
:1012E0008111F9CFCF910895CF93C82F80E591E078
:1012F0000E94870068E070E08C2FCF910C94640905
:10130000CF93C82F80E591E00E94870060E170E0F4
:101310008C2FCF910C946409CF93DF93EC01888DCF
:10132000843020F40E94800984E0888FDF91CF917F
:101330000895CF93C82F80E591E00E94870063E075
:1013400070E08C2FCF910C945609CF93DF93EC0172
:101350008C858430D0F40E949909843189F08823E7
:1013600079F0883169F021E08C3159F4E881F98114
:101370000084F185E02DCE01099521E0892B09F447
:1013800020E0822FDF91CF91089580E0FBCFCF92B4
:10139000DF92EF92FF92CF93DF93EC018C85843044
:1013A00068F40E9474090E9463016B017C018C85C2
:1013B0000E949909811109C084E08C87DF91CF9147
:1013C000FF90EF90DF90CF90089561E070E080E0B3
:1013D00090E00E9431010E946301AB01BC014C19F5
:1013E0005D096E097F098D859E85B0E0A0E04817F4
:1013F00059076A077B07D8F28C850E948009DCCFE9
:10140000CF93FC01C08D80E591E00E94870060E2EF
:1014100070E08C2F0E94640962E070E08C2F0E94C3
:10142000560984FD16C062E070E08C2F0E945609B8
:1014300083FF0AC048E162E070E08C2F0E94A205A1
:1014400080E090E0CF91089580E591E00E948700D0
:10145000E3CF40E162E070E08C2F0E94A20581E0C2
:10146000F0CFDA01E0910804F0E0FE2FEE27E60F5E
:10147000F71F90E0982F8827A901BD018E0F9F1FAD
:101480000C9438078F929F92AF92BF92CF92DF92C7
:10149000EF92FF921F93CF93DF93CDB7DEB72C97D8
:1014A0000FB6F894DEBF0FBECDBF2091AB0414E0A1
:1014B000222339F16B017C0180E591E00E948700D5
:1014C0005E0127E0A20EB11C450110E063E070E070
:1014D000812F0E945609F40181934F01882349F11D
:1014E0001F5F143099F710E0F50181915F018D3194
:1014F000D9F08831C9F08A518230B0F01F5F1430C2
:1015000099F7812F2C960FB6F894DEBF0FBECDBF92
:10151000DF91CF911F91FF90EF90DF90CF90BF9020
:10152000AF909F908F90089560E170E0812F0E94AE
:101530006409A12EB12C83EE93E00197F1F742E804
:1015400070E060E0812F0E94A2054FEF62E070E042
:10155000812F0E94A205B601C114D10491F480919B
:1015600006019091070101968115F0EC9F0708F4A0
:101570005CC0909307018093060160910601709111
:101580000701812F0E948D0586E0E2E1F1E0DE0196
:10159000119601900D928A95E1F7F70183818F777B
:1015A0008C8384818D8385818E83A7014E5F5F4FFD
:1015B00024E030E06CE070E0812F0E946705B60106
:1015C000812F0E94780526E030E0AE014F5F5F4F2B
:1015D00066E070E0812F0E94670561E070E0812F76
:1015E0000E94640927E02A9DC0012B9D900D1124C3
:1015F0009C0121573B4F7901F9011182108222E0B1
:1016000030E0AE01455F5F4F68E270E0812F0E94DD
:10161000310A8B859C85982789279827F701938322
:1016200082831682158214826CCF80E090ECA1CF69
:10163000CF92DF92EF92FF920F931F93CF93DF939E
:1016400000D000D000D0CDB7DEB78C016B017A019D
:10165000FC01808D843010F40E94800983E991E0C0
:101660009A838983F60182819381A481B5818B83DA
:101670009C83AD83BE83B701CE0101960E94420ACE
:10168000F801808F8430A0F4F586E486128E118EE6
:1016900081E026960FB6F894DEBF0FBECDBFDF9176
:1016A000CF911F910F91FF90EF90DF90CF90089511
:1016B00080E0EFCFAF92BF92CF92DF92EF92FF9296
:1016C0000F931F93CF93DF9300D000D000D0CDB7FE
:1016D000DEB7082F6B0180E591E00E9487009E0134
:1016E0002F5F3F4F7901590110E063E070E0812FD7
:1016F0000E945609F50181935F01882341F11F5F24
:10170000143099F710E0F70181917F018D31D1F00C
:101710008831C1F08A518230A8F01F5F143099F7E8
:10172000812F26960FB6F894DEBF0FBECDBFDF9196
:10173000CF911F910F91FF90EF90DF90CF90BF90CE
:10174000AF90089560E170E0812F0E946409E12E5E
:10175000F12C83EE93E00197F1F7402F70E060E009
:10176000812F0E94A2054FEF62E070E0812F0E945E
:10177000A205B601CD2889F4809106019091070158
:1017800001968115F0EC9F0798F1909307018093E3
:1017900006016091060170910701812F0E948D055D
:1017A00061E070E0812F0E94640927E02E9DC00156
:1017B0002F9D900D11249C0121573B4F7901F90178
:1017C0001182108222E030E0AE014B5F5F4F68E291
:1017D00070E0812F0E94310A8D819E819827892790
:1017E0009827F7019383828316821582148298CFFB
:1017F00080E090ECCACFCF92DF92EF92FF921F93DE
:10180000CF93DF93EC017B016A018C85843048F42F
:101810000E949909882319F08C850E94740984E03C
:101820008C87F70182819381A481B5810097A105FE
:10183000B10551F490E080E0DF91CF911F91FF90CE
:10184000EF90DF90CF9008958F3F9F4FAF4FBF4FE6
:1018500089F38091AB04811103C084E08C87EACFC7
:1018600070E060E081E20E945A0B182F8C87843070
:1018700008F780E591E00E948700A7014E5F5F4F67
:1018800024E030E06CE070E0812F0E946705B60133
:10189000812F0E94780564E070E0812F0E94640926
:1018A0000E9463016B017C018C850E94990987313C
:1018B00009F18C31F9F0882309F4BCCF0E9463014F
:1018C000AB01BC014C195D096E097F098D859E85B0
:1018D000B0E0A0E084179507A607B70738F061E0ED
:1018E00070E080E090E00E943101DECF8C850E94A4
:1018F0008009B3CF81E090E09FCF0F931F93CF93E8
:10190000DF93EC018B01888D843010F40E948009F4
:101910008091AB04811107C094E0988FDF91CF9143
:101920001F910F910895B80182E00E945A0B888F91
:10193000843030F41D870C871A8E198E81E0EECF2B
:1019400080E0ECCF7F928F929F92AF92BF92CF9226
:10195000DF92EF92FF920F931F93CF93DF9300D00C
:10196000CDB7DEB7782E8B014A01590122E030E075
:10197000AE014F5F5F4F64E270E00E94310AE98080
:10198000FA80FE24EF24FE24E00EF11E970137704A
:101990004091AB04072D10E0433309F042C0085FCB
:1019A0001F4F102F0027110F110F110FC901800FAA
:1019B000911F4733C9F1A9014A0D5B1D41305840C1
:1019C00098F160E078E06B01C21AD30AA601B40175
:1019D0000E949604A5014C195D09B4016C0D7D1D92
:1019E000C8010E949604EA0CFB1CF982EA8222E0FC
:1019F00030E0AE014F5F5F4F64E270E0872D0E94E0
:101A000067050F900F90DF91CF911F910F91FF907D
:101A1000EF90DF90CF90BF90AF909F908F907F908E
:101A20000895005F1F4FBDCFA501B401DACFEF923B
:101A3000FF921F93CF93DF9300D0CDB7DEB7182F5F
:101A400022E030E0AE014F5F5F4F60E270E00E9445
:101A5000310AE980FA80FE24EF24FE2422E030E0FF
:101A6000AE014F5F5F4F60E270E0812F0E94310A4C
:101A700089819A81982789279827E816F90689F499
:101A800087E0189FF0011124E157FB4FF582E482B3
:101A9000C7010F900F90DF91CF911F91FF90EF90B2
:101AA00008957C01DBCF1F93CF93DF93182F80E540
:101AB00091E00E948700812F0E94170DEC0163E0E6
:101AC00070E0812F0E945609873121F08C3111F08E
:101AD000D0E0C0E0CE01DF91CF911F910895CF9368
:101AE000DF93EC018C85843060F40E949909873182
:101AF00011F08C3131F48C850E94530D8115984082
:101B000088F3DF91CF910895FC018485843010F42F
:101B10000C94530D90E080E008959F92AF92BF9295
:101B2000CF92DF92EF92FF920F931F93CF93DF93A9
:101B30008C015B01942EE52EFC01C688D788F08CC1
:101B400080E591E00E9487008F2D0E94170DC92D1E
:101B5000DE2D8C179D0708F4EC019E01A501B6014E
:101B60008F2D0E94A20CF801868997898C0F9D1FEA
:101B7000978B868BCE01DF91CF911F910F91FF90B4
:101B8000EF90DF90CF90BF90AF909F9008958F928D
:101B90009F92AF92BF92CF92DF92EF92FF920F93FC
:101BA0001F93CF936C015B018A01FC01C485C43093
:101BB000F0F57A014130584018F0E12C88E0F82E19
:101BC00080E591E00E9487008C2F0E94170D4C0148
:101BD00063E070E08C2F0E945609873111F08C3140
:101BE00049F58E149F0460F380E591E00E94870020
:101BF0009701A50170E060E08C2F0E94A20C60E2CA
:101C000070E08C2F0E94640962E070E08C2F0E94CB
:101C1000560984FD17C063E070E08C2F0E945609BE
:101C200081110BC081E090E0F6019383828310E084
:101C300000E010C0F12CE12CD7CF80E591E00E94AC
:101C40008700E2CF40E162E070E08C2F0E94A205A5
:101C5000EF2841F3C801CF911F910F91FF90EF90B2
:101C6000DF90CF90BF90AF909F908F900895FF929C
:101C70000F931F93CF93DF9300D0CDB7DEB7F82E2D
:101C800022E030E0AE014F5F5F4F66E270E00E94FD
:101C9000310A09811A8110270127102722E030E03C
:101CA000AE014F5F5F4F66E270E08F2D0E94310AF8
:101CB00089819A819827892798270817190749F455
:101CC000C8010F900F90DF91CF911F910F91FF905E
:101CD00008958C01E3CF1F93CF93DF93182F87E0F4
:101CE000189FE0011124C157DB4F8881998100972B
:101CF00061F480E591E00E948700812F0E94370EF9
:101D00002E81821B910999838883DF91CF911F9146
:101D10000895FC018485843010F40C946B0E90E0DF
:101D200080E008954F925F927F928F929F92AF9240
:101D3000BF92CF92DF92EF92FF920F931F93CF93B8
:101D4000DF9300D0CDB7DEB7782E6B014A01A82E05
:101D5000B12C27E0829FC0011124FC01E157FB4F09
:101D60007F010081118180E591E00E9487000815C4
:101D7000190554F4872D0E94370EF70126818C0136
:101D8000021B1109118300830115110529F563E078
:101D900070E0872D0E945609843159F0882349F05C
:101DA00001E010E08C3111F410E000E01195019594
:101DB0001109C8010F900F90DF91CF911F910F91E2
:101DC000FF90EF90DF90CF90BF90AF909F908F905B
:101DD0007F905F904F900895801691060CF48401D7
:101DE00087E08A9DF0018B9DF00D1124E157FB4F98
:101DF000E280F380C114D10451F12701F7E05F22A2
:101E0000872D0E945905840D951D2091AB04273321
:101E100009F453C09801240D351D2130384008F4D1
:101E20004CC020E038E0490184189508A401B601AF
:101E30000E9438072601480C591C6801C818D908A7
:101E4000872D0E945905A601B2010E943807E00EB5
:101E5000F11E87E08A9DF0018B9DF00D1124E15762
:101E6000FB4FF382E28220813181201B310B3183D1
:101E700020838681800F912F911D8A3F910510F458
:101E8000232BF1F487E08A9DF0018B9DF00D112446
:101E9000E157FB4F1682F982EA8222E030E0AE0180
:101EA0004F5F5F4F68E270E0872D0E94670560E436
:101EB00070E0872D0E9464097CCFA801B601C5CFD0
:101EC000868377CFCF93DF93FC01218D328D21154F
:101ED000310529F48FEF9FEFDF91CF910895EC0149
:101EE000808D4217530708F0A9010E94920E181620
:101EF000190684F7298D3A8D281B390B3A8F298FC3
:101F0000EBCF0F931F93CF93DF931F92CDB7DEB725
:101F1000FC01218D328D232B41F48FEF9FEF0F9029
:101F2000DF91CF911F910F9108958C0141E050E016
:101F3000BE016F5F7F4FFC01808D0E94920E1816CC
:101F400019065CF7F801818D928D0197928F818F30
:101F5000898190E0E4CFCF93DF931F92CDB7DEB7B6
:101F600041E050E0BE016F5F7F4FFC0184850E941D
:101F7000920E1816190634F4898190E00F90DF91C3
:101F8000CF9108958FEF9FEFF9CFFC0184858430C6
:101F900010F40C94920E90E080E008950F931F933C
:101FA000CF93DF9300D0CDB7DEB7FC01248524307A
:101FB000E0F48C0180E591E00E94870022E030E0AF
:101FC000AE014F5F5F4F60E170E0F80184850E94D1
:101FD000310A89819A819827892798270F900F9035
:101FE000DF91CF911F910F91089590E080E0F6CF9F
:101FF0000F931F93CF93DF9300D0CDB7DEB7FC01D3
:1020000024852430E0F48C0180E591E00E94870073
:1020100022E030E0AE014F5F5F4F64E070E0F80116
:1020200084850E94310A89819A8198278927982777
:102030000F900F90DF91CF911F910F91089590E035
:1020400080E0F6CFDC0183E991E08D939D9384E0FD
:10205000FB0101900D928A95E1F70895EF92FF92AE
:102060000F931F93CF93DF9300D000D0CDB7DEB78F
:102070008C017B01FB0184858430A8F083E991E029
:10208000F801918380831282138214821582C80121
:102090000F900F900F900F90DF91CF911F910F91A4
:1020A000FF90EF90089580E591E00E94870024E082
:1020B00030E0AE014F5F5F4F6CE070E0F701848568
:1020C0000E94310ABE016F5F7F4FC8010E9422103B
:1020D000DECF0F931F93CF93DF93CDB7DEB7289753
:1020E0000FB6F894DEBF0FBECDBF8C01D801599654
:1020F0004D915C915A974115510551F0ED91FC912C
:10210000048CF58DE02D70E060E0C8010995EECFFC
:10211000F801808D0E946B0E892BB1F148E050E0F0
:10212000BE016F5F7F4FD80158968C910E94920E2E
:1021300018161906F4F4D801509684E0FE01319681
:1021400001900D928A95E1F78D8190E0982F882774
:102150002E81820F911DF801958B848B8F81282F02
:1021600030E0322F22278885820F932F911D928F86
:10217000818F28960FB6F894DEBF0FBECDBFDF91DA
:10218000CF911F910F91089590E080E0F2CF4F9290
:102190005F926F927F928F929F92AF92BF92CF92F7
:1021A000DF92EF92FF920F931F93CF93DF93CDB700
:1021B000DEB763970FB6F894DEBF0FBECDBF7C01CC
:1021C0006B013A01FB0120E090E080E06AE0319190
:1021D000332309F461C040ED430F4A3008F04DC08D
:1021E000689FA001699F500D1124CA01C097830FF9
:1021F000911D37FD9A958F3F910549F340F3F70103
:1022000042815381648175818091DE049091DF0465
:10221000A091E004B091E104481759076A077B07D1
:1022200009F40DC28701085F1F4F0E9463016F70A0
:1022300077277C5FC8010E947D0C813009F004C2C1
:1022400083E991E09A838983F70182819381A48154
:10225000B5818B839C83AD83BE8345E350E0BE0193
:102260006F5F7F4FC8010E94F705892BA9F5D12C1C
:10227000C12CC8010E948C0917C03E3209F0BFCFA3
:10228000233009F4BCCFD301A20FB11D12968C9359
:102290002F5F90E080E09BCF233009F0B0CFF301B7
:1022A0008583CC24C394D12CC60163960FB6F894D1
:1022B000DEBF0FBECDBFDF91CF911F910F91FF9079
:1022C000EF90DF90CF90BF90AF909F908F907F90D6
:1022D0006F905F904F9008950E946301F70177839C
:1022E000668342E050E0B7016A5F7F4FC8010E94F9
:1022F0008D0D81E090E09A83898342E050E0BE0139
:102300006F5F7F4FC8010E948D0D80E091E09A833E
:10231000898342E050E0BE016F5F7F4FC8010E9499
:102320008D0D1A82198242E050E0BE016F5F7F4F2F
:10233000C8010E948D0D42E050E0BE016F5F7F4FEB
:10234000C8010E948D0D42E050E0BE016F5F7F4FDB
:10235000C8010E948D0D5601F6018081882301F18C
:102360006501F60181912F01882311F08E32B1F4BD
:1023700046018A189B081814190474F48D8641E0EC
:1023800050E0BE01635F7F4FC8010E948D0DA40124
:10239000B501C8010E948D0D5201DECF6201E1CF6F
:1023A0001D8641E050E0BE01635F7F4FC8010E947F
:1023B0008D0DC12CDD24D394DA82C98242E050E035
:1023C000BE016F5F7F4FC8010E948D0DDA82C98206
:1023D00042E050E0BE016F5F7F4FC8010E948D0D4B
:1023E000C8010E94000A892B09F441CFF3E0AF2E07
:1023F000B12C230122E0420E511CD4C0F7014281CE
:10240000538164817581808D918DA28DB38D481724
:1024100059076A077B0709F008C1848D958DC59718
:1024200009F003C181A192A15DEFC52EDD24DA94EC
:102430000C970CF4ADC04CE050E0BE016F5F7F4FD5
:10244000C8010E94620F8B819C8198278927982759
:102450009A8B898BF7014681578129813A814217EE
:10246000530709F0E7C097FFE5C08F7092703BEF0C
:10247000C32EDD24DA94892B09F08AC06F8078841A
:102480007624672476242AEFC22EDD24DA946114A0
:10249000710409F47DC0D12CC12C8D819E819827B7
:1024A00089279827C816D906F8F441E050E0BE0104
:1024B000635F7F4FC8010E94620F4D85442331F056
:1024C00050E070E060E0C8010E94620F8D858111CC
:1024D000ECCF44E050E070E060E0C8010E94620F81
:1024E000FFEFCF1ADF0AD9CF912C812C41E050E0C9
:1024F000BE016D5E7F4FC8010E94620F4B89842F21
:10250000807C09F06CC0442331F050E070E060E062
:10251000C8010E94620F8B898111E8CF42E050E030
:10252000BE01615F7F4FC8010E94620F42E050E030
:10253000BE01635F7F4FC8010E94620F44E050E01C
:1025400070E060E0C8010E94620F42E050E0BE010E
:102550006F5E7F4FC8010E94620F8F8598894989FD
:102560005A898115914009F043C0CD84DE84DC2472
:10257000CD24DC2481E0C816D104D1F541155440A6
:1025800009F04AC044E050E0B201C8010E94620F65
:1025900021E0A21AB10809F46CCEFFEFCF16DF06D6
:1025A00009F067CE0E9463013B014C01C8010E9403
:1025B0006910181619060CF421CF0E9463016619E0
:1025C000770988099909693873418105910548F5AA
:1025D00062E370E080E090E00E943101E7CF41E0EB
:1025E00050E070E060E0C8010E94620F1B8A93CF48
:1025F00054274527542770E060E0C8010E94620F0D
:10260000FFEF8F1A9F0A6814790409F06FCF96EFD5
:10261000C92EDD24DA94BCCFE7EFCE2EDD24DA9488
:10262000B7CFCC24CA94DC2CB3CF6EEFC62EDD24FA
:10263000DA94AECF4CEFC42EDD24DA94A9CF8EEF1E
:10264000C82EDD24DA9430CED12CC12C2DCECF92E1
:10265000DF92EF92FF920F931F93CF93DF93CDB74B
:10266000DEB7AF970FB6F894DEBF0FBECDBF7C01CB
:102670006A0103E911E01A8309831C861B8688EE30
:1026800093E0A0E0B0E08D879E87AF87B88B8CE1A8
:1026900091E09A878987188F0F8B198E1A8E1B8E5F
:1026A0001C8E84E089A31BA70AA71CA61DA61EA634
:1026B0001FA68091D2049091D304A091D404B0912C
:1026C000D5048EA39FA3A8A7B9A78B839C83AD83B2
:1026D000BE8318861F82AE01465D5F4FCE01019614
:1026E0000E94C71081309105B1F4D701ED91FC91A2
:1026F0000488F589E02D1DA30CA38CA59DA5AEA58E
:10270000BFA58EA39FA3A8A7B9A7A601BE016C5D14
:102710007F4FC7010995AF960FB6F894DEBF0FBE85
:10272000CDBFDF91CF911F910F91FF90EF90DF9080
:10273000CF900895CF92DF92EF92FF920F931F9365
:10274000CF93DF93CDB7DEB7AF970FB6F894DEBF68
:102750000FBECDBF8C016B017A0183E991E09A83B2
:1027600089831B821C821D821E821C861B8648EE6A
:1027700053E060E070E04D875E876F87788B2CE1D7
:1027800031E03A872987988F8F8B198E1A8E1B8E8E
:102790001C8E24E029A39BA78AA71CA61DA61EA603
:1027A0001FA6D8011C968C91843060F40E94990970
:1027B000882321F0F80184850E94740984E0D801FF
:1027C0001C968C938091D2049091D304A091D40450
:1027D000B091D5048EA39FA3A8A7B9A78B839C8390
:1027E000AD83BE8318861F82AE01465D5F4FB60182
:1027F000CE0101960E94C7100097C1F0D801ED915B
:10280000FC910684F785E02D83E991E09DA38CA3DC
:102810008CA59DA5AEA5BFA58EA39FA3A8A7B9A76C
:10282000A701BE016C5D7F4FC8010995AF960FB639
:10283000F894DEBF0FBECDBFDF91CF911F910F91F6
:10284000FF90EF90DF90CF9008957F928F929F92AC
:10285000AF92BF92CF92DF92EF92FF920F931F93AE
:10286000CF93DF93CDB7DEB7A6970FB6F894DEBF50
:102870000FBECDBF8C01762E942E852E20E2A22E87
:10288000CE0101967C01DC01EA2D1D92EA95E9F763
:102890006801F3E4CF0ED11C83E991E09AA389A3E8
:1028A0008FEF8BA38CA38DA38EA343E450E0BE01D6
:1028B0006F5D7F4FC6010E94F705019609F4BFC006
:1028C00081E089838A8386E0B82EBB821C82D8018E
:1028D00014966D917D918D919C9117970E940F1F79
:1028E0006D837E838F83988789869A8680E890E0BF
:1028F0009C878B874CE150E0B701C6010E948D0D8B
:10290000FE0137968AE1DF011D928A95E9F74801B9
:10291000B8E08B0E911CF401D70101900D92BA948E
:10292000E1F740E150E0B701C6010E948D0DF701CB
:102930001192AA94E9F796E0A92EB12C40E250E05A
:10294000B701C6010E948D0DF1E0AF1AB108B1F7D1
:1029500083E6898392E89A8393E59B838C8385E35E
:102960008D8381E08E837F829DE3988797E09987AE
:102970008A8786E0F401DE011B9601900D928A950C
:10298000E1F78CE0898B8A8B68E971E0CE01439690
:102990000E941B21D8011B966C91CE0149960E9482
:1029A000A900F8016485CE014B960E94A900D801C8
:1029B0001D966C91CE014D960E94A9004EE150E00B
:1029C000B701C6010E948D0DB3E07B121EC082E3E9
:1029D000898384E08A83F80196859B8397859C830D
:1029E00090899D8391899E8396E39F838887828DBA
:1029F0008987838D8A87848D8B87858D8C874CE032
:102A000050E0B701C6010E948D0D87E3898386E0FF
:102A10008A8391E09B8393E09C838D838FE08E83F8
:102A20008AE38F838BE388878FEF898749E050E0C3
:102A3000B701C6010E948D0DC6010E94000AA6962C
:102A40000FB6F894DEBF0FBECDBFDF91CF911F91BF
:102A50000F91FF90EF90DF90CF90BF90AF909F903D
:102A60008F907F9008950F931F93CF93DF93EC0186
:102A700088819981009759F02A813B812617370771
:102A800030F081E0DF91CF911F910F9108958B017C
:102A90006F5F7F4F0E944120009759F09983888390
:102AA0001B830A832C813D81232B59F7FC01108263
:102AB000E8CF80E0E7CF3F924F925F926F927F9294
:102AC0008F929F92AF92BF92CF92DF92EF92FF923E
:102AD0000F931F93CF93DF93CDB7DEB7EA970FB66F
:102AE000F894DEBF0FBECDBF7C012A013B01690116
:102AF0000E9463014B015C0187010D5B1F4FC80100
:102B00000E946910181619069CF00E94630168194A
:102B100079098A099B09461657066806790608F45A
:102B200066C162E370E080E090E00E943101E7CF8F
:102B300042E250E0BE016F5F7F4FC8010E94620F0A
:102B400089818230D1F0312C832DEA960FB6F8942A
:102B5000DEBF0FBECDBFDF91CF911F910F91FF90D0
:102B6000EF90DF90CF90BF90AF909F908F907F902D
:102B70006F905F904F903F900895F80184899589F8
:102B80008334910501F76D817E818F8198850E9444
:102B90000F1F4B015C01F60180829182A282B382F9
:102BA00046E050E0B701685F7F4FCE014D960E942E
:102BB000FE20892B41F6F70180819181A281B381AA
:102BC00088169906AA06BB0608F4BDCF84819581B4
:102BD000A681B78188159905AA05BB0508F4B3CF6E
:102BE00089899A89AB89BC8986879787A08BB18BA5
:102BF0004EEC50E070E060E0C8010E94620F312CA2
:102C0000C701829698AB8FA7F701B696FAABE9ABEE
:102C100008969CAB8BAB67019AE1C90ED11CBD969F
:102C2000FEABEDABC701429698AF8FABFD97FAAF05
:102C3000E9AF4701FEE18F0E911CF801818D928D65
:102C4000181619060CF080CFC8010E94810F83333B
:102C5000910509F4B2C014F58130910509F464C0FE
:102C600044F4892B51F3C8010E94810FAC01552710
:102C700075C08330910509F462C00697A1F7C801B9
:102C80000E94810FB82E44E050E0B401C8010E94B8
:102C9000620FEB2DE450FF0BAF0160C08A3391054A
:102CA00009F45FC084F585339105B1F1C697D9F673
:102CB000C8010E94810F5C01B601CE0189960E9475
:102CC00022108BA59CA5ADA5BEA5892B8A2B8B2B8D
:102CD000B1F0EDA9FEA94080518062807380B601F9
:102CE000CE0183960E9422108DA19EA1AFA1B8A50E
:102CF000A501481659066A067B0609F0B8CF44E0DC
:102D000050E0B60118C08B33910509F440C08F3FE5
:102D1000910509F492CFA7CFC8010E94810FC80185
:102D20000E94810F382E89CFC8010E94810F44E094
:102D300050E06FA978ADC8010E94620F7ECFC80134
:102D40000E94810FB82E44E050E069AD7AADC80111
:102D50000E94620F8B2D8450990BAC0170E060E0F3
:102D6000EACFC8010E94810F44E050E069A97AA926
:102D7000C8010E94620FF70166A177A180A591A505
:102D80000E940F1F66A377A380A791A756CFC80103
:102D90000E94810F44E050E06BA97CA9C8010E9409
:102DA000620FF70162A573A584A595A50E940F1F68
:102DB00062A773A784A795A740CFC8010E94810F7F
:102DC00044E050E06FA578A9C8010E94620FF701A6
:102DD00062A173A184A195A10E940F1F62A373A396
:102DE00084A395A366A777A780AB91AB26CF3324A6
:102DF0003A94AACE1F920F920FB60F9211242F93DE
:102E00003F938F939F93AF93BF938091870490914B
:102E10008804A0918904B0918A043091860423E04B
:102E2000230F2D3758F50196A11DB11D209386045F
:102E30008093870490938804A0938904B0938A04B4
:102E400080918B0490918C04A0918D04B0918E049C
:102E50000196A11DB11D80938B0490938C04A093C7
:102E60008D04B0938E04BF91AF919F918F913F914C
:102E70002F910F900FBE0F901F90189526E8230FEB
:102E80000296A11DB11DD2CF1F920F920FB60F92C5
:102E900011242F933F934F935F936F937F938F935F
:102EA0009F93AF93BF93EF93FF9388EE94E00E94BC
:102EB000ED01FF91EF91BF91AF919F918F917F9124
:102EC0006F915F914F913F912F910F900FBE0F9097
:102ED0001F9018951F920F920FB60F9211242F93E7
:102EE0008F939F93EF93FF93E091F804F091F9048F
:102EF0008081E091FE04F091FF0482FD1BC090816F
:102F0000809101058F5F8F7320910205821741F038
:102F1000E0910105F0E0E851FB4F958F80930105AA
:102F2000FF91EF919F918F912F910F900FBE0F9076
:102F30001F9018958081F4CFE8EEF4E0138212829E
:102F400048EE53E060E070E0448355836683778306
:102F50008FE491E09183808385EC90E0958784876E
:102F600084EC90E09787868780EC90E0918B808B53
:102F700081EC90E0938B828B82EC90E0958B848B3C
:102F800086EC90E0978B868B118E128E138E148EAA
:102F9000ACEAB4E083E991E011969C938E9312968B
:102FA0001C92129713961C92139714961C921497C6
:102FB00015961C92A2EBB4E011969C938E931296F8
:102FC0001C92129713961C92139714961C921497A6
:102FD00015961C92A8EBB4E011969C938E931296D2
:102FE0001C92129713961C92139714961C92149786
:102FF00015961C92AEEBB4E011969C938E931296AC
:103000001C92129713961C92139714961C92149765
:1030100015961C92A4ECB4E011969C938E93129694
:103020001C92129713961C92139714961C92149745
:1030300015961C92AAECB4E011969C938E9312966E
:103040001C92129713961C92139714961C92149725
:1030500015961C92A6EDB4E011969C938E93129651
:103060001C92129713961C92139714961C92149705
:1030700015961C92A0EDB4E011969C938E93129637
:103080001D921D921D921C921597ACEDB4E0119605
:103090009C938E9312961C92129713961C921397E0
:1030A00014961C92149715961C92A2EEB4E01196F9
:1030B0009C938E9312961C92129713961C921397C0
:1030C00014961C92149715961C92A9EAB5E01196D5
:1030D0009C938E9312961C92129713961C921397A0
:1030E00014961C92149715961C92AAE9B5E01396B3
:1030F0001C921E92129714964D935D936D937C9340
:10310000179781E691E011969C938E9384E01C962C
:103110008C931C9788EE93E01E969C938E931D973C
:10312000A5E8B5E01196FC93EE931C961D921D92B6
:103130001D921C921F978FEF12968C9312971396E5
:103140008C93139754961C92549744EF51E060E08F
:1031500070E050964D935D936D937C9353970895D3
:10316000CF93DF93CDB7DEB72F970FB6F894DEBFBE
:103170000FBECDBF789484B5826084BD84B5816074
:1031800084BD85B5826085BD85B5816085BD809132
:103190006E00816080936E001092810080918100AA
:1031A00082608093810080918100816080938100A2
:1031B000809180008160809380008091B100846064
:1031C0008093B1008091B00081608093B0008091C5
:1031D0007A00846080937A0080917A008260809384
:1031E0007A0080917A00816080937A0080917A00E1
:1031F000806880937A001092C100E091F804F09109
:10320000F90482E08083E091F404F091F5041082E7
:10321000E091F604F091F7048FEC808310920005A2
:10322000E091FC04F091FD0486E08083E091FA04D3
:10323000F091FB04808180618083E091FA04F09139
:10324000FB04808188608083E091FA04F091FB04A4
:10325000808180688083E091FA04F091FB04808192
:103260008F7D80838CE29AE0A0E0B0E080938905B6
:1032700090938A05A0938B05B0938C058FE492E11F
:10328000A0E0B0E080938D0590938E05A0938F050C
:10329000B09390058091870587FD07C00E948A0042
:1032A00060E0809187050E94C0008091880587FDBD
:1032B00007C00E948A0060E0809188050E94C000DB
:1032C0000E940C016B017C0180918505909186051F
:1032D000DC01ED91FC910084F185E02D0995181633
:1032E00019067CF40E940C016B017C01809185051C
:1032F00090918605DC01ED91FC910284F385E02D2F
:1033000009950E940C016C197D098E099F09009195
:103310008D0510918E0520918F05309190056017D5
:1033200071078207930780F28FE991E00E942507D9
:1033300068EE73E080E090E00E94310180916904C2
:1033400081112AC0109251041092500488EE93E02B
:10335000A0E0B0E08093520490935304A0935404EF
:10336000B09355048CE191E090934F0480934E0408
:1033700083E991E090935D0480935C0410925E0475
:1033800010925F04109260041092610484E08093B4
:10339000660481E0809369048BE094E090930A04D2
:1033A0008093090480917104882309F460C280E548
:1033B00091E00E94870046E050E060E071E089E023
:1033C00090E00E94960483E991E09A8389831B82AE
:1033D0001C821D821E8244E050E0BE016D5F7F4F63
:1033E0008FE090E00E94960410922D0410922E041B
:1033F00010922F0410923004109231041092320473
:103400001092330410923404109235041092360452
:10341000109237041092380480E69AEEA0E0B0E0F3
:103420008093410490934204A0934304B0934404D6
:1034300080EA9FE0A0E0B0E08093450490934604CA
:10344000A0934704B0934804E9E1F4E084E1DF018C
:103450001D928A95E9F786E0E0E0F1E0A3E1B4E0AF
:1034600001900D928A95E1F710924D040E94F31D90
:103470002FEC37E040E050E00E94751EDC01CB01EC
:103480000196A11DB11D80930F0490931004A09389
:103490001104B093120480930B0490930C04A09336
:1034A0000D04B0930E048EE494E00E948C0964E451
:1034B00070E08EE494E00E947D0C882309F4DBC167
:1034C0000E9463016B017C0158EE452E53E0552E9E
:1034D000612C712C63E0962E02E0B12CA12C80911E
:1034E0004D04833009F440C08111D9C180910F048B
:1034F00090911004A0911104B09112040196A11DA5
:10350000B11D80930F0490931004A0931104B09305
:1035100012040E9463016C197D098E099F09A301A1
:1035200092010E94DE1EA90161E08BE094E00E94FE
:10353000251481E080934D0491E0A916B10479F23D
:103540000E9463016C197D098E099F092091410435
:1035500030914204409143045091440426173707A8
:103560004807590708F0B9CF8EE494E00E948C090F
:1035700080910F0490911004A0911104B091120455
:103580000196A11DB11D80930F0490931004A09388
:103590001104B09312040E94630160934904709374
:1035A0004A0480934B0490934C04AA94AB2809F0EE
:1035B00062C180E591E00E948700009109041091AA
:1035C0000A04B801625F7F4FFE0131967F01CF018F
:1035D0000E94221044E050E0BE016D5F7F4F8FE0FB
:1035E00090E00E949604B8016A5E7F4FC7010E9476
:1035F000221044E050E0BE016D5F7F4F81E090E01B
:103600000E949604B8016E5E7F4FC7010E9422108F
:1036100044E050E0BE016D5F7F4F85E090E00E9486
:103620009604B801625E7F4FC7010E9422108B8111
:103630009C81AD81BE818093D2049093D304A093EA
:10364000D404B093D5040E940C017F7380910601CD
:10365000909107016827792770930701609306010D
:1036600083E991E09A8389831B821C821D821E82DA
:1036700080E591E00E94870044E050E0BE016D5F6C
:103680007F4F8FE090E00E94380768EE74E0C7013A
:103690000E94DB0665E971E088EE94E00E948006F6
:1036A00084EB91E00E94250790E0692E90E0792E4E
:1036B00082E7A82E84E0B82E01E0B501802F0E9499
:1036C000BD02182F882309F4AFC01B861A861D86F9
:1036D0001C861F861E864AE0B70190E00E944B1EA2
:1036E000F70101900020E9F731976F01CE18DF084C
:1036F000B601CE010A960E943315811104C2CE0193
:103700000A960E946C061A8219821C821B821E82F3
:103710001D826EE070E0C7010E9433158111FBC16C
:10372000C7010E946C064A845B844114510409F469
:10373000FDC1CE84DF84C114D104B1F08D819E819E
:10374000C80ED91EB601C7010E943315882309F49B
:10375000EDC129813A818D819E81B201820F931F33
:103760000E941B21DE82CD82CD80DE80FFEFCF1A4A
:10377000DF0AB601C7010E9433158111DBC1C70101
:103780000E946C064D815E8169817A8188EE94E0A9
:103790000E946F0189819A81009711F00E94B81FE1
:1037A0008A859B85009711F00E94B81F87E992E0F7
:1037B0001130C1F187EA92E01230A1F186EB92E07C
:1037C000133081F186EC92E0143061F187ED92E0E4
:1037D000153041F183EE92E0163021F18DEE92E04A
:1037E000173001F189E093E01830E1F088E293E0CE
:1037F0001930C1F08BE393E01A30A1F080E693E03A
:103800001B3081F08BE793E01C3061F08DE993E091
:103810001D3041F081EC93E01E3021F01F3021F487
:1038200083EE93E00E942507D5014C9150E070E0B3
:1038300060E02AE088EE94E00E948F0665E971E07E
:1038400088EE94E00E9480060F5FB5E0AB0EB11CDD
:10385000063009F032CF6114710409F429CF0E94B7
:10386000D901882309F424CF0E94000021CF0E94AF
:103870003D0881119CCD8CEC91E00E942507E091E0
:10388000AB04E353E53030F4F0E0EE5BFE4F8081B3
:10389000811107C184EF91E00E9425070CC184309B
:1038A00031F580910F0490911004A0911104B09112
:1038B00012040196A11DB11D80930F049093100472
:1038C000A0931104B09312040E9463016C197D0946
:1038D0008E099F09A30192010E94DE1EA90163E0E7
:1038E0008BE094E00E94251400934D0425CE813096
:1038F00091F54091450450914604609147047091C0
:1039000048049E012F5F3F4F8BE094E00E945B15BF
:10391000182F823009F0C1C089819A81AB81BC81A6
:1039200080930F0490931004A0931104B093120499
:103930000E9463016C197D098E099F09A301920100
:103940000E94DE1EA90163E08BE094E00E94251432
:1039500010934D04F1CD823009F0EECD4091450435
:103960005091460460914704709148049E012F5F76
:103970003F4F8BE094E00E945B15182F853009F0D3
:1039800087C090924D0480912D0490912E04A091B7
:103990002F04B0913004892B8A2B8B2B61F484E89F
:1039A00093E0A0E0B0E080932D0490932E04A093C8
:1039B0002F04B09330048091310490913204A0918F
:1039C0003304B0913404892B8A2B8B2BA1F4809182
:1039D0002D0490912E04A0912F04B0913004B6953F
:1039E000A795979587958093310490933204A0937F
:1039F0003304B09334048091350490913604A0913F
:103A00003704B0913804892B8A2B8B2BE9F48091F1
:103A10002D0490912E04A0912F04B0913004AC019C
:103A2000BD0133E076956795579547953A95D1F75F
:103A3000841B950BA60BB70B80933504909336042B
:103A4000A0933704B09338048091310490913204EC
:103A5000A0913304B09134048093390490933A04D4
:103A6000A0933B04B0933C048091350490913604BC
:103A7000A0913704B091380480933D0490933E04A4
:103A8000A0933F04B0934004AA24A394B12C54CD36
:103A9000863019F410924D044FCD1F3F09F04CCDE4
:103AA000F9CF80917104882389F08091AB0484332D
:103AB00091F08733E9F08BE592E00E94250768EEEC
:103AC00073E080E090E00E943101F5CF0E943D0854
:103AD0008111EBCFF0CF80E591E00E94870085E374
:103AE00090E00E94120885FDE6CF8AE392E0D4CEF2
:103AF00080E591E00E9487008EE290E00E9412082B
:103B000080FDD9CFF2CFDF86CE86B7018A859B852F
:103B10000E941B21F8CD8EE090E09E838D8366E8A5
:103B200072E089819A810E941B21FDCDC7010E940C
:103B30006C061ACE29813A818D819E8165E972E0F9
:103B4000820F931F0E941B21DE82CD821BCE8F929B
:103B50009F92AF92BF92CF92DF92EF92FF92CF935C
:103B6000DF93EC01688179818A819B816115710500
:103B70008105910521F464E279ED8BE597E02DE173
:103B800033EF41E050E00E94751E49015A019B014C
:103B9000AC01A7EAB1E40E94941E6B017C01ACEE7B
:103BA000B4EFA50194010E94A21EC60ED71EE81E06
:103BB000F91EF7FE06C081E0C81AD108E10880E8C6
:103BC000F80AC882D982EA82FB82C701B6019F77D0
:103BD000DF91CF91FF90EF90DF90CF90BF90AF90AB
:103BE0009F908F9008958F929F92AF92BF92CF92A5
:103BF000DF92EF92FF92609108017091090180912C
:103C00000A0190910B01611571058105910521F45F
:103C100064E279ED8BE597E02DE133EF41E050E090
:103C20000E94751E49015A019B01AC01A7EAB1E44B
:103C30000E94941E6B017C01ACEEB4EFA5019401CF
:103C40000E94A21EC60ED71EE81EF91EF7FE06C071
:103C500081E0C81AD108E10880E8F80AC09208019A
:103C6000D0920901E0920A01F0920B01C701B6015E
:103C70009F77FF90EF90DF90CF90BF90AF909F9095
:103C80008F900895609308017093090180930A0151
:103C900090930B010895BB27FB015527AA27880F96
:103CA000991FAA1FA41710F0A41B83955051B9F7B0
:103CB000A05DAA3308F0A95DA193009779F7B1112F
:103CC000B1931192CB010C94651EDC01FC01672FAE
:103CD00071917723E1F7329704C07C916D937083E3
:103CE0006291AE17BF07C8F30895052E97FB1EF427
:103CF00000940E948C1E57FD07D00E94DE1E07FC18
:103D000003D04EF40C948C1E50954095309521951F
:103D10003F4F4F4F5F4F08959095809570956195F7
:103D20007F4F8F4F9F4F08950E94001FA59F900DBA
:103D3000B49F900DA49F800D911D11240895B7FF8D
:103D40000C94941E0E94941E821B930B08952F9234
:103D50003F924F925F926F927F928F929F92AF921B
:103D6000BF92CF92DF92EF92FF920F931F93CF9368
:103D7000DF93CDB7DEB7CA1BDB0B0FB6F894DEBFFF
:103D80000FBECDBF09942A88398848885F846E8425
:103D90007D848C849B84AA84B984C884DF80EE806F
:103DA000FD800C811B81AA81B981CE0FD11D0FB678
:103DB000F894DEBF0FBECDBFED010895A1E21A2E2B
:103DC000AA1BBB1BFD010DC0AA1FBB1FEE1FFF1FBF
:103DD000A217B307E407F50720F0A21BB30BE40B0F
:103DE000F50B661F771F881F991F1A9469F7609556
:103DF0007095809590959B01AC01BD01CF01089510
:103E0000A29FB001B39FC001A39F700D811D11241B
:103E1000911DB29F700D811D1124911D0895692778
:103E2000962769277827872778270895EE0FFF1FA1
:103E30000590F491E02D09940F931F93CF93DF9396
:103E40008230910510F482E090E0E091B105F091AC
:103E5000B20530E020E0B0E0A0E0309799F4211501
:103E6000310509F44AC0281B390B24303105D8F537
:103E70008A819B816115710589F1FB01938382839E
:103E8000FE0111C0408151810281138148175907F9
:103E9000E0F04817590799F4109761F012960C93C7
:103EA000129713961C933296CF01DF91CF911F91F9
:103EB0000F9108950093B1051093B205F4CF211529
:103EC000310551F04217530738F0A901DB019A017F
:103ED000BD01DF01F801C1CFEF01F9CF9093B20529
:103EE0008093B105CDCFFE01E20FF31F8193919333
:103EF0002250310939832883D7CF2091AF053091E3
:103F0000B005232B41F420910E0130910F01309325
:103F1000B0052093AF0520910C0130910D012115C2
:103F2000310541F42DB73EB7409110015091110178
:103F3000241B350BE091AF05F091B005E217F307B4
:103F4000A0F42E1B3F0B2817390778F0AC014E5F09
:103F50005F4F2417350748F04E0F5F1F5093B00591
:103F60004093AF05819391939FCFF0E0E0E09CCF29
:103F7000CF93DF930097E9F0FC013297138212820E
:103F8000A091B105B091B205ED0130E020E01097AD
:103F9000A1F420813181820F931F2091AF053091D0
:103FA000B0052817390709F061C0F093B005E09318
:103FB000AF05DF91CF910895EA01CE17DF07E8F54D
:103FC0004A815B819E0141155105B1F7E901FB83EF
:103FD000EA8349915991C40FD51FEC17FD0761F48D
:103FE000808191810296840F951FE90199838883CE
:103FF000828193819B838A83F0E0E0E012968D9129
:104000009C9113970097B9F52D913C911197CD0193
:104010000296820F931F2091AF053091B0052817AB
:10402000390739F6309751F51092B2051092B10563
:10403000B093B005A093AF05BCCFD383C2834081BA
:104040005181840F951FC817D90761F44E5F5F4FE8
:1040500088819981480F591F518340838A819B81B0
:10406000938382832115310509F0B0CFF093B20517
:10407000E093B1059ECFFD01DC01C0CF1382128217
:10408000D7CFB0E0A0E0E7E4F0E20C94A91E8C01E9
:10409000009751F4CB010E941C1F8C01C801CDB7C1
:1040A000DEB7E0E10C94C51EFC01E60FF71F9C0192
:1040B00022503109E217F30708F49DC0D901CD91D0
:1040C000DC911197C617D70798F0C530D10530F3AA
:1040D000CE0104978617970708F3C61BD70B2297C4
:1040E000C193D1936D937C93CF010E94B81FD6CF1B
:1040F0005B01AC1ABD0A4C018C0E9D1EA091B1054E
:10410000B091B205512C412CF12CE12C109731F5D6
:104110008091AF059091B0058815990509F05CC0B4
:104120004616570608F058C080910C0190910D0179
:10413000009741F48DB79EB7409110015091110145
:10414000841B950BE817F90708F055C0F093B005EC
:10415000E093AF05F90171836083A0CF8D919C91AD
:10416000119712966C90129713967C901397A8153E
:10417000B90559F56C0142E0C40ED11CCA14DB0428
:1041800020F1AC014A195B09DA011296159780F00B
:104190006282738251834083D9016D937C93E114D1
:1041A000F10471F0D7011396FC93EE93129776CF3A
:1041B00022968C0F9D1FF90191838083F301EFCF2D
:1041C000F093B205E093B10569CF4816590608F49B
:1041D0002C017D01D3019ACFCB010E941C1F7C01D1
:1041E000009749F0AE01B8010E940B21C8010E945E
:1041F000B81F870153CF10E000E050CFFB01DC0176
:1042000004C08D910190801921F441505040C8F7AD
:10421000881B990B0895FB01DC0102C001900D92EF
:1042200041505040D8F70895DC0101C06D934150D2
:104230005040E0F70895FB01DC0101900D92002051
:08424000E1F70895F894FFCFA7
:10424800DEADBEEFFEEF00C0010000000000B305C8
:10425800800001005E00000000000000BF058D0D19
:104268004D06BF00BB00810FE9077D0C180B8C09B8
:10427800F7052713000A6910620F4606360632064C
:104288002E06010200000300040506000000000FCE
:10429800026F019C015C02CD01AB01BF010000006F
:1042A80000E005C70D840D6F0D890EAB0FF807FBF5
:1042B8000B9A13C50FC709A50963066B067E06602E
:1042C800065E06D5055406F80F2E10CE0F500600D0
:1042D800000000DB060D0A0057495A6E657400504D
:1042E80072696D61727920426F61726420536B65E7
:1042F8007463680054686973206973206120507280
:1043080069616D727920426F617264004661696CFF
:10431800656420746F20636F6E66696775726520C7
:1043280045746865726E6574207573696E6720449C
:104338004843500045746865726E657420736869F7
:10434800656C6420776173206E6F7420666F756E7C
:10435800642E2020536F7272792C2063616E27744B
:104368002072756E20776974686F75742068617241
:1043780064776172652E203A280045746865726E0C
:104388006574206361626C65206973206E6F7420A8
:10439800636F6E6E65637465642E00426F6172644C
:1043A800206973206D6F7374206C696B656C79205C
:1043B8006E6F742074686520507269616D7279201F
:1043C800426F617264004D6F64627573206572722A
:1043D8006F723A20002D00496E76616C6964205531
:1043E8006E697420494400496E76616C6964206284
:1043F800756666657200496E76616C6964207175D0
:104408006E7469747900526573706F6E7365207489
:10441800696D656F7574004672616D6520657272AD
:104428006F7200435243206572726F7200556E6B53
:104438006E6F776E20636F6D6D756E6963617469F9
:104448006F6E206572726F7200556E657870656365
:1044580074656420756E697420494420696E207201
:104468006573706F6E736500457863657074696F06
:104478006E20726573706F6E736500556E65787027
:1044880065637465642066756E6374696F6E206316
:104498006F646520696E20726573706F6E73650056
:1044A800556E657870656374656420726573706FA6
:1044B8006E7365206C656E67746800556E657870FC
:1044C8006563746564206279746520636F756E74C2
:1044D80020696E20726573706F6E736500556E6526
:1044E80078706563746564206461746120616464D4
:1044F8007265737320696E20726573706F6E736571
:1045080000556E65787065637465642064617461D4
:104518002076616C756520696E20726573706F6EA8
:10452800736500556E657870656374656420717590
:10453800616E7469747920696E20726573706F6E2C
:044548007365000097
:00000001FF
