:100000000C945D000C9485000C9485000C94850084
:100010000C9485000C9485000C9485000C9485004C
:100020000C9485000C9485000C9485000C9485003C
:100030000C9485000C9485000C9485000C9485002C
:100040000C94B5020C9485000C9425030C94FF02CB
:100050000C9485000C9485000C9485000C9485000C
:100060000C9485000C94850000000008000201003B
:100070000003040700000000000000000000000072
:10008000250028002B0000000000240027002A0083
:10009000040404040404040402020202020203032E
:1000A0000303030301020408102040800102040836
:1000B0001020010204081020DB0411241FBECFEF22
:1000C000D8E0DEBFCDBF21E0A6E2B1E001C01D92C5
:1000D000A03DB207E1F711E0A0E0B1E0E8E9FAE005
:1000E00002C005900D92A632B107D9F710E0CDE518
:1000F000D0E004C02197FE010E944405CC35D10711
:10010000C9F70E9457030C944A050C94000090E034
:10011000FC01EC55FF4F249180579F4FFC018491C7
:10012000882399F090E0880F991FFC01EA57FF4F50
:10013000A591B491FC01E458FF4F859194918FB73C
:10014000F894EC91E22BEC938FBF089590E0FC01C2
:10015000E859FF4F2491FC01EC55FF4F3491FC010D
:10016000E057FF4FE491EE23C9F0222339F023300A
:1001700001F1A8F4213019F1223029F1F0E0EE0F5D
:10018000FF1FE458FF4FA591B4918FB7F894EC91FD
:10019000611126C030953E233C938FBF08952730D0
:1001A000A9F02830C9F0243049F7809180008F7D74
:1001B00003C0809180008F7780938000DFCF84B56B
:1001C0008F7784BDDBCF84B58F7DFBCF8091B0006E
:1001D0008F778093B000D2CF8091B0008F7DF9CF20
:1001E0003E2BDACF3FB7F89480912B0190912C01F0
:1001F000A0912D01B0912E0126B5A89B05C02F3FDF
:1002000019F00196A11DB11D3FBFBA2FA92F982F3C
:100210008827BC01CD01620F711D811D911D42E037
:10022000660F771F881F991F4A95D1F70895AF92DF
:10023000BF92CF92DF92EF92FF920F931F93CF93D3
:10024000DF936C017B018B01040F151FEB015E0135
:10025000AE18BF08C017D10759F06991D601ED91CA
:10026000FC910190F081E02DC6010995892B79F769
:10027000C501DF91CF911F910F91FF90EF90DF901B
:10028000CF90BF90AF900895FC01538D448D252FE2
:1002900030E0842F90E0821B930B541710F0CF9620
:1002A000089501970895FC01918D828D981761F052
:1002B000A28DAE0FBF2FB11D5D968C91928D9F5F69
:1002C0009F73928F90E008958FEF9FEF0895FC0148
:1002D000918D828D981731F0828DE80FF11D858DFB
:1002E00090E008958FEF9FEF08952FB7F8948091D5
:1002F0002F0190913001A0913101B09132012FBFB7
:1003000080933B0190933C01A0933D01B0933E014B
:1003100083E391E00E94670197FF26C02FB7F8940E
:1003200080912F0190913001A0913101B091320163
:100330002FBF40913B0150913C0160913D01709174
:100340003E01841B950BA60BB70B409137015091D2
:1003500038016091390170913A0184179507A60719
:10036000B707B0F28FEF9FEF0895FC01918D228DBA
:10037000892F90E0805C9F4F821B91098F73992792
:10038000089583E391E00E94B50121E0892B09F4EF
:1003900020E0822F089580E090E0892B29F00E94D0
:1003A000C10181110C9400000895FC01A48DA80FD7
:1003B000B92FB11DA35ABF4F2C91848D90E00196A7
:1003C0008F739927848FA689B7892C93A089B189C7
:1003D0008C91837080648C93938D848D981306C068
:1003E0000288F389E02D80818F7D80830895EF92CC
:1003F000FF920F931F93CF93DF93EC0181E0888FDF
:100400009B8D8C8D98131AC0E889F989808185FFAE
:1004100015C09FB7F894EE89FF896083E889F98950
:1004200080818370806480839FBF81E090E0DF9152
:10043000CF911F910F91FF90EF900895F62E0B8DA5
:1004400010E00F5F1F4F0F731127E02E8C8D8E1160
:100450000CC00FB607FCFACFE889F989808185FFC7
:10046000F5CFCE010E94D501F1CFEB8DEC0FFD2F22
:10047000F11DE35AFF4FF0829FB7F8940B8FEA8982
:10048000FB8980818062CFCFCF93DF93EC01888D91
:100490008823B9F0AA89BB89E889F9898C9185FDFF
:1004A00003C0808186FD0DC00FB607FCF7CF8C918D
:1004B00085FFF2CF808185FFEDCFCE010E94D5016F
:1004C000E9CFDF91CF910895FC0101900020E9F779
:1004D0003197AF01481B590BBC0183E391E00C94A9
:1004E00017018F929F92AF92BF920F931F93CF935A
:1004F000DF93CDB7DEB7A1970FB6F894DEBF0FBE7E
:10050000CDBF19A2423008F44AE08E010F5D1F4FA3
:10051000842E912CB12CA12CA50194010E942205BE
:10052000E62FB901CA01EA30F4F4E05DD801EE9398
:100530008D01232B242B252B79F790E080E0109759
:1005400019F0CD010E946402A1960FB6F894DEBFA7
:100550000FBECDBFDF91CF911F910F91BF90AF9094
:100560009F908F900895E95CE1CF1F920F920FB694
:100570000F9211242F933F938F939F93AF93BF9329
:1005800080912F0190913001A0913101B091320101
:1005900030912A0123E0230F2D3758F50196A11D34
:1005A000B11D20932A0180932F0190933001A093D5
:1005B0003101B093320180912B0190912C01A091D7
:1005C0002D01B0912E010196A11DB11D80932B012B
:1005D00090932C01A0932D01B0932E01BF91AF9168
:1005E0009F918F913F912F910F900FBE0F901F9071
:1005F000189526E8230F0296A11DB11DD2CF1F9298
:100600000F920FB60F9211242F933F934F935F9346
:100610006F937F938F939F93AF93BF93EF93FF93CA
:1006200083E391E00E94D501FF91EF91BF91AF91DB
:100630009F918F917F916F915F914F913F912F91FA
:100640000F900FBE0F901F9018951F920F920FB62C
:100650000F9211242F938F939F93EF93FF93E09129
:100660004301F09144018081E0914901F0914A01F8
:1006700082FD1BC0908180914C018F5F8F73209110
:100680004D01821741F0E0914C01F0E0ED5CFE4F2E
:10069000958F80934C01FF91EF919F918F912F91B6
:1006A0000F900FBE0F901F9018958081F4CF789413
:1006B00084B5826084BD84B5816084BD85B5826067
:1006C00085BD85B5816085BD80916E008160809318
:1006D0006E00109281008091810082608093810081
:1006E0008091810081608093810080918000816091
:1006F000809380008091B10084608093B1008091EC
:10070000B00081608093B00080917A008460809313
:100710007A0080917A00826080937A0080917A00DA
:10072000816080937A0080917A00806880937A005B
:100730001092C10082E00E94870088E00E9487003A
:10074000E0914301F091440182E08083E0913F0118
:10075000F09140011082E0914101F09142018FEC53
:10076000808310924B01E0914701F091480186E0AF
:100770008083E0914501F091460180818061808312
:10078000E0914501F0914601808188608083E0918D
:100790004501F0914601808180688083E0914501A8
:1007A000F091460180818F7D8083C09128016C2F5C
:1007B00088E00E94A6006C2F82E00E94A600C0E0A4
:1007C000D0E001E010E0E0902801F09029016E2DCA
:1007D00088E00E94A6006E2D82E00E94A6000E9482
:1007E000F2002B013C0188EE882E83E0982EA12C8C
:1007F000B12C0E94F2006419750986099709683EB8
:10080000734081059105A8F321E0821A9108A1089F
:10081000B10888EE480E83E0581E611C711C8114DB
:100820009104A104B10429F7EA94EF2899F5C09046
:100830002601D09027010D2C000CEE08FF084AE09D
:10084000C701B601F7FE0DC06DE283E391E00E949F
:10085000F70166277727CB016C197D098E099F095F
:100860004AE00E94710282E191E00E94640283E307
:1008700091E00E94440210922901109228012097D1
:1008800009F4A1CF0E94C101882309F49CCF0E94E2
:10089000000099CF83E391E00E94B501892B79F3A1
:1008A0000E947501FC0197FD82C08D32910521F0F7
:1008B000C0970A9708F073C0C12CD12C7601B12CD7
:1008C000E130F105D9F0ED32F10509F46DC0CF0149
:1008D000C0970A9798F4AAE0B0E0A70196010E9499
:1008E00008056F01FF0FEE08FF08C60ED71EE81EB1
:1008F000F91E20E3C21AD108E108F10883E391E070
:100900000E9453010E947501FC01C0970A97C0F232
:10091000E130F105A9F2BB2041F0F094E094D094CD
:10092000C094C11CD11CE11CF11CD0922701C092C3
:10093000260185E191E00E946402C0902601D090DA
:1009400027010D2C000CEE08FF084AE0C701B60194
:10095000F7FE0DC06DE283E391E00E94F701662788
:100960007727CB016C197D098E099F094AE00E9407
:10097000710282E191E00E9464028BE191E00E94A9
:10098000640280912601909127010196909327019E
:1009900080932601109329010093280170CF83E3EF
:1009A00091E00E9453017CCFBB24B394A7CFC12C0C
:1009B000D12C7601BACFE3E3F1E01382128288EE04
:1009C00093E0A0E0B0E084839583A683B78384E0BE
:1009D00091E09183808385EC90E09587848784EC17
:1009E00090E09787868780EC90E0918B808B81ECFC
:1009F00090E0938B828B82EC90E0958B848B86ECDD
:100A000090E0978B868B118E128E138E148E089524
:100A10000E941305A59F900DB49F900DA49F800D7B
:100A2000911D11240895A29FB001B39FC001A39FFF
:100A3000700D811D1124911DB29F700D811D112417
:100A4000911D0895A1E21A2EAA1BBB1BFD010DC02A
:100A5000AA1FBB1FEE1FFF1FA217B307E407F5076E
:100A600020F0A21BB30BE40BF50B661F771F881F4A
:100A7000991F1A9469F760957095809590959B01E0
:100A8000AC01BD01CF010895EE0FFF1F0590F49159
:080A9000E02D0994F894FFCF5A
:100A980000000000F701170144014402B5015301A9
:100AA80067010D0A00476F743A200053656E646948
:060AB8006E673A20000009
:00000001FF
