:100000000C945D000C9485000C9485000C942703DF
:100010000C9427030C9427030C9485000C94850002
:100020000C9485000C9485000C9485000C9485003C
:100030000C9485000C9485000C9485000C9485002C
:100040000C9485020C9485000C94F5020C94CF025C
:100050000C9485000C9485000C9485000C9485000C
:100060000C9485000C94850000000008000201003B
:100070000003040700000000000000000000000072
:10008000250028002B0000000000240027002A0083
:10009000040404040404040402020202020203032E
:1000A0000303030301020408102040800102040836
:1000B00010200102040810208A0311241FBECFEF74
:1000C000D8E0DEBFCDBF11E0A0E0B1E0E4ECF1E1AB
:1000D00002C005900D92A231B107D9F722E0A2E14A
:1000E000B1E001C01D92AD3DB207E1F710E0CDE5F2
:1000F000D0E004C02197FE010E94DA08CC35D10778
:10010000C9F70E94E7030C94E0080C94000090E00B
:10011000FC01EC55FF4F249180579F4FFC018491C7
:10012000882399F090E0880F991FFC01EA57FF4F50
:10013000A591B491FC01E458FF4F859194918FB73C
:10014000F894EC91E22BEC938FBF0895482FE4ECE8
:10015000F1E020E08FEF9FEF241791F0319183279A
:1001600038E0BC016170772796958795672B21F061
:1001700051E0852750EA9527315099F72F5FECCF52
:10018000089590E0FC01E859FF4F2491FC01EC55E3
:10019000FF4F3491FC01E057FF4FE491EE23C9F08B
:1001A000222339F0233001F1A8F4213019F1223053
:1001B00029F1F0E0EE0FFF1FE458FF4FA591B49135
:1001C0008FB7F894EC91611126C030953E233C9393
:1001D0008FBF08952730A9F02830C9F0243049F79F
:1001E000809180008F7D03C0809180008F77809305
:1001F0008000DFCF84B58F7784BDDBCF84B58F7D62
:10020000FBCF8091B0008F778093B000D2CF8091E8
:10021000B0008F7DF9CF3E2BDACFCF93DF93909153
:10022000C4019923A1F1C82F0E94A600D0E0FE01CD
:10023000E354FE4F878390878091C3018F3F19F06D
:1002400061E00E94C1008091C1019091C201AE01A4
:100250004E5F5F4FDC01ED91FC910280F381E02D58
:1002600064EC71E009958091C1019091C201DC01BB
:10027000ED91FC910680F781E02D09958091C301F5
:100280008F3F29F060E0DF91CF910C94C100DF91A6
:10029000CF910895EDEBF1E090859068908781878C
:1002A00083E00C940D013FB7F89480911C0190916C
:1002B0001D01A0911E01B0911F0126B5A89B05C08C
:1002C0002F3F19F00196A11DB11D3FBFBA2FA92FD5
:1002D000982F8827BC01CD01620F711D811D911DD2
:1002E00042E0660F771F881F991F4A95D1F708953E
:1002F000AF92BF92CF92DF92EF92FF920F931F9334
:10030000CF93DF936C017B018B01040F151FEB0171
:100310005E01AE18BF08C017D10759F06991D60128
:10032000ED91FC910190F081E02DC6010995892B9A
:1003300079F7C501DF91CF911F910F91FF90EF9059
:10034000DF90CF90BF90AF900895FC01538D448D06
:10035000252F30E0842F90E0821B930B541710F070
:10036000CF96089501970895FC01918D828D98177D
:1003700061F0A28DAE0FBF2FB11D5D968C91928D55
:100380009F5F9F73928F90E008958FEF9FEF089586
:10039000FC01918D828D981731F0828DE80FF11D4F
:1003A000858D90E008958FEF9FEF0895FC01918D6A
:1003B000228D892F90E0805C9F4F821B91098F7363
:1003C0009927089580E291E00E94D60121E0892BCF
:1003D00009F420E0822F089580E090E0892B29F035
:1003E0000E94E20181110C9400000895FC01A48D8B
:1003F000A80FB92FB11DA35ABF4F2C91848D90E047
:1004000001968F739927848FA689B7892C93A08929
:10041000B1898C91837080648C93938D848D9813B3
:1004200006C00288F389E02D80818F7D8083089546
:10043000EF92FF920F931F93CF93DF93EC0181E034
:10044000888F9B8D8C8D98131AC0E889F9898081DB
:1004500085FF15C09FB7F894EE89FF896083E8890E
:10046000F98980818370806480839FBF81E090E000
:10047000DF91CF911F910F91FF90EF900895F62E8D
:100480000B8D10E00F5F1F4F0F731127E02E8C8D27
:100490008E110CC00FB607FCFACFE889F98980816C
:1004A00085FFF5CFCE010E94F601F1CFEB8DEC0F69
:1004B000FD2FF11DE35AFF4FF0829FB7F8940B8F89
:1004C000EA89FB8980818062CFCFCF93DF93EC01F3
:1004D000888D8823B9F0AA89BB89E889F9898C912C
:1004E00085FD03C0808186FD0DC00FB607FCF7CFE8
:1004F0008C9185FFF2CF808185FFEDCFCE010E94E8
:10050000F601E9CFDF91CF9108951F920F920FB6B8
:100510000F9211242F933F938F939F93AF93BF9389
:100520008091180190911901A0911A01B0911B01BD
:100530003091170123E0230F2D3758F50196A11DA7
:10054000B11D209317018093180190931901A09376
:100550001A01B0931B0180911C0190911D01A09183
:100560001E01B0911F010196A11DB11D80931C01B8
:1005700090931D01A0931E01B0931F01BF91AF91F5
:100580009F918F913F912F910F900FBE0F901F90D1
:10059000189526E8230F0296A11DB11DD2CF1F92F8
:1005A0000F920FB60F9211242F933F934F935F93A7
:1005B0006F937F938F939F93AF93BF93EF93FF932B
:1005C00080E291E00E94F601FF91EF91BF91AF911F
:1005D0009F918F917F916F915F914F913F912F915B
:1005E0000F900FBE0F901F9018951F920F920FB68D
:1005F0000F9211242F938F939F93EF93FF93E0918A
:100600003001F09131018081E0913601F0913701A4
:1006100082FD1BC09081809139018F5F8F73209183
:100620003A01821741F0E0913901F0E0E05EFE4FBF
:10063000958F80933901FF91EF919F918F912F9129
:100640000F900FBE0F901F9018958081F4CF1F92CE
:100650000F920FB60F9211242F933F938F939F9376
:10066000AF93BF93CF93DF93EF93FF93E091140188
:10067000F0911501309749F0A685B7859585868D4F
:1006800081FF12C08C91892391F4FF91EF91DF914A
:10069000CF91BF91AF919F918F913F912F910F90EB
:1006A0000FBE0F901F9018958C91892371F7A38925
:1006B000B4899C918589809589238C9386899789B3
:1006C0000197F1F7208D318DC685D78588E0D90156
:1006D0001197F1F798818150D1F78091130190E043
:1006E00001968F73992720911201281779F0909124
:1006F000130180931301828D938D0197F1F7A389E4
:10070000B4898C919589892B8C93BFCF868D81601C
:10071000868FF1CFE0E2F1E01382128288EE93E05F
:10072000A0E0B0E084839583A683B78384E091E062
:100730009183808385EC90E09587848784EC90E0BA
:100740009787868780EC90E0918B808B81EC90E09E
:10075000938B828B82EC90E0958B848B86EC90E07F
:10076000978B868B118E128E138E148EADEBB1E0AB
:100770001092CD021092CC021092CF021092CE02B3
:100780001092D1021092D0021092D3021092D20293
:100790001196FC93EE9313961C921E921297159647
:1007A000FC93EE9314971092C5021092C40210921B
:1007B000C7021092C6021092C9021092C80210928B
:1007C000CB021092CA0289E016968C930895789411
:1007D00084B5826084BD84B5816084BD85B5826046
:1007E00085BD85B5816085BD80916E0081608093F7
:1007F0006E00109281008091810082608093810060
:10080000809181008160809381008091800081606F
:10081000809380008091B10084608093B1008091CA
:10082000B00081608093B00080917A0084608093F2
:100830007A0080917A00826080937A0080917A00B9
:10084000816080937A0080917A00806880937A003A
:100850001092C10082E00E94870086E191E09093AF
:10086000C5028093C40281E090E09093CD02809312
:10087000CC028093D402E091BD01F091BE0130978B
:1008800009F42DC18CE29AE0A0E0B0E08093D5029B
:100890009093D602A093D702B093D8028FE492E14E
:1008A000A0E0B0E08093D9029093DA02A093DB023B
:1008B000B093DC02A089B18982E08C93A485B585D0
:1008C0001C92A685B7858FEC8C93108EA489B58970
:1008D00086E08C93A289B3898C9180618C93A289E4
:1008E000B3898C9188608C93A289B3898C9180683C
:1008F0008C930288F389E02D80818F7D80838091A5
:10090000C3018F3F39F00E94870060E08091C301EE
:100910000E94C1000E9453016B017C018091C101C2
:100920009091C201DC01ED91FC910084F185E02DF4
:100930000995892B79F00E9453016B017C0180910C
:10094000C1019091C201EC01E881F9810284F38533
:10095000E02D09950E9453016C197D098E099F09AC
:100960000091D9021091DA022091DB023091DC0271
:10097000601771078207930788F2C12CD12C76018A
:10098000C394D0E02D2ED0E03D2E8091C1019091F6
:10099000C201DC01ED91FC910084F185E02D099507
:1009A000892B09F4A8C1812C912C540110E000E09E
:1009B0008091C1019091C201EC01E881F98100842C
:1009C000F185E02D0995892BA9F00E9453014B0177
:1009D0005C018091C1019091C201DC01ED91FC911B
:1009E0000284F385E02D0995F801E354FE4F8783D7
:1009F0000F5F1F4F0E945301681979098A099B09EB
:100A00004090D5025090D6026090D7027090D802E4
:100A1000461657066806790620F00F3F110541F289
:100A200038F20E945301681979098A099B0940909C
:100A3000D9025090DA026090DB027090DC026415FB
:100A400075058605970568F38091C1019091C201F3
:100A5000EC01E881F9810084F185E02D0995892B6D
:100A600009F0DFC08091C4019091D402891711F080
:100A70008111D7C08EEF800F0E94A60098012250EE
:100A80003109F801E354FE4F4681F901E354FE4F6A
:100A900057814527542745278417950709F0C1C07A
:100AA000822F222309F427C1E091C501E150E031F2
:100AB00008F0D7C0F0E0E15AFA4F0C94DA081306B8
:100AC000B30616076507B407EA0731063106310693
:100AD0003106310631063106310616087E08E091EE
:100AE000BF01F091C001309709F409CF8CE29AE080
:100AF000A0E0B0E08093D5029093D602A093D702F5
:100B0000B093D8028FE492E1A0E0B0E08093D902E4
:100B10009093DA02A093DB02B093DC02138E128E64
:100B2000118E108E178A168A8DE991E0958F848F29
:100B300084858631E0F52DEB30E0378B268B2BE971
:100B400031E0318F208F2CE231E0338F228F909172
:100B50006800883008F456C021E08E3008F420E0A8
:100B600081E001C0880F2A95EAF7892B80936800FD
:100B700094852DE630E0983050F02BE630E09E3042
:100B800030F02CE630E0963110F030E020E0348B8D
:100B9000238B292F30E09830B8F581E001C0880F11
:100BA0009A95EAF7858B848D958D0197F1F7828D63
:100BB000938D892B09F4A3CEA0911401B091150156
:100BC000EA17FB0709F49BCE109751F05396CD918D
:100BD000DC915497988155968C91809589238883D0
:100BE000868D8E7F868F1092130110921201F093E2
:100BF0001501E0931401A389B4898C919589892BFF
:100C00008C937DCE84E0B1CF9E3040F428503109E2
:100C100081E001C0880F2A95EAF7C4CF2E50310930
:100C2000F7CF20E03DCF6091C6017091C7017627D4
:100C3000672776272091C8013091C90132272327E1
:100C40003227863009F057C04091C4025091C50246
:100C50004115510531F08091CC029091CD02009761
:100C600011F481E006C0F9013197E03DF74020F032
:100C700083E00E944A013FC08217930728F0821B3D
:100C8000930B8617970710F482E0F3CFC9010796FC
:100C9000B3E096958795BA95E1F78093C601640F06
:100CA000751F50E040E0FB010191BF01CA01877050
:100CB00099274601570104C0880C991CAA1CBB1C2B
:100CC0008A95D2F7C401FA01A3E0F695E795AA95B3
:100CD000E1F7E054FE4F1781002309F441C0812B56
:100CE00087834F5F5F4F24173507E9F68091C60170
:100CF0008D5F0E940D016091160182E00E94C1008B
:100D00000E9453012B013C0184E6882E912CA12CDA
:100D1000B12C0E9453016419750986099709683E30
:100D2000734081059105A8F3C1E08C1A9108A108D0
:100D3000B108D8EE4D0ED3E05D1E611C711C81140C
:100D40009104A104B10429F72114310409F41DCE42
:100D50000E94E201882309F418CE0E94000015CEFB
:100D600080958123BDCF6091C6017091C701762720
:100D7000672776272091C8013091C90132272327A0
:100D80003227863009F0B7CF4091C6025091C70292
:100D90004115510509F465CF8091CE029091CF02A3
:100DA000009709F45ECFF9013197E03DF74008F074
:100DB0005FCF8217930708F467CF821B930B8617C8
:100DC000970708F461CFC9010796E3E096958795E8
:100DD000EA95E1F78093C601640F751F50E040E08B
:100DE000EB010991BE01CA0187709927460157019D
:100DF00004C0880C991CAA1CBB1C8A95D2F7C4019C
:100E0000FA0193E0F695E7959A95E1F7E054FE4FE5
:100E10001781002341F0812B87834F5F5F4F42177B
:100E20005307F1F663CF80958123F6CF2091C60159
:100E30003091C701322723273227863009F05BCF54
:100E4000E091C802F091C902309709F40ACF80916D
:100E5000D0029091D102009709F403CF4091C801CC
:100E60005091C901542745275427BA01615071098F
:100E70006D37710508F0FCCE8417950708F404CF90
:100E8000841B950B8217930708F4FECE842F880FDE
:100E90008093C601220F331FE20FF31FADEBB1E0C9
:100EA00090E080E0218132961A962C931A979F0148
:100EB00022503109E90128811B962C931B9701963A
:100EC00012968417950771F711CF2091C6013091C2
:100ED000C701322723273227863009F00CCFE09153
:100EE000CA02F091CB02309709F4BBCE8091D202B6
:100EF0009091D302009709F4B4CE4091C80150916B
:100F0000C901542745275427BA01615071096D372B
:100F1000710508F0ADCE8417950708F4B5CE841B93
:100F2000950B8217930708F4AFCE842F880F809318
:100F3000C601220F331FE20FF31FADEBB1E090E0CB
:100F400080E0218132961A962C931A979F012250A5
:100F50003109E90128811B962C931B970196129663
:100F60008417950771F7C2CE4091C6015091C70111
:100F70005427452754272091C8013091C9013227B1
:100F800023273227863009F0B6CE8091C402909193
:100F9000C502009709F465CE6091CC027091CD0234
:100FA0006115710509F45DCE2115310529F0211572
:100FB000DFEF3D0709F05CCE4617570708F064CE17
:100FC000840F951F41E0232B09F440E0FC0140838E
:100FD00086E08FCE2091C6013091C70132272327AA
:100FE00032274091C8015091C90154274527542701
:100FF000863009F080CE8091C8029091C902009796
:1010000009F42FCE6091D0027091D1026115710563
:1010100009F427CE2617370708F036CE220F331FE4
:10102000280F391FD9014D935C93D2CF6091C6012F
:101030007091C7017627672776274091C8015091A4
:10104000C901542745275427263008F454CEFA0105
:101050003796D3E0F695E795DA95E1F7CF01079655
:101060002817190609F047CE8091C4029091C50255
:10107000892B09F4F6CD8091CC029091CD02009796
:1010800009F4EFCD9A0121503109203B374008F097
:10109000EFCD2091CA012E171F0609F0E9CD841764
:1010A000950708F4F1CD841B950B8617970708F474
:1010B000EBCD30E020E0E091C402F091C502E20FF8
:1010C000F31FE60FF71FD901C3E0B695A795CA95A0
:1010D000E1F7A354BE4F1E968C9190E0D901A77002
:1010E000BB2702C095958795AA95E2F7817080830A
:1010F0002F5F3F4F24173507F1F66ACF4091C601A5
:101100005091C7015427452754276091C801709119
:10111000C901762767277627263008F4ECCDFB0136
:10112000EE0FFF1FCF0107962817190609F0E3CD30
:101130008091C8029091C902892B09F492CD8091C7
:10114000D0029091D102009709F48BCD9B012150E0
:1011500031092B37310508F08BCD2091CA012E17AC
:101160001F0609F085CD8617970708F48DCD861BDD
:10117000970B8417950708F487CD440F551FEDEBA7
:10118000F1E090E080E04D5B5140A091C802B09149
:10119000C902AE0FBF1FA40FB51F268537852327B1
:1011A000322723272D933C930196329668177907AF
:1011B00061F70ECFEE0FFF1F0590F491E02D09941B
:0411C000F894FFCFD1
:1011C4000000000018027801A5016502D601B401EF
:0211D400C80150
:00000001FF
