:020000040000FA
:100000000C945E000C9486000C9486000C94860080
:100010000C9486000C9486000C9486000C94860048
:100020000C9486000C9486000C9486000C94860038
:100030000C9486000C9486000C9486000C94860028
:100040000C94CF0B0C9486000C943F0C0C94190C60
:100050000C9486000C9486000C9486000C94860008
:100060000C9486000C9486000000000024002700F9
:100070002A0000000000250028002B0004040404CE
:100080000404040402020202020203030303030342
:10009000010204081020408001020408102001021F
:1000A00004081020000000080002010000030407FB
:1000B0000000000000000000790C710C11241FBE2C
:1000C000CFEFD8E0DEBFCDBF25E0A6E1B4E001C0B0
:1000D0001D92AD33B207E1F714E0A0E0B1E0E4E730
:1000E000F4E202C005900D92A631B107D9F710E0F5
:1000F000CDE5D0E004C02197FE010E94760ECC35FC
:10010000D107C9F70E94450D0C942D120C940000E4
:1001100090E0FC01EC55FF4F2491FC01E057FF4FAC
:100120003491FC01E458FF4FE491EE23C9F02223FF
:1001300039F0233001F1A8F4213019F1223029F1EE
:10014000F0E0EE0FFF1FEE58FF4FA591B4918FB76F
:10015000F894EC91611126C030953E233C938FBFFB
:1001600008952730A9F02830C9F0243049F780914C
:1001700080008F7D03C0809180008F778093800006
:10018000DFCF84B58F7784BDDBCF84B58F7DFBCF88
:100190008091B0008F778093B000D2CF8091B00073
:1001A0008F7DF9CF3E2BDACFCF93DF9390E0FC0128
:1001B000E057FF4F249184589F4FFC01849188237E
:1001C000D1F090E0880F991FFC01E859FF4FA591ED
:1001D000B491FC01EE58FF4FC591D49161110EC04E
:1001E0009FB7F8948C91E22FE0958E238C93288111
:1001F000E223E8839FBFDF91CF9108958FB7F894F2
:10020000EC91E22BEC938FBFF6CF3FB7F89480913F
:100210001C0490911D04A0911E04B0911F0426B5EA
:10022000A89B05C02F3F19F00196A11DB11D3FBF2E
:10023000BA2FA92F982F8827BC01CD01620F711DFD
:10024000811D911D42E0660F771F881F991F4A95F7
:10025000D1F708958F929F92AF92BF92CF92DF9283
:10026000EF92FF926B017C010E9405014B015C0142
:10027000C114D104E104F104B9F00E940501681928
:1002800079098A099B09683E73408105910580F3CD
:1002900021E0C21AD108E108F10888EE880E83E057
:1002A000981EA11CB11CE4CFFF90EF90DF90CF907F
:1002B000BF90AF909F908F900895AF92BF92CF92D2
:1002C000DF92EF92FF920F931F93CF93DF936C0116
:1002D0007B018B01040F151FEB015E01AE18BF08F7
:1002E000C017D10759F06991D601ED91FC910190A9
:1002F000F081E02DC6010995892B79F7C501DF91C1
:10030000CF911F910F91FF90EF90DF90CF90BF9012
:10031000AF900895FC01538D448D252F30E0842F3C
:1003200090E0821B930B541710F0CF96089501971D
:100330000895FC01918D828D981761F0A28DAE0F0A
:10034000BF2FB11D5D968C91928D9F5F9F73928F91
:1003500090E008958FEF9FEF0895FC01918D828DBD
:10036000981731F0828DE80FF11D858D90E008958A
:100370008FEF9FEF0895FC01918D228D892F90E0E2
:10038000805C9F4F821B91098F739927089582E3A8
:1003900094E00E94BB0121E0892B09F420E0822F28
:1003A000089580E090E0892B29F00E94C701811117
:1003B0000C9400000895FC01A48DA80FB92FB11D65
:1003C000A35ABF4F2C91848D90E001968F7399278B
:1003D000848FA689B7892C93A089B1898C91837069
:1003E00080648C93938D848D981306C00288F38962
:1003F000E02D80818F7D80830895EF92FF920F938F
:100400001F93CF93DF93EC0181E0888F9B8D8C8DC0
:1004100098131AC0E889F989808185FF15C09FB7B4
:10042000F894EE89FF896083E889F9898081837077
:10043000806480839FBF81E090E0DF91CF911F9126
:100440000F91FF90EF900895F62E0B8D10E00F5F47
:100450001F4F0F731127E02E8C8D8E110CC00FB61D
:1004600007FCFACFE889F989808185FFF5CFCE01B5
:100470000E94DB01F1CFEB8DEC0FFD2FF11DE35A54
:10048000FF4FF0829FB7F8940B8FEA89FB89808138
:100490008062CFCFCF93DF93EC01888D8823B9F0B2
:1004A000AA89BB89E889F9898C9185FD03C080817F
:1004B00086FD0DC00FB607FCF7CF8C9185FFF2CFFC
:1004C000808185FFEDCFCE010E94DB01E9CFDF9176
:1004D000CF910895009741F0DC015896ED91FC9181
:1004E00004A0F5A1E02D09940895009741F0DC01E6
:1004F0005896ED91FC9100A0F1A1E02D099486E1C0
:1005000090E090933205809331058FEF9FEF08952F
:10051000CF93DF93EC01288539854A855B85A8EE6A
:10052000B3E00E94030E0E942A018C859D858230D3
:10053000910538F0880F991F880F991F059701972B
:10054000F1F7DF91CF91089581E00895FC01808D4E
:10055000882349F084859585DC01ED91FC9101901B
:10056000F081E02D099481E090E09383828390E014
:1005700080E00895DC011C968D919C91DC01ED9149
:10058000FC910680F781E02D0994DC011C968D9189
:100590009C91DC01ED91FC910284F385E02D09949E
:1005A000DC011C968D919C91DC01ED91FC91048401
:1005B000F585E02D0994DC011C968D919C91DC0160
:1005C000ED91FC910084F185E02D09940F931F9328
:1005D000CF93DF938C01FC01C485D585E881F98137
:1005E0000680F781E02DCE010995EA89FB8980819B
:1005F0008F7E8083EA89FB898081877F8083EA8977
:10060000FB8980818F778083EA89FB8980818F7D58
:1006100080838A8D898FF8018089918997FD08C030
:1006200060E00E94880060E0F80180890E94D400A8
:10063000F8018289938997FD0CC060E00E948800D0
:1006400060E0F8018289DF91CF911F910F910C94A6
:10065000D400DF91CF911F910F9108958F929F92B7
:10066000AF92BF92DF92EF92FF920F931F93CF93BF
:10067000DF93EC014A015B01D22E898E9A8EAB8EFC
:10068000BC8E2D8F3E8F8C899D89009709F08C013F
:100690000C8B1D8B8E899F89009709F07C01EE8A57
:1006A000FF8A8889998997FD07C061E00E94D4007C
:1006B00060E088890E9488008A899B8997FD07C02D
:1006C00061E00E94D40061E08A890E948800188E4F
:1006D0000C84DD85C02DE889F98982E0808381144E
:1006E00081EE9806A104B104A1F060E079E08DE309
:1006F00090E0A50194010E94540E21503109410956
:1007000051095695479537952795211580E138076A
:1007100098F0E889F989108260E874E88EE190E049
:10072000A50194010E94540E21503109410951093B
:100730005695479537952795EC85FD853083EE8551
:10074000FF852083188EEC89FD89D082EA89FB8998
:10075000808180618083EA89FB89808188608083D1
:10076000EA89FB89808180688083EA89FB898081AE
:100770008F7D8083DF91CF911F910F91FF90EF903C
:10078000DF90BF90AF909F908F900895EF92FF926F
:100790000F931F93DC01ED91FC910488F589E02D06
:1007A000A2E3EA2EF12C02E310E009951F910F91CC
:1007B000FF90EF900895EF92FF920F931F93DC014B
:1007C000ED91FC910488F589E02D7801890126E0FE
:1007D00030E009951F910F91FF90EF900895EF92EF
:1007E000FF920F931F93DC01ED91FC910488F58932
:1007F000E02D22E3E22EF12C02E310E026E030E0CF
:1008000009951F910F91FF90EF90089590E080E07F
:1008100008950E94A10FFB0101900020E9F7319794
:10082000AF01461B570BDC01ED91FC910280F38177
:10083000E02D09948F929F92AF92BF92EF92FF9218
:100840000F931F93CF93DF93CDB7DEB7A1970FB66A
:10085000F894DEBF0FBECDBF7C01FA01CB0119A217
:10086000223008F42AE08E010F5D1F4F822E912C5A
:10087000B12CA12CBF01A50194010E94540EF901D5
:10088000CA016A300CF5605DD8016E938D01232B8F
:10089000242B252B79F790E080E0109721F0BD0103
:1008A000C7010E940B04A1960FB6F894DEBF0FBEDD
:1008B000CDBFDF91CF911F910F91FF90EF90BF902F
:1008C000AF909F908F900895695CDECF8F929F923A
:1008D000AF92BF92CF92DF92EF92FF920F931F934E
:1008E000CF93DF937C01EB016C0182E0C80ED11C39
:1008F0004701E5E08E0E911C10E000E0F601419109
:100900006F0150E070E060E02AE0CE010E941A041E
:100910005C01E881F9810190F081E02D6EE2CE0169
:1009200009958A0D9B1D080F191FC814D90431F7AA
:10093000F701458150E070E060E02AE0CE010E94BE
:100940001A04800F911FDF91CF911F910F91FF909B
:10095000EF90DF90CF90BF90AF909F908F900895D1
:10096000BF92CF92DF92EF92FF920F931F93CF939C
:10097000DF93CDB7DEB7EC84FD84CE84DF84B88806
:100980000A891B89D70114968D919C91892B59F066
:10099000AE01485E5F4F6E897F89809137059091E7
:1009A00038050E94AF0F8C899D89892B31F0C701D2
:1009B0000E948802C7010E947502F601828193811C
:1009C00080589F4F93838283D7015896ED91FC9175
:1009D0000484F585E02DB801C6010995F801E80FFA
:1009E000F91FB0820196DF91CF911F910F91FF9077
:1009F000EF90DF90CF90BF9008952F923F924F924B
:100A00005F926F927F928F929F92AF92BF92CF929E
:100A1000DF92EF92FF920F931F93CF93DF93CDB7A7
:100A2000DEB7C851D2400FB6F894DEBF0FBECDBFBF
:100A3000FC01A281B381109749F486E190E0909384
:100A400032058093310590E080E059C45C017E015D
:100A5000FBEFEF1AFEEFFF0A5896ED91FC915997C4
:100A60000488F589E02DB701CD01099518161906FE
:100A700054F7D50112966D907C90C55FDD4F998338
:100A80008883CB50D24086E190E06114710409F470
:100A900030C4D3015896ED91FC91C280D380A4E07C
:100AA000B1E0AC0FBD1FAC0DBD1D8C91282F30E007
:100AB000CD5EDD4F39832883C351D240A7014C0D51
:100AC0005D1DC15FDD4F59834883CF50D240DA01AD
:100AD0009C90092D10E0A6E0B1E0AC0FBD1FAC0D5D
:100AE000BD1D4C90512C542C4424A7E0B1E0AC0F18
:100AF000BD1FAC0DBD1D8C91480E511C1E01BBEFDE
:100B00002B1ABDEF3B0AD10111963C932E931396FD
:100B10001C930E9312970684F785E02DBE01655F46
:100B20007D4FC7010995F10195838483EFEFE90DAE
:100B3000E73108F0B3C5F0E0E056FA4F0C94760EBA
:100B4000B705B705E606E6067707CF0777094E0B28
:100B50004E0B4E0B4E0B4E0B4E0B4E0B0408C808A3
:100B600046094E0B4E0B4E0B4E0B9909E509023010
:100B7000110509F04CC0D5011A964D915C911B9757
:100B800018962D913C9119975696AD90BC908AE697
:100B900091E0E8E0F1E0EC0FFD1FEC0DFD1DE080C1
:100BA000F12CFE2CEE24E9E0F1E0EC0FFD1FEC0D42
:100BB000FD1D6081E60EF11CB70161507109603DB9
:100BC000774078F127E02F9320ED2F939F938F9319
:100BD000FF92EF928EE991E09F938F931F9281E0B5
:100BE0008F9321E030E02C0F3D1F3F932F931F92F6
:100BF00083E08F933F922F927F926F920E94B00476
:100C00008C010FB6F894DEBF0FBECDBF67C0F501F3
:100C10004681578124813581A488B58880E691E09A
:100C2000B8CF6201C41AD50AD7FC08C047018C0CA2
:100C30009D1C28153905ACF44E0C5F1C9F938F93B7
:100C40005F924F9286EC91E09F938F931F921F9239
:100C500061E070E06C0F7D1F7F936F931F9282E0C5
:100C60000FC2D3015896ED91FC910484F585E02DD7
:100C7000BE016F5F7F4FC10109958C010F5F1F4F50
:100C8000E1E0F0E0EC0FFD1F8E0F9F1F21E0A701B8
:100C900047705527452B09F420E0F3E0F594E794DD
:100CA000FA95E1F7E20EDC01EC92F501EC0DFD1D89
:100CB00030E020E090E080E0AF014A195B09481580
:100CC00059050CF46AC0892B49F0E1E0F0E0EC0F23
:100CD000FD1FE00FF11F20830F5F1F4FCD5EDD4F23
:100CE00028813981C351D240232B09F406C3D30193
:100CF0005896ED91FC910088F189E02DB801CE0164
:100D0000019609957C01D3015896ED91FC910288DA
:100D1000F389E02DA701BE016F5F7F4FC3010995E5
:100D20008B016F3F7F4F39F5F301868181FF23C02F
:100D3000C0903105D0903205F2EFCF16FDE2DF060C
:100D400009F0BCC4D3015896ED91FC91068CF78D47
:100D5000E02DC3010995C3010E948802D301589672
:100D6000ED91FC91048CF58DE02DC3010995D09295
:100D70003205C0923105F301868181FF03C00F3F28
:100D8000100709F2101611060CF0B7C2E016F106B2
:100D900009F4B3C28FEE9BE2ACC2419150E0082E41
:100DA00002C0440F551F0A94E2F7242B352B8730DD
:100DB000910551F4A1E0B0E0AC0FBD1FA00FB11F31
:100DC0002C930F5F1F4F74CF019676CF043011051F
:100DD000B1F5F5014685578524853585808C918C44
:100DE0008AE791E0E8E0F1E0EC0FFD1FEC0DFD1D5E
:100DF000008110E0102F0027E9E0F1E0EC0FFD1F6B
:100E0000EC0DFD1D6081060F111DB80161507109C7
:100E1000FE0131966F016D37710500F11F922DE7CC
:100E20002F939F938F931F930F938EE991E09F933E
:100E30008F931F9281E08F93FF93EF93D8CED501CC
:100E400052964D915C91539750962D913C915197AC
:100E50005A968D909C908FE891E0C4CF7201E41A6D
:100E6000F50A5701F7FC07C0E00EF11E2E153F05ED
:100E70007CF4400E511E9F938F935F924F9286ECAD
:100E800091E09F938F931F921F92DF92CF92E6CEB5
:100E9000D3015896ED91FC910484F585E02DB601BF
:100EA000C1010995F601E80FF91F000F00839501B4
:100EB000220F331F820E931E0196F601E80FF91FD1
:100EC0008F010C191D09AE14BF040CF007CFD4011B
:100ED00011968C91B2E08B0E911C8083D4011297F5
:100EE0008C9181832FEFA21AB20A3296E9CFD501F5
:100EF00016968D919C911797A201481B590BCE0114
:100F0000019657FD06C014962D913C914217530748
:100F10004CF05F924F9228EE31E03F932F931F9257
:100F20001F92B1C1E8E0F1E0EC0FFD1FEC0DFD1DDB
:100F3000208130E0322F2227E9E0F1E0EC0FFD1FA5
:100F4000EC0DFD1D6081260F311D2115FFEF3F07C0
:100F500019F021153105B1F4D5015496ED91FC91AC
:100F6000E40FF51F41E0232B09F440E04083C55F07
:100F7000DD4F08811981CB50D240A801B7010E94F2
:100F8000A60FACCE5F924F923F932F9321E132E0B8
:100F90003F932F931F921F929F938F936FC0D50102
:100FA00052968D919C9153979201281B390BCE013B
:100FB000019637FD07C050964D915C9151972417CB
:100FC00035072CF05F924F922FE432E0A6CF220F2C
:100FD000331F5A96ED91FC91E20FF31FA8E0B1E0A8
:100FE000AC0FBD1FAC0DBD1D2C9130E0322F222760
:100FF000A9E0B1E0AC0FBD1FAC0DBD1D4C91240F9D
:10100000311D31832083B3CFE8E0F1E0EC0FFD1F09
:10101000EC0DFD1D808190E0982F8827E9E0F1E03C
:10102000EC0FFD1FEC0DFD1D2081820F911D9C0119
:1010300021503109203B374070F4EAE0F1E0EC0F39
:10104000FD1FEC0DFD1D2081E8E02E9F9001112475
:1010500028173907ECF427E02F9320EB2F939F9369
:101060008F938DE792E09F938F931F9281E08F93F0
:1010700021E030E02C0F3D1F3F932F931F9283E020
:101080008F933F922F927F926F920E94B004B8CDBF
:10109000D50116962D913C911797F201E21BF30BA7
:1010A0009F01F7FD0CC0BC016E0F7F1F14964D9180
:1010B0005C91159746175707D4F4480E591E5F9256
:1010C0004F9281EB92E09F938F931F921F9221E0AA
:1010D00030E02C0F3D1F3F932F931F9282E08F93A0
:1010E0003F922F927F926F920E94B00489CD56E07A
:1010F000C50ED11C54960D911C91200F311FF90182
:1011000050E040E081E090E08C0F9D1FC80ED91E9A
:10111000CF01801B910B86179707F0F0D3015896EB
:10112000ED91FC910484F585E02DBE016F5F7F4F4A
:10113000C1010995A1E0B0E0AC0FBD1FA80FB91F18
:10114000F701E80FF91F24E001900D922A95E1F7CD
:101150008C010C5F1F4FC2CDCF01821B930BA3E00C
:1011600096958795AA95E1F78C0D9D1D8C5F9E4FF6
:10117000DC018C9190E0042E02C0959587950A942D
:10118000E2F7817081934F5F5F4F47705527C0CF63
:10119000E8E0F1E0EC0FFD1FEC0DFD1D208130E0DB
:1011A000322F2227E9E0F1E0EC0FFD1FEC0DFD1DD1
:1011B0008081280F311DC90101978B37910570F48B
:1011C000EAE0F1E0EC0FFD1FEC0DFD1D8081B8E0C1
:1011D0008B9FC0011124821793077CF41F928BE729
:1011E0008F933F932F938BED92E09F938F931F925A
:1011F00081E08F93CE010196CFCED50152968D918D
:101200009C915397F201E81BF90BCF01F7FD31C018
:10121000A9014E0F5F1F50966D917C916417750761
:1012200034F1C15FDD4FE881F981CF50D2409C019C
:10123000220F331F2E193F092C193D0984179507DA
:101240000CF06CCFD5015A966D917C91DB01A20F09
:10125000B31FAE0FBF1F668170E0762F6627178120
:10126000610F711D6D937C9301963296E7CF420E0C
:10127000531E5F924F9284E193E09F938F931F924E
:101280001F92CE0101969F938F9327CFD30158963B
:10129000ED91FC910484F585E02DBE016F5F7F4FD9
:1012A000C1010995FE01E80FF91F24EB2283FE011D
:1012B000E80FF91F2FEF2383DC011396E1E0F0E044
:1012C000EC0FFD1FAE0FBF1F28E0E3E4F3E0019039
:1012D0000D922A95E1F78C01055F1F4FE1E0F0E0E8
:1012E000EC0FFD1FE80FF91F8AE08083F7CC8DE635
:1012F00090E0909332058093310581E090E0C85EE4
:10130000DD4F0FB6F894DEBF0FBECDBFDF91CF919A
:101310001F910F91FF90EF90DF90CF90BF90AF9013
:101320009F908F907F906F905F904F903F902F9005
:101330000895D50152968D919C915397F201E81B27
:10134000F90BCE010196F7FD3DCE50962D913C91C3
:101350005197E217F3070CF035CEEE0FFF1F5A96A8
:101360002D913C91E20FF31FAAE0B1E0AC0FBD1F3D
:10137000AC0DBD1D2C9130E0322F2227ABE0B1E047
:10138000AC0FBD1FAC0DBD1D4C91240F311DA8E04D
:10139000B1E0AC0FBD1FAC0DBD1D4C91642F70E0D2
:1013A000762F6627A9E0B1E0AC0FBD1FAC0DBD1DC7
:1013B0004C91460F572F511D608171816227732711
:1013C00046235723242735271CCEE8E0F1E0EC0F15
:1013D000FD1FEC0DFD1D808190E0982F8827E9E02E
:1013E000F1E0EC0FFD1FEC0DFD1D2081FC01E20F73
:1013F000F11DC35FDD4FF983E883CD50D240ECE0AF
:10140000F1E0EC0FFD1FEC0DFD1D808190E0982FA9
:101410008827EDE0F1E0EC0FFD1FEC0DFD1D2081B4
:10142000820F911D9C0121503109DE01119629374F
:101430003105C0F4C35FDD4F28813981CD50D240E2
:10144000215031092D37310568F4EEE0F1E0EC0F61
:10145000FD1FEC0DFD1D40819C01220F331F421723
:10146000130639F11F922DE72F931F9229E72F932F
:10147000C25FDD4FF881CE50D240FF93C35FDD4F96
:101480002881CD50D2402F939F938F938CE493E08B
:101490009F938F931F9281E08F93BF93AF931F927F
:1014A00083E08F933F922F927F926F920E94B004BD
:1014B000A7CBEAE0F1E0EC0FFD1FEC0DFD1D208154
:1014C00030E0322F2227EBE0F1E0EC0FFD1FEC0DB6
:1014D000FD1D4081240F311DF50142895389820190
:1014E000041B150BCF5EDD4F19830883C151D24019
:1014F000B901641B750BAB014B0117FDE6C0C35F5F
:10150000DD4FE881F981CD50D240E00FF11FCB5E75
:10151000DD4FF983E883C551D240F50160897189B7
:10152000CB5EDD4FE881F981C551D2406E177F0750
:10153000FCF057FD1FC0AC01480D591DC95EDD4FC1
:1015400059834883C751D24064177507E4F4280FC4
:10155000391F17FF0FC03F932F935F924F9288E977
:1015600093E09F938F931F921F92BF93AF9376CB7D
:1015700057FFEDCFC35FDD4F68817981CD50D240F9
:10158000460E571EE8CFF301808D918DFC01248516
:1015900035857D01BD01CE018B5F9D4FF901099518
:1015A000F701E80FF91FC35FDD4F2881CD50D2400E
:1015B000220F2083C15FDD4FE881F981CF50D240F7
:1015C000AE014B5F5E4F9401220F331F241B350B7E
:1015D0002C193D09C95EDD4F48815981C751D24060
:1015E000841695060CF443C0F701E80FF91F980123
:1015F000220F331F2E193F09B901681B790BCB014C
:1016000041E050E04E195F098A010E0F1F1FCB5EAB
:10161000DD4F68817981C551D240CF5EDD4FA88111
:10162000B981C151D240A617B7070CF057CBBC0106
:101630006E0F7F1FD5015A962D913C91DB01A20FB1
:10164000B31F11962C91119721832C912283CF5E89
:10165000DD4F28813981C151D2402F5F3F4FCF5E8E
:10166000DD4F39832883C151D2403296CDCFD50189
:101670005A964D915C91DA01A20FB31FAE0FBF1FB6
:10168000428550E0542F44276385460F511D4D93EA
:101690005C93BFEF8B1A9B0A32969CCF1F929F924E
:1016A00089EE93E09F938F931F9281E08F939E0129
:1016B0002F5F3F4F3F932F931F9211CDC3010E9485
:1016C0008802C3010E94750252CB77FF40CF43CFFF
:1016D000CF93DF93EC018CE191E0998388838C892F
:1016E0009D89009711F00E94180F8E899F8900979D
:1016F00011F00E94180F888D998D009711F00E94AB
:10170000180F8A8D9B8D009711F00E94180F8A8107
:101710009B81009721F0DF91CF910C946A02DF91B9
:10172000CF910895CF93DF93EC010E94680BCE0117
:10173000DF91CF910C94180FCF93DF93EC0180E3EE
:1017400091E0998388838B899C89009711F00E948E
:10175000180F8A819B81009721F0DF91CF910C9423
:101760006A02DF91CF910895CF93DF93EC010E943D
:101770009C0BCE01DF91CF910C94180F28E331E040
:10178000FC01318320830C949C0BCF93DF93EC01FD
:101790000E94BE0BCE01DF91CF910C94180F1F92C7
:1017A0000F920FB60F9211242F933F938F939F9315
:1017B000AF93BF938091180490911904A0911A04DB
:1017C000B0911B043091170423E0230F2D3758F5F7
:1017D0000196A11DB11D20931704809318049093C6
:1017E0001904A0931A04B0931B0480911C049091D7
:1017F0001D04A0911E04B0911F040196A11DB11DEE
:1018000080931C0490931D04A0931E04B0931F04A6
:10181000BF91AF919F918F913F912F910F900FBEEC
:101820000F901F90189526E8230F0296A11DB11D59
:10183000D2CF1F920F920FB60F9211242F933F9386
:101840004F935F936F937F938F939F93AF93BF93C8
:10185000EF93FF9382E394E00E94DB01FF91EF910D
:10186000BF91AF919F918F917F916F915F914F91B8
:101870003F912F910F900FBE0F901F9018951F92C0
:101880000F920FB60F9211242F938F939F93EF9384
:10189000FF93E0914204F09143048081E091480479
:1018A000F091490482FD1BC0908180914B048F5FB1
:1018B0008F7320914C04821741F0E0914B04F0E0CB
:1018C000EE5CFB4F958F80934B04FF91EF919F91BE
:1018D0008F912F910F900FBE0F901F9018958081C0
:1018E000F4CF84EF94E00E94BE0B83E195E00C946A
:1018F000680B0F931F93CF93DF93E2E3F4E013821F
:10190000128248EE53E060E070E0448355836683C2
:1019100077838AE091E09183808385EC90E09587DE
:10192000848784EC90E09787868780EC90E0918BA9
:10193000808B81EC90E0938B828B82EC90E0958B96
:10194000848B86EC90E0978B868B118E128E138E93
:10195000148EA0E2B4E08EE591E011969C938E93F4
:1019600012961C92129713961C92139714961C921F
:10197000149715961C92A6E2B4E011969C938E9350
:1019800012961C92129713961C92139714961C92FF
:10199000149715961C92ACE2B4E011969C938E932A
:1019A00012961C92129713961C92139714961C92DF
:1019B000149715961C92C3E1D5E01B821A8207E1A9
:1019C00015E028E1D8011D922A95E9F726E231E0D9
:1019D00039832883AFECB4E0BD8FAC8FC4EFD4E083
:1019E0001B821A824C835D836E837F8319861886DF
:1019F0001A861C8A1B8A1E8A1D8A188E1F8A1A8EB6
:101A0000198E1C8E1B8E28E331E039832883BE8F0C
:101A1000AD8F13961C921E92129714964D935D9360
:101A20006D937C93179720E431E011963C932E93AD
:101A30001D96FC93EE931C9721E030E01F963C939B
:101A40002E931E9722E030E051963C932E935097B0
:101A50002FEF3FEF53963C932E93529755961C923F
:101A60001E92549757961C921E92569758961C9207
:101A7000EEEEF4E091838083128213821482158249
:101A8000DF91CF911F910F910895789484B5826072
:101A900084BD84B5816084BD85B5826085BD85B512
:101AA000816085BD80916E00816080936E00109290
:101AB000810080918100826080938100809181000B
:101AC000816080938100809180008160809380009C
:101AD0008091B10084608093B1008091B0008160FA
:101AE0008093B00080917A00846080937A00809126
:101AF0007A00826080937A0080917A00816080937E
:101B00007A0080917A00806880937A001092C100F8
:101B10001092DE041092DD0489E090E09093E004DE
:101B20008093DF049093E2048093E10440E855E25F
:101B300060E070E08FEC94E00E94EF0361E082E0EF
:101B40000E94D400C0E0D0E08091DF049091E004D6
:101B500097FD13C061E00E9488008091E30490919A
:101B6000E404009751F08130910539F0880F991FF6
:101B7000880F991F05970197F1F781E08093E7049B
:101B80006EE074E08FEC94E00E940B0463E174E07B
:101B90008FEC94E00E940B048091DB049091DC04B4
:101BA000DC01ED91FC910680F781E02D0995809193
:101BB000DF049091E00497FD13C0E091E504F091FB
:101BC000E604309751F0E130F10539F0EE0FFF1FD8
:101BD000EE0FFF1F35973197F1F760E00E94880004
:101BE0001092E70468EE73E080E090E00E942A0122
:101BF000209709F4A9CF0E94C701882309F4A4CF34
:101C00000E940000A1CF0E94450EA59F900DB49F99
:101C1000900DA49F800D911D112408952F923F9245
:101C20004F925F926F927F928F929F92AF92BF92EC
:101C3000CF92DF92EF92FF920F931F93CF93DF9398
:101C4000CDB7DEB7CA1BDB0B0FB6F894DEBF0FBEF5
:101C5000CDBF09942A88398848885F846E847D8442
:101C60008C849B84AA84B984C884DF80EE80FD8044
:101C70000C811B81AA81B981CE0FD11D0FB6F894BA
:101C8000DEBF0FBECDBFED010895A29FB001B39F8F
:101C9000C001A39F700D811D1124911DB29F700D75
:101CA000811D1124911D0895A1E21A2EAA1BBB1BB0
:101CB000FD010DC0AA1FBB1FEE1FFF1FA217B30718
:101CC000E407F50720F0A21BB30BE40BF50B661F2E
:101CD000771F881F991F1A9469F7609570958095F2
:101CE00090959B01AC01BD01CF010895EE0FFF1F40
:101CF0000590F491E02D09940F931F93CF93DF93F8
:101D00008230910510F482E090E0E0913B05F09183
:101D10003C0530E020E0B0E0A0E0309799F42115D8
:101D2000310509F44AC0281B390B24303105D8F598
:101D30008A819B816115710589F1FB0193838283FF
:101D4000FE0111C04081518102811381481759075A
:101D5000E0F04817590799F4109761F012960C9328
:101D6000129713961C933296CF01DF91CF911F915A
:101D70000F91089500933B0510933C05F4CF211576
:101D8000310551F04217530738F0A901DB019A01E0
:101D9000BD01DF01F801C1CFEF01F9CF90933C0500
:101DA00080933B05CDCFFE01E20FF31F819391930A
:101DB0002250310939832883D7CF209139053091BA
:101DC0003A05232B41F42091020130910301309315
:101DD0003A05209339052091000130910101211528
:101DE000310541F42DB73EB74091040150910501F2
:101DF000241B350BE0913905F0913A05E217F30702
:101E0000A0F42E1B3F0B2817390778F0AC014E5F6A
:101E10005F4F2417350748F04E0F5F1F50933A0568
:101E200040933905819391939FCFF0E0E0E09CCF00
:101E3000CF93DF930097E9F0FC013297138212826F
:101E4000A0913B05B0913C05ED0130E020E01097FA
:101E5000A1F420813181820F931F209139053091A7
:101E60003A052817390709F061C0F0933A05E09365
:101E70003905DF91CF910895EA01CE17DF07E8F524
:101E80004A815B819E0141155105B1F7E901FB8350
:101E9000EA8349915991C40FD51FEC17FD0761F4EE
:101EA000808191810296840F951FE901998388832F
:101EB000828193819B838A83F0E0E0E012968D918A
:101EC0009C9113970097B9F52D913C911197CD01F5
:101ED0000296820F931F2091390530913A052817F9
:101EE000390739F6309751F510923C0510923B05B1
:101EF000B0933A05A0933905BCCFD383C283408108
:101F00005181840F951FC817D90761F44E5F5F4F49
:101F100088819981480F591F518340838A819B8111
:101F2000938382832115310509F0B0CFF0933C05EE
:101F3000E0933B059ECFFD01DC01C0CF13821282EE
:101F4000D7CF81E090E0F8940C942D12FB01DC01D6
:101F500002C001900D9241505040D8F70895ABE077
:101F6000B0E0E5EBFFE00C940E0E7C013B018A0132
:101F7000FC0117821682838181FFC8C1CE010196C0
:101F80005C01F7019381F30193FD859193FF8191AA
:101F90003F01882309F453C1853239F493FD8591BB
:101FA00093FF81913F01853229F4B70190E00E94AF
:101FB0009F11E7CF912C212C312CFFE1F31538F044
:101FC0008B3211F190F4803209F1833229F137FC20
:101FD0003CC020ED280F2A3050F536FE20C08AE0A4
:101FE000989E200D1124922E06C08D3291F08033E0
:101FF00071F7689430F8F30193FD859193FF819117
:102000003F018111DACF21C0689431F8689432F829
:10201000F2CF689433F8EFCF689434F8ECCFEAE06D
:102020002E9E200D1124222E689435F8E4CF8E3296
:1020300029F436FC04C1689436F8DDCF8C3619F4E7
:10204000689437F8D8CF8836B1F2982F9F7D955491
:102050009330E0F08336A1F18337C1F1833509F085
:1020600063C02801F2E04F0E511CF801C080D180FE
:10207000692D70E036FC02C06FEF7FEFC6010E9451
:1020800089114C01689437F882010AC00C5F1F4F18
:10209000FFE3F98388248394912C6501E89437F851
:1020A00033FE2DC0522C8114910471F5552009F492
:1020B00068CFB70180E290E00E949F115A94F6CF5A
:1020C000F801808189830E5F1F4FE4CF2801F2E081
:1020D0004F0E511CF801C080D180692D70E036FC94
:1020E00002C06FEF7FEFC6010E9494114C01820184
:1020F000D5CFB70180E290E00E949F112A94281466
:10210000190409F0B0F7CECFF60137FC859137FE00
:1021100081916F01B70190E00E949F1151105A9474
:10212000F1E08F1A9108BFCF843619F0893609F093
:1021300077C0F80137FE6BC0608171818281938125
:102140000C5F1F4FF32DFF763F2E97FF09C0909530
:102150008095709561957F4F8F4F9F4F689437F8AA
:102160002AE030E0A5010E94CF11C82ECA188C2C9D
:10217000432C36FE0CC0E89440F8C91440F434FEF9
:1021800005C032FC03C0F32DFE7E4F2E892C44FE89
:1021900095C0FE01EC0DF11D8081803309F087C0F0
:1021A000242D297E422E842D8870582E43FC95C004
:1021B00040FE8FC09C2C821418F42C0C922C981882
:1021C00044FE91C0B70180E390E00E949F1142FE5F
:1021D00009C088E790E041FE02C088E590E0B701C1
:1021E0000E949F11C91408F48AC0CA94D12C9FEF91
:1021F000C91AD90ACA0CDB1CF60182916F01B7011A
:1022000090E00E949F11AC14BD04B1F74FCF6081E4
:102210007181072E000C880B990B0E5F1F4F92CF18
:10222000D32CE894D4F82AE030E0853739F1232D17
:10223000297FD22E8F3601F148F48835A9F0F701B5
:10224000868197812B96E2E10C942A0E803749F023
:102250008837A9F7D4FE02C06894D2F820E130E0B4
:102260000DC06894D4F8F6CF34FE03C0822F866088
:10227000D82E20E132E002C028E030E0F801D7FE9D
:102280000FC060817181828193810C5F1F4FA50116
:102290000E94CF11C82ECA183D2CE89437F867CF9A
:1022A0006081718190E080E00E5F1F4FF0CF42FCB3
:1022B00002C0839478CF8394839475CF842D8678DD
:1022C00009F471CFF6CFB70180E290E00E949F1130
:1022D00083948214C0F3512C73CF522C581882145B
:1022E00008F46ECFF8CF842D867809F47BCF8BE28B
:1022F00041FE80E247FC8DE2B70190E071CFB7016B
:1023000080E390E00E949F119A946CCF8FEF9FEF33
:1023100099CFFC010590615070400110D8F780956D
:1023200090958E0F9F1F0895FC01615070400190A1
:102330000110D8F7809590958E0F9F1F08950F93E9
:102340001F93CF93DF93182F092FEB018B8181FD12
:1023500009C01FEF0FEF812F902FDF91CF911F91B9
:102360000F91089582FF14C02E813F818C819D8141
:10237000281739073CF4E881F981CF010196998348
:10238000888310838E819F8101969F838E83E3CF04
:10239000E885F985812F0995892BA1F3DACFFA0118
:1023A000AA27283051F1203181F1E8946F936E7F94
:1023B0006E5F7F4F8F4F9F4FAF4FB1E03ED0B4E085
:1023C0003CD0670F781F891F9A1FA11D680F791FC6
:1023D0008A1F911DA11D6A0F711D811D911DA11DD7
:1023E00020D009F468943F912AE0269F11243019E7
:1023F000305D3193DEF6CF010895462F4770405D82
:102400004193B3E00FD0C9F7F6CF462F4F70405D30
:102410004A3318F0495D31FD4052419302D0A9F78B
:10242000EACFB4E0A6959795879577956795BA9585
:10243000C9F700976105710508959B01AC010A2E4B
:1024400006945795479537952795BA95C9F7620F22
:10245000731F841F951FA01D089510E0CDE5D0E0E7
:1024600004C0FE010E94760E2196CE35D107C9F731
:10247000F894FFCF00003D05800000000000FD0142
:102480005D018A014A02BB019901AD010000000013
:1024900009040000000000000000FD04680B920B1E
:1024A000000000009C0BB40B00000000BE0BC50B2D
:1024B00000000000A6025D010604BA02DB02C502AC
:1024C000D002EF03C603DB032E03E602A4020000E2
:1024D00000006604726561645F626974730072650E
:1024E00061645F696E7075745F62697473007265B0
:1024F00061645F696E7075745F7265676973746536
:10250000727300726561645F726567697374657286
:102510007300496C6C6567616C206E62206F662089
:1025200076616C75657320256420696E20257320A3
:10253000286D6178202564290A00496C6C65676103
:102540006C2064617461206164647265737320300F
:102550007825305820696E2025730A00496C6C6517
:1025600067616C2064617461206164647265737377
:1025700020307825305820696E2077726974655F45
:102580006269740A00496C6C6567616C20646174EF
:10259000612076616C756520307825305820696E31
:1025A0002077726974655F62697420726571756500
:1025B00073742061742061646472657373202530C4
:1025C000580A00496C6C6567616C20646174612015
:1025D0006164647265737320307825305820696EA9
:1025E0002077726974655F72656769737465720AD2
:1025F00000496C6C6567616C206E756D6265722058
:102600006F662076616C75657320256420696E2085
:1026100077726974655F6269747320286D617820D0
:102620002564290A00496C6C6567616C20646174DB
:10263000612061646472657373203078253058209E
:10264000696E2077726974655F626974730A004904
:102650006C6C6567616C206E756D626572206F666B
:102660002076616C75657320256420696E20777211
:102670006974655F72656769737465727320286D2C
:102680006178202564290A00496C6C6567616C20BB
:1026900064617461206164647265737320307825AD
:1026A000305820696E2077726974655F726567695A
:1026B00073746572730A004C4D42332E312E340010
:1026C000496C6C6567616C206E62206F6620766174
:1026D0006C75657320285725642C205225642920A9
:1026E000696E2077726974655F616E645F7265619F
:1026F000645F72656769737465727320286D6178B1
:10270000205725642C20522564290A00496C6C65E9
:1027100067616C206461746120726561642061642A
:102720006472657373203078253058206F7220777B
:1027300072697465206164647265737320307825F2
:1027400030582077726974655F616E645F7265618D
:10275000645F7265676973746572730A00556E6BA6
:102760006E6F776E204D6F646275732066756E6351
:1027700074696F6E20636F64653A20307825305835
:0A2780000A0054657374000D0A008E
:107E0000112484B714BE81FFF0D085E080938100F7
:107E100082E08093C00088E18093C10086E0809377
:107E2000C20080E18093C4008EE0C9D0259A86E02C
:107E300020E33CEF91E0309385002093840096BBD3
:107E4000B09BFECF1D9AA8958150A9F7CC24DD24C4
:107E500088248394B5E0AB2EA1E19A2EF3E0BF2EE7
:107E6000A2D0813461F49FD0082FAFD0023811F036
:107E7000013811F484E001C083E08DD089C08234E0
:107E800011F484E103C0853419F485E0A6D080C0E4
:107E9000853579F488D0E82EFF2485D0082F10E0AE
:107EA000102F00270E291F29000F111F8ED06801E7
:107EB0006FC0863521F484E090D080E0DECF843638
:107EC00009F040C070D06FD0082F6DD080E0C81688
:107ED00080E7D80618F4F601B7BEE895C0E0D1E017
:107EE00062D089930C17E1F7F0E0CF16F0E7DF06D8
:107EF00018F0F601B7BEE89568D007B600FCFDCFD4
:107F0000A601A0E0B1E02C9130E011968C91119780
:107F100090E0982F8827822B932B1296FA010C0160
:107F200087BEE89511244E5F5F4FF1E0A038BF0790
:107F300051F7F601A7BEE89507B600FCFDCF97BE46
:107F4000E89526C08437B1F42ED02DD0F82E2BD052
:107F50003CD0F601EF2C8F010F5F1F4F84911BD097
:107F6000EA94F801C1F70894C11CD11CFA94CF0C13
:107F7000D11C0EC0853739F428D08EE10CD085E9AC
:107F80000AD08FE07ACF813511F488E018D01DD067
:107F900080E101D065CF982F8091C00085FFFCCF94
:107FA0009093C60008958091C00087FFFCCF809118
:107FB000C00084FD01C0A8958091C6000895E0E648
:107FC000F0E098E1908380830895EDDF803219F02E
:107FD00088E0F5DFFFCF84E1DECF1F93182FE3DFCA
:107FE0001150E9F7F2DF1F91089580E0E8DFEE27F6
:047FF000FF270994CA
:027FFE00040479
:00000001FF
