:100000000C945D000C9485000C9485000C9468059C
:100010000C9468050C9468050C9485000C9485007C
:100020000C9485000C9485000C9485000C9485003C
:100030000C9485000C9485000C9485000C9485002C
:100040000C94C6040C9485000C9436050C94100591
:100050000C9485000C9485000C9485000C9485000C
:100060000C9485000C94850000000008000201003B
:100070000003040700000000000000000000000072
:10008000250028002B0000000000240027002A0083
:10009000040404040404040402020202020203032E
:1000A0000303030301020408102040800102040836
:1000B0001020010204081020CB0511241FBECFEF31
:1000C000D8E0DEBFCDBF11E0A0E0B1E0EAEEF5E19F
:1000D00002C005900D92A63DB107D9F723E0A6ED29
:1000E000B1E001C01D92AD39B207E1F710E0CDE5F6
:1000F000D0E004C02197FE010E94ED0ACC35D10763
:10010000C9F70E9418060C94F30A0C94000090E0C2
:10011000FC01EC55FF4F249180579F4FFC018491C7
:10012000882399F090E0880F991FFC01EA57FF4F50
:10013000A591B491FC01E458FF4F859194918FB73C
:10014000F894EC91E22BEC938FBF0895482FEFE8E1
:10015000F2E020E08FEF9FEF241791F03191832799
:1001600038E0BC016170772796958795672B21F061
:1001700051E0852750EA9527315099F72F5FECCF52
:10018000089590E0FC01E859FF4F2491FC01EC55E3
:10019000FF4F3491FC01E057FF4FE491EE23C9F08B
:1001A000222339F0233001F1A8F4213019F1223053
:1001B00029F1F0E0EE0FFF1FE458FF4FA591B49135
:1001C0008FB7F894EC91611126C030953E233C9393
:1001D0008FBF08952730A9F02830C9F0243049F79F
:1001E000809180008F7D03C0809180008F77809305
:1001F0008000DFCF84B58F7784BDDBCF84B58F7D62
:10020000FBCF8091B0008F778093B000D2CF8091E8
:10021000B0008F7DF9CF3E2BDACF86E00E94A6009A
:10022000809395029093960280918E028F3F19F0F1
:1002300061E00E94C10080918C0290918D02DC01EE
:10024000ED91FC910280F381E02D48E050E06FE8F1
:1002500072E0099580918C0290918D02DC01ED9104
:10026000FC910680F781E02D099580918E028F3FE9
:1002700019F060E00C94C10008953FB7F8948091A4
:10028000E3019091E401A091E501B091E60126B56A
:10029000A89B05C02F3F19F00196A11DB11D3FBFBE
:1002A000BA2FA92F982F8827BC01CD01620F711D8D
:1002B000811D911D42E0660F771F881F991F4A9587
:1002C000D1F708958F929F92AF92BF92CF92DF9213
:1002D000EF92FF920F931F93CF93DF93082F8FB767
:1002E000F894C090E701D090E801E090E901F09027
:1002F000EA018FBF80918C0290918D02DC01ED911B
:10030000FC910084F185E02D0995892B79F52FB7B3
:10031000F8948091E7019091E801A091E901B091F2
:10032000EA012FBF8C199D09AE09BF0940919703BF
:10033000509198036091990370919A0384179507DF
:10034000A607B707B8F281E080939B0330E020E076
:10035000C901DF91CF911F910F91FF90EF90DF9036
:10036000CF90BF90AF909F908F900895D0E0C0E065
:1003700080918C0290918D02DC01ED91FC910084C2
:10038000F185E02D0995892BA1F00E943D016B01BB
:100390007C0180918C0290918D02DC01ED91FC91A9
:1003A0000284F385E02D0995FE01E857FD4F878310
:1003B00021960E943D016C197D098E099F0980904C
:1003C0008F0390909003A0909103B09092038616B3
:1003D0009706A806B90620F0CF3FD10549F240F2B2
:1003E0000E943D016C197D098E099F09809093033D
:1003F00090909403A0909503B090960368157905AA
:100400008A059B0568F380918C0290918D02DC0136
:10041000ED91FC910084F185E02D0995892B09F07F
:1004200095CF80918F02813009F090CF109190028A
:10043000101741F0802F90E080589F4F1817190631
:1004400009F084CF8C2F82500E94A6009E0122507A
:100450003109C857DD4F4E81F901E857FD4F5781EB
:100460004527542745278417950709F06FCF812F1B
:1004700090E044E850E0043011F045E850E0841783
:10048000950709F065CF8091910280939C035ECF20
:100490008F929F92AF92BF92CF92DF92EF92FF9294
:1004A0004B015C010E943D016B017C010E943D01FA
:1004B0006C197D098E099F09683E7340810591057D
:1004C000A8F321E0821A9108A108B10888EEC80EAD
:1004D00083E0D81EE11CF11C81149104A104B10435
:1004E00029F7FF90EF90DF90CF90BF90AF909F9053
:1004F0008F900895AF92BF92CF92DF92EF92FF92CA
:100500000F931F93CF93DF936C017B018B01040F3B
:10051000151FEB015E01AE18BF08C017D10759F0D7
:100520006991D601ED91FC910190F081E02DC60119
:100530000995892B79F7C501DF91CF911F910F9113
:10054000FF90EF90DF90CF90BF90AF900895FC01A7
:10055000538D448D252F30E0842F90E0821B930B28
:10056000541710F0CF96089501970895FC01918DCE
:10057000828D981761F0A28DAE0FBF2FB11D5D96D1
:100580008C91928D9F5F9F73928F90E008958FEF73
:100590009FEF0895FC01918D828D981731F0828D27
:1005A000E80FF11D858D90E008958FEF9FEF08957E
:1005B000FC01918D228D892F90E0805C9F4F821BE2
:1005C00091098F73992708958BEE91E00E94D802CC
:1005D00021E0892B09F420E0822F089580E090E04B
:1005E000892B29F00E94E40281110C9400000895E7
:1005F000FC01A48DA80FB92FB11DA35ABF4F2C9198
:10060000848D90E001968F739927848FA689B7898E
:100610002C93A089B1898C91837080648C93938D85
:10062000848D981306C00288F389E02D80818F7D28
:1006300080830895EF92FF920F931F93CF93DF93E0
:10064000EC0181E0888F9B8D8C8D98131AC0E8890E
:10065000F989808185FF15C09FB7F894EE89FF89DD
:100660006083E889F98980818370806480839FBF7B
:1006700081E090E0DF91CF911F910F91FF90EF907B
:100680000895F62E0B8D10E00F5F1F4F0F7311278B
:10069000E02E8C8D8E110CC00FB607FCFACFE889C6
:1006A000F989808185FFF5CFCE010E94F802F1CF54
:1006B000EB8DEC0FFD2FF11DE35AFF4FF0829FB73A
:1006C000F8940B8FEA89FB8980818062CFCFCF932A
:1006D000DF93EC01888D8823B9F0AA89BB89E8896A
:1006E000F9898C9185FD03C0808186FD0DC00FB610
:1006F00007FCF7CF8C9185FFF2CF808185FFEDCF8E
:10070000CE010E94F802E9CFDF91CF910895FC015C
:1007100001900020E9F73197AF01481B590BBC014C
:100720008BEE91E00C947A028F929F92AF92BF92DF
:100730000F931F93CF93DF93CDB7DEB7A1970FB67B
:10074000F894DEBF0FBECDBF19A2423008F44AE0D4
:100750008E010F5D1F4F842E912CB12CA12CA50171
:1007600094010E94CB0AE62FB901CA01EA30F4F4E1
:10077000E05DD801EE938D01232B242B252B79F7F7
:1007800090E080E0109719F0CD010E948703A196B8
:100790000FB6F894DEBF0FBECDBFDF91CF911F9192
:1007A0000F91BF90AF909F908F900895E95CE1CF3B
:1007B000CF93DF93BC0190E080E04AE00E94940375
:1007C000EC0182E191E00E9487038C0F9D1FDF9175
:1007D000CF9108954F925F926F927F928F929F92E6
:1007E000AF92BF92CF92DF92EF92FF920F931F933F
:1007F000CF936B017C01742EAC019B010E94C60A51
:10080000882399F085E191E0CF911F910F91FF909E
:10081000EF90DF90CF90BF90AF909F908F907F90A0
:100820006F905F904F900C94870346015701E894B6
:10083000B7F82FEF3FEF4FE75FE7C501B4010E9424
:10084000C60A81110DC02FEF3FEF4FE75FE7C501EB
:10085000B4010E94FC0818161CF489E191E0D4CF81
:100860002FEF3FEF4FE75FE4C701B6010E94540A44
:1008700018161CF48DE191E0C7CF2FEF3FEF4FE743
:100880005FECC701B6010E94FC0887FDF3CF20E0B2
:1008900030E0A901C701B6010E94FC0810E000E0A9
:1008A00087FF0AC06DE28BEE91E00E941A038C0173
:1008B000F7FAF094F7F8F094C0E060E070E080E0C0
:1008C0009FE37C1641F020E030E040E251E40E94DA
:1008D0000109CF5FF6CFA70196010E9490082B0176
:1008E0003C010E9473094B015C014AE00E949403A1
:1008F0007C01E00EF11ECC23C1F1C501B4010E94C0
:10090000A2099B01AC01C301B2010E948F084B01F7
:100910005C016EE28BEE91E00E941A03E80EF91E74
:10092000C15018F120E030E040E251E4C501B401CB
:100930000E94590A2B013C010E9473094B01B12C02
:10094000A12C4AE0C501B4010E949403E80EF91EEF
:10095000C501B4010E94A2099B01AC01C301B2010F
:100960000E948F084B015C01DBCFC701CF911F9123
:100970000F91FF90EF90DF90CF90BF90AF909F903E
:100980008F907F906F905F904F9008951F920F927D
:100990000FB60F9211242F933F938F939F93AF9392
:1009A000BF938091E7019091E801A091E901B09196
:1009B000EA013091E20123E0230F2D3758F501962B
:1009C000A11DB11D2093E2018093E7019093E801FE
:1009D000A093E901B093EA018091E3019091E401D1
:1009E000A091E501B091E6010196A11DB11D809392
:1009F000E3019093E401A093E501B093E601BF9178
:100A0000AF919F918F913F912F910F900FBE0F90BB
:100A10001F90189526E8230F0296A11DB11DD2CF75
:100A20001F920F920FB60F9211242F933F934F9363
:100A30005F936F937F938F939F93AF93BF93EF9346
:100A4000FF938BEE91E00E94F802FF91EF91BF912E
:100A5000AF919F918F917F916F915F914F913F9156
:100A60002F910F900FBE0F901F9018951F920F920D
:100A70000FB60F9211242F938F939F93EF93FF93B1
:100A8000E091FB01F091FC018081E0910102F09185
:100A9000020282FD1BC09081809104028F5F8F73E0
:100AA00020910502821741F0E0910402F0E0E55147
:100AB000FE4F958F80930402FF91EF919F918F914C
:100AC0002F910F900FBE0F901F9018958081F4CF3B
:100AD0001F920F920FB60F9211242F933F938F9373
:100AE0009F93AF93BF93CF93DF93EF93FF93E091E7
:100AF000D801F091D901309749F0A685B785958541
:100B0000868D81FF12C08C91892391F4FF91EF9122
:100B1000DF91CF91BF91AF919F918F913F912F9195
:100B20000F900FBE0F901F9018958C91892371F72D
:100B3000A389B4899C918589809589238C93868922
:100B400097890197F1F7208D318DC685D78588E08B
:100B5000D9011197F1F798818150D1F78091D70190
:100B600090E001968F7399272091D601281779F08C
:100B70009091D7018093D701828D938D0197F1F7E2
:100B8000A389B4898C919589892B8C93BFCF868D4D
:100B90008160868FF1CFEBEEF1E01382128288EE56
:100BA00093E0A0E0B0E084839583A683B78384E0DC
:100BB00091E09183808385EC90E09587848784EC35
:100BC00090E09787868780EC90E0918B808B81EC1A
:100BD00090E0938B828B82EC90E0958B848B86ECFB
:100BE00090E0978B868B118E128E138E148EA8E850
:100BF000B2E044E650E060E070E040939703509329
:100C000098036093990370939A0310929B03109238
:100C10009C031196FC93EE9313961C921E921297CE
:100C20001596FC93EE93149789E016968C9308958D
:100C3000789484B5826084BD84B5816084BD85B5B7
:100C4000826085BD85B5816085BD80916E008160C3
:100C500080936E0010928100809181008260809369
:100C6000810080918100816080938100809180006B
:100C70008160809380008091B10084608093B10096
:100C80008091B00081608093B00080917A00846090
:100C900080937A0080917A00826080937A008091BC
:100CA0007A00816080937A0080917A0080688093D6
:100CB0007A001092C10082E00E948700E0918802D1
:100CC000F0918902309709F488C186E195E0A0E0AF
:100CD000B0E080938F0390939003A0939103B0931F
:100CE000920387E299E0A0E0B0E0809393039093B1
:100CF0009403A0939503B0939603A089B18982E0F1
:100D00008C93A485B5851C92A685B78587E68C93C0
:100D1000108EA489B58986E08C93A289B3898C91C1
:100D200080618C93A289B3898C9188608C93A2890D
:100D3000B3898C9180688C930288F389E02D80813F
:100D40008F7D808380918E028F3F39F00E948700D3
:100D500060E080918E020E94C1000E943D016B0103
:100D60007C0180918C0290918D02DC01ED91FC91CF
:100D70000084F185E02D0995181619067CF40E946F
:100D80003D016B017C0180918C0290918D02DC0110
:100D9000ED91FC910284F385E02D09950E943D01BF
:100DA0006C197D098E099F0900919303109194039A
:100DB000209195033091960360177107820793077E
:100DC00080F2E091FB01F091FC0182E08083E091F0
:100DD000F701F091F8011082E091F901F091FA0128
:100DE0008FEC808310920302E091FF01F0910002EA
:100DF00086E08083E091FD01F091FE0180818061B9
:100E00008083E091FD01F091FE0180818860808304
:100E1000E091FD01F091FE01808180688083E09186
:100E2000FD01F091FE0180818F7D808360E177E29A
:100E300080E090E00E94480211E085E0F82EEE2468
:100E4000EA9404E0C0E0D0E010938F02F0929002A8
:100E50001092910210929202E092930210929402E8
:100E60000E940D0185E00E94620168EB7BE080E05A
:100E700090E00E94480210938F020093900210921B
:100E800091021092920210929302009394020E9497
:100E90000D0184E00E9462010B9781F5809191021F
:100EA000883061F58091920290919302982789276A
:100EB00098279093DB018093DA01809194029091BE
:100EC00095029827892798279093DD018093DC016C
:100ED000809196029091970298278927982790935E
:100EE000DF018093DE01809198029091990298270A
:100EF000892798279093E1018093E00182E191E0B6
:100F00000E94870381E291E00E94870382E191E0E1
:100F10000E94870382E691E00E9487038091DA01B4
:100F20009091DB010E94D80385E791E00E9487033E
:100F30008091DC019091DD010E94D80388E891E066
:100F40000E9487036091DA017091DB018091DC01DE
:100F50009091DD0142E00E94EA0382E191E00E946B
:100F6000870382E191E00E9487038CE991E00E946F
:100F700087038091DE019091DF010E94D8038FEA00
:100F800091E00E9487038091E0019091E1010E942D
:100F9000D80382EC91E00E9487036091DE0170919A
:100FA000DF018091E0019091E10142E00E94EA03BB
:100FB00082E191E00E94870368EE73E080E090E0B8
:100FC0000E944802209709F43FCF0E94E402882340
:100FD00009F43ACF0E94000037CFE0918A02F091E5
:100FE0008B02309709F4AECE86E195E0A0E0B0E048
:100FF00080938F0390939003A0939103B0939203F7
:1010000087E299E0A0E0B0E080939303909394038B
:10101000A0939503B0939603138E128E118E108EAB
:10102000178A168A8DEC90E0958F848F848586319F
:10103000E0F525E530E0378B268B2BEC30E0318F67
:10104000208F20E930E0338F228F90916800883024
:1010500008F456C021E08E3008F420E081E001C0A1
:10106000880F2A95EAF7892B8093680094852DE6EE
:1010700030E0983050F02BE630E09E3030F02CE637
:1010800030E0963110F030E020E0348B238B292FB4
:1010900030E09830B8F581E001C0880F9A95EAF702
:1010A000858B848D958D0197F1F7828D938D892B9A
:1010B00009F448CEA091D801B091D901EA17FB07F5
:1010C00009F440CE109751F05396CD91DC9154978E
:1010D000988155968C91809589238883868D8E7F03
:1010E000868F1092D7011092D601F093D901E09328
:1010F000D801A389B4898C919589892B8C9322CEB0
:1011000084E0B1CF9E3040F42850310981E001C025
:10111000880F2A95EAF7C4CF2E503109F7CF5058DF
:10112000BB27AA270E94A7080C941A0A0E940C0A3F
:1011300038F00E94130A20F039F49F3F19F426F486
:101140000C94090A0EF4E095E7FB0C94030AE92FCE
:101150000E942B0A58F3BA17620773078407950792
:1011600020F079F4A6F50C944D0A0EF4E0950B2EC0
:10117000BA2FA02D0B01B90190010C01CA01A001E9
:101180001124FF27591B99F0593F50F4503E68F144
:101190001A16F040A22F232F342F4427585FF3CF85
:1011A000469537952795A795F0405395C9F77EF456
:1011B0001F16BA0B620B730B840BBAF09150A1F09F
:1011C000FF0FBB1F661F771F881FC2F70EC0BA0F25
:1011D000621F731F841F48F4879577956795B795AD
:1011E000F7959E3F08F0B0CF9395880F08F09927A8
:1011F000EE0F9795879508950E94DF0908F481E026
:1012000008950E9415090C941A0A0E94130A58F0B6
:101210000E940C0A40F029F45F3F29F00C94030A65
:1012200051110C944E0A0C94090A0E942B0A68F37F
:101230009923B1F3552391F3951B550BBB27AA278F
:1012400062177307840738F09F5F5F4F220F331FC9
:10125000441FAA1FA9F335D00E2E3AF0E0E832D091
:1012600091505040E695001CCAF72BD0FE2F29D094
:10127000660F771F881FBB1F261737074807AB0766
:10128000B0E809F0BB0B802DBF01FF2793585F4FDB
:101290003AF09E3F510578F00C94030A0C944E0AE4
:1012A0005F3FE4F3983ED4F3869577956795B795BD
:1012B000F7959F5FC9F7880F911D9695879597F9C8
:1012C0000895E1E0660F771F881FBB1F6217730741
:1012D0008407BA0720F0621B730B840BBA0BEE1F56
:1012E00088F7E09508950E94330A88F09F5798F098
:1012F000B92F9927B751B0F0E1F0660F771F881F1B
:10130000991F1AF0BA95C9F714C0B13091F00E9434
:101310004D0AB1E008950C944D0A672F782F882765
:10132000B85F39F0B93FCCF3869577956795B3955B
:10133000D9F73EF490958095709561957F4F8F4FCA
:101340009F4F0895E89409C097FB3EF490958095CF
:10135000709561957F4F8F4F9F4F9923A9F0F92F7B
:1013600096E9BB279395F695879577956795B795F9
:10137000F111F8CFFAF4BB0F11F460FF1BC06F5FDF
:101380007F4F8F4F9F4F16C0882311F096E911C0F1
:10139000772321F09EE8872F762F05C0662371F012
:1013A00096E8862F70E060E02AF09A95660F771F26
:1013B000881FDAF7880F9695879597F90895990F02
:1013C0000008550FAA0BE0E8FEEF16161706E8070F
:1013D000F907C0F012161306E407F50798F0621B30
:1013E000730B840B950B39F40A2661F0232B242B05
:1013F000252B21F408950A2609F4A140A6958FEF24
:10140000811D811D089597F99F6780E870E060E075
:1014100008959FEF80EC089500240A94161617068D
:1014200018060906089500240A94121613061406D5
:1014300005060895092E0394000C11F4882352F038
:10144000BB0F40F4BF2B11F460FF04C06F5F7F4FF0
:101450008F4F9F4F089557FD9058440F551F59F0D7
:101460005F3F71F04795880F97FB991F61F09F3F91
:1014700079F087950895121613061406551FF2CFBA
:101480004695F1DF08C0161617061806991FF1CF0A
:1014900086957105610508940895E894BB27662731
:1014A0007727CB0197F908950E94DF0908F48FEFA1
:1014B00008950E946C0A0C941A0A0E940C0A38F0D3
:1014C0000E94130A20F0952311F00C94030A0C9447
:1014D000090A11240C944E0A0E942B0A70F3959F5E
:1014E000C1F3950F50E0551F629FF001729FBB271B
:1014F000F00DB11D639FAA27F00DB11DAA1F649FB7
:101500006627B00DA11D661F829F2227B00DA11D69
:10151000621F739FB00DA11D621F839FA00D611DEF
:10152000221F749F3327A00D611D231F849F600D10
:10153000211D822F762F6A2F11249F5750409AF039
:10154000F1F088234AF0EE0FFF1FBB1F661F771FC5
:10155000881F91505040A9F79E3F510580F00C9490
:10156000030A0C944E0A5F3FE4F3983ED4F3869549
:1015700077956795B795F795E7959F5FC1F7FE2B30
:10158000880F911D9695879597F908950E94DF0918
:10159000880B990B0895A1E21A2EAA1BBB1BFD0113
:1015A0000DC0AA1FBB1FEE1FFF1FA217B307E40742
:1015B000F50720F0A21BB30BE40BF50B661F771F9A
:1015C000881F991F1A9469F760957095809590957A
:1015D0009B01AC01BD01CF010895EE0FFF1F0590E7
:0A15E000F491E02D0994F894FFCF78
:1015EA00000000001A037A02A7026703D802B602B3
:1015FA00CA020D0A006E616E00696E66006F766639
:10160A00002D2D2D2D2D2D2D2D2D2D2D2D2D2D2D2D
:10161A002D2D2D2D2D2D2D2D2D2D2D2D2D2D2D2DF0
:10162A002D2D2D2D2D2D2D2D2D2D2D2D2D2D2D2DE0
:10163A002D2D2D2D2D2D2D2D2D2D2D2D2D2D2D2DD0
:10164A002D00496E7075745265676973746572739B
:10165A0020313A2000496E70757452656769737457
:10166A0065727320323A2000466C6F6174205265AD
:10167A006769737465727320313A2000496E707518
:10168A007452656769737465727320333A2000492E
:10169A006E70757452656769737465727320343A33
:1016AA002000466C6F6174205265676973746572B5
:0616BA007320323A20000B
:00000001FF
