:100000000C9463000C948B000C948B000C942405CE
:100010000C9424050C9424050C948B000C948B00F8
:100020000C948B000C948B000C948B000C948B0024
:100030000C948B000C948B000C948B000C948B0014
:100040000C9482040C948B000C94F2040C94CC0459
:100050000C948B000C948B000C948B000C948B00F4
:100060000C948B000C948B000000000024002700EF
:100070002A0000000008000201000003040700003D
:1000800000000000000000000000230026002900FE
:1000900000000000250028002B00040404040404D0
:1000A0000404020202020202030303030303010227
:1000B00004081020408001020408102001020408F6
:1000C00010209C05930811241FBECFEFD8E0DEBF9F
:1000D000CDBF11E0A0E0B1E0E8ECF1E102C0059095
:1000E0000D92A036B107D9F723E0A0E6B1E001C038
:1000F0001D92AE37B207E1F710E0C2E6D0E004C0CF
:100100002197FE010E94D108C136D107C9F70E948C
:1001100068060C94D7080C940000FC01A089B189F2
:1001200082E08C93A485B5851C92A685B7858FEC5B
:100130008C93108EA489B5896C93A289B3898C9114
:1001400080618C93A289B3898C9188608C93A289F9
:10015000B3898C9180688C930288F389E02D80812B
:100160008F7D80830895482FE1E5F2E020E08FEF56
:100170009FEF241791F03191832738E0BC01617023
:10018000772796958795672B21F051E0852750EAD0
:100190009527315099F72F5FECCF089590E0FC013F
:1001A000EE58FF4F2491FC01E255FF4F3491FC01C2
:1001B000E656FF4FE491EE23C9F0222339F02330B5
:1001C00001F1A8F4213019F1223029F1F0E0EE0F0D
:1001D000FF1FE057FF4FA591B4918FB7F894EC91B2
:1001E000611126C030953E233C938FBF0895273080
:1001F000A9F02830C9F0243049F7809180008F7D24
:1002000003C0809180008F7780938000DFCF84B51A
:100210008F7784BDDBCF84B58F7DFBCF8091B0001D
:100220008F778093B000D2CF8091B0008F7DF9CFCF
:100230003E2BDACF86E00E94B30080935702909362
:100240005802809150028F3F19F061E00E94CE0069
:1002500080914E0290914F02DC01ED91FC91028061
:10026000F381E02D48E050E061E572E0099580916E
:100270004E0290914F02DC01ED91FC910680F781D6
:10028000E02D0995809150028F3F19F060E00C94A9
:10029000CE000895CF93DF9390E0FC01E255FF4F2D
:1002A000249186569F4FFC0184918823D1F090E0E1
:1002B000880F991FFC01E859FF4FA591B491FC01EB
:1002C000E057FF4FC591D49161110EC09FB7F894CC
:1002D0008C91E22FE0958E238C932881E223E88392
:1002E0009FBFDF91CF9108958FB7F894EC91E22BE7
:1002F000EC938FBFF6CF3FB7F8948091A501909112
:10030000A601A091A701B091A80126B5A89B05C0A0
:100310002F3F19F00196A11DB11D3FBFBA2FA92F84
:10032000982F8827BC01CD01620F711D811D911D81
:1003300042E0660F771F881F991F4A95D1F70895ED
:100340008F929F92AF92BF92CF92DF92EF92FF92E5
:100350001F93CF93DF93182F8FB7F894C090A90104
:10036000D090AA01E090AB01F090AC018FBF8091DA
:100370004E0290914F02DC01ED91FC910084F185D9
:10038000E02D0995892B71F52FB7F8948091A9017B
:100390009091AA01A091AB01B091AC012FBF8C1933
:1003A0009D09AE09BF094091590350915A036091CC
:1003B0005B0370915C0384179507A607B707B8F233
:1003C00081E080935D0330E020E0C901DF91CF91AF
:1003D0001F91FF90EF90DF90CF90BF90AF909F90D4
:1003E0008F900895D0E0C0E080914E0290914F022E
:1003F000DC01ED91FC910084F185E02D0995892BBC
:10040000A1F00E947B016B017C0180914E029091D2
:100410004F02DC01ED91FC910284F385E02D0995FA
:10042000FE01E65BFD4F878321960E947B016C19DC
:100430007D098E099F098090510390905203A090EE
:100440005303B090540386169706A806B90620F009
:10045000CF3FD10549F240F20E947B016C197D0922
:100460008E099F098090550390905603A0905703E2
:10047000B0905803681579058A059B0568F380914B
:100480004E0290914F02DC01ED91FC910084F185C8
:10049000E02D0995892B09F096CF809151028113A7
:1004A00092CF10915202812F8F77853009F08BCF38
:1004B0008C2F82500E94B3009E0122503109C65BEE
:1004C000DD4F4E81F901E65BFD4F578145275427EB
:1004D00045278417950709F076CF153809F075CFB1
:1004E0008091530280935E036ECFAF92BF92CF9202
:1004F000DF92EF92FF920F931F93CF93DF936C01E4
:100500007B018B01040F151FEB015E01AE18BF08C4
:10051000C017D10759F06991D601ED91FC91019076
:10052000F081E02DC6010995892B79F7C501DF918E
:10053000CF911F910F91FF90EF90DF90CF90BF90E0
:10054000AF900895FC01538D448D252F30E0842F0A
:1005500090E0821B930B541710F0CF9608950197EB
:100560000895FC01918D828D981761F0A28DAE0FD8
:10057000BF2FB11D5D968C91928D9F5F9F73928F5F
:1005800090E008958FEF9FEF0895FC01918D828D8B
:10059000981731F0828DE80FF11D858D90E0089558
:1005A0008FEF9FEF0895FC01918D228D892F90E0B0
:1005B000805C9F4F821B91098F73992708958DEA64
:1005C00091E00E94D30221E0892B09F420E0822FE0
:1005D000089580E090E0892B29F00E94DF028111CC
:1005E0000C9400000895FC01A48DA80FB92FB11D33
:1005F000A35ABF4F2C91848D90E001968F73992759
:10060000848FA689B7892C93A089B1898C91837036
:1006100080648C93938D848D981306C00288F3892F
:10062000E02D80818F7D80830895EF92FF920F935C
:100630001F93CF93DF93EC0181E0888F9B8D8C8D8E
:1006400098131AC0E889F989808185FF15C09FB782
:10065000F894EE89FF896083E889F9898081837045
:10066000806480839FBF81E090E0DF91CF911F91F4
:100670000F91FF90EF900895F62E0B8D10E00F5F15
:100680001F4F0F731127E02E8C8D8E110CC00FB6EB
:1006900007FCFACFE889F989808185FFF5CFCE0183
:1006A0000E94F302F1CFEB8DEC0FFD2FF11DE35A09
:1006B000FF4FF0829FB7F8940B8FEA89FB89808106
:1006C0008062CFCFCF93DF93EC01888D8823B9F080
:1006D000AA89BB89E889F9898C9185FD03C080814D
:1006E00086FD0DC00FB607FCF7CF8C9185FFF2CFCA
:1006F000808185FFEDCFCE010E94F302E9CFDF912B
:10070000CF9108952091A2013091A30128173907B4
:1007100071F49091A0018091A101981741F0E091AE
:10072000A001F0E0E05AFE4F808190E008958FEF45
:100730009FEF08950895EF92FF920F931F93CF9329
:10074000DF93DC015C96ED90FC905D97E114F10481
:1007500079F481E090E013969C938E93129790E049
:1007600080E0DF91CF911F910F91FF90EF9008955E
:100770005196ED91FC91529750968C915097982FED
:1007800090950FB75E962C915E97122F127021FDF7
:100790006095F8942081112319F1282B2083E7011B
:1007A0002197F1F728E0462F50E0308160FF1AC012
:1007B000382B3083E7012197F1F7BA0175956795DA
:1007C000215089F7112381F08081892380830FBF15
:1007D0005C968D919C910197F1F781E090E0C1CFFB
:1007E0002923DCCF3923E5CF9081892BEFCF2091CE
:1007F000A2013091A3012817390761F48091A1016A
:100800002091A00190E0805C9F4F821B91098F7323
:100810009927089590E080E008952091A2013091F9
:10082000A30128173907B9F49091A0018091A10183
:10083000981789F0E091A001F0E0E05AFE4F808126
:100840002091A00130E02F5F3F4F2F73332720937B
:10085000A00190E008958FEF9FEF089590E080E071
:100860000895FC0101900020E9F73197AF01481B82
:10087000590BBC018DEA91E00C9475028F929F9206
:10088000AF92BF920F931F93CF93DF93CDB7DEB795
:10089000A1970FB6F894DEBF0FBECDBF19A24230AC
:1008A00008F44AE08E010F5D1F4F842E912CB12C6D
:1008B000A12CA50194010E94AF08E62FB901CA013D
:1008C000EA30F4F4E05DD801EE938D01232B242B64
:1008D000252B79F790E080E0109719F0CD010E9468
:1008E0003104A1960FB6F894DEBF0FBECDBFDF91E5
:1008F000CF911F910F91BF90AF909F908F900895CF
:10090000E95CE1CF1F920F920FB60F9211242F9343
:100910003F938F939F93AF93BF938091A901909141
:10092000AA01A091AB01B091AC013091A40123E0E8
:10093000230F2D3758F50196A11DB11D2093A40159
:100940008093A9019093AA01A093AB01B093AC014D
:100950008091A5019091A601A091A701B091A80155
:100960000196A11DB11D8093A5019093A601A093AE
:10097000A701B093A801BF91AF919F918F913F9133
:100980002F910F900FBE0F901F90189526E8230F00
:100990000296A11DB11DD2CF1F920F920FB60F92DA
:1009A00011242F933F934F935F936F937F938F9374
:1009B0009F93AF93BF93EF93FF938DEA91E00E94D3
:1009C000F302FF91EF91BF91AF919F918F917F9132
:1009D0006F915F914F913F912F910F900FBE0F90AC
:1009E0001F9018951F920F920FB60F9211242F93FC
:1009F0008F939F93EF93FF93E091BD01F091BE0120
:100A00008081E091C301F091C40182FD1BC09081FF
:100A10008091C6018F5F8F732091C701821741F0CB
:100A2000E091C601F0E0E355FE4F958F8093C6013B
:100A3000FF91EF919F918F912F910F900FBE0F908B
:100A40001F9018958081F4CF1F920F920FB60F92CE
:100A500011242F933F934F935F936F937F938F93C3
:100A60009F93AF93BF93EF93FF93E091A201F09117
:100A7000A301309749F0A685B7858585968D91FFAE
:100A800014C09C918923A1F4FF91EF91BF91AF9184
:100A90009F918F917F916F915F914F913F912F9196
:100AA0000F900FBE0F901F9018959C91892361F7AE
:100AB000A389B4899C918589809589238C938689A3
:100AC00097890197F1F7608D718DA685B78555855A
:100AD00038E020E0CB010197F1F7822F90E0959567
:100AE0008795282F4C91452309F02068315091F7C4
:100AF000868D81FD20958091A10190E001968F73F4
:100B000099273091A001381799F0A091A101B0E088
:100B1000A05ABE4F2C938093A101828D938D019793
:100B2000F1F7A389B4898C919589892B8C93ACCFEB
:100B3000868D8160868FF1CF1092B0011092AF0147
:100B400088EE93E0A0E0B0E08093B1019093B20111
:100B5000A093B301B093B40125E031E03093AE012E
:100B60002093AD0125EC30E03093BA012093B90118
:100B700024EC30E03093BC012093BB0120EC30E04A
:100B80003093BE012093BD0121EC30E03093C001D1
:100B90002093BF0122EC30E03093C2012093C101C9
:100BA00026EC30E03093C4012093C3011092C601BB
:100BB0001092C7011092C8011092C90110926203ED
:100BC000109261038093630390936403A093650381
:100BD000B093660387E191E09093600380935F0395
:100BE0001092760310927503109278031092770397
:100BF00010927A031092790310927C0310927B0377
:100C000060917D036E7F6D7F60937D03669561705B
:100C100081E068278EE00E94CE0061E08EE00E94B5
:100C20004A01ECEBF0E0E491E0936F03E8EAF0E0D6
:100C3000E491F0E0EE0FFF1FE057FF4F8591949194
:100C4000909371038093700360E08FE00E944A01EB
:100C500080917D0381FD04C061E08FE00E94CE00A1
:100C60008FE593E02FE020936B03EDEBF0E0E49150
:100C7000E0936C03E9EAF0E0E491F0E0EE0FFF1F8F
:100C8000EA57FF4F2591349130936E0320936D0303
:100C900044E650E060E070E04093590350935A03FB
:100CA00060935B0370935C0310925D0310925E038C
:100CB00010924B0210924A0290934D0280934C0284
:100CC00090934F0280934E0289E0809350020895E2
:100CD000789484B5826084BD84B5816084BD85B517
:100CE000826085BD85B5816085BD80916E00816023
:100CF00080936E00109281008091810082608093C9
:100D000081008091810081608093810080918000CA
:100D10008160809380008091B10084608093B100F5
:100D20008091B00081608093B00080917A008460EF
:100D300080937A0080917A00826080937A0080911B
:100D40007A00816080937A0080917A008068809335
:100D50007A001092C10061E082E00E944A01609135
:100D6000000182E00E94CE0080914A0290914B02E5
:100D7000009709F413C14CE25AE060E070E0409340
:100D800051035093520360935303709354034FE401
:100D900052E160E070E04093550350935603609336
:100DA00057037093580366E00E948D0080915002B3
:100DB0008F3F41F061E00E944A0160E08091500263
:100DC0000E94CE000E947B014B015C0180914E028B
:100DD00090914F02DC01ED91FC910084F185E02DB2
:100DE0000995181619067CF40E947B014B015C01E1
:100DF00080914E0290914F02DC01ED91FC910284B2
:100E0000F385E02D09950E947B01681979098A090B
:100E10009B0900915503109156032091570330917F
:100E20005803601771078207930780F266E08DEA26
:100E300091E00E948D00FF24F39495E0E92E22E0DA
:100E4000D22E00E010E0C0910001F0925102E09239
:100E5000520210925302109254028C2F819580936B
:100E60005502109256020E941A0181E00E94A001D0
:100E70000697B1F48091530290915402892B81F42A
:100E80008091550290E02FEF30E0C11102C030E0B8
:100E900020E08217930721F4C1E08091560281116E
:100EA000C0E0D0910001D0925102E0925202109223
:100EB0005302109254028D2F819580935502109207
:100EC00056020E941A0182E00E94A001069709F0D2
:100ED0000CC18091530290915402892B09F005C1F5
:100EE0008091550290E02FEF30E0D11102C030E048
:100EF00020E08217930709F0F8C080915602D1E0F4
:100F00008111D0E0CC2309F4F3C0D1E0882309F4A7
:100F1000EFC080910001882309F4E2C01092000123
:100F200085E291E00E94310486E391E00E94310461
:100F30006091000182E00E94CE000E947B012B01A3
:100F40003C0188E8882E83E1982EA12CB12C0E94C8
:100F50007B016419750986099709683E734081050C
:100F60009105A8F3B1E08B1A9108A108B10828EE09
:100F7000420E23E0521E611C711C81149104A104D5
:100F8000B10429F70115110509F45DCF0E94DF02B4
:100F9000882309F458CF0E94000055CFE0914C02FD
:100FA000F0914D02309709F401CF8CE29AE0A0E075
:100FB000B0E08093510390935203A0935303B093F6
:100FC00054038FE492E1A0E0B0E080935503909346
:100FD0005603A0935703B0935803138E128E118EAD
:100FE000108E178A168A8DE991E0958F848F8485FB
:100FF0008631E0F52DEB30E0378B268B2BE931E0A5
:10100000318F208F2CE231E0338F228F9091680056
:10101000883008F456C021E08E3008F420E081E0EA
:1010200001C0880F2A95EAF7892B80936800948580
:101030002DE630E0983050F02BE630E09E3030F076
:101040002CE630E0963110F030E020E0348B238B3A
:10105000292F30E09830B8F581E001C0880F9A95CB
:10106000EAF7858B848D958D0197F1F7828D938DAD
:10107000892B09F49BCEA091A201B091A301EA179C
:10108000FB0709F493CE109751F05396CD91DC9164
:101090005497988155968C91809589238883868D65
:1010A0008E7F868F1092A1011092A001F093A30170
:1010B000E093A201A389B4898C919589892B8C93A3
:1010C00075CE84E0B1CF9E3040F42850310981E0E4
:1010D00001C0880F2A95EAF7C4CF2E503109F7CF07
:1010E000F092000189E391E01DCFD0E0C11111CF52
:1010F0008BE491E00E9431046C2F70E090E080E07E
:101100004AE00E943E0486E391E00E94310485E5B6
:1011100091E00E9431046D2F70E090E080E04AE0A1
:101120000E943E0401CF87E191E090936003809399
:101130005F038091A2019091A3018F55934071F4B8
:10114000E0917203F0917303908180917403809514
:10115000892380831092A3011092A2010895A1E235
:101160001A2EAA1BBB1BFD010DC0AA1FBB1FEE1F21
:10117000FF1FA217B307E407F50720F0A21BB30B6C
:10118000E40BF50B661F771F881F991F1A9469F7E8
:1011900060957095809590959B01AC01BD01CF0144
:1011A0000895EE0FFF1F0590F491E02D099410E0D3
:1011B000C2E6D0E004C0FE010E94D1082196C336E9
:0811C000D107C9F7F894FFCF35
:1011C800010000000015037502A2026203D302B1F8
:1011D80002C502000000009B0375022E049A03F763
:1011E800030D048203536C6176654C454420456EBB
:1011F80061626C6564000D0A00536C6176654C454C
:10120800442044697361626C656400533120436F04
:1012180064653A2000533220436F64653A20000029
:00000001FF
